:020000040000fa
:10000000f0ff0320d1030000330800006108000066
:100010006508000067080000690800000000000093
:100020000000000000000000000000006b0800005d
:1000300063080000000000006b0800006b0800006f
:100040006b0800006b0800006b0800006b080000e4
:100050006b0800006b0800006b0800006b080000d4
:100060006b0800006b0800006b0800006b080000c4
:100070006b0800006b0800006b0800006b080000b4
:100080006b0800006b0800006b0800006b080000a4
:100090006b0800006b0800006b0800006b08000094
:1000a0006b0800006b0800006b0800006b08000084
:1000b0006b0800006b0800006b0800006b08000074
:1000c0006b0800006b0800006b0800006b08000064
:1000d0006b0800006b0800006b0800006b08000054
:1000e0006b0800006b08000000000000000000002a
:1000f000000000006b0800006b0800006b080000a7
:100100006b0800006b0800006b0800006b08000023
:100110006b0800006b0800006b0800006b08000013
:100120006b0800006b0800006b0800006b08000003
:100130006b0800006b0800006b0800006b080000f3
:100140006b0800006b0800006b0800006b080000e3
:100150006b0800006b0800006b0800006b080000d3
:100160006b0800006b0800006b0800006b080000c3
:100170006b0800006b0800006b0800006b080000b3
:100180006b0800006b0800006b0800006b080000a3
:100190006b0800006b0800006b0800006b08000093
:1001a0006b0800006b0800006b0800006b08000083
:1001b0006b0800006b0800006b0800006b08000073
:1001c0006b0800006b0800006b0800006b08000063
:1001d0006b0800006b0800006b0800006b08000053
:1001e0006b0800006b0800006b0800004907000066
:1001f0001d0700006b0800006b0800006b08000082
:100200006b0800006b0800006b0800006b08000022
:100210006b0800006b0800006b0800006b08000012
:100220006b0800006b0800006b0800006b08000002
:100230006b0800006b0800000000000000000000d8
:100240006b0800006b0800006b0800006b080000e2
:100250006b0800006b0800006b0800006b080000d2
:040260006b08000027
:020000040000fa
:10026400f8b500bff8bc08bc9e46704749060000bc
:10027400f8b500bff8bc08bc9e46704725060000d0
:020000040000fa
:10028400494b42f20e229a821a46d36813f0010fa8
:10029400fbd0454b00221a7403f50063434ada622b
:1002a4001a46536813f0200ffbd1414b4322c3f885
:1002b40080201a46d2f8803013f0400ffad03d4b1c
:1002c4003d4a9a621a4600bf92f82c3013f0100f80
:1002d400fad1384b012283f820201a4692f82c30a8
:1002e40013f0040ffad1334b82221a771a4600bf57
:1002f40092f82c3013f0020ffad12d4b2f4a9a6248
:100304001a46536813f0100ffbd1294b4222c3f84d
:1003140084201a46d2f8843013f0400ffad0254bcb
:1003240000229a6377225a631a46d36b13f0040fa0
:10033400fbd1204b022283f830201a46d36b13f0f2
:10034400020ffbd11b4a136c03f00303032bfad1f6
:100354001b4b01225a711a46d37813f0010ffbd0bc
:10036400134b184a1a621a46536813f0040ffbd150
:100374000f4b154a5a621a46536813f0080ffbd103
:100384000b4b4122c3f8a4201a4600bfd2f8a43074
:1003940013f0400ffad00a4b6ff07f421a614cf20f
:1003a400ff725a61704700bf001400400509200025
:1003b400001c0040001000401bb701040609300077
:0c03c400000800400709010007090200c2
:020000040000fa
:1003d00008b5194b9847194b9847eff3108172b63f
:1003e000174ad2f8883043f47003c2f88830bff35c
:1003f0004f8fbff36f8f01b962b6124a936823f033
:10040000010393601346da6812f0010ffbd10d4b24
:1004100024225a6001229a6000f064f90a4b23f00a
:100420007f03074a9360094b9847094b9847094b4c
:10043000984700f011f8fee76d0800006d08000015
:1004400000ed00e000600041000000002905000010
:080450006d0800006d080000ba
:020000040000fa
:1004580080b5002000f08af90021144800f0f4f972
:1004680000f0b0f90021124800f0e8f900f09ef918
:1004780010480025104b4ff4805710494ff4005690
:100488004ff4004407e000bfd3f8a02112f0010f99
:1004980014bf5c619c6102780ab10570df610a785b
:1004a800002af1d00d70de61eee700bfe50700001d
:1004b800f90700008400002000800041850000202a
:020000040000fa
:1004c800154bda6822f4e0621204120c42f0bf62a3
:1004d80042f40032da60bff35f8f62b60f4ae02160
:1004e80082f86b134ff40060d06082f86c134ff4fd
:1004f8008051d1605a6a42f480225a625a6942f0a5
:1005080010025a615a6a42f400325a625a6a42f434
:1005180080325a62704700bf00ed00e000e100e061
:020000040000fa
:100528000e4a38b5002313600d4a0e4c13600e4a6c
:100538000e4d13600e4a13600e4a13600e4a536242
:1005480013610123936000f08ff900f08df9ac423c
:1005580000d338bd54f8043b9847f8e780000020e2
:100568000c00002070020000080000207402000047
:0c05780000000020040000201000002003
:020000040000fa
:10058400124b4ff430421a60002283f84c2083f857
:100594004d2083f84f20012183f8501083f8511027
:1005a40083f8362083f83720cc2083f8380083f88a
:1005b400d61083f8d71083f8bb00022183f8c0114a
:1005c40083f8c11183f8b021704700bf0080004157
:020000040000fa
:1005d400500000201c0000000000000084000020e7
:1005e40002000000000000006c0000201400000065
:1005f4000000000000000020500000000000000087
:100604008000002004000000000000000000000042
:10061400000000006666666666666666666666660e
:020000040000fa
:1006240010b5054c227832b9044b13b10448aff32a
:1006340000800123237010bd500000200000000042
:100644000000000008b5034b1bb103490348aff396
:10065400008008bd000000005400002000000000dd
:020000040000fa
:100664000d4b01221a601a46136913f0010ffbd1d6
:10067400094b10221a6003221a734ff6ff729a83f1
:1006840033229a72054a0021116001225a721a46d5
:100694001369002bfcd17047003c00406c00002023
:020000040000fa
:1006a4000d4b01221a601a46136913f0010ffbd196
:1006b400094b10221a6003221a734ff6ff729a83b1
:1006c40033229a72054a0021116001225a721a4695
:1006d4001369002bfcd170470038004074000020df
:020000040000fa
:1006e40070b50b480b4d4ff6ff76016821b943688e
:1006f40013b900f0baf870bd83684268334000f162
:100704000c0455f823302046984704eb8000ece7ae
:08071400d40500000c080000f0
:020000040000fa
:10071c0008b5084b5b7a63b1064b987ac0b23322aa
:10072c009a72054b1b6823b118b1034b59681b68af
:0c073c00984708bd003c00406c00002005
:020000040000fa
:1007480008b5084b5b7a63b1064b987ac0b233227e
:100758009a72054b1b6823b118b1034b59681b6883
:0c076800984708bd0038004074000020d5
:020000040000fa
:1007740008b500f05df8fff703fffff781fd00f017
:1007840016f8fff76dfffff78bfffff79bfe08bd21
:020000040000fa
:1007940010b50023934206d113f0030018bf0120c3
:0e07a40000eb930010bdc45ccc540133f2e7af
:020000040000fa
:0207b20070478e
:020000040000fa
:1007b400044a136843f002031360136913f0020f31
:0807c400fbd17047003c00402e
:020000040000fa
:1007cc00044a136843f002031360136913f0020f19
:0807dc00fbd17047003800401a
:020000040000fa
:1007e40010f0010f02d0024b01221a70704700bfb3
:0407f400840000205d
:020000040000fa
:1007f80010f0010f02d0024b01221a70704700bf9f
:040808008500002047
:020000040000fa
:10080c0021080000950700005d0800005d0800004d
:04081c005d08000073
:020000040000fa
:100820000a440023914201d10020704701f8013ba6
:02083000f8e7e7
:020000040000fa
:02083200fee7df
:020000040000fa
:10083400024b40f204521a80704700bf004000414e
:020000040000fa
:0c084400014b1860596070476c000020e8
:020000040000fa
:0c085000014b18605960704774000020d4
:020000040000fa
:04085c0000207047c1
:020000040000fa
:02086000fee7b1
:020000040000fa
:02086200fee7af
:020000040000fa
:02086400fee7ad
:020000040000fa
:02086600fee7ab
:020000040000fa
:02086800fee7a9
:020000040000fa
:02086a00fee7a7
:020000040000fa
:02086c007047d3
:020000040000fa
:02086e007047d1
:020000040000fa
:020870007047cf
:020000040000fa
:0200000400807a
:044000003912003c35
:020000040000fa
:0200000400807a
:044004008000a82a66
:020000040000fa
:0200000400807a
:04400800ffffffffb8
:00000001FF
