:020000040000fa
:10000000f0ff032059030000d5070000d7070000c8
:10001000db070000dd070000df0700000000000034
:10002000000000000000000000000000a707000022
:10003000d907000000000000a7070000a707000084
:10004000a7070000a7070000a7070000a7070000f8
:10005000a7070000a7070000a7070000a7070000e8
:10006000a7070000a7070000a7070000a7070000d8
:10007000a7070000a7070000a7070000a7070000c8
:10008000a7070000a7070000a7070000a7070000b8
:10009000a7070000a7070000a7070000a7070000a8
:1000a000a7070000a7070000a7070000a707000098
:1000b000a7070000a7070000a7070000a707000088
:1000c000a7070000a7070000a7070000a707000078
:1000d000a7070000a7070000a7070000a707000068
:1000e000a7070000a70700000000000000000000b4
:1000f00000000000a7070000a7070000a7070000f6
:10010000a7070000a7070000a7070000a707000037
:10011000a7070000a7070000a7070000a707000027
:10012000a7070000a7070000a7070000a707000017
:10013000a7070000a7070000a7070000a707000007
:10014000a7070000a7070000a7070000a7070000f7
:10015000a7070000a7070000a7070000a7070000e7
:10016000a7070000a7070000a7070000a7070000d7
:10017000a7070000a7070000a7070000a7070000c7
:10018000a7070000a7070000a7070000a7070000b7
:10019000a7070000a7070000a7070000a7070000a7
:1001a000a7070000a7070000a7070000a707000097
:1001b000a7070000a7070000a7070000a707000087
:1001c000a7070000a7070000a7070000a707000077
:1001d000a7070000a7070000a7070000a707000067
:1001e000a7070000a7070000a7070000bd06000042
:1001f00091060000a7070000a7070000a70700005e
:10020000a7070000a7070000a7070000a707000036
:10021000a7070000a7070000a7070000a707000026
:10022000a7070000a7070000a7070000a707000016
:10023000a7070000a7070000000000000000000062
:10024000a7070000a7070000a7070000a7070000f6
:10025000a7070000a7070000a7070000a7070000e6
:04026000a7070000ec
:020000040000fa
:10026400f8b500bff8bc08bc9e46704709060000fc
:10027400f8b500bff8bc08bc9e467047e505000011
:020000040000fa
:100284002d4b00221a7403f500632c4a9a621a4615
:10029400536813f0100ffbd1294b4222c3f884207a
:1002a4001a4600bfd2f8843013f0400ffad0254b21
:1002b40000229a6377225a631a46d36b13f0040f11
:1002c400fbd1204b022283f830201a46d36b13f063
:1002d400020ffbd11b4a136c03f00303032bfad167
:1002e400194b01225a711a46d37813f0010ffbd02f
:1002f400134b164a1a621a46536813f0040ffbd1c3
:100304000f4b134a5a621a46536813f0080ffbd175
:100314000b4b4122c3f8a4201a4600bfd2f8a430e4
:1003240013f0400ffad0084b6ff07f421a614cf281
:10033400ff725a61704700bf00140040060130008c
:10034400001c0040001000400008004007010100ac
:04035400070102009b
:020000040000fa
:1003580008b5194b9847194b9847eff3108172b6b7
:10036800174ad2f8883043f47003c2f88830bff3d4
:100378004f8fbff36f8f01b962b6124a936823f0ab
:10038800010393601346da6812f0010ffbd10d4b9d
:1003980024225a6001229a6000f040f90a4b23f0a7
:1003a8007f03074a9360094b9847094b9847094bc5
:1003b800984700f011f8fee7e1070000e1070000a8
:1003c80000ed00e00060004100000000b104000002
:0803d800e1070000e10700004d
:020000040000fa
:1003e00080b5002000f080f90021144800f0eaf9ff
:1003f00000f0a6f90021124800f0def900f094f9af
:1004000010480025104b4ff4805710494ff4005608
:100410004ff4004407e000bfd3f8a02112f0010f11
:1004200014bf5c619c6102780ab10570df610a78d3
:10043000002af1d00d70de61eee700bf5907000021
:100440006d0700008400002000800041850000202e
:020000040000fa
:10045000154bda6822f4e0621204120c42f0bf621b
:1004600042f40032da60bff35f8f62b60f4ae021d8
:1004700082f86b134ff40060d06082f86c134ff475
:100480008051d1605a6a42f480225a625a6942f01d
:1004900010025a615a6a42f400325a625a6a42f4ad
:1004a00080325a62704700bf00ed00e000e100e0da
:020000040000fa
:1004b0000e4a38b5002313600d4a0e4c13600e4ae5
:1004c0000e4d13600e4a13600e4a13600e4a5362bb
:1004d00013610123936000f085f900f083f9ac42c9
:1004e00000d338bd54f8043b9847f8e7800000205b
:1004f0000c000020700200000800002074020000c0
:0c0500000000002004000020100000207b
:020000040000fa
:10050c0050000020240000000000000074000020b7
:10051c000800000000000000840000200200000021
:10052c00000000007c00002004000000000000001f
:10053c00000000205000000000000000800000209f
:10054c00040000000000000000000000000000009b
:020000040000fa
:10055c000e4b01221a601a46136913f0010ffbd1de
:10056c000a4b4ff4a2621a6003221a7349f27b22df
:10057c009a8333229a72064a0021116001225a7220
:10058c001a461369002bfcd1704700bf003c004099
:04059c006c000020cf
:020000040000fa
:1005a0000e4b01221a601a46136913f0010ffbd19a
:1005b0000a4b4ff4e2621a6003221a7347f26f2269
:1005c0009a8333229a72064a0021116001225a72dc
:1005d0001a461369002bfcd1704700bf0038004059
:0405e0007400002083
:020000040000fa
:1005e40010b5054c227832b9044b13b10448aff36b
:1005f40000800123237010bd500000200000000083
:100604000000000008b5034b1bb103490348aff3d6
:10061400008008bd0000000054000020000000001d
:020000040000fa
:1006240070b50b480b4d4ff6ff76016821b943684e
:1006340013b900f0d4f870bd83684268334000f108
:100644000c0455f823302046984704eb8000ece76f
:080654000c0500008007000006
:020000040000fa
:10065c000b4b4ff430421a60002283f84c2083f885
:10066c004d2083f84f2083f8362083f83720022161
:10067c0083f8c01183f8c11183f8b021704700bf13
:04068c0000800041a9
:020000040000fa
:1006900008b5084b5b7a63b1064b987ac0b2332237
:1006a0009a72054b1b6823b118b1034b59681b683c
:0c06b000984708bd003c00406c00002092
:020000040000fa
:1006bc0008b5084b5b7a63b1064b987ac0b233220b
:1006cc009a72054b1b6823b118b1034b59681b6810
:0c06dc00984708bd003800407400002062
:020000040000fa
:1006e80008b500f05df8fff7b5fffff7c7fd00f0ac
:1006f80016f8fff72ffffff74ffffff7a5fe08bd1e
:020000040000fa
:1007080010b50023934206d113f0030018bf01204f
:0e07180000eb930010bdc45ccc540133f2e73b
:020000040000fa
:0207260070471a
:020000040000fa
:10072800044a136843f002031360136913f0020fbd
:08073800fbd17047003c0040ba
:020000040000fa
:10074000044a136843f002031360136913f0020fa5
:08075000fbd1704700380040a6
:020000040000fa
:1007580010f0010f02d0024b01221a70704700bf3f
:0407680084000020e9
:020000040000fa
:10076c0010f0010f02d0024b01221a70704700bf2b
:04077c0085000020d4
:020000040000fa
:100780009507000009070000d1070000d10700000d
:04079000d10700008d
:020000040000fa
:100794000a440023914201d10020704701f8013b33
:0207a400f8e774
:020000040000fa
:0207a600fee76c
:020000040000fa
:1007a800024b40f204521a80704700bf00400041db
:020000040000fa
:0c07b800014b1860596070476c00002075
:020000040000fa
:0c07c400014b1860596070477400002061
:020000040000fa
:0407d000002070474e
:020000040000fa
:0207d400fee73e
:020000040000fa
:0207d600fee73c
:020000040000fa
:0207d800fee73a
:020000040000fa
:0207da00fee738
:020000040000fa
:0207dc00fee736
:020000040000fa
:0207de00fee734
:020000040000fa
:0207e000704760
:020000040000fa
:0207e20070475e
:020000040000fa
:0207e40070475c
:020000040000fa
:0200000400807a
:044000003912003c35
:020000040000fa
:0200000400807a
:044004008000a82a66
:020000040000fa
:0200000400807a
:04400800ffffffffb8
:00000001FF
