:020000040000fa
:10000000f0ff0320910800007b110000db110000cd
:100010005f120000d1120000d312000000000000a7
:100020000000000000000000000000002711000098
:100030003f120000000000002711000027110000ff
:1000400027110000271100002711000027110000d0
:1000500027110000271100002711000027110000c0
:1000600027110000271100002711000027110000b0
:1000700027110000271100002711000027110000a0
:100080002711000027110000271100002711000090
:100090002711000027110000271100002711000080
:1000a0002711000027110000271100002711000070
:1000b0002711000027110000271100002711000060
:1000c0002711000027110000271100002711000050
:1000d0002711000027110000271100002711000040
:1000e00027110000271100000000000000000000a0
:1000f0000000000027110000271100002711000058
:100100002711000027110000490c0000490c0000d5
:10011000490c0000490c00002711000027110000c5
:1001200027110000271100002711000027110000ef
:1001300027110000271100002711000027110000df
:1001400027110000271100002711000027110000cf
:1001500027110000271100002711000027110000bf
:1001600027110000271100002711000027110000af
:10017000271100002711000027110000271100009f
:10018000271100002711000027110000271100008f
:10019000271100002711000027110000271100007f
:1001a000271100002711000027110000271100006f
:1001b000271100002711000027110000271100005f
:1001c000271100002711000027110000271100004f
:1001d000271100002711000027110000271100003f
:1001e0002711000027110000271100003d1000001a
:1001f0001110000027110000271100002711000036
:10020000271100002711000027110000271100000e
:1002100027110000271100002711000027110000fe
:1002200027110000271100002711000027110000ee
:10023000271100002711000000000000000000004e
:1002400027110000271100002711000027110000ce
:1002500027110000271100002711000027110000be
:040260002711000062
:020000040000fa
:10026400f8b500bff8bc08bc9e467047d90e000024
:10027400f8b500bff8bc08bc9e467047b50e000038
:020000040000fa
:100284002de9f041aeb006461546059100270599c3
:100294000b78002b00f0fa8000244ff0ff33cde9f7
:1002a40009430eab0c9380230b940d930b5d0bb1a0
:1002b400252b26d134b12246304600f0fdfe059ba5
:1002c40023440593059b1a78252a40f0d78003f12f
:1002d4000108cdf81480059803782b2b1ad025d863
:1002e400202b1bd0232b1dd02a2b27d000f078fde8
:1002f4000b90059b1a78303a092a2ed801330593be
:10030400f7e70134d2e7099b43f001030130099375
:100314000590e0e7099b43f00403f7e7099b43f0ea
:100324000803f3e7099b43f01003efe72d2bead012
:10033400302bd9d1099b43f00203e7e72b681a1d40
:100344001b682a600130002b05900b9305da099a8b
:100354005b4282f0010209920b93099bda0744bfc6
:1003640023f002030993059b1a782e2a0dd100224b
:10037400581c0a9205905a782a2a25d102330593eb
:100384002b681a1d1b682a600a9305a800f0d0fd8b
:10039400059b0390187800f059ff6928039979d0d8
:1003a40032dc632800f0cb8019dc252800f0d980ea
:1003b400612853d000234ff0ff32cdf81480099305
:1003c4000b930a920093d4e000f00afd0a90059b77
:1003d4001a78303a092ad8d801330593f7e7642804
:1003e40058d06728e6dc2a4606a800f03bfe002821
:1003f40000f0a180059b5a1c05921b7806aa09a946
:10040400304600f061ff38e0702873d015dc6e28a8
:1004140000f08c806f28cdd12b46002206a800f076
:100424009bf9002800f08780059b06aa013309a9df
:100434003046059300f046ff1fe075283ad078282f
:1004440048d07328b6d1802975d1059b2a68013319
:100454000593131d2b60126800237de02a4606a82d
:1004640000f000fe002866d0059b5a1c05921b78fc
:1004740006aa09a9304600f027ff04443c44a742d9
:100484007add3e4b4f221a604ff0ff3738462eb0cc
:10049400bde8f0812b46012206a800f05df9002892
:1004a40049d0059b06aa013309a93046059300f0fb
:1004b40009ffe2e72b46002206a800f04df90028c8
:1004c40039d0059b06aa013309a93046059300f0eb
:1004d400f9fed2e72b46002206a800f03df950b3fe
:1004e400059b5a1c05921b7806aa09a9304600f000
:1004f400ebfec2e72b460022f02106a800f02cf9ff
:10050400c8b1059b01330593dde9062313430bd1e1
:100514001b4800f049fe099b009319490b9b0246b6
:10052400304600f0f7f9a8e77823dde72b463a19bf
:1005340006a800f071fa059b013305939ee7802914
:10054400f9d1059b013305932b681a1d1b682a609a
:100554008df8183006aa012309a9304600f09efb45
:100564008be78029e7d1059b01330593099b009311
:100574000b9b04490122d3e7274688e61801002093
:08058400b4120000ba120000dd
:020000040000fa
:10058c0080b5002000f0a8fd00212b4800f080fe73
:10059c0000f0fafd0021294800f074fe00f0e8fd9f
:1005ac000021274800f05cfe0021264800f052fe96
:1005bc000121254800f098fc244e254cdff8a09032
:1005cc00244d15e0002333704ff48053e3610e216a
:1005dc00484600f097fa0ee01f4b1b78a3b9d4f8ed
:1005ec00a03113f0010f4ff4004314bf6361a361fa
:1005fc003378002be6d12b78002bedd000232b7019
:10060c004ff40053e361e7e7134b00221a700e4fcf
:10061c00dff850803a781149404600f09bfd404687
:10062c0000f0befd0146404600f06cfa0121384650
:10063c0000f05afcd3e700bfdd110000f1110000ff
:10064c0085120000791200001c0100201d01002001
:10065c00008000411e0100201f010020a41000009a
:08066c009410000000000020c2
:020000040000fa
:10067400324b00221a7403f50063314a9a621a4617
:10068400536813f0100ffbd12e4b4222c3f8842081
:100694001a4600bfd2f8843013f0400ffad02a4b28
:1006a40000229a6377225a631a46d36b13f0040f1d
:1006b400fbd1254b022283f830201a46d36b13f06a
:1006c400020ffbd1204a136c03f00303032bfad16e
:1006d4001e4b01225a711a46d37813f0010ffbd036
:1006e400184b1b4a1a621a46536813f0040ffbd1c5
:1006f400144b184a5a621a46536813f0080ffbd178
:10070400104b4122c3f8a0201a4600bfd2f8a030f3
:1007140013f0400ffad00b4b4122c3f8a4201a4621
:10072400d2f8a43013f0400ffad0084b6ff07f4298
:100734001a614ef2ff725a61704700bf0014004004
:1007440006013000001c004000100040000800407a
:0807540007010100070102008a
:020000040000fa
:10075c00882910b536d012dc812943d003dc8029de
:10076c0040d0002010bd82290ed08429f9d11968ff
:10077c0002b30a1d1a60b1f90020d3171ee0a0299c
:10078c002bd00bdc9029ecd11968073121f0070133
:10079c0001f108021a60d1e900230fe0c02901d051
:1007ac00f029ded11a68111d19601368036000234b
:1007bc00436005e00a1d1a600a880023c0e9002383
:1007cc000120cfe7196822b10a1d1a6091f90020a7
:1007dc00d3e70a1d1a600a78efe71a68111d196031
:1007ec001268cae719681ab10a1d1a600a68c4e7c8
:0c07fc000c1d1c600b68c0e90032e1e736
:020000040000fa
:100808001f4ad36823f4e0631b041b0c43f0bf6347
:1008180043f40033d360bff35f8f62b6194be02116
:1008280083f832134ff48020586083f833134ff461
:100838000020586083f834134ff48010586083f810
:1008480035134ff40010586083f86b134ff40060b1
:10085800d86083f86c134ff48051d960536a43f41d
:1008680080235362536943f010035361536a43f47e
:1008780000335362536a43f480335362704700bfb6
:0808880000ed00e000e100e0da
:020000040000fa
:1008900008b5194b9847194b9847eff3108172b67a
:1008a000174ad2f8883043f47003c2f88830bff397
:1008b0004f8fbff36f8f01b962b6124a936823f06e
:1008c000010393601346da6812f0010ffbd10d4b60
:1008d00024225a6001229a6000f066fb0a4b23f042
:1008e0007f03074a9360094b9847094b9847094b88
:1008f0009847fff74bfefee79310000093100000af
:1009000000ed00e00060004100000000ed0b000081
:08091000931000009310000099
:020000040000fa
:100918002de9ff471d460c9b13f0010906468a4640
:10092800144601d195420bd822465146304600f074
:10093800c1fba54204d82546284604b0bde8f08787
:100948002f1b102f3a464ff0200128bf102268466f
:10095800b84600f05dfc00bfb8f10f0f11d83b0995
:100968006ff00f0202fb03726946304600f0a2fbeb
:10097800b9f1000fe0d122465146304600f09afb0b
:10098800dae710226946304600f094fba8f1100817
:04099800e2e700bfd3
:020000040000fa
:10099c00e40000201c00000000000000b400002057
:1009ac0030000000000000001d01002003000000ca
:1009bc00000000001c0100200100000000000000ed
:1009cc000000002064000000000000002001002056
:1009dc0001000000010000000100000000010020e7
:1009ec001400000000000000640000205000000013
:1009fc0000000000140100200800000000000000ae
:100a0c0000000000000000006666666666666666aa
:020000040000fa
:100a1c00842910b523d00cdc812903d0822913d072
:100a2c0080290bd119680c1d1c600b6803601a60bf
:100a3c0013e0902921d003dc882917d0002010bda9
:100a4c00a029efd0c029ece719680c1d1c600b68bd
:100a5c000360d1171046c3e900010120efe71968c4
:100a6c000c1d1c600b6803601a80f6e719680c1dde
:100a7c001c600b6803601a70efe719680c1d1c6092
:0c0a8c0009680160d317c1e90023e6e708
:020000040000fa
:100a98001b4b1b7d002b31d010b5194a9368516848
:100aa800184a127e12f0010f15d0994213d9154930
:100ab80013484a6802f00702012a026814bfd25c90
:100ac80032f813208a62013344680a7e12f0010f5b
:100ad80001d09c42edd80a4a936052689a420cd8d9
:100ae800074b00221a755a60064a01211175db6806
:100af8001bb1034b1869db68984710bd704700bfee
:080b0800b4000020003400409d
:020000040000fa
:100b100000282ed010b40446184b1b7d5bbb174b2e
:100b20001860596001221a755868154b1b7e13f026
:100b3000010f13d0a8b1002311494a6802f007023f
:100b4000012a14bfe25c34f813208a6201330a7e62
:100b500012f0010f04d09842efd102e0002000e033
:100b60001846064b98600120054b98755df8044bbc
:100b70007047002070470020f8e700bfb400002055
:040b800000340040fd
:020000040000fa
:100b840008b5174b93f82c30cbb1154bda691b6ab7
:100b9400934214d2124b986a124a916a1b6a5268a1
:100ba40002f00702012a0e4a926914bfd15422f8b6
:100bb400131001330a4a1362d2699a4200d008bd65
:100bc400074b002283f82c20da61064a8421117530
:100bd4005b6a002bf3d0024b5b6a9847efe700bfd8
:080be400b400002000340040c1
:020000040000fa
:100bec000e4a38b5002313600d4a0e4c13600e4aa2
:100bfc000e4d13600e4a13600e4a13600e4a536278
:100c0c0013610123936000f060fb00f05efbac42cb
:100c1c0000d338bd54f8043b9847f8e71401002082
:100c2c0070000020700200006c00002074020000b4
:0c0c3c006400002068000020740000200c
:020000040000fa
:100c480008b5144b9b7df3b1124a137edbb2927d3b
:100c580012f0800f18d10f4a137edbb2927d12f08a
:100c6800010f04d013f0010f01d0fff711ff094a5b
:100c7800137edbb2927d12f0040f04d013f0040f40
:100c880001d0fff77bff08bd13f0800fe3d000f021
:080c98006bf9e0e700340040b5
:020000040000fa
:100ca0002de9ff41134dd1f80080af88adf80c70ed
:100cb00006462868029002aca8798df80e00002a3a
:100cc00018bf1446d1e901571a461bb9204600f057
:100cd0006dfa0246002d02dbaa4228bf2a46cdf853
:100ce00000803b4621463046fff716fe04b0bde8c3
:080cf000f08100bfbc120000fe
:020000040000fa
:100cf800114b124a1a604ff622029a814ff4403281
:100d08005a601a46d369002bfcd10b4a136843f08a
:100d180002031360d369002bfcd1094b00229a61ae
:100d2800da611a6283f82c205a621a605a609a6053
:100d38001a75da60da857047003400400401104003
:040d4800b4000020d3
:020000040000fa
:100d4c0030b589b015464ff0ff32019202f2031212
:100d5c00029200b96846cde9030151b14c1e00293d
:100d6c00059408da094b4f221a604ff0ff3009b096
:100d7c0030bd0c46f3e700220270cde906001a469e
:100d8c00294601a800f0d8f9f1e700bf18010020ae
:020000040000fa
:100d9c00104b4ff430421a60002283f84c2083f839
:100dac004d2083f84f2083f8362083f8372001211b
:100dbc0083f85b1183f85c11202183f83d1102212b
:100dcc0083f83e1183f8c01183f8c11183f8b02168
:080ddc00704700bf00800041d8
:020000040000fa
:100de40010b50278202a034600f10100f9d0a2f1df
:100df40009010429f5d92b2a07d02d2a11d1012163
:100e04000133013b00200a2403e00021f8e760439a
:100e1400801a13f8012f303a092af8d901b940424f
:060e240010bd0021ede706
:020000040000fa
:020e2a0070470f
:020000040000fa
:100e2c000e4b01221a601a46136913f0010ffbd105
:100e3c000a4b4ff4a2621a6003221a7349f27b2206
:100e4c009a8333229a72064a0021116001225a7247
:100e5c001a461369002bfcd1704700bf003c0040c0
:040e6c000001002061
:020000040000fa
:100e70000e4b01221a601a46136913f0010ffbd1c1
:100e80000a4b4ff4e2621a6003221a7347f26f2290
:100e90009a8333229a72064a0021116001225a7203
:100ea0001a461369002bfcd1704700bf0038004080
:040eb0000801002015
:020000040000fa
:100eb40010b5054c227832b9044b13b10448aff392
:100ec40000800123237010bde40000200000000016
:100ed4000000000008b5034b1bb103490348aff3fe
:100ee400008008bd00000000e800002000000000b1
:020000040000fa
:100ef400b8b138b505460c4a92f82c200ab1002046
:100f040038bd0c4600f06af8074b9d61dc61002295
:100f14001a62012083f82c00da85044b84229a7526
:100f2400eee70020704700bfb4000020003400400a
:020000040000fa
:100f340030b50d4a002300bf12f8134024b902eb68
:100f440043035b78184630bd01680d78a54209bf9c
:100f540002eb430301335b78013114bfdbb2016060
:0c0f64000a2be9d9eee700bfc411000021
:020000040000fa
:100f70000b4b5b8b13f0070300d1704710b5094c86
:100f8000e38500f02df8064b84221a75002384f8bf
:100f90002c30636a13b1a06a636a984710bd00bf22
:080fa00000340040b400002001
:020000040000fa
:100fa80070b50b480b4d4ff6ff76016821b94368c1
:100fb80013b900f08bf970bd83684268334000f1c3
:100fc8000c0455f823302046984704eb8000ece7e2
:080fd8009c0900000412000056
:020000040000fa
:100fe0000a4b5b8b13f0070f0ed0084b80221a764a
:100ff00007225a831b7e13f0040f05d0034b9a6a15
:101000001a7e12f0040ffad1704700bf003400407e
:020000040000fa
:1010100008b5084b5b7a63b1064b987ac0b23322ad
:101020009a72054b1b6823b118b1034b59681b68b2
:0c103000984708bd003c00400001002073
:020000040000fa
:10103c0008b5084b5b7a63b1064b987ac0b2332281
:10104c009a72054b1b6823b118b1034b59681b6886
:0c105c00984708bd003800400801002043
:020000040000fa
:10106800802910db812901dd83290cd1136807331e
:1010780023f0070303f108011160d3e90023c0e955
:0a108800002301207047002070478c
:020000040000fa
:021092007047a5
:020000040000fa
:1010940048656c6c6f20776f726c64210d0a0000d8
:1010a40052656365697665642044617461203a2001
:0810b4002531630d0a0000bfa5
:020000040000fa
:1010bc0038b50569954228bf154604465db12a46e8
:1010cc00406900f02bf8636922692b44551b002200
:0810dc00636125611a7038bd43
:020000040000fa
:1010e40008b500f0abf8fff757fefff7c1fafff7ba
:1010f40001fefff798fefff797fefff7b7fefff735
:0411040081fb08bda6
:020000040000fa
:1011080010b50023934206d113f0030018bf012045
:0e11180000eb930010bdc45ccc540133f2e731
:020000040000fa
:02112600fee7e2
:020000040000fa
:101128005ab110b40a44431e11f8014b03f8014f99
:0c1138009142f9d15df8044b70477047fc
:020000040000fa
:1011440013b50446019201aafff79af8636813f0f5
:0c115400100f18bf4ff0ff3002b010bdac
:020000040000fa
:101160000eb403b503aa52f8041b019200f09cf8d8
:0a11700002b05df804eb03b0704715
:020000040000fa
:02117a00fee78e
:020000040000fa
:10117c00044a136843f002031360136913f0020f5f
:08118c00fbd17047003c00405c
:020000040000fa
:10119400044a136843f002031360136913f0020f47
:0811a400fbd170470038004048
:020000040000fa
:1011ac0003783bb1034600bf13f8012f002afbd193
:0811bc00181a7047184670472d
:020000040000fa
:1011c40068076c094c836a9074a07ac000806888b0
:0611d40000846c82008122
:020000040000fa
:0211da00fee72e
:020000040000fa
:1011dc0010f0010f02d0024b01221a70704700bfb1
:0411ec001d010020c1
:020000040000fa
:1011f00010f0010f02d0024b01221a70704700bf9d
:041200001e010020ab
:020000040000fa
:101204002d12000009110000c5120000c5120000d3
:04121400c5120000ff
:020000040000fa
:1012180032b1c9b20244034603f8011b9342fbd121
:04122800704700bf4c
:020000040000fa
:10122c000a440023914201d10020704701f8013b90
:02123c00f8e7d1
:020000040000fa
:02123e00fee7c9
:020000040000fa
:10124000024b40f204521a80704700bf0040004138
:020000040000fa
:0e125000a0f14103192b98bf40f02000704719
:020000040000fa
:02125e00fee7a9
:020000040000fa
:0c126000014bd86019617047b4000020f9
:020000040000fa
:0c126c00014b586299627047b4000020ea
:020000040000fa
:0c127800014b01221a7070472001002079
:020000040000fa
:0c128400014b01221a7070471f0100206e
:020000040000fa
:0c129000014b18605960704700010020fd
:020000040000fa
:0c129c00014b18605960704708010020e9
:020000040000fa
:0c12a80013460a466ff00041fff74cbdf2
:020000040000fa
:0812b400286e696c2900250079
:020000040000fa
:0712bc00286e756c6c29001f
:020000040000fa
:0412c400002070474f
:020000040000fa
:0412c800002070474b
:020000040000fa
:0412cc000020704747
:020000040000fa
:0212d000fee737
:020000040000fa
:0212d200fee735
:020000040000fa
:0212d400704761
:020000040000fa
:0212d60070475f
:020000040000fa
:0200000400807a
:044000003912003c35
:020000040000fa
:0200000400807a
:044004008000a82a66
:020000040000fa
:0200000400807a
:04400800ffffffffb8
:00000001FF
