:020000040000fa
:10000000f0ff032059030000b3060000e9060000da
:10001000ed060000ef060000f10600000000000001
:10002000000000000000000000000000f3060000d7
:10003000eb06000000000000f3060000f3060000dd
:10004000f3060000f3060000f3060000f3060000cc
:10005000f3060000f3060000f3060000f3060000bc
:10006000f3060000f3060000f3060000f3060000ac
:10007000f3060000f3060000f3060000f30600009c
:10008000f3060000f3060000f3060000f30600008c
:10009000f3060000f3060000f3060000f30600007c
:1000a000f3060000f3060000f3060000f30600006c
:1000b000f3060000f3060000f3060000f30600005c
:1000c000f3060000f3060000f3060000f30600004c
:1000d000f3060000f3060000f3060000f30600003c
:1000e000f3060000f306000000000000000000001e
:1000f00000000000f3060000f3060000f306000015
:10010000f3060000f3060000f3060000f30600000b
:10011000f3060000f3060000f3060000f3060000fb
:10012000f3060000f3060000f3060000f3060000eb
:10013000f3060000f3060000f3060000f3060000db
:10014000f3060000f3060000f3060000f3060000cb
:10015000f3060000f3060000f3060000f3060000bb
:10016000f3060000f3060000f3060000f3060000ab
:10017000f3060000f3060000f3060000f30600009b
:10018000f3060000f3060000f3060000f30600008b
:10019000f3060000f3060000f3060000f30600007b
:1001a000f3060000f3060000f3060000f30600006b
:1001b000f3060000f3060000f3060000f30600005b
:1001c000f3060000f3060000f3060000f30600004b
:1001d000f3060000f3060000f3060000f30600003b
:1001e000f3060000f3060000f3060000f30600002b
:1001f000f3060000f3060000f3060000f30600001b
:10020000f3060000f3060000f3060000f30600000a
:10021000f3060000f3060000f3060000f3060000fa
:10022000f3060000f3060000f3060000f3060000ea
:10023000f3060000f30600000000000000000000cc
:10024000f3060000f3060000f3060000f3060000ca
:10025000f3060000f3060000f3060000f3060000ba
:04026000f3060000a1
:020000040000fa
:10026400f8b500bff8bc08bc9e467047ed0400001a
:10027400f8b500bff8bc08bc9e467047c90400002e
:020000040000fa
:100284002d4b00221a7403f500632c4a9a621a4615
:10029400536813f0100ffbd1294b4222c3f884207a
:1002a4001a4600bfd2f8843013f0400ffad0254b21
:1002b40000229a6377225a631a46d36b13f0040f11
:1002c400fbd1204b022283f830201a46d36b13f063
:1002d400020ffbd11b4a136c03f00303032bfad167
:1002e400194b01225a711a46d37813f0010ffbd02f
:1002f400134b164a1a621a46536813f0040ffbd1c3
:100304000f4b134a5a621a46536813f0080ffbd175
:100314000b4b4122c3f8a4201a4600bfd2f8a430e4
:1003240013f0400ffad0084b6ff07f421a614cf281
:10033400ff725a61704700bf00140040060130008c
:10034400001c0040001000400008004007010100ac
:04035400070102009b
:020000040000fa
:1003580008b5194b9847194b9847eff3108172b6b7
:10036800174ad2f8883043f47003c2f88830bff3d4
:100378004f8fbff36f8f01b962b6124a936823f0ab
:10038800010393601346da6812f0010ffbd10d4b9d
:1003980024225a6001229a6000f0d2f80a4b23f016
:1003a8007f03074a9360094b9847094b9847094bc5
:1003b800984700f03ff8fee75b0600005b06000088
:1003c80000ed00e00060004100000000e1030000d3
:0803d8005b0600005b0600005b
:020000040000fa
:1003e0000e4a38b5002313600d4a0e4c13600e4ab6
:1003f0000e4d13600e4a13600e4a13600e4a53628c
:1004000013610123936000f077f900f075f9ac42b5
:1004100000d338bd54f8043b9847f8e7700000203b
:100420000c00002070020000080000207402000090
:0c0430000000002004000020100000204c
:020000040000fa
:10043c0008b5002000f0ecf800f00af900f014f90f
:10044c000c4c08e0d4f8a03113f0010f4ff400432a
:10045c0014bf6361a36100f027f910b14ff480530e
:10046c00e36100f031f90028ecd04ff40053e36164
:08047c00e8e700bf0080004129
:020000040000fa
:100484000f4bda6822f4e0621204120c42f0bf62ed
:1004940042f40032da60bff35f8f62b65a6a42f404
:1004a40080225a625a6942f010025a615a6a42f42e
:1004b40000325a625a6a42f480325a62704700bf6c
:0404c40000ed00e067
:020000040000fa
:1004c80010b5054c227832b9044b13b10448aff388
:1004d80000800123237010bd5000002000000000a0
:1004e8000000000008b5034b1bb103490348aff3f4
:1004f800008008bd0000000054000020000000003b
:020000040000fa
:10050800500000201c000000000000006c000020cb
:10051800040000000000000000000020500000005f
:10052800000000007000002004000000000000002f
:100538000000000000000000666666666666666683
:020000040000fa
:1005480070b50b480b4d4ff6ff76016821b943682b
:1005580013b900f0ccf870bd83684268334000f1ed
:100568000c0455f823302046984704eb8000ece74c
:08057800080500008c060000dc
:020000040000fa
:100580000b4b01221a601a46136913f0010ffbd1bd
:10059000074b4ff4e2621a6003221a7347f26f228c
:1005a0009a8333229a721a461369002bfcd1704742
:0405b00000380040cf
:020000040000fa
:1005b4000b4b01221a601a46136913f0010ffbd189
:1005c400074b4ff4c2621a6003221a7342f29e422e
:1005d4009a8333229a721a461369002bfcd170470e
:0405e400003c004097
:020000040000fa
:1005e8000b4b4ff430421a60002283f84c2083f8fa
:1005f8004d2083f84f2083f8362083f837200221d6
:1006080083f8c01183f8c11183f8b021704700bf87
:04061800008000411d
:020000040000fa
:10061c0008b500f051f8fff7e1fffff72dfe00f0f1
:10062c0063f8fff7c1fffff7a5fffff725ff08bd34
:020000040000fa
:10063c0010b50023934206d113f0030018bf01201c
:0e064c0000eb930010bdc45ccc540133f2e708
:020000040000fa
:02065a007047e7
:020000040000fa
:10065c00044a136843f002031360136913f0020f8a
:08066c00fbd17047003800408b
:020000040000fa
:10067400044a136843f002031360136913f0020f72
:08068400fbd17047003c00406f
:020000040000fa
:10068c00a10600003d060000e5060000e50600009e
:04069c00e50600006f
:020000040000fa
:1006a0000a440023914201d10020704701f8013b28
:0206b000f8e769
:020000040000fa
:0206b200fee761
:020000040000fa
:1006b400024b987a00f001009872704700380040ad
:020000040000fa
:1006c400024b40f204521a80704700bf00400041c0
:020000040000fa
:1006d400024b987a00f0010098727047003c004089
:020000040000fa
:0406e400002070473b
:020000040000fa
:0206e800fee72b
:020000040000fa
:0206ea00fee729
:020000040000fa
:0206ec00fee727
:020000040000fa
:0206ee00fee725
:020000040000fa
:0206f000fee723
:020000040000fa
:0206f200fee721
:020000040000fa
:0206f40070474d
:020000040000fa
:0206f60070474b
:020000040000fa
:0206f800704749
:020000040000fa
:0200000400807a
:044000003912003c35
:020000040000fa
:0200000400807a
:044004008000a82a66
:020000040000fa
:0200000400807a
:04400800ffffffffb8
:00000001FF
