:020000040000fa
:10000000f0ff03206d0300009f080000a10800001e
:10001000a5080000a7080000a908000000000000d3
:100020000000000000000000000000005f08000069
:10003000a3080000000000005f0800005f08000047
:100040005f0800005f0800005f0800005f08000014
:100050005f0800005f0800005f0800005f08000004
:100060005f0800005f0800005f0800005f080000f4
:100070005f0800005f0800005f0800005f080000e4
:100080005f0800005f0800005f0800005f080000d4
:100090005f0800005f0800005f0800005f080000c4
:1000a0005f0800005f0800005f0800005f080000b4
:1000b0005f0800005f0800005f0800005f080000a4
:1000c0005f0800005f0800005f0800005f08000094
:1000d0005f0800005f0800005f0800005f08000084
:1000e0005f0800005f080000000000000000000042
:1000f000000000005f0800005f0800005f080000cb
:100100005f0800005f0800005f0800005f08000053
:100110005f0800005f0800005f0800005f08000043
:100120005f0800005f0800005f0800005f08000033
:100130005f0800005f0800005f0800005f08000023
:100140005f0800005f0800005f0800005f08000013
:100150005f0800005f0800005f0800005f08000003
:100160005f0800005f0800005f0800005f080000f3
:100170005f0800005f0800005f0800005f080000e3
:100180005f0800005f0800005f0800005f080000d3
:100190005f0800005f0800005f0800005f080000c3
:1001a0005f0800005f0800005f0800005f080000b3
:1001b0005f0800005f0800005f0800005f080000a3
:1001c0005f0800005f0800005f0800005f08000093
:1001d0005f0800005f0800005f0800005f08000083
:1001e0005f0800005f0800005f0800007107000062
:1001f000450700005f0800005f0800005f0800007e
:100200005f0800005f0800005f0800005f08000052
:100210005f0800005f0800005f0800005f08000042
:100220005f0800005f0800005f0800005f08000032
:100230005f0800005f0800000000000000000000f0
:100240005f0800005f0800005f0800005f08000012
:100250005f0800005f0800005f0800005f08000002
:040260005f08000033
:020000040000fa
:10026400f8b500bff8bc08bc9e467047bd06000048
:10027400f8b500bff8bc08bc9e467047990600005c
:020000040000fa
:10028400324b00221a7403f50063314a9a621a460b
:10029400536813f0100ffbd12e4b4222c3f8842075
:1002a4001a4600bfd2f8843013f0400ffad02a4b1c
:1002b40000229a6377225a631a46d36b13f0040f11
:1002c400fbd1254b022283f830201a46d36b13f05e
:1002d400020ffbd1204a136c03f00303032bfad162
:1002e4001e4b01225a711a46d37813f0010ffbd02a
:1002f400184b1b4a1a621a46536813f0040ffbd1b9
:10030400144b184a5a621a46536813f0080ffbd16b
:10031400104b4122c3f8a0201a4600bfd2f8a030e7
:1003240013f0400ffad00b4b4122c3f8a4201a4615
:10033400d2f8a43013f0400ffad0084b6ff07f428c
:100344001a614ef2ff725a61704700bf00140040f8
:1003540006013000001c004000100040000800406e
:0803640007010100070102007e
:020000040000fa
:10036c0008b5194b9847194b9847eff3108172b6a3
:10037c00174ad2f8883043f47003c2f88830bff3c0
:10038c004f8fbff36f8f01b962b6124a936823f097
:10039c00010393601346da6812f0010ffbd10d4b89
:1003ac0024225a6001229a6000f090f90a4b23f043
:1003bc007f03074a9360094b9847094b9847094bb1
:1003cc00984700f011f8fee79d0800009d0800001a
:1003dc0000ed00e00060004100000000d9040000c6
:0803ec009d0800009d080000bf
:020000040000fa
:1003f40080b5002000f0d0f90021184800f044fa3c
:1004040000f0f8f90021164800f038fa00f0e6f997
:10041400144e154c154f164d13e0002333704ff452
:100424008053e3610e21384600f0cef80ce000bfa3
:10043400d4f8a03113f0010f4ff4004314bf6361eb
:10044400a3613378002be8d12b78002bf0d0002364
:100454002b704ff40053e361eae700bf110800007a
:10046400250800008400002000800041700800007e
:0404740085000020df
:020000040000fa
:10047800154bda6822f4e0621204120c42f0bf62f3
:1004880042f40032da60bff35f8f62b60f4ae021b0
:1004980082f86b134ff40060d06082f86c134ff44d
:1004a8008051d1605a6a42f480225a625a6942f0f5
:1004b80010025a615a6a42f400325a625a6a42f485
:1004c80080325a62704700bf00ed00e000e100e0b2
:020000040000fa
:1004d8000e4a38b5002313600d4a0e4c13600e4abd
:1004e8000e4d13600e4a13600e4a13600e4a536293
:1004f80013610123936000f0d5f900f0d3f9ac4201
:1005080000d338bd54f8043b9847f8e78000002032
:100518000c00002070020000080000207402000097
:0c05280000000020040000201000002053
:020000040000fa
:10053400500000201c000000000000006c0000209f
:1005440010000000000000008400002002000000f1
:10055400000000007c0000200400000000000000f7
:100564000000002050000000000000008000002077
:100574000400000000000000000000000000000073
:020000040000fa
:10058400104b4ff430421a60002283f84c2083f859
:100594004d2083f84f2083f8362083f8372001213b
:1005a40083f85b1183f85c11202183f83d1102214b
:1005b40083f83e1183f8c01183f8c11183f8b02188
:0805c400704700bf00800041f8
:020000040000fa
:1005cc00d0b110b40446c9b1084421460c4a644267
:1005dc00137e13f0010ffbd0536803f00703012bbc
:1005ec0014bf0b7834f81130936201318142efd192
:1005fc0001205df8044b7047002070470120f8e79c
:04060c000034004076
:020000040000fa
:100610000e4b01221a601a46136913f0010ffbd129
:100620000a4b4ff4a2621a6003221a7349f27b222a
:100630009a8333229a72064a0021116001225a726b
:100640001a461369002bfcd1704700bf003c0040e4
:040650006c0000201a
:020000040000fa
:100654000e4b01221a601a46136913f0010ffbd1e5
:100664000a4b4ff4e2621a6003221a7347f26f22b4
:100674009a8333229a72064a0021116001225a7227
:100684001a461369002bfcd1704700bf00380040a4
:0406940074000020ce
:020000040000fa
:1006980010b5054c227832b9044b13b10448aff3b6
:1006a80000800123237010bd5000002000000000ce
:1006b8000000000008b5034b1bb103490348aff322
:1006c800008008bd00000000540000200000000069
:020000040000fa
:1006d80070b50b480b4d4ff6ff76016821b943689a
:1006e80013b900f0def870bd83684268334000f14a
:1006f8000c0455f823302046984704eb8000ece7bb
:08070800340500003808000070
:020000040000fa
:100710000a4b0b4a1a604ff622029a814ff440327c
:100720005a601a46d369002bfcd1044a136843f07f
:1007300002031360d369002bfcd1704700340040e2
:040740000401104060
:020000040000fa
:1007440008b5084b5b7a63b1064b987ac0b2332282
:100754009a72054b1b6823b118b1034b59681b6887
:0c076400984708bd003c00406c000020dd
:020000040000fa
:1007700008b5084b5b7a63b1064b987ac0b2332256
:100780009a72054b1b6823b118b1034b59681b685b
:0c079000984708bd0038004074000020ad
:020000040000fa
:10079c0008b500f05ff8fff7effefff76dfdfff710
:1007ac00b1ff00f016f8fff72dfffff74dfffff735
:0407bc005dfe08bd19
:020000040000fa
:1007c00010b50023934206d113f0030018bf012097
:0e07d00000eb930010bdc45ccc540133f2e783
:020000040000fa
:0207de00704762
:020000040000fa
:1007e000044a136843f002031360136913f0020f05
:0807f000fbd17047003c004002
:020000040000fa
:1007f800044a136843f002031360136913f0020fed
:08080800fbd1704700380040ed
:020000040000fa
:1008100010f0010f02d0024b01221a70704700bf86
:040820008400002030
:020000040000fa
:1008240010f0010f02d0024b01221a70704700bf72
:04083400850000201b
:020000040000fa
:100838004d080000c1070000990800009908000051
:04084800990800000b
:020000040000fa
:10084c000a440023914201d10020704701f8013b7a
:02085c00f8e7bb
:020000040000fa
:02085e00fee7b3
:020000040000fa
:10086000024b40f204521a80704700bf0040004122
:020000040000fa
:1008700048656c6c6f20776f726c64210d0a000004
:020000040000fa
:0c088000014b1860596070476c000020ac
:020000040000fa
:0c088c00014b1860596070477400002098
:020000040000fa
:040898000020704785
:020000040000fa
:02089c007047a3
:020000040000fa
:02089e00fee773
:020000040000fa
:0208a000fee771
:020000040000fa
:0208a200fee76f
:020000040000fa
:0208a400fee76d
:020000040000fa
:0208a600fee76b
:020000040000fa
:0208a800fee769
:020000040000fa
:0208aa00704795
:020000040000fa
:0208ac00704793
:020000040000fa
:0200000400807a
:044000003912003c35
:020000040000fa
:0200000400807a
:044004008000a82a66
:020000040000fa
:0200000400807a
:04400800ffffffffb8
:00000001FF
