:020000040000fa
:10000000f0ff03201d610000df5500003b59000098
:1000100077660000e76a0000e36b00000000000064
:10002000000000000000000000000000a3720000bb
:100030001b61000000000000a3720000a37200001a
:10004000a3720000a3720000a3720000a37200005c
:10005000a3720000a3720000a3720000a37200004c
:10006000a3720000a3720000a3720000a37200003c
:10007000a3720000a3720000a3720000a37200002c
:10008000a3720000a3720000a3720000a37200001c
:10009000a3720000a3720000a3720000a37200000c
:1000a000a3720000a3720000a3720000a3720000fc
:1000b000a3720000a3720000a3720000a3720000ec
:1000c000a3720000a3720000a3720000a3720000dc
:1000d000a3720000a3720000a3720000a3720000cc
:1000e000a3720000a37200000000000000000000e6
:1000f00000000000a3720000a3720000a3720000c1
:10010000a3720000a37200008969000089690000e1
:100110008969000089690000a3720000a3720000d1
:10012000a3720000a3720000a3720000a37200007b
:10013000a3720000a3720000a3720000a37200006b
:10014000a3720000a3720000a3720000a37200005b
:10015000a3720000a3720000a3720000a37200004b
:10016000a3720000a3720000a3720000a37200003b
:10017000a3720000a3720000a3720000a37200002b
:10018000a3720000a3720000a3720000a37200001b
:10019000a3720000a3720000a3720000a37200000b
:1001a000a3720000a3720000a3720000a3720000fb
:1001b000a3720000a3720000a3720000a3720000eb
:1001c000a3720000a3720000a3720000a3720000db
:1001d000a3720000a3720000a3720000a3720000cb
:1001e000a3720000a3720000a37200001d7400003f
:1001f000f1730000a1740000a3720000a37200005c
:10020000a3720000a3720000a3720000a37200009a
:10021000a3720000a3720000a372000049740000e2
:10022000a372000075740000a3720000a3720000a6
:10023000a3720000a3720000000000000000000094
:10024000a3720000a3720000a3720000a37200005a
:10025000a3720000a3720000a3720000a37200004a
:04026000a372000085
:020000040000fa
:10026400f8b500bff8bc08bc9e467047216f00007b
:10027400f8b500bff8bc08bc9e467047fd6e000090
:020000040000fa
:08028400b0420000010000007f
:020000040000fa
:04028c000010b000ae
:020000040000fa
:100290002de9f04f2ded028bd2e9008997b0cde921
:1002a0000c138b6808930b690f90d1e900b6149377
:1002b000cd68002200234046494606f0a3ff40b91e
:1002c0001bf0040f32d11bf00803059330d020231c
:1002d00003e089f0004399462d232b70089b03f11e
:1002e000ff3a012305934c4929f0004300208b423b
:1002f00008bf80451fd10d9b413b192b059b94bf27
:10030000464947492b44184607f0e0fb284607f0ca
:1003100099facdf800b00246089b0f98294605f0df
:10032000c5ff17b0bdec028bbde8f08f2b23d4e7df
:10033000ddf820a0d7e7994208bf404509d20d9bc0
:10034000413b192b059b94bf364937492b4418462e
:10035000dae7002200234046494606f089ff9fed78
:100360002c7b8ded027b48b300240d9807f03afbff
:10037000002ec3b20993c0f2d781672b5ad1002e49
:1003800008bf0126231d02dbb442c0f2c6816527e7
:1003900061e09ded067b8ded027b01340022234b55
:1003a000dde9020105f083f842464b46cde906013e
:1003b00006f00cff0028ecd000271fe00446ede714
:1003c00014f5967f11da87b90022194b4046494649
:1003d00005f06df8002280468946154bdde90201e3
:1003e00005f065f8cde902010127dde902010022ef
:1003f0000e4b04f06cfccde90201013cdde9022367
:100400004046494606f0fefe0028d9d1ade700bfc0
:10041000000000000000f03f0000f07fc479000001
:10042000c8790000cc790000d07900000000244099
:1004300000005043099f662f06f101060bd1002ce6
:1004400004da9fedbd7b8ded027b0024099b672bb9
:1004500018bf361966279ded027bcde906898ded23
:100460000a7b00230e93dde90a23dde9060104f08f
:100470002efc41ec100b05f0b3fb51ec100bb0ee71
:10048000408af0ee608a06f01ffcb0ee480af0eefb
:10049000680a069b1093079b159083f00043119305
:1004a0009ded0a1b9ded102b07f010f853ec102b5f
:1004b00083f000430793dde90a01a34b8ded060aa3
:1004c000002204f004fc0e9b01339e42cde90a0198
:1004d0000e93c8d100229d4b04f0e9ffcde90a013b
:1004e00002460b46dde9060106f08cfe002840f0ce
:1004f0008180dde90a23dde9060106f0b9fe10b1cd
:10050000159bda0776d5dde90a234046494604f013
:10051000bffa0022cde906018b4bdde9020104f0b0
:10052000c6ffdde90623cde90a0106f0c1fd00287a
:1005300065d0662f04f1010465d10136a146a9eb0f
:1005400006034ff00008059e1093cdf80880109b1d
:10055000994540f08180029b002b00f0c880a819cb
:100560000022652f027029d1149b1499013b9442fb
:10057000ea54c1f1030ebcbf644201220a21002cdf
:1005800040f0bc800eeb030cbcf1000f00f3b68012
:10059000002a03f1ff3114bf2d222b226a540d9a39
:1005a000023b413a192a05eb030198bf45279e42b9
:1005b0000f70aaf1020a01da07f088fa0bf00303c0
:1005c000022b7ff4a3aebaf1000f7ff79fae28464f
:1005d00007f038f905eb0a03059a824240f3998047
:1005e000059b2b4418465246302107f0a1f9002301
:1005f00008938be69fed527b8ded0a7b83e79deda3
:10060000027b8ded0a7b652f14bfa1464ff00009d8
:1006100095e7029a52b9b9f1000f07da0e992e2226
:100620006a54012201360af1ff3a029205eb0801f1
:10063000aa193144302001e002f8010b9142fbd1ac
:1006400008eb06023033aaeb080808f1ff3a561c03
:10065000ab544ff0000828e00c9b0e961b69053b3d
:10066000b3427ff678afdde90a23dde9060104f045
:100670002efb41ec100b05f0b3fa51ec100bb0ee71
:10068000408af0ee608a06f01ffb0bf0100209288a
:100690000346a8bf09230243bbd1099a672ab8d1f0
:1006a000b9f1000fc2da08f10108069b1293079b0b
:1006b000b0ee480af0ee680a83f0004313939ded14
:1006c0000a1b9ded122b06f001ff53ec102b83f05b
:1006d00000430793dde90a0100221b4b8ded060a5a
:1006e00004f0f5fa09f1ff39cde90a012fe71bf013
:1006f000100f1ebf2e23ab55013630e7b4fbf1fcc3
:10070000013b01fb1c443034ec540af1ff3a6446cf
:1007100035e72a5c1a5401385ee7002cbff69aae22
:10072000662788e606262de6099b672bfad01f462a
:10073000062680e6aff30080000000000000f03fd6
:1007400000000000000000000000244000001440f1
:020000040000fa
:100750002de9f04f95b0cde912030b68089392eda7
:10076000007b4b680a938b6809930b690d93cc68e7
:100770000022002351ec170b8ded047b06f042fda7
:1007800040b9089b580734d4089b13f0080732d0af
:10079000202306e0dde9042181f00043cde90423b4
:1007a0002d232370099b01275a1edde90403dff87e
:1007b000f8b223f000414ff0000a594508bf5045f8
:1007c0001bd1139b413b192b04eb070094bfb0498d
:1007d000b04907f07bf9af4807f034f8089b009365
:1007e0000246099b1298214605f060fd15b0bde850
:1007f000f08f2b23d5e7099ad7e7139b8b45a3f1fd
:10080000410308bf82450b9309d2192b04eb070063
:1008100094bfa149a14907f059f9a048dce730216c
:10082000e1550b997b1c1a2934bf58217821e154da
:10083000931e079300220023dde90401023706f02e
:1008400017fd002800f07b819fed8f7b8ded027bf3
:1008500000250a9bdde90289002bdde904abb8bf66
:1008600018230e93002642464b465046594604f044
:100870002efa41ec100b05f0b3f942464b4651ec11
:10088000100b8ded100b04f012fe02460b46504685
:10089000594607f029f9824b82468b464046494625
:1008a000002204f004fe731c0c930a9b002b80466c
:1008b000894606da002200235046594606f0d8fc45
:1008c00028b90e9bb34200f3408101330c93002200
:1008d000744b4046494604f0eafd8046894602468c
:1008e0000b465046594606f08dfc002840f02f81fb
:1008f00042464b465046594606f0bafc30b1dde957
:10090000100106f0e1f9c10740f1218142464b4652
:10091000dde9040104f0bcf8cde90401dde90421be
:1009200021f00043604900208b4208bf82423ff41f
:1009300048af4ff000083e46c246c1460d9b053bfe
:10094000b342b34633d9dde90223dde9040104f003
:10095000bef941ec100b05f043f951ec100b8ded95
:100960000e0b06f0b1f9002840f0f680b9f1000f47
:1009700000f0f28008f10108dde90223dde90e0153
:1009800004f095fd02460b46dde9040107f0acf8e2
:10099000434bcde904010022dde9020104f087fdab
:1009a0000c9b09f101094b45cde90201c6d1baf111
:1009b000000f1ed1b8f1000f00f015810a9b002b2b
:1009c00040f31181089bda0700f10d81a3192e2253
:1009d0001a7008eb06022244302100bf03f8011f01
:1009e0009a42fbd1079b46446fea0808434401360c
:1009f00007930d9b0d990022a019013b95420270af
:100a0000b8bf6d42e254c1f1020eb8bf01224ff0ef
:100a10000a08002d40f0d7800eeb030cbcf1010f4b
:100a200000f0d180002a03f1ff3114bf2d222b22c8
:100a300062540b9a023b1a2a04eb030134bf502282
:100a400070229e420a7001da07f040f8089b03f01a
:100a50000303022b14d1079ba3f10208b8f1000f86
:100a60000edd204606f0eefe04eb0803b84280f2ed
:100a7000b68042463021e01906f05aff0023099360
:100a80002046a9e6aff30080000000000000f03f20
:100a9000b4790000b8790000bc790000c07900008a
:100aa0000000b03f000020400000f07fcde9028947
:100ab0000135dde902231046194603f0e9ff8046bf
:100ac000894602460b46dde9040106f09bfb00283f
:100ad000ecd0dff82cb1dff82c914ff0000a4ff08a
:100ae0000008dde90223dde9040106f08bfb0028a4
:100af0003ff4afae52465b46dde9020104f0d7fc9d
:100b00000022002306f0b4fb78b142464b46dde9f3
:100b1000020104f0ccfc4246cde902014b46dde97e
:100b2000040104f0c4fccde90401dde902015246f0
:100b30005b4604f0bcfc013dcde90201d1e79fed2d
:100b40002e7b05468ded027bb3e70c9e8be64ff0c6
:100b500000084ff00009d9e6baf1000f0bd1b9f146
:100b6000000f08d02e2304f80b30079b013b013601
:100b700007934ff0010a04eb0803a2193344302114
:100b800002e000bf02f8011b9a42fbd1079b06eb73
:100b9000080ba3eb08080b9b0928d4bf3030573053
:100ba000192b06d840f02003613b192b01d806f021
:100bb00020ff08f1ff330bf1010604f80b00079347
:100bc0004ff00008d8e60799b5fbf8fc013b08fb9d
:100bd0001c5530350139e5540791654619e7225c0b
:100be0001a54013842e7089bdb067ff502af2e233b
:100bf000a3550136fde600bf000000000000f03ff5
:080c00000000e03f000050433a
:020000040000fa
:100c08002de9f04fedb000230546164603910493f5
:100c18009946039b1b78002b62d00023cde905334e
:100c280007930aab089303a980232846099306f083
:100c3800adfb0446039b1a780ab1252a40d10498d3
:100c4800204404901a78252a31d15a1c0024039292
:100c580007945a782a2a04bf02330393039808bfdb
:100c6800012406f09bf801460790284606f0f2fd9d
:100c7800039b1a78303a092a48d903a806f0d8f90c
:100c8800039b8046187806f0a9fe672861dc652872
:100c980080f2c680612800f0c3803adc252800f085
:100ca800ef805b2800f00c81039b013303937b1cce
:100cb80040f0f980b9f1000f08bf4ff0ff390fe09d
:100cc800eb6bea6c93420fd25a1cea631f78039bc2
:100cd8001b78bb420ed0eb6c13b1eb6b013beb63a3
:100ce80048466db0bde8f08f284605f075fe07460a
:100cf8000130ecd1049b01330493039b03a9013316
:100d08002846039306f042fb044493e70133039318
:100d1800aee7632800f098806428c5d104ab05aa23
:100d28002aa9284606f0eafa0028c0f26a81039b3d
:100d380001330393002c40f0b6803346012241462c
:100d48002aa805f0f1fa0028044667da0134b1d080
:100d5800c6e7702841d00bdc6e2850d02fdc6928fc
:100d6800a2d104ab05aa2aa9284604f0f1fadbe7c8
:100d7800752813d0782829d0732895d1b8f1800f19
:100d880092d1039b01330393002c77d133681a1d4a
:100d980032601b680093012204ab68e004ab05aa2b
:100da8002aa9284606f0adfe0028c0f22a81039b36
:100db80001330393002c76d133462246bfe704abb8
:100dc80005aa2aa9284606f09cfeede704ab05aa69
:100dd8002aa9284604f022fee6e704ab05aa2aa9b8
:100de800284604f01bfe0028c0f20b81039b013348
:100df8000393002c57d133462246f021a0e7039bea
:100e0800049a01330393d317cde92a23002c4ad13e
:100e18003346224641462aa805f086faa144f8e658
:100e280004ab05aa2aa9284606f06bfe0028c0f2e2
:100e3800e880039b01330393002c34d132464146aa
:100e48002aa805f087ff7ee7b8f1800f7ff42caf62
:100e5800079b0bb901230793039b013303935cb9e9
:100e680033681a1d32601b680093002204ab05a981
:100e7800284606f048fe66e70023f5e7002389e7e1
:100e8800b8f1800f7ff410af039bea6c0133039332
:100e9800eb6b934209d25a1cea631878252808d1cb
:100ea800049b013304930024b8e7284605f094fd19
:100eb800f4e7eb6c002bf6d0eb6b013beb63f2e74e
:100ec800b8f1800f7ff4f0ae002c39d133681a1dc9
:100ed8003260d3f80080039b5a1c03925a785e2a2a
:100ee8000cbf012700272aac08bf023340f20112c9
:100ef8003946204608bf039306f016fd00232370e9
:100f0800039b1a782d2a1ed101330393c7f10103dd
:100f180084f82e30c7f10107039a13785d2b1bd193
:100f2800b8f1000f5cd1eb6bea6c934264d25a1ca7
:100f3800ea631f78e3195b78002b59d19a463ae0a7
:100f48004ff00008c7e75d2ae4d101330393c7f1e6
:100f5800010384f85e30dde7002be1d02d2b06d0ad
:100f6800039b13f8012b039322445770d4e7049b87
:100f78001b78002bf4d05d2bf2d0531c0393029bfb
:100f88001b7851788b42ebda0133e754f9e700bf5d
:100f980008f80b70049b013304930bf1010bea6b07
:100fa800eb6c9a42da461ed2531ceb631778e319ae
:100fb8005b78002becd1eb6c13b1eb6b013beb6373
:100fc800039b01330393baf1000f3ff46daeb8f100
:100fd800000f3ff469ae002308f80a3001241de72a
:100fe8004ff0000bdbe7284605f0f6fc0746dee786
:100ff800049b0133049396e7284605f0edfc074669
:0810080098e70446a2e600bfd0
:020000040000fa
:1010100000000000000000000000000000000000d0
:1010200000000000000000000000000000000000c0
:1010300000000000000000000000000000000000b0
:101040000080406020103020c08000000080c02060
:101050002020202060c000000000000000000000f0
:101060000000000000000000000000000000000080
:101070000000000000000000000000000000000070
:101080000000000000000000000000000000000060
:101090000000000000000000000000000000000050
:1010a0000000000000000000000000000000000040
:1010b000000000000000000080808040603000fce4
:1010c0000300003ce606fc0000011ef0fc03f8ce25
:1010d000631e0000e03f0000000000000810200038
:1010e0002040c080800000000000000000000000e0
:1010f00000000000000000000000000000000000f0
:1011000000000000000000000000000000000000df
:1011100000000000000000000000000000000000cf
:101120000000000000000000000000000080c0601f
:10113000180804060202010101000000008080403e
:10114000414a7820210f07000000000f00040761ca
:1011500030382423202020604080800000000000e0
:10116000000000000101010101020200040008006a
:101170002020c080000000000000000000000000ef
:10118000000000000000000000000000000000005f
:10119000000000000000000000000000000000004f
:1011a000000000000000806020100806030100001d
:1011b0000000000000806010080402030100000c21
:1011c0000e0e0000e01070c0c06060c000000e0f86
:1011d0000700000000000080c0601f000000000049
:1011e000000000004080884000f8a8a8a8a8a8f83f
:1011f00008008888f98b8a00f8a8a8f8a8e8880071
:10120000002020f8a0a0f8202000f0908888880016
:1012100000000000000000000000000000000000ce
:101220000060301c0601000000000000000000000b
:1012300000000000000708101090d060202000007f
:1012400000002060f0090c07454e4bd870400008a4
:1012500008080804140412332040c00000000000f5
:101260000000000010fc035242af964e261e86c7b7
:101270003e0240201f10e0100f74042714a4fc004d
:101280000088482f0a0a0fe848380f00ff000000c6
:101290000000000000000000000000000000e00a64
:1012a000010000000000000000000000000000003d
:1012b000000000000000807e02010000000000002d
:1012c000008080c0403f00202020ef7930202000a7
:1012d000000000000000000000000003040cf040cb
:1012e000404040c00000000000000000000000007e
:1012f00000000000000000000000000000020018d4
:10130000002000800000000000000000000000003d
:1013100080800080808000808080808040b48280d7
:1013200080808080808080808080808080808080bd
:10133000808080808080838c3060c080808000804e
:101340008080c040c33e000040404f5850f02020f5
:101350002020404040602020202030104c86838692
:10136000848484838080800080800080808000006e
:10137000000000000000000000000000000000006d
:1013800000000000000100020c10f000000000004e
:10139000000000000000000000000000000000004d
:1013a000000000000000000000000000000000003d
:1013b000000000000000000000000000000001012b
:1013c0000100000001060c0808080c0602010000dc
:1013d000000000000000000000000000000000000d
:1013e00000000000000000000000000000000100fc
:1013f00000000101000100010102020002020200de
:1014000002020000020202030101010101010101c7
:020000040000fa
:1014100000000000000000000000000000000000cc
:1014200000000000000000000000000000000000bc
:1014300000000000000000000000000000000000ac
:101440000080406020103020c08000000080c0205c
:101450002020202060c000000000000000000000ec
:10146000000000000000000000000000000000007c
:10147000000000000000000000000000000000006c
:1014800000000000000080000000000000000000dc
:10149000000000000000000000000000000000004c
:1014a000000000000000000000000000000000003c
:1014b000000000000000000080808040603000fce0
:1014c0000300003ce606fc0000011ef0fc03f8ce21
:1014d000631e0000e03f0000000000000810200034
:1014e0002040c080800000000000000000000000dc
:1014f00000000000000000000000000000000002ea
:10150000c428100808040708080838c402000000ae
:1015100000000000000000000000000000000000cb
:101520000000000000000000000000000080c0601b
:10153000180804060202010101000000008080403a
:10154000414a7820210f07000000000f00040761c6
:1015500030382423202020604080800000000000dc
:101560000000000001010101010202000400080066
:101570002020c080000000000000000000010141a8
:10158000231c10102020e02020101c23410101000a
:10159000000000000000000000000000000000004b
:1015a0000000000000008060201008060301000019
:1015b0000000000000806010080402030100000c1d
:1015c0000e0e0000e01070c0c06060c000000e0f82
:1015d0000700000000000080c0601f000000000045
:1015e000000000004080884000f8a8a8a8a8a8f83b
:1015f00008008888f98b8a00f8a8a8f8a8e888006d
:10160000002020f8a0a0f9202000f0908888880011
:1016100000000000000000000000000000000000ca
:101620000060301c06010000000000000000000007
:1016300000000000000708101090d060202000007b
:1016400000002060f0090c07454e4bd870400008a0
:1016500008080804140412332040c00000000000f1
:101660000000000010fc035242af964e261e86c7b3
:101670003e0240201f10e0100f74042714a4fc0049
:101680000088482f0a0a0fe848380f00ff000000c2
:101690000000000000000000000000000000e00a60
:1016a0000100000000000000000000000000000039
:1016b000000000000000807e020100000000000029
:1016c000008080c0403f00202020ef7930202000a3
:1016d000000000000000000000000003040cf040c7
:1016e000404040c00000000000000000000000007a
:1016f00000000000000000000000000000020018d0
:101700000020008000000000000000000000000039
:1017100080800080808000808080808040b48280d3
:1017200080808080808080808080808080808080b9
:10173000808080808080838c3060c080808000804a
:101740008080c040c33e000040404f5850f02020f1
:101750002020404040602020202030104c8683868e
:10176000848484838080800080800080808000006a
:101770000000000000000000000000000000000069
:1017800000000000000100020c10f000000000004a
:101790000000000000000000000000000000000049
:1017a0000000000000000000000000000000000039
:1017b0000000000000000000000000000000010127
:1017c0000100000001060c0808080c0602010000d8
:1017d0000000000000000000000000000000000009
:1017e00000000000000000000000000000000100f8
:1017f00000000101000100010102020002020200da
:1018000002020000020202030101010101010101c3
:020000040000fa
:1018100000000000000000000000000000000000c8
:1018200000000000000000000000000000048850dc
:10183000201010080f101010708804000000000025
:101840000080406020103020c08000000080c02058
:101850002020202060c000000000000000000000e8
:101860000000000000000000000000000000000078
:101870000000000000000000000000000000000068
:101880000000000000000000000000000000000058
:101890000000000000000000000000000000000048
:1018a0000000000000000000000000020282473833
:1018b00020204040c0404020b8c78242623000fc37
:1018c0000300003ce606fc0000011ef0fc03f8ce1d
:1018d000631e0000e03f0000000000000810200030
:1018e0002040c080800000000000000000000000d8
:1018f00000000000000000000000000000000000e8
:1019000000000000000000000000000000000000d7
:1019100000000000000000000000000000000000c7
:101920000000000000000000000000000080c06017
:101930001808040603020101010000000080804035
:10194000414a7820210f07000000000f00040761c2
:1019500030382423202020604080800000000000d8
:101960000000000001010101010202000400080062
:101970002020c080000000000000000000000000e7
:101980000000000000000000000000000000000057
:101990000000000000000000000000000000000047
:1019a0000000000000008060201008060301000015
:1019b0000000000000806010080402030100000c19
:1019c0000e0e0000e01070c0c06060c000000e0f7e
:1019d0000700000000000080c0601f000000000041
:1019e000000000004080884000f8a8a8a8a8a8f837
:1019f00008008888f98b8a00f8a8a8f8a8e8880069
:101a0000002020f8a0a0f8202000f090888888000e
:101a100000000000000000000000000000000000c6
:101a20000060301c06010000000000000000000003
:101a300000000000000708101090d0602020000077
:101a400000002060f0090c07454e4bd8704000089c
:101a500008080804140412332040c00000000000ed
:101a60000000000010fc035242af964e261e86c7af
:101a70003e0240201f10e0100f74042714a4fc0045
:101a80000088482f0a0a0fe848380f00ff000000be
:101a90000000000000000000000000000000e00a5c
:101aa0000100000000000000000000000000000035
:101ab000000000000000807e020100000000000025
:101ac000008080c0403f00202020ef79302020009f
:101ad000000000000000000000000003040cf040c3
:101ae000404040c000000000000000000000000076
:101af00000000000000000000000000000020018cc
:101b00000020008000000000000000000000000035
:101b100080800080808000808080808040b48280cf
:101b200080808080808080808080808080808080b5
:101b3000808080808080838c3060c0808080008046
:101b40008080c040c33e000040404f5850f02020ed
:101b50002020404040602020202030104c8683868a
:101b60008484848380808000808000808080000066
:101b70000000000000000000000000000000000065
:101b800000000000000100020c10f0000000000046
:101b90000000000000000000000000000000000045
:101ba0000000000000000000000000000000000035
:101bb0000000000000000000000000000000010123
:101bc0000100000001060c0808080c0602010000d4
:101bd0000000000000000000000000000000000005
:101be00000000000000000000000000000000100f4
:101bf00000000101000100010102020002020200d6
:101c000002020000020202030101010101010101bf
:020000040000fa
:101c100000000020408000808040788080808040ec
:101c20002000000000000000000000000000000094
:101c300000000000000000000000000000000000a4
:101c40000080406020103020c08000000080c02054
:101c50002020202060c000000000000000000000e4
:101c60000000000000000000000000000000000074
:101c70000000000000000000000000000000000064
:101c80000000000000000000000000000000000054
:101c9000001010103cc20100000000000000c33c16
:101ca0001010100000000000000000000000000004
:101cb000000000000000000080808040603000fcd8
:101cc0000300003ce606fc0000011ef0fc03f8ce19
:101cd000631e0000e03f000000000000081020002c
:101ce0002040c080800000000000000000000000d4
:101cf00000000000000000000000000000000000e4
:101d000000000000000000000000000000000000d3
:101d1000000000040201010102021e020201010290
:101d20000400000000000000000000000080c0600f
:101d30001808040602020101010000000080804032
:101d4000414a7820210f07000000000f00040761be
:101d500030382423202020604080800000000000d4
:101d6000000000000101010101020200040008005e
:101d70002020c080000000000000000000000000e3
:101d80000000000000000000000000000000000053
:101d90000000000000000000000000000000000043
:101da0000000000000008060201008060301000011
:101db0000000000000806010080402030100000819
:101dc00008080000e01070c0c06060c0000808088b
:101dd0000000000000000080c0601f000000000044
:101de000000000004080884000f8a8a8a8a8a8f833
:101df00008008888f98b8a00f8a8a8f8a8e8880065
:101e0000002020f8a0a0f8202000f090888888000a
:101e100000000000000000000000000000000000c2
:101e20000060301c060100000000000000000000ff
:101e300000000000000708101090d0602020000073
:101e400000002060f0090c07454e4bd87040000898
:101e500008080804140412332040c00000000000e9
:101e60000000000010fc035242af964e261e86c7ab
:101e70003e0240201f10e0100f74042714a4fc0041
:101e80000088482f0a0a0fe848380f00ff000000ba
:101e90000000000000000000000000000000e00a58
:101ea0000100000000000000000000000000000031
:101eb000000000000000807e020100000000000021
:101ec000008080c0403f00202020ef79302020009b
:101ed000000000000000000000000003040cf040bf
:101ee000404040c000000000000000000000000072
:101ef00000000000000000000000000000020018c8
:101f00000020008000000000000000000000000031
:101f100080800080808000808080808040b48280cb
:101f200080808080808080808080808080808080b1
:101f3000808080808080838c3060c0808080008042
:101f40008080c040c33e000040404f5850f02020e9
:101f50002020404040602020202030104c86838686
:101f60008484848380808000808000808080000062
:101f70000000000000000000000000000000000061
:101f800000000000000100020c10f0000000000042
:101f90000000000000000000000000000000000041
:101fa0000000000000000000000000000000000031
:101fb000000000000000000000000000000001011f
:101fc0000100000001060c0808080c0602010000d0
:101fd0000000000000000000000000000000000001
:101fe00000000000000000000000000000000100f0
:101ff00000000101000100010102020002020200d2
:1020000002020000020202030101010101010101bb
:020000040000fa
:1020100000000000000000000000000000000000c0
:1020200000000000000000000000000000000000b0
:1020300000000000000000000000000000000000a0
:102040000080406020103020c08000000080c02050
:102050002020202060c000000000000000000000e0
:102060000000000000000000000000000000000070
:102070000000000000000000000000000000000060
:102080000000000000000000000000000000000050
:102090000000000000000000000000000000000040
:1020a0000000000000000000000000000000000030
:1020b000000000000000000080c08040603000fc94
:1020c0000300003ce606fc0000011ef0fc03f8ce15
:1020d000631e0000e03f0000000000000810200028
:1020e0002040c080800000000000000000000000d0
:1020f00000000000000000000000000000000000e0
:1021000000000000000000000000000000000000cf
:10211000000040800000000080f0000000008040cf
:102120000000000000000000000000000080c0600f
:10213000180804060202010101000000008080402e
:10214000414a7820210f07000000000f00040761ba
:1021500030382423202020604080800000000000d0
:10216000000000000101010101020200040008005a
:102170002020c080000000000000000000000000df
:10218000000000000000000000000000000000004f
:1021900020202078850201010000010101877820bc
:1021a00020200000000080602010080603010000cd
:1021b0000000000000806010080402030100000c11
:1021c0000e0e0000e01070c0c06060c000000e0f76
:1021d0000700000000000080c0601f000000000039
:1021e000000000004080884000f8a8a8a8a8a8f82f
:1021f00008008888f98b8a00f8a8a8f8a8e8880061
:10220000002020f8a0a0f8202000f0908888880006
:102210000000080403020204043c0404020304084e
:102220000060301c060100000000000000000000fb
:1022300000000000000708101090d060202000006f
:1022400000002060f0090c07454e4bd87040000894
:1022500008080804140412332040c00000000000e5
:102260000000000010fc035242af964e261e86c7a7
:102270003e0240201f10e0100f74042714a4fc003d
:102280000088482f0a0a0fe848380f00ff000000b6
:102290000000000000000000000000000000e00a54
:1022a000010000000000000000000000000000002d
:1022b000000000000000807e02010000000000001d
:1022c000008080c0403f00202020ef793020200097
:1022d000000000000000000000000003040cf040bb
:1022e000404040c00000000000000000000000006e
:1022f00000000000000000000000000000020018c4
:10230000002000800000000000000000000000002d
:1023100080800080808000808080808040b48280c7
:1023200080808080808080808080808080808080ad
:10233000808080808080838c3060c080808000803e
:102340008080c040c33e000040404f5850f02020e5
:102350002020404040602020202030104c86838682
:10236000848484838080800080800080808000005e
:10237000000000000000000000000000000000005d
:1023800000000000000100020c10f000000000003e
:10239000000000000000000000000000000000003d
:1023a000000000000000000000000000000000002d
:1023b000000000000000000000000000000001011b
:1023c0000100000001060c0808080c0602010000cc
:1023d00000000000000000000000000000000000fd
:1023e00000000000000000000000000000000100ec
:1023f00000000101000100010102020002020200ce
:1024000002020000020202030101010101010101b7
:020000040000fa
:1024100000000000000000000000000000000000bc
:1024200000000000000000000000000000000000ac
:10243000000000000000000000000000000000009c
:102440000080406020103020c08000000080c0204c
:102450002020202060c000000000000000000000dc
:10246000000000000000000000000000000000006c
:10247000000000000000000000000000000000005c
:10248000000000000000000000000000000000004c
:10249000000000000000000000000000000000003c
:1024a000000000000000000000000000000000002c
:1024b000000000000000000080808040603000fcd0
:1024c0000300003ce606fc0000011ef0fc03f8ce11
:1024d000631e0000e03f0000000000000810200024
:1024e0002040c080800000000000000000000000cc
:1024f00000000000000000000000000000000000dc
:1025000000000000000000000000000000000000cb
:1025100000000000000000000000000000000000bb
:102520000000000000000000000000000080c0600b
:10253000180804060202010101000000008080402a
:10254000414a7820210f07000000000f00040761b6
:1025500030382423202020604080800000000000cc
:102560000000000001010101010202000400080056
:102570002020c080000000000000000000000000db
:10258000000000000000000000000000000000004b
:10259000000000000000000000000000000000003b
:1025a0000000000000008060201008060301000009
:1025b0000000000000806010080402030100000811
:1025c00008080000e01070c0c06060c00008080883
:1025d0000000000000000080c0601f00000000003c
:1025e000000000004080884000f8a8a8a8a8a8f82b
:1025f00008008888f98b8a00f8a8a8f8a8e888005d
:10260000002020f8a0a0f8202000f0908888880002
:1026100000000000000000000000000000000000ba
:102620000060301c060100000000000000000000f7
:1026300000000000000708101090d060202000006b
:1026400000002060f0090c07454e4bd87040000890
:1026500008080804140412332040c00000000000e1
:102660000000000010fc035242af964e261e86c7a3
:102670003e0240201f10e0100f74042714a4fc0039
:102680000088482f0a0a0fe848380f00ff000000b2
:10269000000000000000000000c000000000e00a90
:1026a0000100000000000000000000000000000029
:1026b000000000000000807e020100000000000019
:1026c000008080c0403f00202020ef793020200093
:1026d000000000000000000000000003040cf040b7
:1026e000404040c00000000000000000000000006a
:1026f00000000000000000000000000000020018c0
:102700000020008000000000000000000000000029
:10271000808001e2948804848283848404b482806b
:1027200080808080808080808080808080808080a9
:10273000808080808080838c3060c080808000803a
:102740008080c040c33e000040404f5850f02020e1
:102750002020404040602020202030104c8683867e
:10276000848484838080800080800080808000005a
:102770000000000000000000000000000000000059
:1027800000000000000100020c10f000000000003a
:102790000000000000000000000000000000000039
:1027a0000000000000000000000000000000000029
:1027b0000000000000000000000000000000010117
:1027c0000100000001060c0808080c0602010000c8
:1027d00000000000000000000000000000000000f9
:1027e00000000000000000000000000000000100e8
:1027f00000000101000100010102020002020200ca
:1028000002020000020202030101010101010101b3
:020000040000fa
:1028100000000000000000000000000000000000b8
:1028200000000000000000000000000000000000a8
:102830000000000000000000000000000000000098
:102840000080406020103020c08000000080c02048
:102850002020202060c000000000000000000000d8
:102860000000000000000000000000000000000068
:102870000000000000000000000000000000000058
:102880000000000000000000000000000000000048
:102890000000000000000000000000000000000038
:1028a0000000000000000000000000000000000028
:1028b000000000000000000080808040603000fccc
:1028c0000300003ce606fc0000011ef0fc03f8ce0d
:1028d000631e0000e03f0000000000000810200020
:1028e0002040c080800000000000000000000000c8
:1028f00000000000000000000000000000000000d8
:1029000000000000000000000000000000000000c7
:1029100000000000000000000000000000000000b7
:102920000000000000000000000000000080c06007
:102930001808040602020101010000000080804026
:10294000414a7820210f07000000000f00040761b2
:1029500030382423202020604080800000000000c8
:102960000000000001010101010202000400080052
:102970002020c080000000000000000000000000d7
:102980000000000000000000000000000000000047
:102990000000000000000000000000000000000037
:1029a0000000000000008060201008060301000005
:1029b0000000000000806010080402030100000c09
:1029c0000e0e0000e01070c0c06060c000000e0f6e
:1029d0000700000000000080c0601f000000000031
:1029e000000000004080884000f8a8a8a8a8a8f827
:1029f00008008888f98b8a00f8a8a8f8a8e8880059
:102a0000002020f8a0a0f8202000f09088888800fe
:102a100000000000000000000000000000000000b6
:102a20000060301c060100000000000000000000f3
:102a300000000000000708101090d0602020000067
:102a400000002060f0090c07454e4bd8704000088c
:102a500008080804140412332040c00000000000dd
:102a60000000000010fc035242af964e261e86c79f
:102a70003e0240201f10e0100f74042714a4fc0035
:102a80000088482f0a0a0fe848380f00ff000000ae
:102a90000000000000000000000000000000e00a4c
:102aa0000100000000000000000000000000000025
:102ab000000000000000807e020100000000000015
:102ac000008080c0403f00202020ef79302020008f
:102ad000000000000000000000000003040cf040b3
:102ae000404040c000000000000000000000000066
:102af00000000000000000000000000000020018bc
:102b000000200080000000000000020e1c34c88875
:102b100080800080808000808080808040b48280bf
:102b200080808080808080808080808080808080a5
:102b3000808080808080838c3060c0808080008036
:102b40008080c040c33e000040404f5850f02020dd
:102b50002020404040602020202030104c8683867a
:102b60008484848380808000808000808080000056
:102b70000000000000000000000000000000000055
:102b800000000000000100020c10f0000000c07303
:102b90000000000000000000000000000000000035
:102ba0000000000000000000000000000000000025
:102bb0000000000000000000000000000000010113
:102bc0000100000001060c0808080c0602010000c4
:102bd00000000000000000000000000000000000f5
:102be00000000000000000000000000000000100e4
:102bf00000000101000100010102020002020200c6
:102c000002020000020202030101010101010101af
:020000040000fa
:102c100000000000000000000000000000000000b4
:102c200000000000000000000000000000000000a4
:102c30000000000000000000000000000000000094
:102c40000080406020103020c08000000080c02044
:102c50002020202060c000000000000000000000d4
:102c60000000000000000000000000000000000064
:102c70000000000000000000000000000000000054
:102c80000000000000000000000000000000000044
:102c90000000000000000000000000000000000034
:102ca0000000000000000000000000000000000024
:102cb000000000000000000080808040603000fcc8
:102cc0000300003ce606fc0000011ef0fc03f8ce09
:102cd000631e0000e03f000000000000081020001c
:102ce0002040c080800000000000000000000000c4
:102cf00000000000000000000000000000000000d4
:102d0000043c68d0103060c080000000000000006b
:102d100000000000000000000000000000000000b3
:102d20000000000000000000000000000080c06003
:102d30001808040602020101010000000080804022
:102d4000414a7820210f07000000000f00040761ae
:102d500030382423202020604080800000000000c4
:102d6000000000000101010101020200040008004e
:102d70002020c080000000000000000000000000d3
:102d8000000000c13f0000c07f0000000000000004
:102d90000000000000000000000000000000000033
:102da0000000000000008060201008060301000001
:102db0000000000000806010080402030100000809
:102dc00008080000e01070c0c06060c00000080883
:102dd0000000000000000080c0601f000000000034
:102de000000000004080884000f8a8a8a8a8a8f823
:102df00008008888f98b8a00f8a8a8f8a8e8880055
:102e0000003c37f9aca4ff212000f09088888800ae
:102e100000000000000000000000000000000000b2
:102e20000060301c060100000000000000000000ef
:102e300000000000000708101090d0602020000063
:102e400000002060f0090c07454e4bd87040000888
:102e500008080804140412332040c00000000000d9
:102e60000000000010fc035242af964e261e86c79b
:102e70003e0240201f10e0100f74042714a4fc0031
:102e80000088482f0a0a0fe848380f00ff000000aa
:102e90000000000000000000000000000000e00a48
:102ea0000100000000000000000000000000000021
:102eb000000000000000807e020100000000000011
:102ec000008080c0403f00202020ef79302020008b
:102ed000000000000000000000000003040cf040af
:102ee000404040c000000000000000000000000062
:102ef00000000000000000000000000000020018b8
:102f00000020008000000000000000000000000021
:102f100080800080808000808080808040b48280bb
:102f200080808080808080808080808080808080a1
:102f3000808080808080838c3060c0808080008032
:102f40008080c040c33e000040404f5850f02020d9
:102f50002020404040602020202030104c86838676
:102f60008484848380808000808000808080000052
:102f70000000000000000000000000000000000051
:102f800000000000000100020c10f0000000000032
:102f90000000000000000000000000000000000031
:102fa0000000000000000000000000000000000021
:102fb000000000000000000000000000000001010f
:102fc0000100000001060c0808080c0602010000c0
:102fd00000000000000000000000000000000000f1
:102fe00000000000000000000000000000000100e0
:102ff00000000101000100010102020002020200c2
:1030000002020000020202030101010101010101ab
:020000040000fa
:1030100000000000000000000000000000000000b0
:1030200000000000000000000000000000000000a0
:103030000000000000000000000000000000000090
:103040000080406020103020c08000000080c02040
:103050002020202060c000000000000000000000d0
:103060000000000000000000000000000000000060
:1030700000000000000000000000043c68d0103098
:1030800060c08000000000000000000000000000a0
:103090000000000000000000000000000000000030
:1030a0000000000000000000000000000000000020
:1030b000000000000000000080808040603000fcc4
:1030c0000300003ce606fc0000011ef0fc03f8ce05
:1030d000631e0000e03f0000000000000810200018
:1030e0002040c080800000000000000000000000c0
:1030f00000000000000000000000000000c13f00d0
:1031000000c07f0000000000000000000000000080
:1031100000000000000000000000000000000000af
:103120000000000000000000000000000080c060ff
:10313000180804060202010101000000008080401e
:10314000414a7820210f07000000000f00040761aa
:1031500030382423202020604080800000000000c0
:10316000000000000101010101020200040008004a
:103170002020c080000000000000001c17190c0473
:103180000701000000000000000000000000000037
:10319000000000000000000000000000000000002f
:1031a00000000000000080602010080603010000fd
:1031b0000000000000806010080402030100000c01
:1031c0000e0e0000e01070c0c06060c000000e0f66
:1031d0000700000000000080c0601f000000000029
:1031e000000000004080884000f8a8a8a8a8a8f81f
:1031f00008008888f98b8a00f8a8a8f8a8e8880051
:10320000002020f8a0a0f8202000f09088888800f6
:1032100000000000000000000000000000000000ae
:103220000060301c060100000000000000000000eb
:1032300000000000000708101090d060202000005f
:1032400000002060f0090c07454e4bd87040000884
:1032500008080804140412332040c00000000000d5
:103260000000000010fc035242af964e261e86c797
:103270003e0240201f10e0100f74042714a4fc002d
:103280000088482f0a0a0fe848380f00ff000000a6
:103290000000000000000000000000000000e00a44
:1032a000010000000000000000000000000000001d
:1032b000000000000000807e02010000000000000d
:1032c000008080c0403f00202020ef793020200087
:1032d000000000000000000000000003040cf040ab
:1032e000404040c00000000000000000000000005e
:1032f00000000000000000000000000000020018b4
:10330000002000800000000000000000000000001d
:1033100080800080808000808080808040b48280b7
:10332000808080808080808080808080808080809d
:10333000808080808080838c3060c080808000802e
:103340008080c040c33e000040404f5850f02020d5
:103350002020404040602020202030104c86838672
:10336000848484838080800080800080808000004e
:10337000000000000000000000000000000000004d
:1033800000000000000100020c10f000000000002e
:10339000000000000000000000000000000000002d
:1033a000000000000000000000000000000000001d
:1033b000000000000000000000000000000001010b
:1033c0000100000001060c0808080c0602010000bc
:1033d00000000000000000000000000000000000ed
:1033e00000000000000000000000000000000100dc
:1033f00000000101000100010102020002020200be
:1034000002020000020202030101010101010101a7
:020000040000fa
:1034100000000000000000000000000080e0c0008c
:10342000000000000000000000000000000000009c
:10343000000000000000000000000000000000008c
:103440000080406020103020c08000000080c0203c
:103450002020202060c000000000000000000000cc
:10346000000000000000000000000000000000005c
:1034700000000000000000000000043c68d0103094
:1034800060c080000000000000000000000000009c
:103490000000000000020e9efefcfcffffff3f1c30
:1034a00018180000000000000000000000000000ec
:1034b000000000000000000080808040603000fcc0
:1034c0000300003ce606fc0000011ef0fc03f8ce01
:1034d000631e0000e03f0000000000000810200014
:1034e0002040c080800000000000000000000000bc
:1034f00000000000000000000000000000c13f00cc
:1035000000c07f000000000000000000000000007c
:103510000000000030181e07030101073f3f0000b4
:103520000000000000000000000000000080c060fb
:10353000180804060202010101000000008080401a
:10354000414a7820210f07000000000f00040761a6
:1035500030382423202020604080800000000000bc
:103560000000000001010101010202000400080046
:103570002020c080000000000000001c17190c046f
:103580000701000000000000000000000000000033
:10359000000000000000000000000000000000002b
:1035a00000000000000080602010080603010000f9
:1035b0000000000000806010080402030100000cfd
:1035c0000e0e0000e01070c0c06060c000000e0f62
:1035d0000700000000000080c0601f000000000025
:1035e000000000004080884000f8a8a8a8a8a8f81b
:1035f00008008888f98b8a00f8a8a8f8a8e888004d
:10360000002020f8a0a0f8202000f09088888800f2
:1036100000000000000000000000000000000000aa
:103620000060301c060100000000000000000000e7
:1036300000000000000708101090d060202000005b
:1036400000002060f0090c07454e4bd87040000880
:1036500008080804140412332040c00000000000d1
:103660000000000010fc035242af964e261e86c793
:103670003e0240201f10e0100f74042714a4fc0029
:103680000088482f0a0a0fe848380f00ff000000a2
:103690000000000000000000000000000000e00a40
:1036a0000100000000000000000000000000000019
:1036b000000000000000807e020100000000000009
:1036c000008080c0403f00202020ef793020200083
:1036d000000000000000000000000003040cf040a7
:1036e000404040c00000000000000000000000005a
:1036f00000000000000000000000000000020018b0
:103700000020008000000000000000000000000019
:1037100080800080808000808080808040b48280b3
:103720008080808080808080808080808080808099
:10373000808080808080838c3060c080808000802a
:103740008080c040c33e000040404f5850f02020d1
:103750002020404040602020202030104c8683866e
:10376000848484838080800080800080808000004a
:103770000000000000000000000000000000000049
:1037800000000000000100020c10f000000000002a
:103790000000000000000000000000000000000029
:1037a0000000000000000000000000000000000019
:1037b0000000000000000000000000000000010107
:1037c0000100000001060c0808080c0602010000b8
:1037d00000000000000000000000000000000000e9
:1037e00000000000000000000000000000000100d8
:1037f00000000101000100010102020002020200ba
:1038000002020000020202030101010101010101a3
:020000040000fa
:103810002de9f04f242985b006460f46144601d8fd
:10382000012903d1b64b16221a6050e0f36bf26cfb
:10383000934220d25a1cf26318782028f6d0a0f1c7
:103840000903042bf2d92b2801d02d281bd1f36baf
:10385000f26c2d284ff0ff3a18bf4ff0000a934248
:103860000dd25a1cf2631878f26c7fb1102f4ed132
:1038700030280dd04be0304603f0b2f8dde730469b
:1038800003f0aef8f0e74ff0000aede730283dd145
:10389000f36b934222d25a1cf263187840f0200353
:1038a000782b2ad1f36bf26c93421bd25a1cf26331
:1038b0001878944b03445b780f2b40f2c180f36c73
:1038c000002b00f09581f36b84b1023bf36300247d
:1038d00000252046294605b0bde8f08f304603f0ac
:1038e0007ff8dbe7304603f07bf8e2e7013bf36368
:1038f0000021304603f0b2ffe9e7002f00f0eb8033
:103900000a2f40f09e8000247f4d1ae00a277d4b4d
:1039100003445b78bb42f3d312b1f36b013bf36317
:103920000021304603f09aff7ce70a2303fb0404de
:10393000f26bf36c9a42a4f130046bd2531cf36324
:103940001078a0f13003092b01d8ac42edd9002545
:10395000a0f1300109293dd86c4b4ff09932ab42b0
:1039600008bfa24217d34fea850ca3001b194ceaeb
:10397000947245eb020213eb03086fea0103009314
:103980004ff0ff33019342eb0209dde900234b4581
:1039900008bf424542d25b4b184498464278ba422f
:1039a00018d2f36bf26c934280f00a815a1cf263d6
:1039b000187840444378bb42f3d3514b0e992222ee
:1039c0001a60dde90e45002301f00102134318bf20
:1039d0004ff0000af36c13b1f36b013bf363dde9c5
:1039e0000e239d4208bf9442c0f0fa800e99002336
:1039f00001f00102134340f0e780baf1000f40f0fc
:103a0000e3803f4b22221a600f9b11f1ff3443f1f8
:103a1000ff355ee7304602f0e3ff92e718eb010462
:103a20004ff0000349eb0305f26bf36c9a4203d2ab
:103a3000531cf36310788be7304602f0d1ff87e721
:103a400010277c1e3c402f4d40f0b48017237b4351
:103a5000c3f342132b4493f801b12b185b789f42b8
:103a600002d9b4f1006f38d34ff0ff33cbf120010e
:103a7000abf1200223fa0bf803fa01f148ea01083e
:103a800023fa02f2002548ea020823fa0bf91d4b3b
:103a9000034459788f427ff67eafa94508bfa04501
:103aa000fff479afabf1200004fa00f005fa0bf255
:103ab000cbf12003024324fa03f342ea0305f26b3d
:103ac000f36c04fa0bf09a4241ea000414d2531c3e
:103ad000f3631078dbe70827b3e704fa0bf41c4321
:103ae000f26bf36c9a4203d2531cf3631078b4e781
:103af000304602f075ffb0e7304602f071ffc6e7ce
:103b00001015002030580000989999199999991921
:103b100004fb0734f26bf36c9a4247d2531cf363f5
:103b200010782b185b789f4202d9334a9442efd920
:103b30000025324b034459788f427ff62caf4ff06b
:103b400000084ff0000965b1a4fb07234ff0000cfb
:103b50001a466346e5fb07231bb14ff001084ff0ff
:103b6000000958ea09037ff416af5ffa81f86fea9b
:103b7000080102914ff0ff310391dde902bca7fb80
:103b8000042307fb05339c4508bf93454ff000090c
:103b9000fff401af12eb080443eb0905f26bf36c81
:103ba0009a4209d2531cf3631078c2e7304602f000
:103bb00017ffb6e70024b4e7304602f011ffb8e77c
:103bc000304602f00dfff4e6dde90e23ab4208bffc
:103bd000a24205d20a4b22221a60dde90e4578e6a0
:103be000baf1ff3f7ff475ae644265eb450570e6c0
:103bf000002c7ff46cae7be6c6711c0730580000c9
:043c0000101500207b
:020000040000fa
:103c04002de9804885b0002003f06efa0021a54814
:103c140003f018ff03f0b4fd0021a34803f0fafefb
:103c240003f0a2fd0021a14803f024ff0021a048d5
:103c340003f01aff01219f4803f07ef99e4800f02b
:103c4400fbfa00219d4803f009ff00219c4803f082
:103c54001dff03f0a1fd03f0b7fd03f06dfd03f0bc
:103c640007f90121002003f0d3fd0021012003f016
:103c7400cffd00240294934d019504230093234621
:103c840022462146802001f039ff4ff47a71204604
:103c940003f038fe322002f063f94ff4fa71204643
:103ca40003f030fe029401950827009723466ff035
:103cb4007f022146204601f021ff0121204603f026
:103cc400a7fd0121084603f0a3fd012003f0c6fc73
:103cd400012003f093fc782301937b4b009323464c
:103ce40001222146204601f0dfff03f0a5fe06462f
:103cf40003f004ff4ff47a7506fb0556b6fbf0f6a5
:103d04000196724b0093234601223946204601f066
:103d1400cbff03f079fe064603f0dcfe06fb0555f7
:103d2400b5fbf0f501956a4b00932346012210215f
:103d3400204601f0b9ff674b009323460122382146
:103d4400204601f0b1ff02f02bfa634ddff8d08179
:103d5400dff8d0a1614cdff8d091a1e000232b70f3
:103d64004ff48053c8f81c305d4800f065fa03f046
:103d74001ffd03f035fd1ae05a4b1b7801935a4b93
:103d84000093002301221821184601f08dff02f050
:103d940007fa564b1b78002b31d1554b1b78002b5f
:103da40049d12378002b5cd12b78002bd6d1514bf1
:103db4001b78002bedd04f4b00221a704ff40053a8
:103dc400c8f81c304c4b1a78464b1e781644f6b291
:103dd4001e70731edbb2622b02d95242464b1a701c
:103de40003f0b6fc3b6b13f4002fc5d100fb06f3c4
:103df4000133aafb0323c3f35713fb67bce7002675
:103e04003a4b1e70dff8acb09bf800103b4800f052
:103e140013fa0121584603f08ff89bf80030019300
:103e2400374b0093334601223821304601f03cffe2
:103e340002f0b6f9b1e700262d4b1e70dff8ecb0a6
:103e4400bbf800102f4800f0f7f9bbf800300193dd
:103e54002d4b0093334601222021304601f024ffec
:103e64009fe700262670294f3988484600f0e4f978
:103e74007988274800f0e0f93b880193254b0093ab
:103e8400334601222821304601f00eff7b8801933e
:103e9400214b0093334601223021304601f004ffc8
:103ea4001e4f81e7cd780000e1780000317a0000f0
:103eb400257a000018150020e055000075750000f3
:103ec400d168000010100000f055000004560000f6
:103ed400185600002c5600001a1500201915002051
:103ee4003c5600001f150020505600001c150020f1
:103ef400861400201b1500207f1500206456000046
:103f04008056000094560000ac560000fc140020bb
:103f1400d8560000f456000000570000008001410c
:103f2400008000411f85eb51b856000002080020b4
:020000040000fa
:103f34002de9f041aeb006461546059100270599d6
:103f44000b78002b00f0fa8000244ff0ff33cde90a
:103f540009430eab0c9380230b940d930b5d0bb1b3
:103f6400252b26d134b12246304603f081f8059b37
:103f740023440593059b1a78252a40f0d78003f142
:103f84000108cdf81480059803782b2b1ad025d876
:103f9400202b1bd0232b1dd02a2b27d002f000ff6f
:103fa4000b90059b1a78303a092a2ed801330593d1
:103fb400f7e70134d2e7099b43f001030130099389
:103fc4000590e0e7099b43f00403f7e7099b43f0fe
:103fd4000803f3e7099b43f01003efe72d2bead026
:103fe400302bd9d1099b43f00203e7e72b681a1d54
:103ff4001b682a600130002b05900b9305da099a9f
:104004005b4282f0010209920b93099bda0744bfd9
:1040140023f002030993059b1a782e2a0dd100225e
:10402400581c0a9205905a782a2a25d102330593fe
:104034002b681a1d1b682a600a9305a802f0faff70
:10404400059b0390187803f0cbfc6928039979d079
:1040540032dc632800f0cb8019dc252800f0d980fd
:10406400612853d000234ff0ff32cdf81480099318
:104074000b930a920093d4e002f092fe0a90059bff
:104084001a78303a092ad8d801330593f7e7642817
:1040940058d06728e6dc2a4606a803f02bfa002845
:1040a40000f0a180059b5a1c05921b7806aa09a959
:1040b4003046fcf7ebf838e0702873d015dc6e2836
:1040c40000f08c806f28cdd12b46002206a801f089
:1040d4004bfe002800f08780059b06aa013309a93e
:1040e4003046059302f08cfa1fe075283ad0782800
:1040f40048d07328b6d1802975d1059b2a6801332d
:104104000593131d2b60126800237de02a4606a840
:1041140003f0f0f9002866d0059b5a1c05921b7821
:1041240006aa09a93046fcf711fb04443c44a74203
:104134007add3e4b4f221a604ff0ff3738462eb0df
:10414400bde8f0812b46012206a801f00dfe0028ef
:1041540049d0059b06aa013309a93046059301f00d
:1041640059fee2e72b46002206a801f0fdfd0028d7
:1041740039d0059b06aa013309a93046059302f0fc
:1041840085fcd2e72b46002206a801f0edfd50b3d2
:10419400059b5a1c05921b7806aa09a9304601f012
:1041a400b3fac2e72b460022f02106a801f0dcfd99
:1041b400c8b1059b01330593dde9062313430bd1f5
:1041c4001b4803f03dfb099b009319490b9b0246d6
:1041d400304602f069f8a8e77823dde72b463a1960
:1041e40006a802f0e1f8059b013305939ee78029b8
:1041f400f9d1059b013305932b681a1d1b682a60ae
:104204008df8183006aa012309a9304602f012fce1
:104214008be78029e7d1059b01330593099b009324
:104224000b9b04490122d3e7274688e6101500209a
:08423400f07a0000f67a0000a8
:020000040000fa
:10423c000fb42de9f047adf5876d0df58b6353f891
:10424c00042bcdf834344ff480610da802f00afb36
:10425c000dac9c4d9c4e9d4f08e06378402b22d0ba
:10426c00232b25d014f8010b03f0a2f92378002b93
:10427c0000f022815c2bf0d0402b1ed02378232b16
:10428c00f0d105222946204603f046f930b105222b
:10429c008f49204603f040f9002861d1611d201d93
:1042ac0004f10a0c48e0402003f082f90234dde707
:1042bc00232003f07df90234d8e7611c0a469046ae
:1042cc0012f8013ba3f130000928f8d92c2bf6d0b9
:1042dc003b2bd3d1a8eb0109b9f11f0fcedc0df1ab
:1042ec00140a4a46504603f0e5fb00230af809304d
:1042fc002c21504603f020fb0028bfd02c2101308c
:10430c0003f01afb0028b9d104ab03aa714905a824
:10431c0003f001fa0228b1d1a8eb040303f101095f
:10432c00b8f1ff3faad0039a04996b4802f07afccb
:10433c004c449be784450dd010f8013fa3f13002ab
:10434c00d2b2092af6d923f02003413bdbb2052b6c
:10435c00f0d902e0e37a3b2b5bd02378232b81d17d
:10436c0005223146204603f0d7f8002873d00522e9
:10437c003946204603f0d0f8002875d0052257495d
:10438c00204603f0c9f8002873d005225449204672
:10439c0003f0c2f8002871d005225249204603f0e0
:1043ac00bbf800286fd005224f49204603f0b4f823
:1043bc0000286dd005224d49204603f0adf80028a9
:1043cc006bd005224a49204603f0a6f8002869d094
:1043dc0005224849204603f09ff8002867d0204664
:1043ec0003f02afa04287ff63dafa04604f1030936
:1043fc0018f8010f03f082f900283ff433afc145e0
:10440c00f6d123793b2b02d0002b7ff42baf631d0d
:10441c0025e094f80180062205a803f04bfb00234d
:10442c008df81a3004ab009303ab02aa324905a8ed
:10443c0003f071f9032890d1b8f1420f049b039a51
:10444c0002990cbf2d482e4802f0ecfb14f10c0f16
:10445c0083d00c340ae72b4802f0e4fb631d002bdd
:10446c003ff400af053401e7274802f0dbfb631d86
:10447c00f5e7264802f0d6fb631df0e7244802f06e
:10448c00d1fb631debe7234802f0ccfb631de6e791
:10449c00214802f0c7fb631de1e7204802f0c2fb94
:1044ac00631ddce71e4802f0bdfb631dd7e71d480a
:1044bc0002f0b8fb631dd2e70df5876dbde8f04740
:1044cc0004b070475059000098590000a8590000da
:1044dc00585900003c59000044590000b8590000dc
:1044ec00c4590000d4590000e4590000f4590000ec
:1044fc00045a0000145a0000605900007059000062
:10450c0084590000a0590000b0590000c0590000a7
:10451c00cc590000dc590000ec590000fc5900009b
:08452c000c5a00001c5a0000ab
:020000040000fa
:104534002de9f04f099f154604468e461e46002b72
:1045440040f0cc808a42b2fa82fc4cd9bcf1000f14
:104554000bd0ccf1200801fa0cfe20fa08f802fa7c
:104564000cf548ea0e0e00fa0cf44fea15491ffa4e
:1045740085f8befbf9fa210c09fb1ae30afb08fbd8
:1045840041ea03439b452ad9eb180af1ff3004d2d0
:104594009b4502d9aaf102002b44a3eb0b03a4b25e
:1045a400b3fbf9f209fb123302fb08f844ea0344b3
:1045b400a04516d92c1902f1ff3303d2a04501d925
:1045c400931e2c44a4eb080443ea004027b124fac8
:1045d4000cf400233c607b603146bde8f08f50460c
:1045e400dbe71346eee702b9ffdebcf1000f2ed184
:1045f4008b1a01264fea154eaab2b3fbfef8210c22
:104604000efb183308fb02f941ea0343994561d9cb
:10461400eb1808f1ff3004d2994502d9a8f1020041
:104624002b44a3eb0903a4b2b3fbfef10efb11333d
:104634004a4344ea0344a2424ed92c1901f1ff3300
:1046440003d2a24201d98b1e2c44a41abce7ccf19c
:10465400200e02fa0cf521fa0ef901fa0cf320faf5
:104664000efe4eea03034fea154800fa0cf4b9fbb8
:10467400f8f11ffa85fe08fb1192180c01fb0ef6e7
:1046840040ea0242964221d9aa1801f1ff3003d22e
:10469400964201d9881e2a44921b9bb2b2fbf8f9b8
:1046a40008fb192209fb0efe43ea02439e450fd97b
:1046b400eb1809f1ff3604d29e4502d9a9f102068e
:1046c4002b44a3eb0e0346ea004693e70846e3e7d0
:1046d4004e46f6e74046a4e70b46b6e78b4206d9ba
:1046e400002f7ed00026c7e90001304674e7b3faf4
:1046f40083fcbcf1000f0fd18b4201d3824209d855
:10470400841a61eb030e0120002f6dd0c7e9004e1f
:10471400002661e76046f7e7ccf1200e03fa0cf3bc
:1047240022fa0ef521fa0ef41d4301fa0cf320fad5
:104734000ef10b434fea154a00fa0cf6b4fbfaf9f2
:104744001ffa85f80afb19401c0c09fb08f144ea1e
:104754000044a14202fa0cf23fd92c1909f1ff30ae
:1047640004d2a14202d9a9f102002c44641a9bb2da
:10477400b4fbfaf90afb194409fb08f843ea0441bb
:1047840088452cd9691809f1ff3304d2884502d928
:10479400a9f10203294443ea0040a1eb0801a0fb6c
:1047a40002894945c2464c4602d306d1464504d245
:1047b400b8eb020a69eb05040138afb1b6eb0a03a2
:1047c40061eb040606fa0efe23fa0cf34eea030329
:1047d40026fa0cf6c7e900369ae74846c6e74b4680
:0c47e400d9e73e463846f7e63e46f5e6cb
:020000040000fa
:1047f0003e514949453e004442417f4040004261ac
:104800005151494600224149494936003028242265
:104810007f2000274545454539003c4a49494932f2
:10482000000161110905030036494949493600264e
:10483000494949493e00781611111678007f4949c7
:10484000494936001c2241414122007f4141412219
:104850001c007f4949494941007f090909090100b4
:104860003e414149493a007f080808087f0041411c
:10487000417f4141004141413f0101007f08142235
:104880004141007f4040404040007f02040c027fd5
:10489000007f020c10207f003e414141413e007fdd
:1048a0000909090906003e41516141be007f09091d
:1048b00019294600264949494932000101017f0171
:1048c00001003f404040403f00031c6020180700ab
:1048d0007f201018207f006314080814630003046d
:1048e0007808040300416151494543002054545461
:1048f0003840007f4848483000003844444428008d
:1049000000384444247f00003854545448000008c0
:10491000087e090a00001824a4a4f800007f0804f7
:104920000478000000447d400000002040443d0029
:1049300000007f10282440000000007f00000000dd
:104940007c047c047800007c040404780000384473
:104950004444380000fc2424241800001824242493
:10496000fc00007c080404040000485454240000a7
:104970000004043f444400003c4040207c00001cf4
:104980002040201c00007c2018207c0000442810bf
:10499000284400009ca040201c00004464544c4467
:1049a00000001008081010080000005f0000000060
:1049b0001c2259655d522c10741f741f1400242a88
:1049c0007f2a1200004225122c522100040201020b
:1049d0000400002056495620500000001c224100cf
:1049e00000000041221c000000007f414100000047
:1049f0000041417f000000083641410000000041b5
:104a00004136080040404040404040000106083028
:104a100040000000007f00000000407b3b000000e1
:104a20000000363600000000402c1c000000000092
:104a30001818000000000103020000000000070039
:104a4000000000000700070000000008142200001a
:104a500000002214080000000008083e08080000ba
:104a60000808080800000014083e08140040300838
:104a70000601000000141414141400000251090669
:104a8000000000000000000000000205020000001d
:020000040000fa
:104a900030b591ea030f00f18280841a71eb030ca8
:104aa00005d2121953eb0c03001b71eb0c0140f201
:104ab000000ccff6e07c1cea430f52d0bceb410f58
:104ac0005fd90c0da4eb135e5ff0010c6cf31f516a
:104ad0006cf31f53def1200c2ad303fa0cf54019b6
:104ae00041f1000122fa0ef5401923fa0ef5694151
:104af00012fa0cf2cd0208d349085fea30005feaef
:104b0000320228bf42f001020134013c5fea500c3e
:104b100072f1004250f1000051eb04514ff40013c8
:104b200013eb410f38bf30bd6ff31301002030bdd0
:104b3000bef1200ebef1200f1ed223fa0ef5401951
:104b400041f10001cef1200c124218bf012203fafc
:104b50000cf52a43cee711ea5c0f04bf00200021c8
:104b600030bd1cea410f04bf01f00041002030bd00
:104b700001f00041002030bd21f4801101eb04510f
:104b800030bd004218bf41f00101bceb410f08bf2e
:104b900030bd4ff0fe4141f47801002030bd83f07c
:104ba0000043841a71eb030e07d28ef0004e001bf7
:104bb00071eb0e01121953eb0e0340f2000ccff60d
:104bc000e07c1cea430fc6d0bceb410f72d90c0d40
:104bd000a4eb135ec90241ea5051c00241f000410a
:104be000db0243ea5253d20243f00043def1200cd1
:104bf00041d312fa0cf522fa0ef203fa0cf542ea4e
:104c0000050218bf42f0010223fa0ef3801a9941ff
:104c1000e30ac4f30a0411f0404f03d418d0013c56
:104c200040004941013c23d44205c00a40ea4150ba
:104c3000c90a51eac3715fea500c72f1004250f1a7
:104c4000000051eb045130bd01002fd00020203c6a
:104c50000029f9d0b1fa81fcdcf1200e11fa0cf137
:104c600030fa0ef510fa0cf02943a4eb0c04d9e746
:104c70000020d90730bdaef1200ebef1200f0dd2bd
:104c8000cef1200c03fa0cf533fa0ef32a4318bfc9
:104c900043f00103c01a61f10001b9e721f00041be
:104ca000c00a40ea4150c90a01eb045130bd00205e
:104cb000002130bd004218bf41f00101bceb410fa3
:0e4cc0007ff467afbceb430f3ff463af30bd32
:020000040000fa
:104cce00f0b581ea030e0ef0004e40f20007cff66b
:104cde00e07717ea41051ebf95ea070f17ea43046e
:104cee0094ea070f00f0c5806d0da5eb545707f53c
:104cfe0080674ff0004646eac12444ea5054c00291
:104d0e0046eac32343ea5253d202801a9c4104d28c
:104d1e000018644180185c41013f5b084fea320283
:104d2e000025002140f001004ff0070604e0801a34
:104d3e009c4136d340416441801a9c4136d3404158
:104d4e006441801a9c4136d340416441801a9c4193
:104d5e0036d340416441801a9c4136d34041644170
:104d6e00013e17d0801a9c4136d340416441801acf
:104d7e009c4136d340416441801a9c4136d3404118
:104d8e006441090201eb156190ea052520f0ff0050
:104d9e004540cce7801a9c4156d335e080185c41e3
:104dae00c8d20018644180185c41c8d20018644112
:104dbe0080185c41c8d20018644180185c41c8d28a
:104dce000018644180185c41c8d200186441013e4d
:104dde0017d080185c41c8d20018644180185c411d
:104dee00c8d20018644180185c41c8d200186441d2
:104dfe00090201eb156190ea052520f0ff00454000
:104e0e00cce780185c411fd3420918bf44f001045f
:104e1e00490101ebd56100f01f0000eb451021f4b4
:104e2e00801141ea0e01013041f10001244208bf18
:104e3e0020f00100b7f5006f3eda013f49dd01ebce
:104e4e000751bde8f0407047490101ebd56100f014
:104e5e001f0000eb451021f4801141ea0e01b7f559
:104e6e00006f29da013f34dd01eb0751bde8f04058
:104e7e007047004218bf41f00101124218bf43f0c3
:104e8e000103b7eb410f2cbfb7eb430f1ce0b7eba1
:104e9e00410f04bfb7eb430f16e017ea410f04bff3
:104eae0017ea430f10e017ea410f12d017ea430f2b
:104ebe0002d0b7eb430f0cd04ef0fe4141f470011f
:104ece000020bde8f04070474ff0fe4141f47801fc
:064ede00f6e77146f4e75f
:020000040000fa
:104ee400b8140020240000000000000086140020f4
:104ef4000100000000000000020800200200000081
:104f040000000000871400200100000000000000e1
:104f1400191500200100000000000000fc1400200e
:104f240004000000000000001a1500200300000027
:104f3400000000001815002001000000000000001f
:104f44001f150020010000000100000032000000d5
:104f54007f15002001000000010000000200000095
:104f64008215002001000000010000000100000083
:104f7400dc1400200800000000000000e4140020fd
:104f84000800000000000000881400203000000029
:104f940000000000ec1400201000000000000000dd
:104fa4000408002000080000000000000015002094
:104fb40008000000000000001d1500200100000092
:104fc4000000000054140020320000000000000023
:104fd4001e15002001000000000000000000002059
:104fe4000208000000000000201500205f000000ff
:104ff400010000003031323334353637383941421c
:10500400434445464748494a4b4c4d4e4f505152f4
:10501400535455565758595a6162636465666768b4
:10502400696a6b6c6d6e6f70717273747576777874
:10503400797a7e21402324255e2628295b5d7b7da9
:105044005f5c7c3b3a2c2e6027223c3e2b2d2a2f82
:105054003d3f2000801500200200000001000000f8
:105064000100000004100020000400000000000003
:10507400081500200c0000000000000004140020ab
:10508400500000000000000014150020040000007f
:105094000000000000000000000000006666666674
:020000040000fa
:1050a4002de9f04196468c46002932d0002830d0b4
:1050b400514a576817f007073dd1bef1000f7dd064
:1050c4004d4a127e12f0040f05d04b4a916a117eac
:1050d40011f0040ffad1484a518b41f00401518375
:1050e400117e41f08001117663458cbfa3eb0c0265
:1050f40000221fb15b084fea5c0c52083e4c217e33
:1051040011f0010ffbd0002635463b494ff6ff78de
:1051140024e0002b4cd0bef1000f4bd0364a576828
:1051240017f007075ed0bcf1000f60d113f0010f38
:1051340006d000203ae01cf0010f3dd1002bf5d140
:10514400002808bf4ff0000cb7e730f815408c6218
:10515400013573b90c7e14f0010ffbd0654518d0ee
:10516400002ff2d1445d8c620135f2e7c1f828804a
:1051740014e00c7e14f0040ffbd08c6a9e42edd236
:105184001fb90ef806400136e8e72ef8164001363e
:10519400e4e72ab1002fe9d1ff248c62013ad8e771
:1051a400154a137e13f0020ffbd00120bde8f081f5
:1051b4000020fbe70020f9e70020f7e70e4b1b7ef9
:1051c40013f0040f18bf00237ff47faf0a4b5a8bf0
:1051d40042f004025a831a7e42f080021a760023b7
:1051e4001a4686e700287ff468afbc4668e71cf0df
:0c51f400010f9bd00020d9e7000400430d
:020000040000fa
:105200004d4b00221a7403f500634c4a9a621a4609
:10521000536813f0100ffbd1494b4222c3f884208e
:105220001a4600bfd2f8843013f0400ffad0454b35
:1052300000229a6377225a631a46d36b13f0040f45
:10524000fbd1404b022283f830201a46d36b13f077
:10525000020ffbd13b4a136c03f00303032bfad17b
:10526000394b01225a711a46d37813f0010ffbd043
:10527000334b364a1a621a46536813f0040ffbd1b7
:105280002f4b334a5a621a46536813f0080ffbd16a
:105290002b4b4122c3f8a0201a4600bfd2f8a03001
:1052a00013f0400ffad0264b4122c3f8a4201a462f
:1052b000d2f8a43013f0400ffad0214b4122c3f8aa
:1052c000e4201a46d2f8e43013f0400ffad01c4b19
:1052d0004122c3f8e8201a46d2f8e83013f0400f14
:1052e000fad0174b4122c3f80c211a46d2f80c31e0
:1052f00013f0400ffad0124b4122c3f820211a4676
:10530000d2f8203113f0400ffad00d4b4122c3f8f0
:1053100024211a46d2f8243113f0400ffad00a4b58
:105320006ff07f421a614ef2ff725a61094a9a6128
:105330004ff4c1721a627047001400400601300039
:10534000001c004000100040000800400701010060
:085350000701020056b0010044
:020000040000fa
:105358002de9f04f85b09a461369d2f80890d2f833
:105368000c8001910446009301f043fedaf8002016
:105378001044caf80000b9f1000f02d1009b03f1f4
:10538800ff390a274ff0000b5e464e453fda009b77
:10539800591eb1423bdde06be16c884211d2411ce1
:1053a800e1630578c6b92b2d01d02d2d14d188f8cd
:1053b8000050daf800200132caf800204ff0010b43
:1053c800e2e7204601f008fb05460130ead1f6b9cc
:1053d800284605b0bde8f08f5e4508d10a2f06f1d2
:1053e800010b28d1302d0cbf08274ff0000ba5f179
:1053f8003001092946d9102f04d1284602f056f960
:10540800002844d1e36c13b1e36b013be363002351
:105418000a2f08f806303a4603a9404640d102f060
:1054280097fa019bc3e90001039b43450cbf6ff04a
:1054380001050125cce7082f21d145f02001782965
:105448001dd1e06be16c884215d2411ce163007804
:10545800e16c11b1e16b0139e16302f027f9002831
:10546800d0d008f80650daf8001001315e46caf8c4
:105478000010102789e7204601f0aefae8e74ff060
:10548800000bb4e7082f02d1382da8bf0a2708f867
:105498000650daf8001001310136caf8001074e736
:0654a80002f0f0f9bde77f
:020000040000fa
:1054ae00f0b540f2ff7681ea030c16ea115e1ebfdc
:1054be00b64516ea1355b54252d021ea465141f48b
:1054ce008011a1fb024723ea465343f48013ae44f6
:1054de00a0fb03650cf0004c36197d41a1fb034780
:1054ee0047f10003a0fb0217f619654153f10003c3
:1054fe00094218bf46f0010640f2fe74b3f5007f74
:10550e0013d2aef5806ea64523d24cea03312803a2
:10551e0041ea155140ea16503203450872f1004235
:10552e0050f1000051eb0e51f0bdaef2ff3ea6451c
:10553e000fd24ceac321e80241ea555140ea5650d7
:10554e00f202450872f1004250f1000051eb0e518b
:10555e00f0bd1eea0e0f2dd50cf000410020f0bd5f
:10556e0016ea115f04bf01f000410020004218bf8f
:10557e0041f0010116ea135f04bf03f0004300225d
:10558e00124218bf43f0010306ea1354b44218bf87
:10559e00b64503d00cf000410020f0bd21f00041d3
:1055ae0023f00043b1eb065f0cd8b3eb065f09d8ce
:1055be0041b13bb10cf0004141f0fe4141f47001ac
:1055ce000020f0bd40f20001c7f6f8710020f0bdda
:020000040000fa
:0255de00fee7e6
:020000040000fa
:1055e000235253543b23434c533b234849443b00f1
:1055f000537973436c6f636b20203a2025644d48c8
:105600007a00000054433020706572696f643a205c
:1056100020256c646d7300005443312070657269fd
:105620006f643a2020256c646d73000052656365d9
:10563000697665642044617461203a0040312c3100
:105640003b48656c6c6f20576f726c6421210000c1
:1056500050574d204475747920203a202533642515
:105660002500000040312c353b5265636569766545
:10567000642044617461203a2025316300000000f9
:1056800052656365697665642044617461203a20df
:105690002563000040312c323b5652312056616c5c
:1056a0007565203a202534640000000056523120f0
:1056b00020203a202534640040312c333b54656d62
:1056c00070657261747572652056616c7565203afb
:1056d000202534640000000040312c343b4c6967c5
:1056e00068746e6573732056616c7565203a202569
:1056f0003464000054656d7020203a202534640025
:0c5700004c69676874203a20253464006e
:020000040000fa
:10570c002de9f04f0e4649683568d6f80890f768d1
:10571c008bb0cde903230029acbf25f00205012194
:10572c0015f010030593039b8346d3e900232fd078
:10573c0052ea03002cd0a9f10208346915f00800d4
:10574c0004f1ff3408904ff00000385518bf08f1f1
:10575c00ff388a46012c1ddc059b002b54d1089b7d
:10576c0013b1013c20233b5532690095013a4b465d
:10577c00121b3919584600f093fddbf80430db0599
:10578c0003d573689842b8bf18460bb0bde8f08fcc
:10579c00c846d2e752ea030009d1baf1000f06dc81
:1057ac00a8eb010050440028d6dda807d4d502f0a0
:1057bc000f000928d4bf00f1300e00f1570e0498e9
:1057cc00a0f1410cbcf1190f04f1ff3410d84ef0cc
:1057dc00200cacf1610cbcf1190f09d87046099181
:1057ec00cde9062302f0fff8dde906230999864688
:1057fc00100940ea03704fea131c07f804e00af1a1
:10580c00ff3a02466346a5e7039bd3e9000150ea41
:10581c000103a4d03a19049b02f8013c023c30234a
:04582c003b559ce765
:020000040000fa
:10583000ffffffffffffffffffffffffffffffff78
:10584000ffffffffffffffffffffffffffffffff68
:10585000ffffffffffffffffffffffffffffffff58
:10586000ff00010203040506070809ffffffffff11
:10587000ffff0a0b0c0d0e0f101112131415161743
:1058800018191a1b1c1d1e1f20212223ffffffffba
:10589000ffff0a0b0c0d0e0f101112131415161723
:1058a00018191a1b1c1d1e1f20212223ffffffff9a
:1058b000fffffffffffffffffffffffffffffffff8
:1058c000ffffffffffffffffffffffffffffffffe8
:1058d000ffffffffffffffffffffffffffffffffd8
:1058e000ffffffffffffffffffffffffffffffffc8
:1058f000ffffffffffffffffffffffffffffffffb8
:10590000ffffffffffffffffffffffffffffffffa7
:10591000ffffffffffffffffffffffffffffffff97
:10592000ffffffffffffffffffffffffffffffff87
:0a593000ff00010204070306050052
:020000040000fa
:02593a00fee786
:020000040000fa
:10593c0025642c25640000001b5b25643b25644812
:10594c0000000000234647433a000000234247432f
:10595c003a00000025303278253032782530327804
:10596c00000000001b5b34383b323b25643b256454
:10597c003b25646d000000001b5b33383b323b253c
:10598c00643b25643b25646d000000002352535496
:10599c003b0000001b5b306d0000000023434c53a8
:1059ac003b0000001b5b324a1b5b48002343324523
:1059bc003b0000001b5b4b0023434c523b000000a0
:1059cc001b5b324b0000000023424f4c3b0000009d
