:020000040000fa
:10000000f0ff0320753c0000cf3100002b350000cd
:10001000cf4100003f4600003b47000000000000c9
:10002000000000000000000000000000fb4d000088
:10003000733c000000000000fb4d0000fb4d000081
:10004000fb4d0000fb4d0000fb4d0000fb4d000090
:10005000fb4d0000fb4d0000fb4d0000fb4d000080
:10006000fb4d0000fb4d0000fb4d0000fb4d000070
:10007000fb4d0000fb4d0000fb4d0000fb4d000060
:10008000fb4d0000fb4d0000fb4d0000fb4d000050
:10009000fb4d0000fb4d0000fb4d0000fb4d000040
:1000a000fb4d0000fb4d0000fb4d0000fb4d000030
:1000b000fb4d0000fb4d0000fb4d0000fb4d000020
:1000c000fb4d0000fb4d0000fb4d0000fb4d000010
:1000d000fb4d0000fb4d0000fb4d0000fb4d000000
:1000e000fb4d0000fb4d0000000000000000000080
:1000f00000000000fb4d0000fb4d0000fb4d000028
:10010000fb4d0000fb4d0000e1440000e144000015
:10011000e1440000e1440000fb4d0000fb4d000005
:10012000fb4d0000fb4d0000fb4d0000fb4d0000af
:10013000fb4d0000fb4d0000fb4d0000fb4d00009f
:10014000fb4d0000fb4d0000fb4d0000fb4d00008f
:10015000fb4d0000fb4d0000fb4d0000fb4d00007f
:10016000fb4d0000fb4d0000fb4d0000fb4d00006f
:10017000fb4d0000fb4d0000fb4d0000fb4d00005f
:10018000fb4d0000fb4d0000fb4d0000fb4d00004f
:10019000fb4d0000fb4d0000fb4d0000fb4d00003f
:1001a000fb4d0000fb4d0000fb4d0000fb4d00002f
:1001b000fb4d0000fb4d0000fb4d0000fb4d00001f
:1001c000fb4d0000fb4d0000fb4d0000fb4d00000f
:1001d000fb4d0000fb4d0000fb4d0000fb4d0000ff
:1001e000fb4d0000fb4d0000fb4d0000754f000073
:1001f000494f0000f94f0000fb4d0000fb4d00008f
:10020000fb4d0000fb4d0000fb4d0000fb4d0000ce
:10021000fb4d0000fb4d0000fb4d0000a14f000016
:10022000fb4d0000cd4f0000fb4d0000fb4d0000da
:10023000fb4d0000fb4d000000000000000000002e
:10024000fb4d0000fb4d0000fb4d0000fb4d00008e
:10025000fb4d0000fb4d0000fb4d0000fb4d00007e
:04026000fb4d000052
:020000040000fa
:10026400f8b500bff8bc08bc9e467047794a000048
:10027400f8b500bff8bc08bc9e467047554a00005c
:020000040000fa
:08028400a01e000001000000b3
:020000040000fa
:04028c000010b000ae
:020000040000fa
:100290002de9f04f2ded028bd2e9008997b0cde921
:1002a0000c138b6808930b690f90d1e900b6149377
:1002b000cd68002200234046494604f04ffd40b976
:1002c0001bf0040f32d11bf00803059330d020231c
:1002d00003e089f0004399462d232b70089b03f11e
:1002e000ff3a012305934c4929f0004300208b423b
:1002f00008bf80451fd10d9b413b192b059b94bf27
:10030000464947492b44184605f08cf9284605f024
:1003100045f8cdf800b00246089b0f98294603f037
:1003200071fd17b0bdec028bbde8f08f2b23d4e735
:10033000ddf820a0d7e7994208bf404509d20d9bc0
:10034000413b192b059b94bf364937492b4418462e
:10035000dae7002200234046494604f035fd9fedd0
:100360002c7b8ded027b48b300240d9805f0e6f858
:10037000002ec3b20993c0f2d781672b5ad1002e49
:1003800008bf0126231d02dbb442c0f2c6816527e7
:1003900061e09ded067b8ded027b01340022234b55
:1003a000dde9020102f07bfe42464b46cde9060143
:1003b00004f0b8fc0028ecd000271fe00446ede76d
:1003c00014f5967f11da87b90022194b4046494649
:1003d00002f065fe002280468946154bdde90201e8
:1003e00002f05dfecde902010127dde902010022f4
:1003f0000e4b02f064facde90201013cdde9022373
:100400004046494604f0aafc0028d9d1ade700bf18
:10041000000000000000f03f0000f07f1c550000cd
:1004200020550000245500002855000000002440fd
:1004300000005043099f662f06f101060bd1002ce6
:1004400004da9fedbd7b8ded027b0024099b672bb9
:1004500018bf361966279ded027bcde906898ded23
:100460000a7b00230e93dde90a23dde9060102f091
:1004700026fa41ec100b03f0abf951ec100bb0ee87
:10048000408af0ee608a04f0cbf9b0ee480af0ee54
:10049000680a069b1093079b159083f00043119305
:1004a0009ded0a1b9ded102b04f0bcfd53ec102bb1
:1004b00083f000430793dde90a01a34b8ded060aa3
:1004c000002202f0fcf90e9b01339e42cde90a01a5
:1004d0000e93c8d100229d4b02f0e1fdcde90a0147
:1004e00002460b46dde9060104f038fc002840f026
:1004f0008180dde90a23dde9060104f065fc10b125
:10050000159bda0776d5dde90a234046494602f015
:10051000b7f80022cde906018b4bdde9020102f0bc
:10052000befddde90623cde90a0104f06dfb0028dc
:1005300065d0662f04f1010465d10136a146a9eb0f
:1005400006034ff00008059e1093cdf80880109b1d
:10055000994540f08180029b002b00f0c880a819cb
:100560000022652f027029d1149b1499013b9442fb
:10057000ea54c1f1030ebcbf644201220a21002cdf
:1005800040f0bc800eeb030cbcf1000f00f3b68012
:10059000002a03f1ff3114bf2d222b226a540d9a39
:1005a000023b413a192a05eb030198bf45279e42b9
:1005b0000f70aaf1020a01da05f034f80bf0030318
:1005c000022b7ff4a3aebaf1000f7ff79fae28464f
:1005d00004f0e4fe05eb0a03059a824240f3998099
:1005e000059b2b4418465246302104f04dff002352
:1005f00008938be69fed527b8ded0a7b83e79deda3
:10060000027b8ded0a7b652f14bfa1464ff00009d8
:1006100095e7029a52b9b9f1000f07da0e992e2226
:100620006a54012201360af1ff3a029205eb0801f1
:10063000aa193144302001e002f8010b9142fbd1ac
:1006400008eb06023033aaeb080808f1ff3a561c03
:10065000ab544ff0000828e00c9b0e961b69053b3d
:10066000b3427ff678afdde90a23dde9060102f047
:1006700026f941ec100b03f0abf851ec100bb0ee87
:10068000408af0ee608a04f0cbf80bf010020928e3
:100690000346a8bf09230243bbd1099a672ab8d1f0
:1006a000b9f1000fc2da08f10108069b1293079b0b
:1006b000b0ee480af0ee680a83f0004313939ded14
:1006c0000a1b9ded122b04f0adfc53ec102b83f0b4
:1006d00000430793dde90a0100221b4b8ded060a5a
:1006e00002f0edf809f1ff39cde90a012fe71bf01f
:1006f000100f1ebf2e23ab55013630e7b4fbf1fcc3
:10070000013b01fb1c443034ec540af1ff3a6446cf
:1007100035e72a5c1a5401385ee7002cbff69aae22
:10072000662788e606262de6099b672bfad01f462a
:10073000062680e6aff30080000000000000f03fd6
:1007400000000000000000000000244000001440f1
:020000040000fa
:100750002de9f04f95b0cde912030b68089392eda7
:10076000007b4b680a938b6809930b690d93cc68e7
:100770000022002351ec170b8ded047b04f0eefa00
:1007800040b9089b580734d4089b13f0080732d0af
:10079000202306e0dde9042181f00043cde90423b4
:1007a0002d232370099b01275a1edde90403dff87e
:1007b000f8b223f000414ff0000a594508bf5045f8
:1007c0001bd1139b413b192b04eb070094bfb0498d
:1007d000b04904f027ffaf4804f0e0fd089b009308
:1007e0000246099b1298214603f00cfb15b0bde8a8
:1007f000f08f2b23d5e7099ad7e7139b8b45a3f1fd
:10080000410308bf82450b9309d2192b04eb070063
:1008100094bfa149a14904f005ffa048dce73021bd
:10082000e1550b997b1c1a2934bf58217821e154da
:10083000931e079300220023dde90401023704f030
:10084000c3fa002800f07b819fed8f7b8ded027b4a
:1008500000250a9bdde90289002bdde904abb8bf66
:1008600018230e93002642464b465046594602f046
:1008700026f841ec100b02f0abff42464b4651ec20
:10088000100b8ded100b02f00afc02460b46504691
:10089000594604f0d5fe824b82468b464046494677
:1008a000002202f0fcfb731c0c930a9b002b804679
:1008b000894606da002200235046594604f084fa9d
:1008c00028b90e9bb34200f3408101330c93002200
:1008d000744b4046494602f0e2fb80468946024698
:1008e0000b465046594604f039fa002840f02f8153
:1008f00042464b465046594604f066fa30b1dde9af
:10090000100103f08dffc10740f1218142464b46a3
:10091000dde9040101f0b4fecde90401dde90421c3
:1009200021f00043604900208b4208bf82423ff41f
:1009300048af4ff000083e46c246c1460d9b053bfe
:10094000b342b34633d9dde90223dde9040101f006
:10095000b6ff41ec100b02f03bff51ec100b8ded9c
:100960000e0b03f05dff002840f0f680b9f1000f98
:1009700000f0f28008f10108dde90223dde90e0153
:1009800002f08dfb02460b46dde9040104f058fe3f
:10099000434bcde904010022dde9020102f07ffbb7
:1009a0000c9b09f101094b45cde90201c6d1baf111
:1009b000000f1ed1b8f1000f00f015810a9b002b2b
:1009c00040f31181089bda0700f10d81a3192e2253
:1009d0001a7008eb06022244302100bf03f8011f01
:1009e0009a42fbd1079b46446fea0808434401360c
:1009f00007930d9b0d990022a019013b95420270af
:100a0000b8bf6d42e254c1f1020eb8bf01224ff0ef
:100a10000a08002d40f0d7800eeb030cbcf1010f4b
:100a200000f0d180002a03f1ff3114bf2d222b22c8
:100a300062540b9a023b1a2a04eb030134bf502282
:100a400070229e420a7001da04f0ecfd089b03f06c
:100a50000303022b14d1079ba3f10208b8f1000f86
:100a60000edd204604f09afc04eb0803b84280f245
:100a7000b68042463021e01904f006fd00230993b8
:100a80002046a9e6aff30080000000000000f03f20
:100a90000c550000105500001455000018550000ba
:100aa0000000b03f000020400000f07fcde9028947
:100ab0000135dde902231046194601f0e1fd8046cb
:100ac000894602460b46dde9040104f047f9002897
:100ad000ecd0dff82cb1dff82c914ff0000a4ff08a
:100ae0000008dde90223dde9040104f037f90028fc
:100af0003ff4afae52465b46dde9020102f0cffaa9
:100b00000022002304f060f978b142464b46dde94b
:100b1000020102f0c4fa4246cde902014b46dde98a
:100b2000040102f0bcfacde90401dde902015246fc
:100b30005b4602f0b4fa013dcde90201d1e79fed39
:100b40002e7b05468ded027bb3e70c9e8be64ff0c6
:100b500000084ff00009d9e6baf1000f0bd1b9f146
:100b6000000f08d02e2304f80b30079b013b013601
:100b700007934ff0010a04eb0803a2193344302114
:100b800002e000bf02f8011b9a42fbd1079b06eb73
:100b9000080ba3eb08080b9b0928d4bf3030573053
:100ba000192b06d840f02003613b192b01d804f023
:100bb000ccfc08f1ff330bf1010604f80b0007939e
:100bc0004ff00008d8e60799b5fbf8fc013b08fb9d
:100bd0001c5530350139e5540791654619e7225c0b
:100be0001a54013842e7089bdb067ff502af2e233b
:100bf000a3550136fde600bf000000000000f03ff5
:080c00000000e03f000050433a
:020000040000fa
:100c08002de9f04fedb000230546164603910493f5
:100c18009946039b1b78002b62d00023cde905334e
:100c280007930aab089303a980232846099304f085
:100c380059f90446039b1a780ab1252a40d1049829
:100c4800204404901a78252a31d15a1c0024039292
:100c580007945a782a2a04bf02330393039808bfdb
:100c6800012403f047fe01460790284604f09efb46
:100c7800039b1a78303a092a48d903a803f084ff5d
:100c8800039b8046187804f055fc672861dc6528ca
:100c980080f2c680612800f0c3803adc252800f085
:100ca800ef805b2800f00c81039b013303937b1cce
:100cb80040f0f980b9f1000f08bf4ff0ff390fe09d
:100cc800eb6bea6c93420fd25a1cea631f78039bc2
:100cd8001b78bb420ed0eb6c13b1eb6b013beb63a3
:100ce80048466db0bde8f08f284603f021fc074662
:100cf8000130ecd1049b01330493039b03a9013316
:100d08002846039304f0eef8044493e70133039371
:100d1800aee7632800f098806428c5d104ab05aa23
:100d28002aa9284604f096f80028c0f26a81039b95
:100d380001330393002c40f0b6803346012241462c
:100d48002aa803f09df80028044667da0134b1d0d8
:100d5800c6e7702841d00bdc6e2850d02fdc6928fc
:100d6800a2d104ab05aa2aa9284602f0e9f8dbe7d4
:100d7800752813d0782829d0732895d1b8f1800f19
:100d880092d1039b01330393002c77d133681a1d4a
:100d980032601b680093012204ab68e004ab05aa2b
:100da8002aa9284604f059fc0028c0f22a81039b8e
:100db80001330393002c76d133462246bfe704abb8
:100dc80005aa2aa9284604f048fcede704ab05aac1
:100dd8002aa9284602f01afce6e704ab05aa2aa9c4
:100de800284602f013fc0028c0f20b81039b013354
:100df8000393002c57d133462246f021a0e7039bea
:100e0800049a01330393d317cde92a23002c4ad13e
:100e18003346224641462aa803f032f8a144f8e6b0
:100e280004ab05aa2aa9284604f017fc0028c0f23a
:100e3800e880039b01330393002c34d132464146aa
:100e48002aa803f033fd7ee7b8f1800f7ff42cafba
:100e5800079b0bb901230793039b013303935cb9e9
:100e680033681a1d32601b680093002204ab05a981
:100e7800284604f0f4fb66e70023f5e7002389e73a
:100e8800b8f1800f7ff410af039bea6c0133039332
:100e9800eb6b934209d25a1cea631878252808d1cb
:100ea800049b013304930024b8e7284603f040fb71
:100eb800f4e7eb6c002bf6d0eb6b013beb63f2e74e
:100ec800b8f1800f7ff4f0ae002c39d133681a1dc9
:100ed8003260d3f80080039b5a1c03925a785e2a2a
:100ee8000cbf012700272aac08bf023340f20112c9
:100ef8003946204608bf039304f0c2fa0023237042
:100f0800039b1a782d2a1ed101330393c7f10103dd
:100f180084f82e30c7f10107039a13785d2b1bd193
:100f2800b8f1000f5cd1eb6bea6c934264d25a1ca7
:100f3800ea631f78e3195b78002b59d19a463ae0a7
:100f48004ff00008c7e75d2ae4d101330393c7f1e6
:100f5800010384f85e30dde7002be1d02d2b06d0ad
:100f6800039b13f8012b039322445770d4e7049b87
:100f78001b78002bf4d05d2bf2d0531c0393029bfb
:100f88001b7851788b42ebda0133e754f9e700bf5d
:100f980008f80b70049b013304930bf1010bea6b07
:100fa800eb6c9a42da461ed2531ceb631778e319ae
:100fb8005b78002becd1eb6c13b1eb6b013beb6373
:100fc800039b01330393baf1000f3ff46daeb8f100
:100fd800000f3ff469ae002308f80a3001241de72a
:100fe8004ff0000bdbe7284603f0a2fa0746dee7de
:100ff800049b0133049396e7284603f099fa0746c1
:0810080098e70446a2e600bfd0
:020000040000fa
:1010100000000008183060c08080404020203f2041
:10102000206040c080c06030180800000000000050
:1010300000000000000000000000000000000000b0
:101040000080406020103020c08000000080c02060
:101050002020202060c000000000000000000000f0
:101060000000000000000000000000000000000080
:101070000000000000000000000000000000000070
:101080000000000000000000000000000000000060
:10109000404040404040fc070100000000000000cc
:1010a0000000000001031ef84040404040000000e6
:1010b000000000000000000000000000000000fc34
:1010c0000300003ce606fc0000011ef0fc03f8ce25
:1010d000631e0000e03f0000000000000000000070
:1010e0000000000000000000000000000000000000
:1010f00000000000000000000000000000000000f0
:1011000000000000000000000000000000000000df
:101110000000000080c0633c183020604040c040a8
:1011200040402030103c67c18000000000000000fb
:10113000000000000000000000000000008080406f
:10114000414a7820210f07000000000f00040761ca
:1011500030382423202020604080800000000000e0
:10116000000000000000000000000000000000007f
:10117000000000000000000000000000000000006f
:10118000000000000000000000000000000000005f
:1011900000000001010000000000000000000f003e
:1011a000000000000000000001010000000000003d
:1011b0000000000000806010080402030100000c21
:1011c0000e0e0000e01070c0c06060c000000e0f86
:1011d0000700000000000080c0601f000000000049
:1011e000000000004080884000f8a8a8a8a8a8f83f
:1011f00008008888f8888800f8a8a8f8a8e8880077
:10120000002020f8a0a0f8202000f0908888880016
:1012100000000000000000000000000000000000ce
:1012200000000000000000000000000000000000be
:1012300000000000000708101090d060202000007f
:1012400000002060f0090c07050e0bd87040000864
:1012500008080804140412332040c00000000000f5
:101260000000000010fc035242af964e261e86c7b7
:101270003e0240201f10e0100f74042714a4fc004d
:101280000088482f0a0a0fe848380f00ff000000c6
:10129000000000000000000000000000000000004e
:1012a000000000000000000000000000000000003e
:1012b000000000000000807e02010000000000002d
:1012c000008080c0403f00000000cf793020200027
:1012d000000000000000000000000003040cf040cb
:1012e000404040c00000000000000000000000007e
:1012f00000000000000000000000000000000000ee
:1013000000000000000000000000000000000000dd
:1013100000000000000000000000000000000000cd
:1013200000000000000000000000000000000000bd
:10133000000000000000030c3060c080808000804e
:101340008080c040c33e000000000f1810f0202035
:101350002020404040602020202030100c06030652
:10136000040404030000000000000000000000006e
:10137000000000000000000000000000000000006d
:10138000000000000000000000000000000000005d
:10139000000000000000000000000000000000004d
:1013a000000000000000000000000000000000003d
:1013b000000000000000000000000000000001012b
:1013c0000100000001060c0808080c0602010000dc
:1013d000000000000000000000000000000000000d
:1013e00000000000000000000000000000000000fd
:1013f00000000000000000000000000000000000ed
:1014000000000000000000000000000000000000dc
:020000040000fa
:101410002de9f04f242985b006460f46144601d821
:10142000012903d1b64b16221a6050e0f36bf26c1f
:10143000934220d25a1cf26318782028f6d0a0f1eb
:101440000903042bf2d92b2801d02d281bd1f36bd3
:10145000f26c2d284ff0ff3a18bf4ff0000a93426c
:101460000dd25a1cf2631878f26c7fb1102f4ed156
:1014700030280dd04be0304603f05ef8dde7304613
:1014800003f05af8f0e74ff0000aede730283dd1bd
:10149000f36b934222d25a1cf263187840f0200377
:1014a000782b2ad1f36bf26c93421bd25a1cf26355
:1014b0001878944b03445b780f2b40f2c180f36c97
:1014c000002b00f09581f36b84b1023bf3630024a1
:1014d00000252046294605b0bde8f08f304603f0d0
:1014e0002bf8dbe7304603f027f8e2e7013bf36334
:1014f0000021304603f05effe9e7002f00f0eb80ab
:101500000a2f40f09e8000247f4d1ae00a277d4b71
:1015100003445b78bb42f3d312b1f36b013bf3633b
:101520000021304603f046ff7ce70a2303fb040456
:10153000f26bf36c9a42a4f130046bd2531cf36348
:101540001078a0f13003092b01d8ac42edd9002569
:10155000a0f1300109293dd86c4b4ff09932ab42d4
:1015600008bfa24217d34fea850ca3001b194cea0f
:10157000947245eb020213eb03086fea0103009338
:101580004ff0ff33019342eb0209dde900234b45a5
:1015900008bf424542d25b4b184498464278ba4253
:1015a00018d2f36bf26c934280f00a815a1cf263fa
:1015b000187840444378bb42f3d3514b0e99222212
:1015c0001a60dde90e45002301f00102134318bf44
:1015d0004ff0000af36c13b1f36b013bf363dde9e9
:1015e0000e239d4208bf9442c0f0fa800e9900235a
:1015f00001f00102134340f0e780baf1000f40f020
:10160000e3803f4b22221a600f9b11f1ff3443f11c
:10161000ff355ee7304602f08fff92e718eb0104da
:101620004ff0000349eb0305f26bf36c9a4203d2cf
:10163000531cf36310788be7304602f07dff87e799
:1016400010277c1e3c402f4d40f0b48017237b4375
:10165000c3f342132b4493f801b12b185b789f42dc
:1016600002d9b4f1006f38d34ff0ff33cbf1200132
:10167000abf1200223fa0bf803fa01f148ea010862
:1016800023fa02f2002548ea020823fa0bf91d4b5f
:10169000034459788f427ff67eafa94508bfa04525
:1016a000fff479afabf1200004fa00f005fa0bf279
:1016b000cbf12003024324fa03f342ea0305f26b61
:1016c000f36c04fa0bf09a4241ea000414d2531c62
:1016d000f3631078dbe70827b3e704fa0bf41c4345
:1016e000f26bf36c9a4203d2531cf3631078b4e7a5
:1016f000304602f021ffb0e7304602f01dffc6e79a
:101700001015002020340000989999199999991979
:1017100004fb0734f26bf36c9a4247d2531cf36319
:1017200010782b185b789f4202d9334a9442efd944
:101730000025324b034459788f427ff62caf4ff08f
:1017400000084ff0000965b1a4fb07234ff0000c1f
:101750001a466346e5fb07231bb14ff001084ff023
:10176000000958ea09037ff416af5ffa81f86feabf
:10177000080102914ff0ff310391dde902bca7fba4
:10178000042307fb05339c4508bf93454ff0000930
:10179000fff401af12eb080443eb0905f26bf36ca5
:1017a0009a4209d2531cf3631078c2e7304602f024
:1017b000c3feb6e70024b4e7304602f0bdfeb8e74a
:1017c000304602f0b9fef4e6dde90e23ab4208bf75
:1017d000a24205d20a4b22221a60dde90e4578e6c4
:1017e000baf1ff3f7ff475ae644265eb450570e6e4
:1017f000002c7ff46cae7be6c6711c072034000021
:04180000101500209f
:020000040000fa
:101804002de9804885b0002003f01afa0021a14890
:1018140003f0c4fe03f060fd00219f4803f0a6fe20
:1018240003f04efd00219d4803f0d0fe00219c48aa
:1018340003f0c6fe01219b4803f02af99a4800f000
:10184400f3fa0021994803f0b5fe0021984803f00b
:10185400c9fe03f04dfd03f063fd03f019fd03f031
:10186400b3f80121002003f07ffd0021012003f0e3
:101874007bfd002402948f4d01950423009323469d
:1018840022462146802001f031ff4ff47a71204630
:1018940003f0e4fd029401950827009723466ff0b6
:1018a4007f022146204601f021ff0121204603f05a
:1018b4005bfd0121084603f057fd012003f07afc8b
:1018c400012003f047fc782301937b4b00932346cc
:1018d40001222146204601f0dfff03f059fe0646af
:1018e40003f0b8fe4ff47a7506fb0556b6fbf0f626
:1018f4000196724b0093234601223946204601f09b
:10190400cbff03f02dfe064603f090fe06fb0555c3
:10191400b5fbf0f501956a4b009323460122102193
:10192400204601f0b9ff674b00932346012238217a
:10193400204601f0b1ff02f0dff9634ddff8d081fa
:10194400dff8d0a1614cdff8d091a1e000232b7027
:101954004ff48053c8f81c305d4800f065fa03f07a
:10196400d3fc03f0e9fc1ae05a4b1b7801935a4b61
:101974000093002301221821184601f08dff02f084
:10198400bbf9564b1b78002b31d1554b1b78002be0
:1019940049d12378002b5cd12b78002bd6d1514b25
:1019a4001b78002bedd04f4b00221a704ff40053dc
:1019b400c8f81c304c4b1a78464b1e781644f6b2c5
:1019c4001e70731edbb2622b02d95242464b1a7050
:1019d40003f06afc3b6b13f4002fc5d100fb06f344
:1019e4000133aafb0323c3f35713fb67bce70026a9
:1019f4003a4b1e70dff8acb09bf800103b4800f087
:101a040013fa0121584603f043f89bf80030019380
:101a1400374b0093334601223821304601f03cff16
:101a240002f06af9b1e700262d4b1e70dff8ecb026
:101a3400bbf800102f4800f0f7f9bbf80030019311
:101a44002d4b0093334601222021304601f024ff20
:101a54009fe700262670294f3988484600f0e4f9ac
:101a64007988274800f0e0f93b880193254b0093df
:101a7400334601222821304601f00eff7b88019372
:101a8400214b0093334601223021304601f004fffc
:101a94001e4f81e725540000395400008955000089
:101aa4007d55000018150020d0310000cd500000f5
:101ab4002944000010100000e0310000f43100005f
:101ac400083200001c3200001a15002019150020ed
:101ad4002c3200001f150020403200001c1500208d
:101ae400861400201b1500207f15002054320000ae
:101af40070320000843200009c320000fc1400208c
:101b0400c8320000e4320000f032000000800141dd
:101b1400008000411f85eb51a8320000020800201c
:020000040000fa
:101b24002de9f041aeb0064615460591002705990a
:101b34000b78002b00f0fa8000244ff0ff33cde93e
:101b440009430eab0c9380230b940d930b5d0bb1e7
:101b5400252b26d134b12246304603f035f8059bb7
:101b640023440593059b1a78252a40f0d78003f176
:101b74000108cdf81480059803782b2b1ad025d8aa
:101b8400202b1bd0232b1dd02a2b27d002f0b4fef0
:101b94000b90059b1a78303a092a2ed80133059305
:101ba400f7e70134d2e7099b43f0010301300993bd
:101bb4000590e0e7099b43f00403f7e7099b43f032
:101bc4000803f3e7099b43f01003efe72d2bead05a
:101bd400302bd9d1099b43f00203e7e72b681a1d88
:101be4001b682a600130002b05900b9305da099ad3
:101bf4005b4282f0010209920b93099bda0744bf0e
:101c040023f002030993059b1a782e2a0dd1002292
:101c1400581c0a9205905a782a2a25d10233059332
:101c24002b681a1d1b682a600a9305a802f0aefff0
:101c3400059b0390187803f07ffc6928039979d0f9
:101c440032dc632800f0cb8019dc252800f0d98031
:101c5400612853d000234ff0ff32cdf8148009934c
:101c64000b930a920093d4e002f046fe0a90059b7f
:101c74001a78303a092ad8d801330593f7e764284b
:101c840058d06728e6dc2a4606a803f0dff90028c6
:101c940000f0a180059b5a1c05921b7806aa09a98d
:101ca4003046fef7f3fa38e0702873d015dc6e285e
:101cb40000f08c806f28cdd12b46002206a801f0bd
:101cc4004bfe002800f08780059b06aa013309a972
:101cd4003046059302f040fa1fe075283ad0782880
:101ce40048d07328b6d1802975d1059b2a68013361
:101cf4000593131d2b60126800237de02a4606a875
:101d040003f0a4f9002866d0059b5a1c05921b78a1
:101d140006aa09a93046fef719fd04443c44a7422b
:101d24007add3e4b4f221a604ff0ff3738462eb013
:101d3400bde8f0812b46012206a801f00dfe002823
:101d440049d0059b06aa013309a93046059301f041
:101d540059fee2e72b46002206a801f0fdfd00280b
:101d640039d0059b06aa013309a93046059302f030
:101d740039fcd2e72b46002206a801f0edfd50b352
:101d8400059b5a1c05921b7806aa09a9304601f046
:101d9400b3fac2e72b460022f02106a801f0dcfdcd
:101da400c8b1059b01330593dde9062313430bd129
:101db4001b4803f0f1fa099b009319490b9b024657
:101dc400304602f01df8a8e77823dde72b463a19e0
:101dd40006a802f095f8059b013305939ee7802938
:101de400f9d1059b013305932b681a1d1b682a60e2
:101df4008df8183006aa012309a9304602f0c6fb63
:101e04008be78029e7d1059b01330593099b009358
:101e14000b9b04490122d3e7274688e610150020ce
:081e2400485600004e56000074
:020000040000fa
:101e2c000fb42de9f047adf5876d0df58b6353f8c5
:101e3c00042bcdf834344ff480610da802f0befab7
:101e4c000dac9c4d9c4e9d4f08e06378402b22d0ee
:101e5c00232b25d014f8010b03f056f92378002b13
:101e6c0000f022815c2bf0d0402b1ed02378232b4a
:101e7c00f0d105222946204603f0faf830b10522ac
:101e8c008f49204603f0f4f8002861d1611d201d14
:101e9c0004f10a0c48e0402003f036f90234dde787
:101eac00232003f031f90234d8e7611c0a4690462e
:101ebc0012f8013ba3f130000928f8d92c2bf6d0ed
:101ecc003b2bd3d1a8eb0109b9f11f0fcedc0df1df
:101edc00140a4a46504603f099fb00230af80930cd
:101eec002c21504603f0d4fa0028bfd02c2101300d
:101efc0003f0cefa0028b9d104ab03aa714905a8a6
:101f0c0003f0b5f90228b1d1a8eb040303f10109e0
:101f1c00b8f1ff3faad0039a04996b4802f02efc4b
:101f2c004c449be784450dd010f8013fa3f13002df
:101f3c00d2b2092af6d923f02003413bdbb2052ba0
:101f4c00f0d902e0e37a3b2b5bd02378232b81d1b1
:101f5c0005223146204603f08bf8002873d0052269
:101f6c003946204603f084f8002875d005225749dd
:101f7c00204603f07df8002873d0052254492046f2
:101f8c0003f076f8002871d005225249204603f060
:101f9c006ff800286fd005224f49204603f068f8ef
:101fac0000286dd005224d49204603f061f8002829
:101fbc006bd005224a49204603f05af8002869d014
:101fcc0005224849204603f053f8002867d02046e4
:101fdc0003f0def904287ff63dafa04604f10309b7
:101fec0018f8010f03f036f900283ff433afc14560
:101ffc00f6d123793b2b02d0002b7ff42baf631d42
:10200c0025e094f80180062205a803f0fffa0023ce
:10201c008df81a3004ab009303ab02aa324905a821
:10202c0003f025f9032890d1b8f1420f049b039ad1
:10203c0002990cbf2d482e4802f0a0fb14f10c0f96
:10204c0083d00c340ae72b4802f098fb631d002b5d
:10205c003ff400af053401e7274802f08ffb631d06
:10206c00f5e7264802f08afb631df0e7244802f0ee
:10207c0085fb631debe7234802f080fb631de6e75d
:10208c00214802f07bfb631de1e7204802f076fb60
:10209c00631ddce71e4802f071fb631dd7e71d488a
:1020ac0002f06cfb631dd2e70df5876dbde8f047c0
:1020bc0004b07047403500008835000098350000aa
:1020cc00483500002c35000034350000a8350000e0
:1020dc00b4350000c4350000d4350000e4350000f0
:1020ec00f435000004360000503500006035000067
:1020fc007435000090350000a0350000b0350000ac
:10210c00bc350000cc350000dc350000ec3500009f
:08211c00fc3500000c36000048
:020000040000fa
:102124002de9f04f099f154604468e461e46002ba6
:1021340040f0cc808a42b2fa82fc4cd9bcf1000f48
:102144000bd0ccf1200801fa0cfe20fa08f802fab0
:102154000cf548ea0e0e00fa0cf44fea15491ffa82
:1021640085f8befbf9fa210c09fb1ae30afb08fb0c
:1021740041ea03439b452ad9eb180af1ff3004d204
:102184009b4502d9aaf102002b44a3eb0b03a4b292
:10219400b3fbf9f209fb123302fb08f844ea0344e7
:1021a400a04516d92c1902f1ff3303d2a04501d959
:1021b400931e2c44a4eb080443ea004027b124fafc
:1021c4000cf400233c607b603146bde8f08f504640
:1021d400dbe71346eee702b9ffdebcf1000f2ed1b8
:1021e4008b1a01264fea154eaab2b3fbfef8210c56
:1021f4000efb183308fb02f941ea0343994561d900
:10220400eb1808f1ff3004d2994502d9a8f1020075
:102214002b44a3eb0903a4b2b3fbfef10efb113371
:102224004a4344ea0344a2424ed92c1901f1ff3334
:1022340003d2a24201d98b1e2c44a41abce7ccf1d0
:10224400200e02fa0cf521fa0ef901fa0cf320fa29
:102254000efe4eea03034fea154800fa0cf4b9fbec
:10226400f8f11ffa85fe08fb1192180c01fb0ef61b
:1022740040ea0242964221d9aa1801f1ff3003d262
:10228400964201d9881e2a44921b9bb2b2fbf8f9ec
:1022940008fb192209fb0efe43ea02439e450fd9af
:1022a400eb1809f1ff3604d29e4502d9a9f10206c2
:1022b4002b44a3eb0e0346ea004693e70846e3e704
:1022c4004e46f6e74046a4e70b46b6e78b4206d9ee
:1022d400002f7ed00026c7e90001304674e7b3fa28
:1022e40083fcbcf1000f0fd18b4201d3824209d889
:1022f400841a61eb030e0120002f6dd0c7e9004e54
:10230400002661e76046f7e7ccf1200e03fa0cf3f0
:1023140022fa0ef521fa0ef41d4301fa0cf320fa09
:102324000ef10b434fea154a00fa0cf6b4fbfaf926
:102334001ffa85f80afb19401c0c09fb08f144ea52
:102344000044a14202fa0cf23fd92c1909f1ff30e2
:1023540004d2a14202d9a9f102002c44641a9bb20e
:10236400b4fbfaf90afb194409fb08f843ea0441ef
:1023740088452cd9691809f1ff3304d2884502d95c
:10238400a9f10203294443ea0040a1eb0801a0fba0
:1023940002894945c2464c4602d306d1464504d279
:1023a400b8eb020a69eb05040138afb1b6eb0a03d6
:1023b40061eb040606fa0efe23fa0cf34eea03035d
:1023c40026fa0cf6c7e900369ae74846c6e74b46b4
:0c23d400d9e73e463846f7e63e46f5e6ff
:020000040000fa
:1023e0003e514949453e004442417f4040004261e0
:1023f000515149460022414949493600302824229a
:102400007f2000274545454539003c4a4949493226
:102410000001611109050300364949494936002682
:10242000494949493e00781611111678007f4949fb
:10243000494936001c2241414122007f414141224d
:102440001c007f4949494941007f090909090100e8
:102450003e414149493a007f080808087f00414150
:10246000417f4141004141413f0101007f08142269
:102470004141007f4040404040007f02040c027f09
:10248000007f020c10207f003e414141413e007f11
:102490000909090906003e41516141be007f090951
:1024a00019294600264949494932000101017f01a5
:1024b00001003f404040403f00031c6020180700df
:1024c0007f201018207f00631408081463000304a1
:1024d0007808040300416151494543002054545495
:1024e0003840007f484848300000384444442800c1
:1024f00000384444247f00003854545448000008f5
:10250000087e090a00001824a4a4f800007f08042b
:102510000478000000447d400000002040443d005d
:1025200000007f10282440000000007f0000000011
:102530007c047c047800007c0404047800003844a7
:102540004444380000fc24242418000018242424c7
:10255000fc00007c080404040000485454240000db
:102560000004043f444400003c4040207c00001c28
:102570002040201c00007c2018207c0000442810f3
:10258000284400009ca040201c00004464544c449b
:1025900000001008081010080000005f0000000094
:1025a0001c2259655d522c10741f741f1400242abc
:1025b0007f2a1200004225122c522100040201023f
:1025c0000400002056495620500000001c22410003
:1025d00000000041221c000000007f41410000007b
:1025e0000041417f000000083641410000000041e9
:1025f000413608004040404040404000010608305d
:1026000040000000007f00000000407b3b00000015
:102610000000363600000000402c1c0000000000c6
:10262000181800000000010302000000000007006d
:10263000000000000700070000000008142200004e
:1026400000002214080000000008083e08080000ee
:102650000808080800000014083e0814004030086c
:10266000060100000014141414140000025109069d
:102670000000000000000000000002050200000051
:020000040000fa
:1026800030b591ea030f00f18280841a71eb030cdc
:1026900005d2121953eb0c03001b71eb0c0140f235
:1026a000000ccff6e07c1cea430f52d0bceb410f8c
:1026b0005fd90c0da4eb135e5ff0010c6cf31f519e
:1026c0006cf31f53def1200c2ad303fa0cf54019ea
:1026d00041f1000122fa0ef5401923fa0ef5694185
:1026e00012fa0cf2cd0208d349085fea30005fea23
:1026f000320228bf42f001020134013c5fea500c73
:1027000072f1004250f1000051eb04514ff40013fc
:1027100013eb410f38bf30bd6ff31301002030bd04
:10272000bef1200ebef1200f1ed223fa0ef5401985
:1027300041f10001cef1200c124218bf012203fa30
:102740000cf52a43cee711ea5c0f04bf00200021fc
:1027500030bd1cea410f04bf01f00041002030bd34
:1027600001f00041002030bd21f4801101eb045143
:1027700030bd004218bf41f00101bceb410f08bf62
:1027800030bd4ff0fe4141f47801002030bd83f0b0
:102790000043841a71eb030e07d28ef0004e001b2b
:1027a00071eb0e01121953eb0e0340f2000ccff641
:1027b000e07c1cea430fc6d0bceb410f72d90c0d74
:1027c000a4eb135ec90241ea5051c00241f000413e
:1027d000db0243ea5253d20243f00043def1200c05
:1027e00041d312fa0cf522fa0ef203fa0cf542ea82
:1027f000050218bf42f0010223fa0ef3801a994134
:10280000e30ac4f30a0411f0404f03d418d0013c8a
:1028100040004941013c23d44205c00a40ea4150ee
:10282000c90a51eac3715fea500c72f1004250f1db
:10283000000051eb045130bd01002fd00020203c9e
:102840000029f9d0b1fa81fcdcf1200e11fa0cf16b
:1028500030fa0ef510fa0cf02943a4eb0c04d9e77a
:102860000020d90730bdaef1200ebef1200f0dd2f1
:10287000cef1200c03fa0cf533fa0ef32a4318bffd
:1028800043f00103c01a61f10001b9e721f00041f2
:10289000c00a40ea4150c90a01eb045130bd002092
:1028a000002130bd004218bf41f00101bceb410fd7
:0e28b0007ff467afbceb430f3ff463af30bd66
:020000040000fa
:1028be00f0b581ea030e0ef0004e40f20007cff69f
:1028ce00e07717ea41051ebf95ea070f17ea4304a2
:1028de0094ea070f00f0c5806d0da5eb545707f570
:1028ee0080674ff0004646eac12444ea5054c002c5
:1028fe0046eac32343ea5253d202801a9c4104d2c1
:10290e000018644180185c41013f5b084fea3202b7
:10291e000025002140f001004ff0070604e0801a68
:10292e009c4136d340416441801a9c4136d340418c
:10293e006441801a9c4136d340416441801a9c41c7
:10294e0036d340416441801a9c4136d340416441a4
:10295e00013e17d0801a9c4136d340416441801a03
:10296e009c4136d340416441801a9c4136d340414c
:10297e006441090201eb156190ea052520f0ff0084
:10298e004540cce7801a9c4156d335e080185c4117
:10299e00c8d20018644180185c41c8d20018644146
:1029ae0080185c41c8d20018644180185c41c8d2be
:1029be000018644180185c41c8d200186441013e81
:1029ce0017d080185c41c8d20018644180185c4151
:1029de00c8d20018644180185c41c8d20018644106
:1029ee00090201eb156190ea052520f0ff00454034
:1029fe00cce780185c411fd3420918bf44f0010494
:102a0e00490101ebd56100f01f0000eb451021f4e8
:102a1e00801141ea0e01013041f10001244208bf4c
:102a2e0020f00100b7f5006f3eda013f49dd01eb02
:102a3e000751bde8f0407047490101ebd56100f048
:102a4e001f0000eb451021f4801141ea0e01b7f58d
:102a5e00006f29da013f34dd01eb0751bde8f0408c
:102a6e007047004218bf41f00101124218bf43f0f7
:102a7e000103b7eb410f2cbfb7eb430f1ce0b7ebd5
:102a8e00410f04bfb7eb430f16e017ea410f04bf27
:102a9e0017ea430f10e017ea410f12d017ea430f5f
:102aae0002d0b7eb430f0cd04ef0fe4141f4700153
:102abe000020bde8f04070474ff0fe4141f4780130
:062ace00f6e77146f4e793
:020000040000fa
:102ad400b814002024000000000000008614002028
:102ae40001000000000000000208002002000000b5
:102af4000000000087140020010000000000000016
:102b0400191500200100000000000000fc14002042
:102b140004000000000000001a150020030000005b
:102b24000000000018150020010000000000000053
:102b34001f15002001000000010000003200000009
:102b44007f150020010000000100000002000000c9
:102b540082150020010000000100000001000000b7
:102b6400dc1400200800000000000000e414002031
:102b7400080000000000000088140020300000005d
:102b840000000000ec140020100000000000000011
:102b940004080020000800000000000000150020c8
:102ba40008000000000000001d15002001000000c6
:102bb4000000000054140020320000000000000057
:102bc4001e1500200100000000000000000000208d
:102bd4000208000000000000201500205f00000033
:102be4000100000030313233343536373839414250
:102bf400434445464748494a4b4c4d4e4f50515229
:102c0400535455565758595a6162636465666768e8
:102c1400696a6b6c6d6e6f707172737475767778a8
:102c2400797a7e21402324255e2628295b5d7b7ddd
:102c34005f5c7c3b3a2c2e6027223c3e2b2d2a2fb6
:102c44003d3f20008015002002000000010000002c
:102c54000100000004100020000400000000000037
:102c6400081500200c0000000000000004140020df
:102c740050000000000000001415002004000000b3
:102c840000000000000000000000000066666666a8
:020000040000fa
:102c94002de9f04196468c46002932d0002830d0e8
:102ca400514a576817f007073dd1bef1000f7dd098
:102cb4004d4a127e12f0040f05d04b4a916a117ee0
:102cc40011f0040ffad1484a518b41f004015183a9
:102cd400117e41f08001117663458cbfa3eb0c0299
:102ce40000221fb15b084fea5c0c52083e4c217e67
:102cf40011f0010ffbd0002635463b494ff6ff7813
:102d040024e0002b4cd0bef1000f4bd0364a57685c
:102d140017f007075ed0bcf1000f60d113f0010f6c
:102d240006d000203ae01cf0010f3dd1002bf5d174
:102d3400002808bf4ff0000cb7e730f815408c624c
:102d4400013573b90c7e14f0010ffbd0654518d022
:102d5400002ff2d1445d8c620135f2e7c1f828807e
:102d640014e00c7e14f0040ffbd08c6a9e42edd26a
:102d74001fb90ef806400136e8e72ef81640013672
:102d8400e4e72ab1002fe9d1ff248c62013ad8e7a5
:102d9400154a137e13f0020ffbd00120bde8f08129
:102da4000020fbe70020f9e70020f7e70e4b1b7e2d
:102db40013f0040f18bf00237ff47faf0a4b5a8b24
:102dc40042f004025a831a7e42f080021a760023eb
:102dd4001a4686e700287ff468afbc4668e71cf013
:0c2de400010f9bd00020d9e70004004341
:020000040000fa
:102df0004d4b00221a7403f500634c4a9a621a463e
:102e0000536813f0100ffbd1494b4222c3f88420c2
:102e10001a4600bfd2f8843013f0400ffad0454b69
:102e200000229a6377225a631a46d36b13f0040f79
:102e3000fbd1404b022283f830201a46d36b13f0ab
:102e4000020ffbd13b4a136c03f00303032bfad1af
:102e5000394b01225a711a46d37813f0010ffbd077
:102e6000334b364a1a621a46536813f0040ffbd1eb
:102e70002f4b334a5a621a46536813f0080ffbd19e
:102e80002b4b4122c3f8a0201a4600bfd2f8a03035
:102e900013f0400ffad0264b4122c3f8a4201a4663
:102ea000d2f8a43013f0400ffad0214b4122c3f8de
:102eb000e4201a46d2f8e43013f0400ffad01c4b4d
:102ec0004122c3f8e8201a46d2f8e83013f0400f48
:102ed000fad0174b4122c3f80c211a46d2f80c3114
:102ee00013f0400ffad0124b4122c3f820211a46aa
:102ef000d2f8203113f0400ffad00d4b4122c3f825
:102f000024211a46d2f8243113f0400ffad00a4b8c
:102f10006ff07f421a614ef2ff725a61094a9a615c
:102f20004ff4c1721a62704700140040060130006d
:102f3000001c004000100040000800400701010094
:082f40000701020056b0010078
:020000040000fa
:102f48002de9f04f85b09a461369d2f80890d2f867
:102f58000c8001910446009301f0f7fddaf8002097
:102f68001044caf80000b9f1000f02d1009b03f128
:102f7800ff390a274ff0000b5e464e453fda009bab
:102f8800591eb1423bdde06be16c884211d2411c15
:102f9800e1630578c6b92b2d01d02d2d14d188f801
:102fa8000050daf800200132caf800204ff0010b77
:102fb800e2e7204601f0bcfa05460130ead1f6b94d
:102fc800284605b0bde8f08f5e4508d10a2f06f106
:102fd800010b28d1302d0cbf08274ff0000ba5f1ad
:102fe8003001092946d9102f04d1284602f00af9e0
:102ff800002844d1e36c13b1e36b013be363002386
:103008000a2f08f806303a4603a9404640d102f094
:103018004bfa019bc3e90001039b43450cbf6ff0ca
:1030280001050125cce7082f21d145f02001782999
:103038001dd1e06be16c884215d2411ce163007838
:10304800e16c11b1e16b0139e16302f0dbf80028b2
:10305800d0d008f80650daf8001001315e46caf8f8
:103068000010102789e7204601f062fae8e74ff0e0
:10307800000bb4e7082f02d1382da8bf0a2708f89b
:103088000650daf8001001310136caf8001074e76a
:0630980002f0a4f9bde7ff
:020000040000fa
:10309e00f0b540f2ff7681ea030c16ea115e1ebf10
:1030ae00b64516ea1355b54252d021ea465141f4bf
:1030be008011a1fb024723ea465343f48013ae442a
:1030ce00a0fb03650cf0004c36197d41a1fb0347b4
:1030de0047f10003a0fb0217f619654153f10003f7
:1030ee00094218bf46f0010640f2fe74b3f5007fa8
:1030fe0013d2aef5806ea64523d24cea03312803d7
:10310e0041ea155140ea16503203450872f1004269
:10311e0050f1000051eb0e51f0bdaef2ff3ea64550
:10312e000fd24ceac321e80241ea555140ea56500b
:10313e00f202450872f1004250f1000051eb0e51bf
:10314e00f0bd1eea0e0f2dd50cf000410020f0bd93
:10315e0016ea115f04bf01f000410020004218bfc3
:10316e0041f0010116ea135f04bf03f00043002291
:10317e00124218bf43f0010306ea1354b44218bfbb
:10318e00b64503d00cf000410020f0bd21f0004107
:10319e0023f00043b1eb065f0cd8b3eb065f09d802
:1031ae0041b13bb10cf0004141f0fe4141f47001e0
:1031be000020f0bd40f20001c7f6f8710020f0bd0e
:020000040000fa
:0231ce00fee71a
:020000040000fa
:1031d000235253543b23434c533b234849443b0025
:1031e000537973436c6f636b20203a2025644d48fc
:1031f0007a00000054433020706572696f643a2091
:1032000020256c646d730000544331207065726931
:103210006f643a2020256c646d730000526563650d
:10322000697665642044617461203a0040312c3134
:103230003b48656c6c6f20576f726c6421210000f5
:1032400050574d204475747920203a202533642549
:103250002500000040312c353b5265636569766579
:10326000642044617461203a20253163000000002d
:1032700052656365697665642044617461203a2013
:103280002563000040312c323b5652312056616c90
:103290007565203a20253464000000005652312024
:1032a00020203a202534640040312c333b54656d96
:1032b00070657261747572652056616c7565203a2f
:1032c000202534640000000040312c343b4c6967f9
:1032d00068746e6573732056616c7565203a20259d
:1032e0003464000054656d7020203a202534640059
:0c32f0004c69676874203a2025346400a3
:020000040000fa
:1032fc002de9f04f0e4649683568d6f80890f76806
:10330c008bb0cde903230029acbf25f002050121c8
:10331c0015f010030593039b8346d3e900232fd0ac
:10332c0052ea03002cd0a9f10208346915f0080008
:10333c0004f1ff3408904ff00000385518bf08f125
:10334c00ff388a46012c1ddc059b002b54d1089bb1
:10335c0013b1013c20233b5532690095013a4b4691
:10336c00121b3919584600f047fddbf80430db0519
:10337c0003d573689842b8bf18460bb0bde8f08f00
:10338c00c846d2e752ea030009d1baf1000f06dcb5
:10339c00a8eb010050440028d6dda807d4d502f0d4
:1033ac000f000928d4bf00f1300e00f1570e04981d
:1033bc00a0f1410cbcf1190f04f1ff3410d84ef000
:1033cc00200cacf1610cbcf1190f09d870460991b5
:1033dc00cde9062302f0b3f8dde906230999864608
:1033ec00100940ea03704fea131c07f804e00af1d5
:1033fc00ff3a02466346a5e7039bd3e9000150ea76
:10340c000103a4d03a19049b02f8013c023c30237e
:04341c003b559ce799
:020000040000fa
:10342000ffffffffffffffffffffffffffffffffac
:10343000ffffffffffffffffffffffffffffffff9c
:10344000ffffffffffffffffffffffffffffffff8c
:10345000ff00010203040506070809ffffffffff45
:10346000ffff0a0b0c0d0e0f101112131415161777
:1034700018191a1b1c1d1e1f20212223ffffffffee
:10348000ffff0a0b0c0d0e0f101112131415161757
:1034900018191a1b1c1d1e1f20212223ffffffffce
:1034a000ffffffffffffffffffffffffffffffff2c
:1034b000ffffffffffffffffffffffffffffffff1c
:1034c000ffffffffffffffffffffffffffffffff0c
:1034d000fffffffffffffffffffffffffffffffffc
:1034e000ffffffffffffffffffffffffffffffffec
:1034f000ffffffffffffffffffffffffffffffffdc
:10350000ffffffffffffffffffffffffffffffffcb
:10351000ffffffffffffffffffffffffffffffffbb
:0a352000ff00010204070306050086
:020000040000fa
:02352a00fee7ba
:020000040000fa
:10352c0025642c25640000001b5b25643b25644846
:10353c0000000000234647433a0000002342474363
:10354c003a00000025303278253032782530327838
:10355c00000000001b5b34383b323b25643b256488
:10356c003b25646d000000001b5b33383b323b2570
:10357c00643b25643b25646d0000000023525354ca
:10358c003b0000001b5b306d0000000023434c53dc
:10359c003b0000001b5b324a1b5b48002343324557
:1035ac003b0000001b5b4b0023434c523b000000d4
:1035bc001b5b324b0000000023424f4c3b000000d1
:1035cc001b5b316d0000000023554e443b00000096
:1035dc001b5b346d0000000023494e563b0000007d
:1035ec001b5b376d000000002344494d3b0000007d
:1035fc001b5b326d00000000234849443b00000077
:08360c001b5b3f32356c00002e
:020000040000fa
:103614002de9f74f984604468b46d2f80890d2e934
:10362400037a01f094fad8f800301844c8f800007e
:10363400b9f1000f01d10af1ff3900254d452dda0a
:103644000af1ff33ab4229dde36be26c934235d2de
:103654005a1ce2631e78304601f0d6fd00283dd1a5
:10366400012d16d1304601f067ff782811d13b783f
:10367400302b0ed1e36be26c93422bd25a1ce263e3
:103684001878e36c13b1e36b013be36301f0bcfd19
:1036940020bbe36c13b1e36b013be36300237b5575
:1036a400102201a9384601f09bfe019bbb42cbe9e5
:1036b40000010cbf6ff00106012607e0204600f070
:1036c40039ff06460130c6d1002de7d1304603b09c
:1036d400bde8f08f204600f02dffd2e77e55d8f8e4
:0c36e400003001330135c8f80030a7e7c2
:020000040000fa
:1036f0002de9f0432ded048b83b0814688461546b5
:103700001c460f9f9df84060304601f055fd304645
:1037100001f022fd012001f073ff07ee909af8ee10
:10372000e78a07ee908ab8eee78aa5eb0909a4ebd1
:10373000080484eae475a5ebe47589eae971a1eb74
:10374000e9718d42b8bf0d469df8381095fbf1f533
:10375000002d08bf012507ee905ab8eee77a07ee74
:10376000909af8eee77ac7ee879a07ee904af8ee5d
:10377000e77a87ee879a01350024304601f0ecfca9
:10378000f6ee007a38ee277abdeec77a78eea77aa1
:10379000fdeee77a0197012300934023802217ee84
:1037a000101a89b217ee900a80b201f0e5fc00f021
:1037b000a5fa78eea98a38ee098a0134a542dcd14f
:0a37c00003b0bdec048bbde8f083fc
:020000040000fa
:0637ca004ff0ff307047d4
:020000040000fa
:1037d00053ec102bc3f30a512de9f04140f2fd7078
:1037e0004e1e86421d4645d8a1f2ff30002835db2b
:1037f000332831dc284bc0f120084ff0ff3c03fa9e
:1038000008f2a1f21f412cfa00fc10ee104a4cea1b
:10381000020c23fa01f24cea020c23fa00fe04ea3d
:103820000c0605ea0e0724ea0c0256ea070425ea0c
:103830000e030fd0002a73f100040bda4ff4801549
:1038400005fa08f425fa01f10c43121925fa00f0e3
:1038500040eb030343ec102bbde8f081002a73f129
:10386000000303db9fed080bbde8f0819fed080b23
:10387000bde8f0810029efd10a4603f0004343ec94
:10388000102be9e7aff3008000000000000000000b
:0c389000000000000000f0bfffff0f0070
:020000040000fa
:10389c002de9f04387b006468846174699460eab8d
:1038ac0053f8042b05933221264800f087fd431e64
:1038bc00302b44d8234d00242c540ee0002224e05d
:1038cc00c4ebc400304403ab0193009708230722d8
:1038dc00414680b201f04afc01341a4801f058fd0f
:1038ec00a0422cd915f8010b174b1b788342e5d05d
:1038fc00154901231ffa83fe1a46013311f801cf33
:10390c008445f7d1bef15e0fe6d8c2ebc2020f4b75
:10391c001344186803909a889b79adf810208df8a1
:10392c001230b9f1000fcbd00df10b030df11201d8
:10393c0013f8012fd2431a708b42f9d1c0e707b0ac
:10394c00bde8f0835414002020150020e023000073
:020000040000fa
:10395c00882910b536d012dc812943d003dc8029ac
:10396c0040d0002010bd82290ed08429f9d11968cd
:10397c0002b30a1d1a60b1f90020d3171ee0a0296a
:10398c002bd00bdc9029ecd11968073121f0070101
:10399c0001f108021a60d1e900230fe0c02901d01f
:1039ac00f029ded11a68111d196013680360002319
:1039bc00436005e00a1d1a600a880023c0e9002351
:1039cc000120cfe7196822b10a1d1a6091f9002075
:1039dc00d3e70a1d1a600a78efe71a68111d1960ff
:1039ec001268cae719681ab10a1d1a600a68c4e796
:0c39fc000c1d1c600b68c0e90032e1e704
:020000040000fa
:103a08002de9f041d2e900230c4686b007465fea6b
:103a1800d37820684968a5680590e66841d0524285
:103a280063eb4303002908db20f002000590b8f19e
:103a3800000f02d1059948072ad5691e05a80290ea
:103a48000a20cde90010204600f00efbb8f1000f67
:103a580002d1059b59071fd5b8f1000f00f1ff30bf
:103a680014bf2d232b2333542269059b0093013a5d
:103a78002b46121a3118384600f0c0f97b68db056e
:103a880003d563689842b8bf184606b0bde8f08110
:103a98000807d2d42946d1e71a07e5d501382023eb
:083aa800e1e70029c0dac5e7df
:020000040000fa
:103ab000264ad36823f4e0631b041b0c43f0bf6366
:103ac00043f40033d360bff35f8f62b6204be02135
:103ad00083f832134ff48020586083f833134ff487
:103ae0000020586083f834134ff48010586083f836
:103af00035134ff40010586083f86b134ff40060d7
:103b0000d86083f86c134ff48050d86083f86d133d
:103b10004ff40050d86083f877134ff40000d8605a
:103b200083f879134ff00071d960536a43f480230e
:103b30005362536943f010035361536a43f40033f3
:103b40005362536a43f480335362704700ed00e0e0
:043b500000e100e0b0
:020000040000fa
:103b5400224b4ff440521a60012183f8471000228f
:103b640083f84c2083f84d2083f84f10102083f8fd
:103b7400330083f83620602083f837001848c3f8f0
:103b840080000238c3f8900083f8c02083f8c12075
:103b940083f8c21083f8c31083f8df2083f8b020c1
:103ba400332083f8b10083f8bf2083f8401183f8f1
:103bb400411183f85b1183f85c11112183f83011f2
:103bc400202183f83d11022183f83e1183f8c011ae
:103bd40083f8c11183f8b021704700bf0080004111
:043be400030000805a
:020000040000fa
:103be8002de9f84316460546d1f80880d1e903794e
:103bf80000f0abff336818443060b8f1000f01d112
:103c080009f1ff380024444526da09f1ff33a342bd
:103c180022ddeb6bea6c93420dd25a1cea631878ea
:103c28008cb92b2801d02d280dd138703368013379
:103c380033600124e7e7284600f07afc431cefd103
:103c480054b9bde8f883a0f13003092b07d9eb6c10
:103c580013b1eb6b013beb6300203855f1e73855a6
:0a3c68003368013301343360cde707
:020000040000fa
:023c7200fee76b
:020000040000fa
:103c740008b5194b9847194b9847eff3108172b662
:103c8400174ad2f8883043f47003c2f88830bff37f
:103c94004f8fbff36f8f01b962b6124a936823f056
:103ca400010393601346da6812f0010ffbd10d4b48
:103cb40024225a6001229a6001f016f80a4b23f07c
:103cc4007f03074a9360094b9847094b9847094b70
:103cd4009847fdf795fdfee743490000434900007e
:103ce40000ed00e000600041000000008544000099
:083cf4004349000043490000b0
:020000040000fa
:103cfc0038b51c4b1b7803b938bd01f097fc044652
:103d0c004ff48062002101f0b9fb174b93f800349b
:103d1c00012b0ad0144b93f80138012b13d000f06f
:103d2c0029f8104b00221a70e6e7631e0f4904f2c3
:103d3c00ff3500bf13f8012f11f8010f02431a7061
:103d4c00ab42f7d1e6e7631e094904f2ff3400bf2a
:103d5c0013f8012f11f8010f02431a70a342f7d187
:103d6c00dde700bf1e15002000000020ffffff1f35
:043d7c00000400201f
:020000040000fa
:103d80002de9f04182b01c4b1b68adf804301b0cd0
:103d90008df80630194b0122c3f894209df80630a7
:103da000b72b22d8164c154d022637464ff0030884
:103db000c5f89470414601a801f0cefb01f028fb44
:103dc0000028fbd1c5f898608021204601f0c4fb93
:103dd00001f01efb0028fbd180349df80630013332
:103de000dbb28df80630b72be2d9044b0122c3f8c1
:103df000982002b0bde8f0818c02000000800041f4
:043e0000041000208a
:020000040000fa
:103e04002de9ff471d460c9b13f0010906468a461f
:103e1400144601d195420bd822465146304600f053
:103e2400d3fea54204d82546284604b0bde8f08751
:103e34002f1b102f3a464ff0200128bf102268464e
:103e4400b84601f01ffb00bfb8f10f0f11d83b09b2
:103e54006ff00f0202fb03726946304600f0b4feb5
:103e6400b9f1000fe0d122465146304600f0acfed5
:103e7400dae710226946304600f0a6fea8f11008e1
:043e8400e2e700bfb2
:020000040000fa
:103e8800882930b52cd012dc812930d003dc802978
:103e98002dd0002030bd82290ed08429f9d119688f
:103ea80000680a1d1a600b6818800120f2e7a02933
:103eb8000fd00adc9029ecd119680a1dd0e9004519
:103ec8001a600b68c3e90045efe7c02901d0f02963
:103ed800dfd11a680168101d186013681960e4e7db
:103ee800196800680a1d1a600b681870dde7196800
:0c3ef80000680a1d1a600b681860d6e70d
:020000040000fa
:103f0400842910b523d00cdc812903d0822913d055
:103f140080290bd119680c1d1c600b6803601a60a2
:103f240013e0902921d003dc882917d0002010bd8c
:103f3400a029efd0c029ece719680c1d1c600b68a0
:103f44000360d1171046c3e900010120efe71968a7
:103f54000c1d1c600b6803601a80f6e719680c1dc1
:103f64001c600b6803601a70efe719680c1d1c6075
:0c3f740009680160d317c1e90023e6e7eb
:020000040000fa
:103f80001b4b1b7d002b31d010b5194a936851682b
:103f9000184a127e12f0010f15d0994213d9154913
:103fa00013484a6802f00702012a026814bfd25c73
:103fb00032f813208a62013344680a7e12f0010f3e
:103fc00001d09c42edd80a4a936052689a420cd8bc
:103fd000074b00221a755a60064a01211175db68e9
:103fe0001bb1034b1869db68984710bd704700bfd1
:083ff000881400200034004099
:020000040000fa
:103ff8002de9f04f83b000919df83080ddf83490c2
:10400800019373b38246934600251ee0aaeb06008f
:104018002044009980b200f049fe0134a4b2a742be
:104028000ad019f8042005f007031a4102f001022a
:1040380052ea0803f1d0e9e70135adb2009b01333c
:104048009bb20093019bab420bd0bbf1000ff3d0a6
:10405800ee0816fb0bf6b6b206eb0b07bfb23446fa
:08406800dfe703b0bde8f08fb3
:020000040000fa
:104070002de9f84f04460c9f6668d4f80cb024690b
:1040800010463a68013c002502f0020a0b9a0bf830
:104090000450002e1946b8bf0126012390464fea6e
:1040a000e279002c03dcd3b12046bde8f88f50ea5a
:1040b000010209d1721b002a06dc0a9a521b002a4f
:1040c000f1ddbaf1000feed042464b4600f0f6fead
:1040d000013c134630320bf804200135e1e73b6820
:0840e00023f010033b60dfe751
:020000040000fa
:1040e80000282ed010b40446184b1b7d5bbb174b21
:1040f8001860596001221a755868154b1b7e13f019
:10410800010f13d0a8b1002311494a6802f0070231
:10411800012a14bfe25c34f813208a6201330a7e54
:1041280012f0010f04d09842efd102e0002000e025
:104138001846064b98600120054b98755df8044bae
:104148007047002070470020f8e700bf881400205f
:0441580000340040ef
:020000040000fa
:10415c00f0b50c4649682368a768e56887b0002964
:10416c000593a4bf23f00203059305ab0293082328
:10417c00cde900730646d2e900232046fff772ff13
:10418c00059bd90642bf00f1ff3030232b54059b11
:10419c001a0742bf00f1ff3020232b542269059be4
:1041ac000093013a3b46121a29183046fff724feb9
:1041bc007368db0503d563689842b8bf184607b02f
:0241cc00f0bd44
:020000040000fa
:0241ce00fee70a
:020000040000fa
:1041d00008b5174b93f82c30cbb1154bda691b6a35
:1041e000934214d2124b986a124a916a1b6a52681f
:1041f00002f00702012a0e4a926914bfd15422f834
:10420000131001330a4a1362d2699a4200d008bde2
:10421000074b002283f82c20da61064a84211175ad
:104220005b6a002bf3d0024b5b6a9847efe700bf55
:08423000881400200034004056
:020000040000fa
:1042380008b5134b4ff00042c3f89420114b013bd3
:10424800fdd10f4b4ff00042c3f898200e4b013bb5
:10425800fdd10b4b0122c3f894200222c3f894200d
:1042680019210a4801f074f901f0cef80028fbd1b1
:104278000120034bc3f89800054b064a1a6008bd95
:1042880000800041804f1200001bb700d45100008d
:084298000815002004100020ad
:020000040000fa
:1042a000174b01221a801a46136b13f0010ffbd132
:1042b0004ff080131b681a0902f07002d90001f454
:1042c000e0610a43c3f382031a430d4ba3f848206d
:1042d0004ff400721a800322da7283221a7241f6b6
:1042e00007029a800022da80072283f82e2001221a
:1042f00083f82d201a46136b002bfcd1704700bfaa
:04430000001c00435a
:020000040000fa
:10430400174b01221a801a46136b13f0010ffbd1cd
:104314004ff080131b689a0c02f07002d90a01f462
:10432400e0610a43c3f302431a430d4ba3f8482048
:104334004ff400721a800322da7283221a7241f651
:104344000a029a800022da80072283f82e200122b2
:1043540083f82d201a46136b002bfcd1704700bf45
:0443640000200043f2
:020000040000fa
:10436800c9b2f8b50446f1b103469a0718461ed1fa
:104378004ff001354d431e4656f8044b84ea0507b5
:10438800a4f10132a7f1013022ea040220ea070071
:10439800024312f0803f11d0184613f8012b2ab1be
:1043a8008a42f9d102e000f0f5ff2044f8bd13f885
:1043b800012b002afad08a42d7d1f7e73346dae749
:020000040000fa
:1043c800f0b59bb004460d46164600214c2207a8be
:1043d8001f4601f055f84ff0ff33029303f2031321
:1043e800039304b901accde9044555b16a1e002d0b
:1043f800069208da094b4f221a604ff0ff301bb0c3
:10440800f0bd2a46f3e71cbf002323703a46314625
:1044180002a8cde9074400f003fff0e710150020db
:020000040000fa
:1044280010f0010f00d1704738b5114c25786db2e6
:1044380001f0d0f80f4b23f8150023785bb2013355
:1044480003f0010348bf5b42237023785bb243b992
:104458004ff4c0510a2000f047fe074b01221a70a2
:1044680038bd4ff4c0510b2000f03efef8e700bf06
:0c44780087140020fc14002019150020ff
:020000040000fa
:104484000e4a38b5002313600d4a0e4c13600e4ad1
:104494000e4d13600e4a13600e4a13600e4a5362a7
:1044a40013610123936001f03ff800f0e4fdac4296
:1044b40000d338bd54f8043b9847f8e7141500209e
:1044c40010140020700200000c140020740200007c
:0c44d40004140020081400201414002020
:020000040000fa
:1044e00008b5144b9b7df3b1124a137edbb2927d6b
:1044f00012f0800f18d10f4a137edbb2927d12f0ba
:10450000010f04d013f0010f01d0fff739fd094a64
:10451000137edbb2927d12f0040f04d013f0040f6f
:1045200001d0fff755fe08bd13f0800fe3d000f077
:08453000a5fbe0e700340040a8
:020000040000fa
:1045380038b5036d04463bb1426d934204dc002359
:10454800e3644ff0ff3038bd204600f0a7fd002897
:10455800f5db236dd4e90f12a3b1656d5b1b551a0a
:10456800ab420fdc013b0b44e36422b1636d521a8a
:1045780001321a44626511f8013c834218bf01f800
:08458800010ce0e71346efe728
:020000040000fa
:104590002de9ff41134dd1f80080af88adf80c70c4
:1045a00006462868029002aca8798df80e00002a11
:1045b00018bf1446d1e901571a461bb9204600f02e
:1045c000edfe0246002d02dbaa4228bf2a46cdf8a6
:1045d00000803b4621463046fff714fc04b0bde89e
:0845e000f08100bf50560000fd
:020000040000fa
:1045e800f0b50c4649682368a668e76887b00029d3
:1045f8000593a4bf23f00203059305ab02930a2396
:10460800cde900630546d2e900232046fff72cfddb
:104618002269059b0093013a3346121a3918284635
:10462800fff7ecfb6b68db0503d563689842b8bffe
:06463800184607b0f0bdba
:020000040000fa
:02463e00fee795
:020000040000fa
:10464000114b124a1a604ff622029a814ff44032ff
:104650005a601a46d369002bfcd10b4a136843f009
:1046600002031360d369002bfcd1094b00229a612d
:10467000da611a6283f82c205a621a605a609a60d2
:104680001a75da60da857047003400400401104082
:04469000881400206a
:020000040000fa
:1046940070b404468ab10b7804f8013b551e7bb113
:1046a4008618284406e011f8015f03f8015b021b39
:1046b4004db11c46a6422346f5d1204670bc704736
:1046c40023462a460446002af7d01a44002100bf94
:1046d40003f8011b9a42fbd1002c08bf1446204664
:0446e40070bc7047ef
:020000040000fa
:1046e80070b500239ab098420393a6bf00f1004327
:1046f80003f1ff334ff0ff330d4611900490002172
:10470800044602a81646129300f050fedde91e2367
:104718003146cde9002302a80122fcf775fe35b128
:10472800dde911329b1a179a13441c442c601ab005
:0247380070bd52
:020000040000fa
:02473a00fee798
:020000040000fa
:10473c00104b01221a601a46936813f0010ffbd13b
:10474c000c4b4ff480521a6000225a6158690a4986
:10475c00014359610221d9635a649a64da6442f6be
:10476c00e0621a654ef65f221a641a469368002bb3
:0c477c00fcd17047008001410007404064
:020000040000fa
:104788000fb400b583b004ab53f8042b01934ff476
:1047980000610d48fff714fe421e40f2fe739a4274
:1047a80004d903b05df804eb04b07047064b00224f
:1047b8001a5401461846fff793fc00bf00f09afe12
:0c47c8000028fbd0ede700bf0408002033
:020000040000fa
:1047d40001f000428b1aa3f16051b1f5801f0adb8e
:1047e400b1f17f6f09d242eac102c10071f1004107
:1047f40042eb507070471046704701285b4113f537
:10480400001f02d842f0ff407047c90041ea5070cf
:0c481400104340f4800040f080407047ea
:020000040000fa
:10482000c1f30a5340f21e42d21a0edd202a0ad8e2
:10483000cb0243ea505040f00040d04090eae17093
:10484000b0ebe1707047002070474b00004218bf8a
:1048500043f0010313f5001f88bf21f0004111f060
:0a486000004058bf6ff000407047a1
:020000040000fa
:10486a0010b590f948305a1e134380f84830d0e901
:10487a0005239a42044603d90022c36a114698477f
:10488a0060680023a362c4e90533830755bfd4e9ee
:10489a00023240f010009b18606056bfc4e90f3323
:0a48aa004ff0ff3040f3c00010bdd6
:020000040000fa
:1048b400812910b50fd0832903d0802912d000207c
:1048c40010bd1368191d1160d0e900011b68c3e90c
:1048d40000010120f4e71368191d11601b68d0e979
:1048e4000001f4e713681c1dd0e9000114601c6882
:0848f400fff76eff2060ece706
:020000040000fa
:1048fc0010b50278202a034600f10100f9d0a2f18c
:10490c0009010429f5d92b2a07d02d2a11d101210f
:10491c000133013b00200a2403e00021f8e7604347
:10492c00801a13f8012f303a092af8d901b94042fc
:06493c0010bd0021ede7b3
:020000040000fa
:024942007047bc
:020000040000fa
:104944000e4b01221a601a46136913f0010ffbd1b2
:104954000a4b4ff4a2621a6003221a7349f27b22b3
:104964009a8333229a72064a0021116001225a72f4
:104974001a461369002bfcd1704700bf003c00406d
:04498400d414002027
:020000040000fa
:104988000e4b01221a601a46136913f0010ffbd16e
:104998000a4b4ff4e2621a6003221a7347f26f223d
:1049a8009a8333229a72064a0021116001225a72b0
:1049b8001a461369002bfcd1704700bf003800402d
:0449c800dc140020db
:020000040000fa
:1049cc0070b5fff733fc00f0d7fcfff7d3f90c4cb4
:1049dc00012584f800544ff48066324600212046ad
:1049ec0000f04cfd84f801583246002104f20140dd
:1049fc0000f044fd204600f003fe284670bd00bfc9
:044a0c000000002086
:020000040000fa
:104a1000eab10378c9b28b421ad0431c02449342d4
:104a2000184603f1010312d010b404788c4207d069
:104a30009342184603f1010305d004788c42f7d164
:104a40005df8044b704700205df8044b7047002070
:044a5000704700bfec
:020000040000fa
:104a540010b5054c227832b9044b13b10448aff3b6
:104a640000800123237010bdb81400200000000052
:104a74000000000008b5034b1bb103490348aff322
:104a8400008008bd00000000bc14002000000000ed
:020000040000fa
:104a9400b8b138b505460c4a92f82c200ab100206a
:104aa40038bd0c4600f0a8f9074b9d61dc6100227b
:104ab4001a62012083f82c00da85044b84229a754b
:104ac400eee70020704700bf881400200034004047
:020000040000fa
:104ad4000d4b01221a601a46136913f0010ffbd122
:104ae400094b10221a6003221a734ef65e229a832f
:104af40033229a72054a0021116001225a721a4621
:104b04001369002bfcd1704700a00141f41400206c
:020000040000fa
:104b14002de9f041846b02f58077064688461546f8
:104b240000213a462046fff771ff00b1071bbd4242
:104b340028bf3d4621462a46404600f057fb6319ec
:0e4b44003c44f3633464b4632846bde8f0815a
:020000040000fa
:104b520038b504460025e36be26c934210d25a1c2e
:104b6200e2631878202809d00938042806d9e36cb2
:104b720013b1e36b013be363284638bd0135eae735
:0c4b82002046fff7d8fc431cecd1f5e7ff
:020000040000fa
:024b8e0070476e
:020000040000fa
:104b900030b50d4a002300bf12f8134024b902ebd0
:104ba00043035b78184630bd01680d78a54209bf04
:104bb00002eb430301335b78013114bfdbb20160c8
:0c4bc0000a2be9d9eee700bffa53000011
:020000040000fa
:104bcc0038b5436813f4807f0446154611d0036949
:104bdc009a4228bf1d465db12a46406900f002fb8f
:104bec00636922692b44551b0022636125611a708d
:0c4bfc0038bddb06fcd400f0e3fbf9e759
:020000040000fa
:104c08004ff4001c1ceb410f98bf1ceb430f11d84d
:104c180051ea030c50ea4c0c5cea020c0cd004d2aa
:104c280082428b41804101307047904299418041d6
:0c4c3800013070470020704701207047d9
:020000040000fa
:104c440008b500f051fcfef783fffef7cff8fff73d
:104c5400f5fcfff79aff00f05ff9fff771fefff72d
:104c640091fefff735fffff767fdfff717fbfff72f
:084c740047fbfef71bff08bd22
:020000040000fa
:104c7c000b4b5b8b13f0070300d1704710b5094c3d
:104c8c00e38500f0b5f8064b84221a75002384f8ee
:104c9c002c30636a13b1a06a636a984710bd00bfd9
:084cac000034004088140020d0
:020000040000fa
:104cb4007f2816d83f2914d830b4cb0800ebc31092
:104cc40080b2084b1d6801f00701012303fa01f4c7
:104cd4002b5c23ea040302fa01f10b432b5430bc8e
:084ce40070477047081500201d
:020000040000fa
:104cec0070b50b480b4d4ff6ff76016821b9436840
:104cfc0013b900f00cf970bd83684268334000f1c1
:104d0c000c0455f823302046984704eb8000ece760
:084d1c00d42a000074540000c9
:020000040000fa
:104d24004ff4001c1ceb410f98bf1ceb430f11d830
:104d340051ea030c50ea4c0c5cea020c0ad004d28f
:104d440082428b4180414042704790429941804168
:084d5400404270470020704747
:020000040000fa
:104d5c004ff4001c1ceb410f98bf1ceb430f11d8f8
:104d6c0051ea030c50ea4c0c5cea020c0ad004d257
:104d7c009042994180414042704782428b41804130
:084d8c0040427047002070470f
:020000040000fa
:104d94000a4b53f820307bb1084b53f82020084bc2
:104da40053f820309a4201d800207047034b002268
:104db40043f8202001207047002070470015002090
:044dc40004150020b2
:020000040000fa
:104dc8004ff4001c1ceb410f98bf1ceb430f0cd891
:104dd80050ea410c08bf52ea430c08d0904208bf81
:104de80099420cbf01200020704700207047012025
:024df800704702
:020000040000fa
:024dfa00fee7d2
:020000040000fa
:104dfc000a4b5b8b13f0070f0ed0084b80221a76f0
:104e0c0007225a831b7e13f0040f05d0034b9a6aba
:104e1c001a7e12f0040ffad1704700bf0034004024
:020000040000fa
:104e2c0038b504460d46074b1b783bb1064b43f88f
:104e3c002450064b012243f8242038bd00f076f9ab
:104e4c00f4e700bf1d1500200415002000150020fc
:020000040000fa
:104e5c0037b5d4680d4611461a46fef7bffe431c03
:104e6c000cd00a2201a9204600f01cfb019ba34296
:104e7c00c5e900010cbf6ff00100012003b030bd8b
:020000040000fa
:104e8c0070b598b004460d4616460021602268465f
:104e9c0000f0f4fa054b02943246294668460e940b
:104eac00119300f0c9f918b070bd00bf6b5600002b
:020000040000fa
:104ebc0053b94ab9002908bf00281cbf4ff0ff3175
:104ecc004ff0ff3000f0cebbadf1080c6de904ce15
:104edc00fdf722f9ddf804e0dde9022304b07047a8
:020000040000fa
:104eec0010b50b681b78202b0c4602d0093b042b09
:104efc000bd8fff728fe23685a1c22605b78202b06
:0e4f0c00f9d0093b042bf6d910bd0020fce7bc
:020000040000fa
:024f1a007047de
:020000040000fa
:104f1c00084b4ff400325a601a46d369002bfcd16f
:104f2c00044b1d221a73044a1a601a46d369002bcb
:0c4f3c00fcd17047000400430e00300060
:020000040000fa
:104f480008b5084b5b7a63b1064b987ac0b2332236
:104f58009a72054b1b6823b118b1034b59681b683b
:0c4f6800984708bd003c0040d414002015
:020000040000fa
:104f740008b5084b5b7a63b1064b987ac0b233220a
:104f84009a72054b1b6823b118b1034b59681b680f
:0c4f9400984708bd00380040dc140020e5
:020000040000fa
:104fa00008b5084b93f82e00012283f82e20064bfb
:104fb0001b682bb1c0b2044b59681b68104098475e
:0c4fc00008bd00bf001c0043e4140020ea
:020000040000fa
:104fcc0008b5084b93f82e00012283f82e20064bcf
:104fdc001b682bb1c0b2044b59681b681040984732
:0c4fec0008bd00bf00200043ec140020b2
:020000040000fa
:104ff80008b5084b5b7a63b1064b987ac0b2332286
:105008009a72054b1b6823b118b1034b59681b688a
:0c501800984708bd00a00141f4140020de
:020000040000fa
:1050240000b553ec112b83b051ec100b8ded002b1c
:10503400fef733f89ded002b53ec122bfdf71efb0e
:0c50440041ec100b03b05df804fb00bf52
:020000040000fa
:10505000802910db812901dd83290cd113680733f6
:1050600023f0070303f108011160d3e90023c0e92d
:0a5070000023012070470020704764
:020000040000fa
:02507a0070477d
:020000040000fa
:10507c0030b57ab101380a4410f8013f0d4633b10e
:10508c0011f8014b1cb1914201d0a342f4d02a7803
:08509c00981a30bd1046fce734
:020000040000fa
:1050a40013b50446fff7dffb18b14ff0ff3002b031
:1050b40010bd636c01220df10701204698470128b9
:0850c400f3d19df80700f2e7ab
:020000040000fa
:1050cc0010f0010f00d1704708b500f069fa034bde
:1050dc001880034b01221a7008bd00bf0208002083
:0450ec008614002006
:020000040000fa
:1050f000074a93889bb2014323f4f85323f01f031c
:105100000b439380136b13f0040ffbd1704700bf68
:045110000020004338
:020000040000fa
:1051140000b583b08df8070001210df10700fef7fb
:10512400e1ff00bf00f0e8f90028fbd003b05df810
:0451340004fb00bfb9
:020000040000fa
:1051380008b50021044800f059fa00f007f9034bbc
:1051480001221a7008bd00bf4d5400001d15002033
:020000040000fa
:10515800012800d9704708b500eb80204ff4806221
:105168000021024b184400f08bf908bd0000002014
:020000040000fa
:1051780010b582b0059c01949df810400094fef78c
:1051880037ff024b01221a7002b010bd1e15002015
:020000040000fa
:1051980010b50023934206d113f0030018bf012075
:0e51a80000eb930010bdc45ccc540133f2e761
:020000040000fa
:0251b600704740
:020000040000fa
:1051b800012800d9704708b500eb8020024b18443d
:0c51c80000f020fa08bd00bf000000202d
:020000040000fa
:1051d400aed580a83fd300408d142002a1c8da12b6
:0c51e40081cfd9f1db40a4a6af0000bfd2
:020000040000fa
:1051f0005ab110b40a44431e11f8014b03f8014f91
:0c5200009142f9d15df8044b70477047f3
:020000040000fa
:10520c00a0f13003092b07d940f0200061380528a4
:0c521c008cbf002001207047012070476b
:020000040000fa
:1052280013b50446019201aafcf778fc636813f0f1
:0c523800100f18bf4ff0ff3002b010bd87
:020000040000fa
:1052440013b50446019201aafbf7dcfc636813f072
:0c525400100f18bf4ff0ff3002b010bd6b
:020000040000fa
:1052600040f02003613b192b05d9303809288cbf49
:0a5270000020012070470120704764
:020000040000fa
:10527a000eb403b503aa52f8041b0192fff701fe0c
:0a528a0002b05df804eb03b07047ba
:020000040000fa
:10529400044a136843f002031360936813f0020f87
:0852a400fbd1704700800141bd
:020000040000fa
:1052ac00044a936813f0800ffbd1024b186c20f06a
:0852bc007f40704700800141b2
:020000040000fa
:1052c400044a136843f002031360136913f0020fd6
:0852d400fbd17047003c0040d3
:020000040000fa
:1052dc00044a136843f002031360136913f0020fbe
:0852ec00fbd1704700380040bf
:020000040000fa
:1052f400044a138843f002031380136b13f0020f64
:08530400fbd17047001c0043bf
:020000040000fa
:10530c00044a137d43f002031375136b13f4006fff
:08531c00fbd17047001c0043a7
:020000040000fa
:10532400044a138843f002031380136b13f0020f33
:08533400fbd17047002000438b
:020000040000fa
:10533c00044a137d43f002031375136b13f4006fcf
:08534c00fbd170470020004373
:020000040000fa
:10535400044a136843f002031360136913f0020f45
:08536400fbd1704700a00141dc
:020000040000fa
:10536c00012800d9704700eb8020024b184480f8cc
:08537c000014f7e70000002017
:020000040000fa
:1053840008b54ff480620021024b186800f07af8e7
:0853940008bd00bf0815002050
:020000040000fa
:10539c0003783bb1034600bf13f8012f002afbd161
:0853ac00181a704718467047fb
:020000040000fa
:1053b400d0e90f2310b59c1a0165446511b18c42e4
:0853c400c8bf5318c36410bdfb
:020000040000fa
:1053cc0010b4c46a1cb123465df8044b184700683e
:0853dc005df8044bfef7f3b984
:020000040000fa
:1053e40037b54ff0ff344ff0ff35cde90045fff7f7
:0653f40079f903b030bda1
:020000040000fa
:1053fa0068076c094c836a9074a07ac00080688838
:06540a0000846c820081a9
:020000040000fa
:10541000034b187e80f00200c0f34000704700bfcd
:045420000004004341
:020000040000fa
:1054240010f0010f02d0024b01221a70704700bf26
:045434001a15002025
:020000040000fa
:1054380010f0010f02d0024b01221a70704700bf12
:045448001b15002010
:020000040000fa
:10544c00034b1b681bb1024a13680133136070478e
:04545c000015002017
:020000040000fa
:1054600010b50446fff7e2fc2046fff793fc002846
:04547000fad010bda1
:020000040000fa
:10547400d9540000995100005f5600005f560000a7
:045484005f5600006f
:020000040000fa
:1054880032b1c9b20244034603f8011b9342fbd16f
:04549800704700bf9a
:020000040000fa
:10549c0010b50c46fef762ff0378e4b2a34218bfc6
:0454ac00002010bd0f
:020000040000fa
:1054b00037b500244ff00045cde90045fff714f95a
:0454c00003b030bd48
:020000040000fa
:1054c400034600bf11f8012b184603f8012b002aec
:0454d400f8d1704754
:020000040000fa
:1054d8000a440023914201d10020704701f8013ba2
:0254e800f8e7e3
:020000040000fa
:1054ec00024b40f204521a80704700bf004000414a
:020000040000fa
:1054fc00024b187ec0f34000704700bf00340040e0
:020000040000fa
:10550c00494e4600696e66004e414e006e616e005b
:020000040000fa
:10551c00494e4600696e66004e414e006e616e004b
:020000040000fa
:10552c0008b5fff742fefff740fefff73efe08bd51
:020000040000fa
:0e553c00a0f14103192b98bf40f020007047ea
:020000040000fa
:0e554a00a0f16103192b98bf00f05f007047bd
:020000040000fa
:0c55580008b500231a46fdf799fb08bdba
:020000040000fa
:0c556400014b988b704700bf003c0040da
:020000040000fa
:0c557000014b186059607047d4140020f3
:020000040000fa
:0c557c00014b01221a70704782150020bc
:020000040000fa
:0c558800014b01221a7070471c15002016
:020000040000fa
:0c559400014b988b704700bf00380040ae
:020000040000fa
:0c55a000014b186059607047dc140020bb
:020000040000fa
