:020000040000fa
:10000000f0ff0320cd6f0000874c00006f5500000b
:10001000af650000e7680000cb6f00000000000043
:10002000000000000000000000000000ab850000a0
:10003000675d000000000000ab850000ab8500009c
:10004000ab850000ab850000ab850000ab850000f0
:10005000ab850000ab850000ab850000ab850000e0
:10006000ab850000ab850000ab850000ab850000d0
:10007000ab850000ab850000ab850000ab850000c0
:10008000ab850000ab850000ab850000ab850000b0
:10009000ab850000ab850000ab850000ab850000a0
:1000a000ab850000ab850000ab850000ab85000090
:1000b000ab850000ab850000ab850000ab85000080
:1000c000ab850000ab850000ab850000ab85000070
:1000d000ab850000ab850000ab850000ab85000060
:1000e000ab850000ab8500000000000000000000b0
:1000f00000000000ab850000ab850000ab85000070
:10010000ab850000ab850000a17b0000a17b000057
:10011000a17b0000a17b0000ab850000ab85000047
:10012000ab850000ab850000894c0000894c0000c5
:10013000894c0000894c0000ab850000ab850000b5
:10014000ab850000ab850000ab850000ab850000ef
:10015000ab850000ab850000ab850000ab850000df
:10016000ab850000ab850000ab850000ab850000cf
:10017000ab850000ab850000ab850000ab850000bf
:10018000ab850000ab850000ab850000ab850000af
:10019000ab850000ab850000ab850000ab8500009f
:1001a000ab850000ab850000ab850000ab8500008f
:1001b000ab850000ab850000ab850000ab8500007f
:1001c000ab850000ab850000ab850000ab8500006f
:1001d000ab850000ab850000ab850000ab8500005f
:1001e000ab850000ab850000ab850000658a000090
:1001f000e98a0000418b0000ab850000ab85000060
:10020000ab850000ab850000ab850000ab8500002e
:10021000ab850000ab850000ab850000158b0000ae
:10022000ab850000bd8a0000ab850000ab850000f7
:10023000ab850000ab85000000000000000000005e
:10024000ab850000ab850000ab850000ab850000ee
:10025000ab850000ab850000ab850000ab850000de
:04026000ab8500006a
:020000040000fa
:10026400f8b500bff8bc08bc9e467047198400006e
:10027400f8b500bff8bc08bc9e467047f583000083
:020000040000fa
:080284002c3000000100000015
:020000040000fa
:04028c000010b000ae
:020000040000fa
:1002900082b02de9f04f2ded068bfdb00690079151
:1002a000f0ee409a8ca981e80c00b14901f5804438
:1002b00047f6ff700a4601f5807300bf22f8020f6f
:1002c0009a42fbd119469c42f4d10df59e780df16e
:1002d000dc0a3faf002500bf4fea450c0ceb0509d7
:1002e0007cab03eb8909ac44a24b03eb8c0c6c4652
:1002f00090ae0fce0fc4336823608cab0fcb9ced58
:10030000000adced010a9ced021a07f053f909ed31
:100310002d0a49ed2c0a09ed2b1ad8f808304af8b5
:10032000043bb7ee002a3b1d3a46f0ee691a0799e6
:10033000069807f039fd013508f10c080837082d3b
:10034000cad135ab08938c4e4ff0000a8ee1dfed39
:100350008b7a39ee279abbf1010b00f09b802aeed5
:10036000098a6aee891a9ded1a0added1b0a9dedd8
:100370001c1a08f079ff8ded6a0acded6b0a8ded40
:100380006c1af0ee481a9ded1d0added1e0a9ded7a
:100390001f1a08f069fff0ee401ab0ee602af0ee86
:1003a000412a8ded670acded680a8ded691a9ded44
:1003b0006a0added6b0a9ded6c1a08f05efff0ee47
:1003c000401ab0ee602af0ee412a8ded230acded01
:1003d000240a8ded251a9ded200added210a9ded03
:1003e000221a08f04aff8ded260acded270a8ded81
:1003f000281a0df1b00c6c4630af0fcf0fc43b681c
:1004000023609ce80f0007f0d5f8b0ee418a8ded2f
:10041000290acded2a0a8ded2b1ab7ee002a10ab72
:100420000faaf0ee691a0799069807f0bdfcddedfa
:100430000f7afdeee77a17ee900a7f2887d8dded78
:10044000107afdeee77a17ee901a3f293ff67faf5c
:10045000dfed4b7a28ee278a00ebc113494a32f9c7
:10046000133007ee903af8eee77ab4eee78af1ee51
:1004700010fa7ff56caf00ebc112bdeec88a414b9c
:1004800018ee104a23f81240012289b280b207f018
:100490006dff5ce7dfed3c7a78eea78ab8f10108e2
:1004a00010d0b0ee680a05f057fdf0ee40aab0eead
:1004b000680a05f02dffb0ee40aa4ff00a0b9fed41
:1004c000339a4ce708354d4562d0d5ed018ad5ed1c
:1004d000001ab6ee008a71ee881a9ded1a0added5b
:1004e0001b0a9ded1c1a08f0bffe8ded730acdedc1
:1004f000740a8ded751a78ee881a9ded1d0addedf2
:100500001e0a9ded1f1a08f0affef0ee401ab0ee85
:10051000602af0ee412a8ded700acded710a8ded65
:10052000721a9ded730added740a9ded751a08f0df
:10053000a4fef0ee401ab0ee602af0ee412a8dedf6
:100540006d0acded6e0a8ded6f1a9ded110added90
:10055000120a9ded131a08f090fe8ded200acdede4
:10056000210a8ded221a4ff01508dfed088a98e771
:10057000feffff1f64790000ac9000000ad7233c07
:1005800000803b45000000209a99993e0000000041
:10059000327802eb42037ca901eb830353ed2b8af3
:1005a000747804eb440c01eb8c0cb77807eb470331
:1005b00001eb830313ed2b8af37803eb43017ca853
:1005c00000eb810111ed2b9a23ad00ebc202f43a4e
:1005d00092e8030085e8030026aa7ca901ebc40485
:1005e000f43c94e8030082e8030029ac7ca901eb09
:1005f000c707f43f97e8030084e803002caf7ca909
:1006000001ebc303f43b93e8030087e80300b0ee7b
:10061000484a5ced2b3ab0ee683a94ed002ad4edee
:10062000012a92ed001ad2ed011a95ed000ad5edde
:10063000010a04f011f9b0ee684af0ee493ab0ee62
:10064000483a95ed002ad5ed012a97ed001ad7ed2d
:10065000011a94ed000ad4ed010a04f0fdf8043605
:100660000af1040abaf1180f00f003812cac2546f8
:100670008caf0fcf0fc50fcf0fc5d7f800b0c5f89f
:1006800000b00df15c08ac4b93e8070088e8070068
:100690000aeb4a030df1680ca84a1a4407ca8ce811
:1006a00007000df17409a64a134493e8070089e88e
:1006b000070020afa34b93e8070087e807006d46cb
:1006c0000df1c00ebee80f000fc5c5f800b094e8ec
:1006d0000f009ced000adced010a9ced021a06f009
:1006e00069ff8ded230acded240a8ded251a6d46a7
:1006f0000df1c00cbce80f000fc5dcf800302b601a
:1007000094e80f0099ed000ad9ed010a99ed021a5b
:1007100006f050ffd8ed001a98ed012ad8ed022a14
:1007200008f0abfdf0ee401ab0ee602af0ee412a80
:100730008ded260acded270a8ded281a97ed000ada
:10074000d7ed010a97ed021a08f0a0fdf0ee401a6d
:10075000b0ee602af0ee412a8ded290acded2a0a8d
:100760008ded2b1a9ded230added240a9ded251a52
:1007700008f0e4fbb5eec00af1ee10faccbf01239d
:100780000023089a02f8013b08927ff701af2cacd6
:100790008cad0fcd0fc40fcd0fc42b6823606a4bf7
:1007a0005af8037007f1ff3909eb4909674b03eb6e
:1007b000091911acdff8a0c1337803eb43030ceb4c
:1007c000830393e8070084e807000df1500e737867
:1007d00003eb43030ceb830393e807008ee8070069
:1007e00017adf37803eb43030ceb830c9ce8070095
:1007f00085e80700d4ed001a94ed012ad4ed022a11
:100800009eed000adeed010a9eed021a08f03efda3
:100810008ded790acded7a0a8ded7b1a06f0daffbf
:100820008ded1a0acded1b0a8ded1c1ad4ed001ac0
:1008300094ed012ad4ed022a95ed000ad5ed010ac6
:1008400095ed021a08f022fd8ded760acded770abe
:100850008ded781a06f0beff8ded1d0acded1e0a56
:100860008ded1f1a002f7ff793ae4d4609ebc70998
:100870002be6dff8e890dff8e8a0cb46d0467be037
:1008800005ebc413dfed327a28ee278abdeec88a65
:10089000304a18ee101a22f813100122a1b2a8b2a1
:1008a00007f064fd069bab425cd073000a9a9a4243
:1008b00003dca6eb0a060b9a15449f4202db3e447a
:1008c0000c9b1c4409f101097f2debd83f2ce9d882
:1008d00007ee909af8eee77a9ded0d7ab8eec77aba
:1008e00087ee878a7aee687a28ee278a38ee288a99
:1008f00018ee100a07f0aaff0da3d3e9002308f0b1
:1009000089fd53ec192b04f0ddfecde9080105eb60
:10091000c413104a32f9130008f04cfa02460b4691
:10092000dde9080107f028ff0028bbd0a8e700bfd9
:10093000333333333333d33f0055002080810000fd
:1009400038810000e8930000dc9000001859000096
:1009500000803b4500000020647900009490000076
:10096000c5900000079ba3429fd10bf1020b08f139
:100970000208394b9b4563d018f8013c35aad35c7b
:1009800023b998f80030d35c002beed09bf8002000
:100990009bf801307ca901ebc20151ed3d7afdeedf
:1009a000e77a17ee905a51ed3c7afdeee77a17eeb2
:1009b000904a37a901eb8202d2ed008a7caa02ebb1
:1009c000c30252ed3d7afdeee77acded067a52eda7
:1009d0003c7afdeee77acded077a01eb830393ede8
:1009e00000aa069b5f1b002fb8bf7f429d42b4bf89
:1009f00001234ff0ff330b9317ee903aa3eb040a59
:100a0000baf1000fb8bfcaf1000acaf100020a9297
:100a10009c42b4bf01234ff0ff330c93a7eb0a06af
:100a2000b9465745b8bfd146b9f1000f08bf4ff0de
:100a3000010900239fed069bcdf83490994643e7ca
:100a40007db0bdec068bbde8f04f02b0704700bf33
:0c0a5000000000000070a740ac90000007
:020000040000fa
:040a5c0000207047bf
:020000040000fa
:100a60002de9f04f2ded028bd2e9008997b0cde949
:100a70000c138b6808930b690f90d1e900b614939f
:100a8000cd68002200234046494607f075fe40b974
:100a90001bf0040f32d11bf00803059330d0202344
:100aa00003e089f0004399462d232b70089b03f146
:100ab000ff3a012305934c4929f0004300208b4263
:100ac00008bf80451fd10d9b413b192b059b94bf4f
:100ad000464947492b44184608f092fc284608f03e
:100ae00009fbcdf800b00246089b0f98294606f096
:100af00077fb17b0bdec028bbde8f08f2b23d4e75a
:100b0000ddf820a0d7e7994208bf404509d20d9be8
:100b1000413b192b059b94bf364937492b44184656
:100b2000dae7002200234046494607f0a9fe9fed80
:100b30002c7b8ded027b48b300240d9808f0e0fb80
:100b4000002ec3b20993c0f2d781672b5ad1002e71
:100b500008bf0126231d02dbb442c0f2c68165270f
:100b600061e09ded067b8ded027b01340022234b7d
:100b7000dde9020104f0a6fd42464b46cde906013f
:100b800007f0defd0028ecd000271fe00446ede76b
:100b900014f5967f11da87b90022194b4046494671
:100ba00004f090fd002280468946154bdde90201e4
:100bb00004f088fdcde902010127dde902010022f0
:100bc0000e4b03f055ffcde90201013cdde90223a4
:100bd0004046494607f0d0fd0028d9d1ade700bf17
:100be000000000000000f03f0000f07fe0920000f5
:100bf000e4920000e8920000ec9200000000244023
:100c000000005043099f662f06f101060bd1002c0e
:100c100004da9fedbd7b8ded027b0024099b672be1
:100c200018bf361966279ded027bcde906898ded4b
:100c30000a7b00230e93dde90a23dde9060103f0b8
:100c400017ff41ec100b05f083fd51ec100bb0eedb
:100c5000408af0ee608a07f0b9f9b0ee480af0ee8b
:100c6000680a069b1093079b159083f0004311932d
:100c70009ded0a1b9ded102b07f078ff53ec102b18
:100c800083f000430793dde90a01a34b8ded060acb
:100c9000002203f0edfe0e9b01339e42cde90a01d6
:100ca0000e93c8d100229d4b04f00cfdcde90a0142
:100cb00002460b46dde9060107f05efd002840f024
:100cc0008180dde90a23dde9060107f0d9fd10b1d5
:100cd000159bda0776d5dde90a234046494603f03d
:100ce0006dfa0022cde906018b4bdde9020104f02b
:100cf000e9fcdde90623cde90a0107f093fc0028b1
:100d000065d0662f04f1010465d10136a146a9eb37
:100d100006034ff00008059e1093cdf80880109b45
:100d2000994540f08180029b002b00f0c880a819f3
:100d30000022652f027029d1149b1499013b944223
:100d4000ea54c1f1030ebcbf644201220a21002c07
:100d500040f0bc800eeb030cbcf1000f00f3b6803a
:100d6000002a03f1ff3114bf2d222b226a540d9a61
:100d7000023b413a192a05eb030198bf45279e42e1
:100d80000f70aaf1020a01da08f03afb0bf0030334
:100d9000022b7ff4a3aebaf1000f7ff79fae284677
:100da00008f0a8f905eb0a03059a824240f39980fe
:100db000059b2b4418465246302108f011fa0023b7
:100dc00008938be69fed527b8ded0a7b83e79dedcb
:100dd000027b8ded0a7b652f14bfa1464ff0000901
:100de00095e7029a52b9b9f1000f07da0e992e224f
:100df0006a54012201360af1ff3a029205eb08011a
:100e0000aa193144302001e002f8010b9142fbd1d4
:100e100008eb06023033aaeb080808f1ff3a561c2b
:100e2000ab544ff0000828e00c9b0e961b69053b65
:100e3000b3427ff678afdde90a23dde9060103f06e
:100e400017fe41ec100b05f083fc51ec100bb0eedb
:100e5000408af0ee608a07f0b9f80bf0100209281a
:100e60000346a8bf09230243bbd1099a672ab8d118
:100e7000b9f1000fc2da08f10108069b1293079b33
:100e8000b0ee480af0ee680a83f0004313939ded3c
:100e90000a1b9ded122b07f069fe53ec102b83f01b
:100ea00000430793dde90a0100221b4b8ded060a82
:100eb00003f0defd09f1ff39cde90a012fe71bf050
:100ec000100f1ebf2e23ab55013630e7b4fbf1fceb
:100ed000013b01fb1c443034ec540af1ff3a6446f8
:100ee00035e72a5c1a5401385ee7002cbff69aae4b
:100ef000662788e606262de6099b672bfad01f4653
:100f0000062680e6aff30080000000000000f03ffe
:100f10000000000000000000000024400000144019
:020000040000fa
:100f20002de9f04f95b0cde912030b68089392edcf
:100f3000007b4b680a938b6809930b690d93cc680f
:100f40000022002351ec170b8ded047b07f014fcfd
:100f500040b9089b580734d4089b13f0080732d0d7
:100f6000202306e0dde9042181f00043cde90423dc
:100f70002d232370099b01275a1edde90403dff8a6
:100f8000f8b223f000414ff0000a594508bf504520
:100f90001bd1139b413b192b04eb070094bfb049b5
:100fa000b04908f02dfaaf4808f0a4f8089b009368
:100fb0000246099b1298214606f012f915b0bde8c9
:100fc000f08f2b23d5e7099ad7e7139b8b45a3f125
:100fd000410308bf82450b9309d2192b04eb07008c
:100fe00094bfa149a14908f00bfaa048dce73021e1
:100ff000e1550b997b1c1a2934bf58217821e15403
:10100000931e079300220023dde90401023707f055
:1010100037fc002800f07b819fed8f7b8ded027bfc
:1010200000250a9bdde90289002bdde904abb8bf8e
:1010300018230e93002642464b465046594603f06d
:1010400017fd41ec100b05f083fb42464b4651ec7b
:10105000100b8ded100b04f035fb02460b4650468d
:10106000594608f0d7f9824b82468b46404649469e
:10107000002204f027fb731c0c930a9b002b804674
:10108000894606da002200235046594607f0f8fb4d
:1010900028b90e9bb34200f3408101330c93002228
:1010a000744b4046494604f00dfb80468946024693
:1010b0000b465046594607f05ffb002840f02f8151
:1010c00042464b465046594607f0dafb30b1dde95f
:1010d000100106f07bffc10740f1218142464b46db
:1010e000dde9040103f06af8cde90401dde904213a
:1010f00021f00043604900208b4208bf82423ff448
:1011000048af4ff000083e46c246c1460d9b053b26
:10111000b342b34633d9dde90223dde9040103f02c
:10112000a7fc41ec100b05f013fb51ec100b8dedff
:101130000e0b06f04bff002840f0f680b9f1000fcf
:1011400000f0f28008f10108dde90223dde90e017b
:1011500004f0b8fa02460b46dde9040108f05af93a
:10116000434bcde904010022dde9020104f0aafab3
:101170000c9b09f101094b45cde90201c6d1baf139
:10118000000f1ed1b8f1000f00f015810a9b002b53
:1011900040f31181089bda0700f10d81a3192e227b
:1011a0001a7008eb06022244302100bf03f8011f29
:1011b0009a42fbd1079b46446fea08084344013634
:1011c00007930d9b0d990022a019013b95420270d7
:1011d000b8bf6d42e254c1f1020eb8bf01224ff018
:1011e0000a08002d40f0d7800eeb030cbcf1010f74
:1011f00000f0d180002a03f1ff3114bf2d222b22f1
:1012000062540b9a023b1a2a04eb030134bf5022aa
:1012100070229e420a7001da08f0f2f8089b03f08f
:101220000303022b14d1079ba3f10208b8f1000fae
:101230000edd204607f05eff04eb0803b84280f2a3
:10124000b68042463021e01907f0caff0023099317
:101250002046a9e6aff30080000000000000f03f48
:10126000d0920000d4920000d8920000dc920000de
:101270000000b03f000020400000f07fcde902896f
:101280000135dde902231046194602f097ff80463a
:10129000894602460b46dde9040107f06dfa002895
:1012a000ecd0dff82cb1dff82c914ff0000a4ff0b2
:1012b0000008dde90223dde9040107f05dfa0028fa
:1012c0003ff4afae52465b46dde9020104f0faf9a5
:1012d0000022002307f0d4fa78b142464b46dde9fc
:1012e000020104f0eff94246cde902014b46dde987
:1012f000040104f0e7f9cde90401dde902015246f9
:101300005b4604f0dff9013dcde90201d1e79fed35
:101310002e7b05468ded027bb3e70c9e8be64ff0ee
:1013200000084ff00009d9e6baf1000f0bd1b9f16e
:10133000000f08d02e2304f80b30079b013b013629
:1013400007934ff0010a04eb0803a219334430213c
:1013500002e000bf02f8011b9a42fbd1079b06eb9b
:10136000080ba3eb08080b9b0928d4bf303057307b
:10137000192b06d840f02003613b192b01d807f048
:10138000c6ff08f1ff330bf1010604f80b000793c9
:101390004ff00008d8e60799b5fbf8fc013b08fbc5
:1013a0001c5530350139e5540791654619e7225c33
:1013b0001a54013842e7089bdb067ff502af2e2363
:1013c000a3550136fde600bf000000000000f03f1d
:0813d0000000e03f0000504363
:020000040000fa
:1013d8002de9f04fedb0002305461646039104931e
:1013e8009946039b1b78002b62d00023cde9053377
:1013f80007930aab089303a980232846099307f0ab
:1014080015fb0446039b1a780ab1252a40d1049893
:10141800204404901a78252a31d15a1c00240392ba
:1014280007945a782a2a04bf02330393039808bf03
:10143800012406f00dff01460790284607f062feda
:10144800039b1a78303a092a48d903a807f0aaf862
:10145800039b8046187807f04fff672861dc6528f2
:1014680080f2c680612800f0c3803adc252800f0ad
:10147800ef805b2800f00c81039b013303937b1cf6
:1014880040f0f980b9f1000f08bf4ff0ff390fe0c5
:10149800eb6bea6c93420fd25a1cea631f78039bea
:1014a8001b78bb420ed0eb6c13b1eb6b013beb63cb
:1014b80048466db0bde8f08f284606f099fb074610
:1014c8000130ecd1049b01330493039b03a901333e
:1014d8002846039307f0aafa044493e701330393d9
:1014e800aee7632800f098806428c5d104ab05aa4c
:1014f8002aa9284607f052fa0028c0f26a81039bfd
:1015080001330393002c40f0b68033460122414654
:101518002aa805f0e1fe0028044667da0134b1d0b4
:10152800c6e7702841d00bdc6e2850d02fdc692824
:10153800a2d104ab05aa2aa9284603f069ffdbe774
:10154800752813d0782829d0732895d1b8f1800f41
:1015580092d1039b01330393002c77d133681a1d72
:1015680032601b680093012204ab68e004ab05aa53
:101578002aa9284600f02afd0028c0f22a81039be8
:1015880001330393002c76d133462246bfe704abe0
:1015980005aa2aa9284600f019fdede704ab05aa1b
:1015a8002aa9284604f024ffe6e704ab05aa2aa9dd
:1015b800284604f01dff0028c0f20b81039b01336d
:1015c8000393002c57d133462246f021a0e7039b12
:1015d800049a01330393d317cde92a23002c4ad167
:1015e8003346224641462aa805f076fea144f8e68d
:1015f80004ab05aa2aa9284600f0e8fc0028c0f296
:10160800e880039b01330393002c34d132464146d2
:101618002aa806f0f9fd7ee7b8f1800f7ff42caf19
:10162800079b0bb901230793039b013303935cb911
:1016380033681a1d32601b680093002204ab05a9a9
:10164800284602f093fc66e70023f5e7002389e7c4
:10165800b8f1800f7ff410af039bea6c013303935a
:10166800eb6b934209d25a1cea631878252808d1f3
:10167800049b013304930024b8e7284606f0b8fa1f
:10168800f4e7eb6c002bf6d0eb6b013beb63f2e776
:10169800b8f1800f7ff4f0ae002c39d133681a1df1
:1016a8003260d3f80080039b5a1c03925a785e2a52
:1016b8000cbf012700272aac08bf023340f20112f1
:1016c8003946204608bf039307f086fd00232370a0
:1016d800039b1a782d2a1ed101330393c7f1010306
:1016e80084f82e30c7f10107039a13785d2b1bd1bc
:1016f800b8f1000f5cd1eb6bea6c934264d25a1cd0
:10170800ea631f78e3195b78002b59d19a463ae0cf
:101718004ff00008c7e75d2ae4d101330393c7f10e
:10172800010384f85e30dde7002be1d02d2b06d0d5
:10173800039b13f8012b039322445770d4e7049baf
:101748001b78002bf4d05d2bf2d0531c0393029b23
:101758001b7851788b42ebda0133e754f9e700bf85
:1017680008f80b70049b013304930bf1010bea6b2f
:10177800eb6c9a42da461ed2531ceb631778e319d6
:101788005b78002becd1eb6c13b1eb6b013beb639b
:10179800039b01330393baf1000f3ff46daeb8f128
:1017a800000f3ff469ae002308f80a3001241de752
:1017b8004ff0000bdbe7284606f01afa0746dee78b
:1017c800049b0133049396e7284606f011fa07466e
:0817d80098e70446a2e600bff9
:020000040000fa
:1017e00000000008183060c08080404020203f206a
:1017f000206040c080c06030180800000000000079
:1018000000000000000000000000000000000000d8
:101810000080406020103020c08000000080c02088
:101820002020202060c00000000000000000000018
:1018300000000000000000000000000000000000a8
:101840000000000000000000000000000000000098
:101850000000000000000000000000000000000088
:10186000404040404040fc070100000000000000f4
:101870000000000001031ef840404040400000000e
:10188000000000000000000000000000000000fc5c
:101890000300003ce606fc0000011ef0fc03f8ce4d
:1018a000631e0000e03f0000000000000000000098
:1018b0000000000000000000000000000000000028
:1018c0000000000000000000000000000000000018
:1018d0000000000000000000000000000000000008
:1018e0000000000080c0633c183020604040c040d1
:1018f00040402030103c67c1800000000000000024
:101900000000000000000000000000000080804097
:10191000414a7820210f07000000000f00040761f2
:101920003038242320202060408080000000000008
:1019300000000000000000000000000000000000a7
:101940000000000000000000000000000000000097
:101950000000000000000000000000000000000087
:1019600000000001010000000000000000000f0066
:101970000000000000000000010100000000000065
:101980000000000000806010080402030100000c49
:101990000e0e0000e01070c0c06060c000000e0fae
:1019a0000700000000000080c0601f000000000071
:1019b000000000004080884000f8a8a8a8a8a8f867
:1019c00008008888f8888800f8a8a8f8a8e888009f
:1019d000002020f8a0a0f8202000f090888888003f
:1019e00000000000000000000000000000000000f7
:1019f00000000000000000000000000000000000e7
:101a000000000000000708101090d06020200000a7
:101a100000002060f0090c07050e0bd8704000088c
:101a200008080804140412332040c000000000001d
:101a30000000000010fc035242af964e261e86c7df
:101a40003e0240201f10e0100f74042714a4fc0075
:101a50000088482f0a0a0fe848380f00ff000000ee
:101a60000000000000000000000000000000000076
:101a70000000000000000000000000000000000066
:101a8000000000000000807e020100000000000055
:101a9000008080c0403f00000000cf79302020004f
:101aa000000000000000000000000003040cf040f3
:101ab000404040c0000000000000000000000000a6
:101ac0000000000000000000000000000000000016
:101ad0000000000000000000000000000000000006
:101ae00000000000000000000000000000000000f6
:101af00000000000000000000000000000000000e6
:101b0000000000000000030c3060c0808080008076
:101b10008080c040c33e000000000f1810f020205d
:101b20002020404040602020202030100c0603067a
:101b30000404040300000000000000000000000096
:101b40000000000000000000000000000000000095
:101b50000000000000000000000000000000000085
:101b60000000000000000000000000000000000075
:101b70000000000000000000000000000000000065
:101b80000000000000000000000000000000010153
:101b90000100000001060c0808080c060201000004
:101ba0000000000000000000000000000000000035
:101bb0000000000000000000000000000000000025
:101bc0000000000000000000000000000000000015
:101bd0000000000000000000000000000000000005
:020000040000fa
:101be0002de9f04f242985b006460f46144601d84a
:101bf000012903d1b64b16221a6050e0f36bf26c48
:101c0000934220d25a1cf26318782028f6d0a0f113
:101c10000903042bf2d92b2801d02d281bd1f36bfb
:101c2000f26c2d284ff0ff3a18bf4ff0000a934294
:101c30000dd25a1cf2631878f26c7fb1102f4ed17e
:101c400030280dd04be0304605f0d6ffdde73046ba
:101c500005f0d2fff0e74ff0000aede730283dd164
:101c6000f36b934222d25a1cf263187840f020039f
:101c7000782b2ad1f36bf26c93421bd25a1cf2637d
:101c80001878944b03445b780f2b40f2c180f36cbf
:101c9000002b00f09581f36b84b1023bf3630024c9
:101ca00000252046294605b0bde8f08f304605f0f6
:101cb000a3ffdbe7304605f09fffe2e7013bf3635c
:101cc0000021304607f022fae9e7002f00f0eb8010
:101cd0000a2f40f09e8000247f4d1ae00a277d4b9a
:101ce00003445b78bb42f3d312b1f36b013bf36364
:101cf0000021304607f00afa7ce70a2303fb0404bc
:101d0000f26bf36c9a42a4f130046bd2531cf36370
:101d10001078a0f13003092b01d8ac42edd9002591
:101d2000a0f1300109293dd86c4b4ff09932ab42fc
:101d300008bfa24217d34fea850ca3001b194cea37
:101d4000947245eb020213eb03086fea0103009360
:101d50004ff0ff33019342eb0209dde900234b45cd
:101d600008bf424542d25b4b184498464278ba427b
:101d700018d2f36bf26c934280f00a815a1cf26322
:101d8000187840444378bb42f3d3514b0e9922223a
:101d90001a60dde90e45002301f00102134318bf6c
:101da0004ff0000af36c13b1f36b013bf363dde911
:101db0000e239d4208bf9442c0f0fa800e99002382
:101dc00001f00102134340f0e780baf1000f40f048
:101dd000e3803f4b22221a600f9b11f1ff3443f145
:101de000ff355ee7304605f007ff92e718eb010488
:101df0004ff0000349eb0305f26bf36c9a4203d2f8
:101e0000531cf36310788be7304605f0f5fe87e747
:101e100010277c1e3c402f4d40f0b48017237b439d
:101e2000c3f342132b4493f801b12b185b789f4204
:101e300002d9b4f1006f38d34ff0ff33cbf120015a
:101e4000abf1200223fa0bf803fa01f148ea01088a
:101e500023fa02f2002548ea020823fa0bf91d4b87
:101e6000034459788f427ff67eafa94508bfa0454d
:101e7000fff479afabf1200004fa00f005fa0bf2a1
:101e8000cbf12003024324fa03f342ea0305f26b89
:101e9000f36c04fa0bf09a4241ea000414d2531c8a
:101ea000f3631078dbe70827b3e704fa0bf41c436d
:101eb000f26bf36c9a4203d2531cf3631078b4e7cd
:101ec000304605f099feb0e7304605f095fec6e7ce
:101ed000785500205c5c0000989999199999991996
:101ee00004fb0734f26bf36c9a4247d2531cf36342
:101ef00010782b185b789f4202d9334a9442efd96d
:101f00000025324b034459788f427ff62caf4ff0b7
:101f100000084ff0000965b1a4fb07234ff0000c47
:101f20001a466346e5fb07231bb14ff001084ff04b
:101f3000000958ea09037ff416af5ffa81f86feae7
:101f4000080102914ff0ff310391dde902bca7fbcc
:101f5000042307fb05339c4508bf93454ff0000958
:101f6000fff401af12eb080443eb0905f26bf36ccd
:101f70009a4209d2531cf3631078c2e7304605f049
:101f80003bfeb6e70024b4e7304605f035feb8e77f
:101f9000304605f031fef4e6dde90e23ab4208bf22
:101fa000a24205d20a4b22221a60dde90e4578e6ec
:101fb000baf1ff3f7ff475ae644265eb450570e60c
:101fc000002c7ff46cae7be6c6711c075c5c0000e5
:041fd0007855002020
:020000040000fa
:041fd4000020704732
:020000040000fa
:101fd8002de9f04f2ded028b95b0069007911c4628
:101fe8009df88830029302fb02f004fb04f34200e0
:101ff8000a9209935900089102fb04f20492209b6b
:1020080003f5b473bc4a82fb0315e918dd17c5eb69
:1020180021254ff4b47101fb1535219b0b4482fb3c
:1020280003621a44de17c6eb222601fb16360b9014
:1020380000fb04f7099bd81b06f0b8fe80468946ca
:102048000b9806f0b3fe0022ac4b03f037fb0246b8
:102058000b464046494602f0adf805f0b3ff039041
:10206800049a002a40f352810023019300930594b7
:10207800a8465ee0984501dd9e4204db029ab9b2ab
:10208800a8b206f06ff908344c4536d02568676861
:10209800a5eb0b0006f08afe41ec180baaeb070033
:1020a80006f084feb0ee481af0ee681a41ec100b08
:1020b80002f0a2f90022924b51ec100b03f0fefa49
:1020c8008ba3d3e9002302f0cffc00228d4b02f052
:1020d80071f805f077ff884b83fb00231a18c317a4
:1020e800c3eb22234ff4b47202fb1303b045c1dce7
:1020f8009845c8dc9e42c1dac5e7009b01330093ce
:10210800019b089a13440193039a002a27db059b35
:10211800013b0593049b0a9a9a1a0492099b019918
:102128000b449b1a039a1a440392049b019a934204
:102138001add069b9b4600981a180c92079ca2462b
:10214800059d61190d911b1a0e930f911093631b36
:102158001193129213930cac0df1500996e709995b
:10216800cb181a440392e0e7ddf814a0454600981e
:1021780006f01cfe0022644b02f01cf880468946db
:102188000af1ff34ddf824b0584606f00ffe424647
:102198004b4603f093fa42464b4603f08ffa8046cb
:1021a80089460b9f07fb04f004fb00f006f0fefdd8
:1021b80002460b464046494601f0fcff80468946e8
:1021c800584600fb07f006f0f1fd02460b46404674
:1021d800494607f01bf905f0f5fe0590baf1000f26
:1021e800c0f2c5800a9b0993049ad31a0b9ad31a92
:1021f8000393a84653e0984501dd9e4204db029a0a
:10220800b9b2a8b206f0aef808344c4536d0256805
:102218006768a5eb0a0006f0c9fd41ec180babebab
:10222800070006f0c3fdb0ee481af0ee681a41ec5c
:10223800100b02f0e1f80022314b51ec100b03f0c7
:102248003dfa2ba3d3e9002302f00efc00222d4b0c
:1022580001f0b0ff05f0b6fe274b83fb00231a18e8
:10226800c317c3eb22234ff4b47202fb1303b04528
:10227800c1dc9845c8dc9e42c1dac5e7ddf810a08c
:102288000af1ff3a059b002b23dd039a13440593bb
:10229800039b099a13440393baf1000f67db069b6b
:1022a8001846009c1a190c92079dab4629465144c2
:1022b8000d911b1b0e930f911093a5eb0a0311931d
:1022c800129213930cac0df15009cdf810a0824670
:1022d8009de7009b01330093019b089a13440193e7
:1022e800039ad318059a1a440592d1e7aff30080f0
:1022f800182d4454fb210940b7600bb60000d03fad
:1023080000806640008076400000e03fa2460b9bbc
:10231800f81a013c04fb00f006f048fd80468946a7
:10232800099c204606f042fd0022134b03f0c6f933
:102338000022114b03f0c2f902460b4640464946bb
:1023480001f038ff8046894620460b9b00fb03f0ce
:1023580006f02cfd02460b464046494607f056f863
:1023680005f030fe05900023019300933ae715b07d
:0c237800bdec028bbde8f08f0000e03fe0
:020000040000fa
:10238400b74b93ed007adfedb76a27ee267a07eeb6
:10239400900ab8eee76adfedb45a26ee256a37ee06
:1023a400067a83ed007ab14bd3ed007a67eea67a14
:1023b40006ee901af8eee66a66eea56a77eea67a5d
:1023c400c3ed007a002a40f0a98010b52ded028bf0
:1023d40084b0a74bd3ed006a77ee666aa54b93ed04
:1023e400006a37eec66a66eea66a26ee066a76eede
:1023f400866ab1eee66adfeda06ab4eee66af1ee53
:1024040010fa00f1dc809d4bdfed9d6a27ee267a01
:10241400d3ed005a37ee257a83ed007a994b67eeb7
:10242400e67a93ed007a77ee877ac3ed007af5eedb
:10243400400af1ee10fa00f0c780dfed8f7ab4eeb7
:10244400e76af1ee10fa7dd48c4bd3ed007a61ee9d
:10245400277ac3ed007a8b4b93ed007a21ee071aad
:1024640083ed001a67eea77a21ee011a77ee817ade
:10247400f1eee76a844b4ff07e521a60834bd3ed42
:10248400007a7e4a92ed007a77ee877ac3ed007a7d
:102494007f4bd3ed007a7b4a92ed007a77ee877a10
:1024a400c3ed007adfed747ab4eee76af1ee10fa68
:1024b40006d5dfed6d7af4eee76af1ee10fa04d496
:1024c400f5ee401af1ee10fa77d10024f0ee618aad
:1024d400b0ee408a02946f4b01936f4b0093b6eebb
:1024e400001af0ee610a6d4b80226449674803f0dc
:1024f40023fe02946a4b01936a4b0093b6ee001ad2
:10250400f0ee680a684b4022b0ee480a5d49604824
:1025140003f012fe04b0bdec028b10bd544b83edee
:10252400007a544bc3ed007a584b4ff085421a6041
:10253400574b4ff084421a600023524a13604f4aab
:10254400136070474d4b514a92ed007adfed577a94
:1025540077eec77a67eea07a9fed557a67ee877ab1
:102564009fed547a67ee877a93ed007a77ee877a57
:10257400c3ed007a434b464a92ed007adfed4e7a82
:1025840077eec77a67eea00ad3ed007a70eea70a59
:10259400c3ed000a58e7dfed496a77eee67a3a4b75
:1025a400c3ed007a27ee877a344b83ed007a27ee69
:1025b400811a344b83ed001a33e0012486e7f5eeeb
:1025c400400af1ee10fabdd12c4b93ed007a21eec6
:1025d400077a83ed007a2b4bd3ed007a21ee271a8c
:1025e40083ed001a67ee077a61ee016a77eea67a48
:1025f400f1eee76adfed1c7af4eee76af1ee10fa29
:102604007ff538af204bd3ed007adfed2c6af4ee82
:10261400e67af1ee10fabed800231a4a1360174a7c
:1026240013601a4bd3ed007a144a92ed007a77eed8
:10263400877ac3ed007a164bd3ed007a114a92edf6
:10264400007a77ee877ac3ed007adfed0b7ab4ee89
:10265400e76af1ee10fa7ff533af002436e700bfe6
:1026640054550020cdcc4c3ecdcc4c3f5855002089
:102674006455002068550020000048426c55002035
:102684000ad7a33c7055002058560020505600200d
:10269400545600205c550020965500209555002086
:1026a400605500209455002097550020000080427a
:1026b400000000430000803c00000042cdcccc3d33
:020000040000fa
:1026c4002de9f041aeb0064615460591002705995f
:1026d4000b78002b00f0fa8000244ff0ff33cde993
:1026e40009430eab0c9380230b940d930b5d0bb13c
:1026f400252b26d134b12246304605f073ff059bc5
:1027040023440593059b1a78252a40f0d78003f1ca
:102714000108cdf81480059803782b2b1ad025d8fe
:10272400202b1bd0232b1dd02a2b27d005f092fd64
:102734000b90059b1a78303a092a2ed80133059359
:10274400f7e70134d2e7099b43f001030130099311
:102754000590e0e7099b43f00403f7e7099b43f086
:102764000803f3e7099b43f01003efe72d2bead0ae
:10277400302bd9d1099b43f00203e7e72b681a1ddc
:102784001b682a600130002b05900b9305da099a27
:102794005b4282f0010209920b93099bda0744bf62
:1027a40023f002030993059b1a782e2a0dd10022e7
:1027b400581c0a9205905a782a2a25d10233059387
:1027c4002b681a1d1b682a600a9305a805f0ecfe05
:1027d400059b0390187806f091fd6928039979d038
:1027e40032dc632800f0cb8019dc252800f0d98086
:1027f400612853d000234ff0ff32cdf814800993a1
:102804000b930a920093d4e005f024fd0a90059bf3
:102814001a78303a092ad8d801330593f7e764289f
:1028240058d06728e6dc2a4606a806f0ddf9002819
:1028340000f0a180059b5a1c05921b7806aa09a9e1
:102844003046fef70bf938e0702873d015dc6e289b
:1028540000f08c806f28cdd12b46002206a804f00e
:1028640021fa002800f08780059b06aa013309a9f4
:102874003046059304f0d5fe1fe075283ad0782839
:1028840048d07328b6d1802975d1059b2a680133b5
:102894000593131d2b60126800237de02a4606a8c9
:1028a40006f0a2f9002866d0059b5a1c05921b78f5
:1028b40006aa09a93046fef731fb04443c44a7426a
:1028c4007add3e4b4f221a604ff0ff3738462eb068
:1028d400bde8f0812b46012206a804f0e3f90028a4
:1028e40049d0059b06aa013309a93046059304f093
:1028f4002ffae2e72b46002206a804f0d3f90028b9
:1029040039d0059b06aa013309a93046059305f081
:10291400c9f9d2e72b46002206a804f0c3f950b344
:10292400059b5a1c05921b7806aa09a9304602f099
:102934005fffc2e72b460022f02106a804f0b2f99b
:10294400c8b1059b01330593dde9062313430bd17d
:102954001b4806f0cdfb099b009319490b9b0246cb
:10296400304604f03bfca8e77823dde72b463a1910
:1029740006a804f0f1fc059b013305939ee780292a
:10298400f9d1059b013305932b681a1d1b682a6036
:102994008df8183006aa012309a9304605f056f926
:1029a4008be78029e7d1059b01330593099b0093ad
:1029b4000b9b04490122d3e7274688e6785500207b
:0829c4001c94000022940000a5
:020000040000fa
:1029cc00e45400201c00000000000000855500208d
:1029dc0001000000000000008a55002002000000e9
:1029ec0000000000865500200200000000000000de
:1029fc004455002004000000000000003455002065
:102a0c0006000000000000003c55002006000000fd
:102a1c00000000008d5500200100000000000000a7
:102a2c008c5500200100000000000000885500209b
:102a3c0002000000000000008e5500200400000081
:102a4c000000000084550020010000000000000080
:102a5c000248002002000000000000008654002004
:102a6c0002000000000000003a55002002000000a7
:102a7c000000000042550020020000000000000091
:102a8c00805500200400000000000000405600208b
:102a9c0006000000010000000b0c0d0e0f100000d2
:102aac00485600200600000001000000111213140b
:102abc0015160000f7550020010000000100000071
:102acc00320000004e560020020000000100000001
:102adc00020100000c55002008000000000000005e
:102aec00b85400202c0000000000000014550020f9
:102afc00100000000000000088540020300000008e
:102b0c000000000024550020100000000000000010
:102b1c0048550020080000000000000092550020dd
:102b2c00010000000000000054540020320000009e
:102b3c000000000093550020010000000000000080
:102b4c000040002002080000000000009855002002
:102b5c005f0000000100000030313233343536376d
:102b6c0038394142434445464748494a4b4c4d4eff
:102b7c004f505152535455565758595a61626364c9
:102b8c0065666768696a6b6c6d6e6f707172737471
:102b9c0075767778797a7e21402324255e2628293c
:102bac005b5d7b7d5f5c7c3b3a2c2e6027223c3e40
:102bbc002b2d2a2f3d3f20004656002002000000fe
:102bcc00010000000100000004500020000400007f
:102bdc0000000000505500200c0000000000000018
:102bec009455002004000000000000005c550020fb
:102bfc000800000000000000005500200c00000040
:102c0c0000000000645500201000000000000000cf
:102c1c00000000200040000000000000f8550020db
:102c2c0048000000010000000000803f0000000090
:102c3c0000000000000000000000803f00000000c9
:102c4c0000000000000000000000803f0000803ffa
:102c5c000000000000000000000000000000803fa9
:102c6c000000000000000000000000000000803f99
:102c7c00505600200c0000000100000000008042b3
:102c8c00000000420000803f0448002000080000c3
:102c9c000000000074550020080000000000000037
:102cac000454002050000000000000007c5500205f
:102cbc000400000000000000000000000000000004
:020000040000fa
:102ccc000fb42de9f047adf5876d0df58b6353f817
:102cdc00042bcdf834344ff480610da804f0cefef3
:102cec000dac9c4d9c4e9d4f08e06378402b22d040
:102cfc00232b25d014f8010b06f032f82378002b87
:102d0c0000f022815c2bf0d0402b1ed02378232b9b
:102d1c00f0d105222946204605f0a0ff30b105224e
:102d2c008f49204605f09aff002861d1611d201db6
:102d3c0004f10a0c48e0402006f012f80234dde7fa
:102d4c00232006f00df80234d8e7611c0a469046a1
:102d5c0012f8013ba3f130000928f8d92c2bf6d03e
:102d6c003b2bd3d1a8eb0109b9f11f0fcedc0df130
:102d7c00140a4a46504606f037fb00230af809307d
:102d8c002c21504606f030fa0028bfd02c210130ff
:102d9c0006f02afa0028b9d104ab03aa714905a898
:102dac0006f0e0f80228b1d1a8eb040303f1010905
:102dbc00b8f1ff3faad0039a04996b4805f0b4f818
:102dcc004c449be784450dd010f8013fa3f1300231
:102ddc00d2b2092af6d923f02003413bdbb2052bf2
:102dec00f0d902e0e37a3b2b5bd02378232b81d103
:102dfc0005223146204605f031ff002873d005220c
:102e0c003946204605f02aff002875d0052257497f
:102e1c00204605f023ff002873d005225449204694
:102e2c0005f01cff002871d005225249204605f000
:102e3c0015ff00286fd005224f49204605f00effe4
:102e4c0000286dd005224d49204605f007ff0028cb
:102e5c006bd005224a49204605f000ff002869d0b6
:102e6c0005224849204605f0f9fe002867d0204687
:102e7c0006f03af904287ff63dafa04604f10309a9
:102e8c0018f8010f06f061f800283ff433afc14584
:102e9c00f6d123793b2b02d0002b7ff42baf631d93
:102eac0025e094f80180062205a806f09dfa00237f
:102ebc008df81a3004ab009303ab02aa324905a873
:102ecc0006f050f8032890d1b8f1420f049b039af6
:102edc0002990cbf2d482e4805f026f814f10c0f62
:102eec0083d00c340ae72b4805f01ef8631d002b29
:102efc003ff400af053401e7274805f015f8631dd2
:102f0c00f5e7264805f010f8631df0e7244805f0b6
:102f1c000bf8631debe7234805f006f8631de6e7a5
:102f2c00214805f001f8631de1e7204804f0fcff9f
:102f3c00631ddce71e4804f0f7ff631dd7e71d484f
:102f4c0004f0f2ff631dd2e70df5876dbde8f04785
:102f5c0004b070473c620000846200009462000080
:102f6c00446200002862000030620000a46200008d
:102f7c00b0620000c0620000d0620000e06200009d
:102f8c00f0620000006300004c6200005c62000014
:102f9c00706200008c6200009c620000ac62000059
:102fac00b8620000c8620000d8620000e86200004d
:082fbc00f86200000863000048
:020000040000fa
:102fc4002de9f0472ded028bacb004460e461746b2
:102fd4001d46184605f05cff284605f00bff01204e
:102fe40006f0e8f961422b463a46f7ee001a9fede7
:102ff4009e1adfed9e0ab3ee070a09b23046fff7c8
:10300400bff99b4bd3ed000a9a4b93ed000af1ee06
:10301400600ab1ee400a03f0e7fd10b3964e974bf9
:1030240093ed007a964bd3ed007a6c4606f10805d1
:103034000fcd0fc495e8070084e8070096e80c005c
:10304400b3ee070abdeec77a17ee101afdeee77a63
:1030540017ee900afdf71af92cb0bdec028bbde80f
:10306400f087844bd3ed007a814b93ed007a67eec1
:10307400a77a27ee077a77ee877af1eee78a23ac10
:103084007d4d0fcd0fc40fcd0fc42b6823604ff0bf
:103094000009bfee008a4e46dff80ca20df18c0841
:1030a40006eb46070aeb87076c4627ad0fcd0fc426
:1030b4002b68236098e80f0097ed000ad7ed010a0a
:1030c40097ed021a04f074fa8ded1a0acded1b0a7d
:1030d4008ded1c1ab4eec81af1ee10fac4bfb0eeae
:1030e400418ab1460136062edad1dfed667af4ee76
:1030f400e78af1ee10fa0cd4634b53f829300193ac
:10310400624b009300231a461946184603f04efcfe
:1031140084e7594bd3ed000a93ed027a93ed030a49
:10312400d3ed057ab9f1040f20d0b9f1050f00f001
:103134008c80b9f1030f0bd002f018fab0ee408a7c
:10314400b9f1050f53d8dfe809f01f464c0b198875
:10315400f1ee600ab1ee400a02f008fab0ee408add
:103164009fed4b0a1aa804f079ff10e0f1ee470a2c
:10317400b1ee670a02f0faf9b0ee408a9fed440a14
:103184001aa804f08fff02e01aa805f053fe23ae3c
:10319400b0ee480a304604f0a9ff06ac1aad0fcdd4
:1031a4000fc40fcd0fc42b6823606c4626ad0fcd22
:1031b4000fc495e8030084e8030096e80e0011a804
:1031c40004f04ef82c4811ac00f124059fed316a4f
:1031d400dfed316a13e09fed310a1aa804f03effd7
:1031e400d5e79fed2f0a1aa804f038ffcfe71aa8f5
:1031f40005f020fecbe70c300c34a84211d0214658
:1032040002460323d2ed007ab1ec017a67ee867aa6
:1032140027ee267a77ee877ae2ec017a013bf1d148
:10322400e9e7154802f09efddfed1e7af4eee78a29
:10323400f1ee10fa7ff560af0f4c11ad0fcd0fc456
:103244000fcd0fc42b68236056e7f0ee470ab0eeab
:10325400670a02f08bf9b0ee408a9fed110a1aa8b2
:1032640004f020ff93e700bf6666663f000000009d
:103274006c550020705500201c5600205456002028
:1032840050560020cdcc4c3fdc900000d093000081
:10329400db0fc9bf3333733fcdcc4c3ddb0f49400b
:0c32a400db0fc93f17b7d1388081000054
:020000040000fa
:1032b0002de9f04f099f154604468e461e46002b09
:1032c00040f0cc808a42b2fa82fc4cd9bcf1000fab
:1032d0000bd0ccf1200801fa0cfe20fa08f802fa13
:1032e0000cf548ea0e0e00fa0cf44fea15491ffae5
:1032f00085f8befbf9fa210c09fb1ae30afb08fb6f
:1033000041ea03439b452ad9eb180af1ff3004d266
:103310009b4502d9aaf102002b44a3eb0b03a4b2f4
:10332000b3fbf9f209fb123302fb08f844ea034449
:10333000a04516d92c1902f1ff3303d2a04501d9bb
:10334000931e2c44a4eb080443ea004027b124fa5e
:103350000cf400233c607b603146bde8f08f5046a2
:10336000dbe71346eee702b9ffdebcf1000f2ed11a
:103370008b1a01264fea154eaab2b3fbfef8210cb8
:103380000efb183308fb02f941ea0343994561d962
:10339000eb1808f1ff3004d2994502d9a8f10200d8
:1033a0002b44a3eb0903a4b2b3fbfef10efb1133d4
:1033b0004a4344ea0344a2424ed92c1901f1ff3397
:1033c00003d2a24201d98b1e2c44a41abce7ccf133
:1033d000200e02fa0cf521fa0ef901fa0cf320fa8c
:1033e0000efe4eea03034fea154800fa0cf4b9fb4f
:1033f000f8f11ffa85fe08fb1192180c01fb0ef67e
:1034000040ea0242964221d9aa1801f1ff3003d2c4
:10341000964201d9881e2a44921b9bb2b2fbf8f94e
:1034200008fb192209fb0efe43ea02439e450fd911
:10343000eb1809f1ff3604d29e4502d9a9f1020624
:103440002b44a3eb0e0346ea004693e70846e3e766
:103450004e46f6e74046a4e70b46b6e78b4206d950
:10346000002f7ed00026c7e90001304674e7b3fa8a
:1034700083fcbcf1000f0fd18b4201d3824209d8eb
:10348000841a61eb030e0120002f6dd0c7e9004eb6
:10349000002661e76046f7e7ccf1200e03fa0cf353
:1034a00022fa0ef521fa0ef41d4301fa0cf320fa6c
:1034b0000ef10b434fea154a00fa0cf6b4fbfaf989
:1034c0001ffa85f80afb19401c0c09fb08f144eab5
:1034d0000044a14202fa0cf23fd92c1909f1ff3045
:1034e00004d2a14202d9a9f102002c44641a9bb271
:1034f000b4fbfaf90afb194409fb08f843ea044152
:1035000088452cd9691809f1ff3304d2884502d9be
:10351000a9f10203294443ea0040a1eb0801a0fb02
:1035200002894945c2464c4602d306d1464504d2db
:10353000b8eb020a69eb05040138afb1b6eb0a0338
:1035400061eb040606fa0efe23fa0cf34eea0303bf
:1035500026fa0cf6c7e900369ae74846c6e74b4616
:0c356000d9e73e463846f7e63e46f5e661
:020000040000fa
:10356c003e514949453e004442417f404000426142
:10357c0051514946002241494949360030282422fc
:10358c007f2000274545454539003c4a4949493289
:10359c0000016111090503003649494949360026e5
:1035ac00494949493e00781611111678007f49495e
:1035bc00494936001c2241414122007f41414122b0
:1035cc001c007f4949494941007f0909090901004b
:1035dc003e414149493a007f080808087f004141b3
:1035ec00417f4141004141413f0101007f081422cc
:1035fc004141007f4040404040007f02040c027f6c
:10360c00007f020c10207f003e414141413e007f73
:10361c000909090906003e41516141be007f0909b3
:10362c0019294600264949494932000101017f0107
:10363c0001003f404040403f00031c602018070041
:10364c007f201018207f0063140808146300030403
:10365c0078080403004161514945430020545454f7
:10366c003840007f48484830000038444444280023
:10367c0000384444247f0000385454544800000857
:10368c00087e090a00001824a4a4f800007f08048e
:10369c000478000000447d400000002040443d00c0
:1036ac0000007f10282440000000007f0000000074
:1036bc007c047c047800007c04040478000038440a
:1036cc004444380000fc242424180000182424242a
:1036dc00fc00007c0804040400004854542400003e
:1036ec000004043f444400003c4040207c00001c8b
:1036fc002040201c00007c2018207c000044281056
:10370c00284400009ca040201c00004464544c44fd
:10371c0000001008081010080000005f00000000f6
:10372c001c2259655d522c10741f741f1400242a1e
:10373c007f2a1200004225122c52210004020102a1
:10374c000400002056495620500000001c22410065
:10375c0000000041221c000000007f4141000000dd
:10376c000041417f0000000836414100000000414b
:10377c0041360800404040404040400001060830bf
:10378c0040000000007f00000000407b3b00000078
:10379c000000363600000000402c1c000000000029
:1037ac0018180000000001030200000000000700d0
:1037bc0000000000070007000000000814220000b1
:1037cc0000002214080000000008083e0808000051
:1037dc000808080800000014083e081400403008cf
:1037ec000601000000141414141400000251090600
:1037fc0000000000000000000000020502000000b4
:020000040000fa
:10380c002de9f0412ded048bb8b009ee100a8c4671
:10381c00174606ee903a9df810319df814613bb1b5
:10382c00934c944d0fcd0fc40fcd0fc42b68236058
:10383c00ccf1000c07ee90caf8eee78ab8eec99a04
:10384c007f4207ee907ab8eee78abdf908315b4209
:10385c0007ee903af8eee77af8eee66abdf90c312d
:10386c005b4207ee103ab8eec77acded1a7acded81
:10387c001b6a8ded1c7a67eea77a66eea66a77ee68
:10388c00a67a27ee077a77ee877ab1eee77adfed44
:10389c007a7ab4eee77af1ee10fa75dccded358a72
:1038ac008ded369a8ded378ab0ee680af0ee490a46
:1038bc00b0ee481a03f088ff8ded1d0acded1e0aff
:1038cc008ded1f1adfed6d0acded320acded330a09
:1038dc00bfee008a8ded348a654f6c4607f11005fa
:1038ec000fcd0fc42b68236097e80f00b0ee600a71
:1038fc00b0ee481a05f05ff98ded200acded210ae6
:10390c008ded221added1d1a9ded1e2added1f2a0f
:10391c0005f00efbf7ee000a05f00ef8f0ee480a83
:10392c0004f0f2ff02f00ef9b0ee408adfed547aab
:10393c00b4eee70af1ee10fa06ddf7ee007ab4ee1b
:10394c00e70af1ee10fa4ed4304605f09dfa3046f7
:10395c0005f04cfa012005f029fd454e6c4606f1a8
:10396c0008050fcd0fc495e8070084e8070096e81a
:10397c000c009fed440a20214020fcf783fc38b05a
:10398c00bdec048bbde8f0810df19808dfed3e1a1b
:10399c0067ee211a9ded1a0added1b0a9ded1c1a2e
:1039ac00404603f0bff8324d06ac2f460fcf0fc484
:1039bc000fcf0fc43b6823606c460df1a40cbce820
:1039cc000f000fc49ce8030084e8030098e80e0085
:1039dc0010a803f041fc10ac0fcc0fc50fcc0fc5d9
:1039ec0023683b605ae7dded1d1a9ded1e2addedc7
:1039fc001f2a9ded200added210a9ded221a05f00e
:103a0c00c5f88ded2f0acded300a8ded311a03f08e
:103a1c00dbfe8ded230acded240a8ded251a0df17b
:103a2c009808dfed1a1a68ee211a404603f07af86e
:103a3c003d4606ac0fcf0fc40fcf0fc43b682360bd
:103a4c006c460df1a40cbce80f000fc49ce80300fd
:103a5c0084e8030098e80e0010a803f0fdfb10acfe
:103a6c000fcc0fc50fcc0fc523683b606ce700bfb4
:103a7c00f8550020488d0000000020420000000096
:103a8c006f12833a00001842059d3538cdcccc3de1
:020000040000fa
:103a9c002de9804885b0002004f045fd00217848d0
:103aac0005f042fc05f06cfa0021764805f05afc52
:103abc0005f08afa0021744805f060fc0021734877
:103acc0005f056fc0121724804f0aefc7148fff77a
:103adc00f7f80021704805f05dfc00216f4805f0f7
:103aec003bfc05f07dfa05f057fa05f09dfa03f062
:103afc007ff904f013fc0121002005f0adfa002140
:103b0c00012005f0a9fa00240294654d01950423c7
:103b1c000093234622462146802002f0d5fc4ff428
:103b2c007a71204605f042fb02940195082300931c
:103b3c0023466ff07f022146204602f0c5fc01218e
:103b4c00204605f089fa0121084605f085fa554e04
:103b5c00dff8a881dff8a8b1534ddff8a8a1dff892
:103b6c00a8918ae0002333704ff48053c8f81c30be
:103b7c004e48fff7a5f805f03ffa05f019fa13e0e7
:103b8c0005f0a6f84a4b1b78002b35d1494b1b7816
:103b9c00002b3ed1484b1b78002b43d12b78002bac
:103bac004dd13378002bddd1444b1b78002be9d061
:103bbc00424b00221a704ff40053c8f81c30404b93
:103bcc001a78404b1c781444e4b21c70631edbb2b0
:103bdc00622b02d952423a4b1a7005f031fa3b6b08
:103bec0013f4002fccd100fb04f30133abfb032304
:103bfc00c3f35713fb67c3e72d4b00221a70244cf9
:103c0c0021783148fff75cf80121204604f00cfcc8
:103c1c00bce7284b00221a702c4b19882c48fff754
:103c2c004ff8b7e7244b00221a702a4c21882a48f7
:103c3c00fff746f861882948fff742f8aee702f033
:103c4c004dfe274bb3f90030264ab2f90020264925
:103c5c00b1f900105046fff733f8244bb3f900309c
:103c6c00234ab2f900202349b1f900104846fff766
:103c7c0027f801f0dbfe00232b701f4f91e700bfec
:103c8c00699100007d910000299300001d930000b4
:103c9c0084550020b0650000b98c0000e97a000062
:103cac00e01700008e5500208d550020c0650000e7
:103cbc009155002085550020875500208f550020f8
:103ccc004e560020f7550020d46500008a55002080
:103cdc00f0650000445500200866000028660000ce
:103cec003a550020865400200248002082550020be
:103cfc008055002042550020008001410080004189
:0c3d0c001f85eb51446600006466000057
:020000040000fa
:103d18002de9f04f89b0019003911c469df8483079
:103d2800009302fb02f31e46079304fb04fa5a00b1
:103d380006924fea4a01059102fb04f703fb04f5da
:103d4800aaeb050005f032f880468946304605f0b2
:103d58002df80022834b01f0b1fc02460b46404689
:103d6800494600f027fa04f02df9002f40f3ca80e5
:103d7800814600260294cdf810a0b34604e0049bc7
:103d880033449944b7423add1ffa8bf5019b05eba2
:103d980003081ffa88f8bdf80840039a04eb020ae2
:103da8001ffa8afa009a5146404604f0dbfa019b52
:103db8005d1badb2009a5146284604f0d3fa039a27
:103dc800141ba4b2ddf800a052462146284604f090
:103dd800c9fa52462146404604f0c4fa0bf1010bd9
:103de800059b1e44b9f1000fc9db029b013b0293fe
:103df800069bff1a049b3344db1b9944c2e7ddf89a
:103e080010a05846cdf810b0ddf808b004f0ceff89
:103e18000022554b00f0cef9804689460bf1ff345d
:103e2800504604f0c3ff42464b4601f047fc424669
:103e38004b4601f043fc80468946079b03fb04f090
:103e480004fb00f004f0b2ff02460b464046494628
:103e580000f0b0f904460d46079b0afb03f004f096
:103e6800a5ff02460b462046294605f0cffa04f086
:103e7800a9f88246bbf1000f71db069b0293a7eb02
:103e88000309079ba3eb09090696ddf80c800de0f2
:103e9800049b01330493069b059a134406934b44f1
:103ea8009a44029b9944bbf1000f58dbbdf81050af
:103eb800019bee18b6b21ffa8bf408eb0407bfb2e9
:103ec800009a3946304604f04dfa019b5d1badb2ad
:103ed800009a3946284604f045faa8eb0404a4b22f
:103ee800009f3a462146284604f03cfa3a462146c5
:103ef800304604f037fa0bf1ff3bbaf1000fc7dd8b
:103f0800ca44cee7a346079ea81b013c04fb00f069
:103f180004f04cff04460d46504604f047ff0022cb
:103f2800114b01f0cbfb00220f4b01f0c7fb0246ff
:103f38000b462046294600f03df904460d460afb8b
:103f480006f004f033ff02460b462046294605f0ea
:103f58005dfa04f037f88246002604968de709b02a
:0c3f6800bde8f08f0000d03f0000e03ffb
:020000040000fa
:043f74000020704772
:020000040000fa
:103f78002de9f0472ded068b92b004460e46174604
:103f88001d46184604f082ff284604f031ff012040
:103f980005f00efa9fed7c8a61422b463a46f7ee11
:103fa800001a9fed7a1af0ee480ab2ee020a09b238
:103fb8003046fef7e3f901240094202345221946f0
:103fc8003b2002f027fc0094252340221b211046a9
:103fd80002f020fc6e4d95ed007abceec77a6d4e6e
:103fe800d6ed007afceee77a2346092217ee101a7e
:103ff80089b217ee900a80b205f029f9664bd3ed25
:10400800000a664b93ed000af1ee600ab1ee400a31
:1040180002f0e8fdd6ed007afceee77a17ee903a6a
:104028009cb2d5ed007afceee77a17ee903a1ffacb
:1040380083f8f0ee488a4ff0000ad1469fed509b76
:1040480029e04ff0000a21e09ded087abdeec77a1d
:10405800dded077afdeee77afdeee88abdeec88a67
:104068000023009317ee103a9bb217ee902a92b2f3
:1040780018ee901a89b218ee100a80b202f0cafb44
:104088009ded078added088a4ff0010a09f1010963
:10409800b9f1490f5dd007ee909af8eee76a9fed07
:1040a800407ac6ee877a77eea77a17ee900a04f080
:1040b800c9fb53ec192b01f001fb03f05dff0aee7d
:1040c800100a00ee100a01f043fff0ee40aab0ee2d
:1040d8004a0a02f019f9b0ee401a324f6d4607f15c
:1040e80010060fce0fc533682b6097e80f00b0eeaf
:1040f8006a0adfed250a03f059fa8ded0c0acdedb9
:104108000d0a8ded0e1a284bd3ed001a93ed012af6
:10411800d3ed022a04f00effb5eec00af1ee10fa54
:104128008fd4f2ee021a9ded0c0added0d0a9ded1d
:104138000e1a05f095f8b7ee002a08ab07aaf0eebc
:10414800421a4146204603f02bfebaf1000f97d0e1
:104158007ae70022dfed150ab2ee020a4146204650
:1041680000f032ff0022dfed120ab2ee020a4146e9
:10417800204600f029ff12b0bdec068bbde8f087a1
:10418800182d4454fb210940000000006666663f74
:1041980054560020505600206c55002070550020c1
:1041a800000090421c560020dc930000db0fc93f42
:0441b800db0f494090
:020000040000fa
:1041bc0030b591ea030f00f18280841a71eb030c85
:1041cc0005d2121953eb0c03001b71eb0c0140f2de
:1041dc00000ccff6e07c1cea430f52d0bceb410f35
:1041ec005fd90c0da4eb135e5ff0010c6cf31f5147
:1041fc006cf31f53def1200c2ad303fa0cf5401993
:10420c0041f1000122fa0ef5401923fa0ef569412d
:10421c0012fa0cf2cd0208d349085fea30005feacb
:10422c00320228bf42f001020134013c5fea500c1b
:10423c0072f1004250f1000051eb04514ff40013a5
:10424c0013eb410f38bf30bd6ff31301002030bdad
:10425c00bef1200ebef1200f1ed223fa0ef540192e
:10426c0041f10001cef1200c124218bf012203fad9
:10427c000cf52a43cee711ea5c0f04bf00200021a5
:10428c0030bd1cea410f04bf01f00041002030bddd
:10429c0001f00041002030bd21f4801101eb0451ec
:1042ac0030bd004218bf41f00101bceb410f08bf0b
:1042bc0030bd4ff0fe4141f47801002030bd83f059
:1042cc000043841a71eb030e07d28ef0004e001bd4
:1042dc0071eb0e01121953eb0e0340f2000ccff6ea
:1042ec00e07c1cea430fc6d0bceb410f72d90c0d1d
:1042fc00a4eb135ec90241ea5051c00241f00041e7
:10430c00db0243ea5253d20243f00043def1200cad
:10431c0041d312fa0cf522fa0ef203fa0cf542ea2a
:10432c00050218bf42f0010223fa0ef3801a9941dc
:10433c00e30ac4f30a0411f0404f03d418d0013c33
:10434c0040004941013c23d44205c00a40ea415097
:10435c00c90a51eac3715fea500c72f1004250f184
:10436c00000051eb045130bd01002fd00020203c47
:10437c000029f9d0b1fa81fcdcf1200e11fa0cf114
:10438c0030fa0ef510fa0cf02943a4eb0c04d9e723
:10439c000020d90730bdaef1200ebef1200f0dd29a
:1043ac00cef1200c03fa0cf533fa0ef32a4318bfa6
:1043bc0043f00103c01a61f10001b9e721f000419b
:1043cc00c00a40ea4150c90a01eb045130bd00203b
:1043dc00002130bd004218bf41f00101bceb410f80
:0e43ec007ff467afbceb430f3ff463af30bd0f
:020000040000fa
:0643fa004ff0ff30704798
:020000040000fa
:104400002de9f04f59ec118b2ded028bc9f30a51b8
:10441000013940f2fd70814283b011ee104a4d46e1
:104420005bec10ab64d8cbf30a51013981425e4694
:104430005ed82bf000438ded000a0193204625f055
:104440000041dde9002304f097f970b152465b4664
:104450004046494600f00cfb21f0004319466ea38c
:10446000d3e9002304f088f970bb42464b4650461e
:10447000594600f0fdfa41ec100b00f0e5fc404617
:10448000494600220023b0ee408af0ee608a04f034
:1044900073f940b9b0ee480af0ee680a03b0bdec1b
:1044a000028bbde8f08f0022002351ec180b04f0c2
:1044b00047f9c8b15aa3d3e9002351ec180bfff711
:1044c0007dfe41ec180be5e749a3d3e9002306f094
:1044d000004646f07f5343f4641343f4075343f01c
:1044e0003b0343ec182bd5e74fa3d3e90023e4e7c4
:1044f0002219414945eb05030020994208bf90422b
:104500003bd31aeb0a0300934beb0b030193dde95a
:104510000023994208bf90425e464bd32bf00043e4
:10452000cdf800a00193dde90023344900208b423f
:1045300008bf824230d0002200235046594604f082
:104540009ff9e8b92d4b00229d4208bf94424bd001
:104550002b4b00229d4208bf944213d0002200231f
:104560004046494604f08cf900283ff467af20a389
:10457000d3e900230bf00046abe749ec188b89e741
:10458000e80f31d01f48204906f00046024686ea6f
:10459000010343ec182b7de7194625f00043104634
:1045a0008b4208bf84420bf0004606d010a3d3e92b
:1045b00000238ee74bec18ab6ce749460022002342
:1045c000404604f0d9f8114f1149124d0d4c002806
:1045d00008bf39464ff0000281ea060314bf2a469d
:1045e000224643ec182b55e70146cde7aff3008098
:1045f000182d4454000000000000e0ff0000f07f90
:104600000000f0ff182d4454fb210940fb21e93f35
:104610007cd90240d221337f2342920ca19cc73b1c
:10462000182d4454fb2109c0182d4454fb21094086
:020000040000fa
:104630002de9f04f8bb0834605911c469df8503014
:10464000049302fb02f31f46099304fb04fa5a0089
:1046500008924fea4a01079102fb04f803fb04f5b4
:10466000aaeb050004f0a6fbcde90201384604f0f0
:10467000a1fb0022764b01f025f802460b46dde94e
:104680000201fff79bfd03f0a1fcb8f1000f40f31e
:10469000af80814600270294cdf818a03e4604e082
:1046a000069b3b449944b8452eddb5b2abeb050af9
:1046b0001ffa8afabdf80840059be11889b25d44eb
:1046c000adb2049a00920b462a46504602f0a6f874
:1046d000059b191b89b2049a00920b462a46504644
:1046e00002f09cf80136079b1f44b9f1000fd7db9d
:1046f000029b013b0293089ba8eb0308069b3b44eb
:10470000a3eb08039944cee7ddf818a030460696df
:10471000029e04f04ffb00224e4bfff74ffdcde908
:104720000201741e504604f045fbdde9022300f04f
:10473000c9ffdde9022300f0c5ffcde90201099bb5
:1047400003fb04f004fb00f004f034fb02460b46cc
:10475000dde90201fff732fd04460d46099b0afb25
:1047600003f004f027fb02460b462046294604f0de
:1047700051fe03f02bfc8246002e66db089b029361
:10478000a8eb0309099ba3eb09090897ddf814803e
:104790000ce0069b01330693089b079a1344089389
:1047a0004b449a44029b9944002e4edbbdf81850ae
:1047b000abeb0507bfb2b4b208eb040189b25d44ac
:1047c000adb2049b00930b462a46384602f026f809
:1047d000a8eb040189b2049b00930b462a46384695
:1047e00002f01cf8013ebaf1000fd2ddca44d9e74d
:1047f0002646099fe81b013c04fb00f004f0dafaae
:1048000004460d46504604f0d5fa0022114b00f044
:1048100059ff00220f4b00f055ff02460b46204681
:104820002946fff7cbfc04460d460afb07f004f0cf
:10483000c1fa02460b462046294604f0ebfd03f080
:10484000c5fb82460027069798e70bb0bde8f08fbe
:084850000000d03f0000e03f32
:020000040000fa
:1048580030b52ded108b89b031ee408a72eee07ada
:1048680028ee278a72ee407a31eee07a67ee877a90
:1048780038ee678ab0eec87adfed757ab4eee77a7b
:10488800f1ee10fa00f1e080b0ee40baf0ee60ba56
:10489800b0ee419af0ee619ab0ee42aaf0ee62aa4a
:1048a800b0ee44daf0ee63cab0ee43ca8ded012ae9
:1048b800f0ee610ab0ee6b0a04f040f8f0ee6a0a16
:1048c80004f03cf8bdeec00adfed620ab8eec00a9b
:1048d80004f01cf8fdeec08af0ee690ab0ee6b0a2f
:1048e80004f014f8f0ee6a0a04f010f8bdeec00afd
:1048f800dfed590ab8eec00a04f020f8fdeec07ae0
:1049080017ee905a18ee903aab4200f39d80f0ee05
:10491800490ab0ee4b0a04f011f8dded01daf0eec9
:104928006d0a04f00bf8bdeec00adfed4a0ab8eed6
:10493800c00a03f0ebfffdeec07a17ee904af0eee6
:10494800490ab0ee4b0a03f0e1fff0ee6d0a03f0fe
:10495800ddffbdeec00adfed410ab8eec00a03f084
:10496800edfffdeec07a17ee900a3d4918ee903a39
:1049780001eb0321013562e00133934256d007ee83
:10498800903af8eee76af8eee87a7aeee75a3aee05
:10499800665a39ee667a27ee257a39eee76a26ee08
:1049a800056a37ee467a87ee086ab5eec06af1ee18
:1049b80010fae1db7beee77a67ee857a7bee666ad2
:1049c80066eea56a77eee67ac7ee886af5eec06a03
:1049d800f1ee10fad0dbb7ee007a37ee467a37ee12
:1049e800667ab5eec07af1ee10fac5db26ee0c6aef
:1049f80066eeac7a76ee277a27ee0d7a77ee877a2e
:104a08009fed187a67ee877a31f913c007ee10ca5e
:104a1800b8eec77af4eec77af1ee10faacd5fdee2f
:104a2800e77a17ee90ca21f813c0a5e718ee903a76
:104a3800013308ee903a01f58071ab4204d084420c
:104a4800f4dc421c23469ae709b0bdec108b30bd5c
:104a5800acc527370000000000007c420000fe4281
:084a68000000002000803b4526
:020000040000fa
:104a7000f0b581ea030e0ef0004e40f20007cff6cb
:104a8000e07717ea41051ebf95ea070f17ea4304ce
:104a900094ea070f00f0c5806d0da5eb545707f59c
:104aa00080674ff0004646eac12444ea5054c002f1
:104ab00046eac32343ea5253d202801a9c4104d2ed
:104ac0000018644180185c41013f5b084fea3202e4
:104ad0000025002140f001004ff0070604e0801a95
:104ae0009c4136d340416441801a9c4136d34041b9
:104af0006441801a9c4136d340416441801a9c41f4
:104b000036d340416441801a9c4136d340416441d0
:104b1000013e17d0801a9c4136d340416441801a2f
:104b20009c4136d340416441801a9c4136d3404178
:104b30006441090201eb156190ea052520f0ff00b0
:104b40004540cce7801a9c4156d335e080185c4143
:104b5000c8d20018644180185c41c8d20018644172
:104b600080185c41c8d20018644180185c41c8d2ea
:104b70000018644180185c41c8d200186441013ead
:104b800017d080185c41c8d20018644180185c417d
:104b9000c8d20018644180185c41c8d20018644132
:104ba000090201eb156190ea052520f0ff00454060
:104bb000cce780185c411fd3420918bf44f00104c0
:104bc000490101ebd56100f01f0000eb451021f415
:104bd000801141ea0e01013041f10001244208bf79
:104be00020f00100b7f5006f3eda013f49dd01eb2f
:104bf0000751bde8f0407047490101ebd56100f075
:104c00001f0000eb451021f4801141ea0e01b7f5b9
:104c1000006f29da013f34dd01eb0751bde8f040b8
:104c20007047004218bf41f00101124218bf43f023
:104c30000103b7eb410f2cbfb7eb430f1ce0b7eb01
:104c4000410f04bfb7eb430f16e017ea410f04bf53
:104c500017ea430f10e017ea410f12d017ea430f8b
:104c600002d0b7eb430f0cd04ef0fe4141f470017f
:104c70000020bde8f04070474ff0fe4141f478015c
:064c8000f6e77146f4e7bf
:020000040000fa
:024c8600fee747
:020000040000fa
:104c88006c4b9b7d002b00f0d38010b56a4b9c6a5f
:104c9800684b5b8b13f0020f16d0674bff2283f82b
:104ca8002020022283f82120634b93f820305bb246
:104cb800b3f1ff3f00f08a805f4b93f820305bb27e
:104cc800062b00f09c8010bd5a4b5b8b13f0010f34
:104cd80007d0594bff2283f82020022283f8212095
:104ce800e2e7544b5b8b13f0040f07d0524bff22c3
:104cf80083f82020012283f82120d5e74e4b93f832
:104d080020305bb2032b42d0042b10d0022bcbd126
:104d1800494b1b692bb1484b9888002103f0baf81e
:104d2800c2e7454b9888012103f0b4f8bce7424a32
:104d3800936912699a420bd03f4a9268d15c3d4a06
:104d48009162591cd369002bfcd13b4b9961abe7ad
:104d5800394b5b6973b1384b9b885b0043f00103a7
:104d6800344a5362d369002bfcd1334b032283f8b6
:104d7800202099e72f4a536843f440335360d3699e
:104d8800002bfcd12c4b062283f820208ce72a4be1
:104d9800d9695b69013b8b420bd0264ad369002b4a
:104da800fcd1244b986a244bda6850540131d961fc
:104db8007ae7204a536843f4e0235360d369002b11
:104dc800fcd11d4b062283f82020e6e71a4b00226f
:104dd80083f82020174a536843f440335360d3695b
:104de800002bfcd1134b83221a76134b5b6a002be2
:104df8003ff469af104b5b6a2046984763e70e4b58
:104e0800002283f8202083f821200a4b83221a7677
:104e18001a46538b03f03003102bfad1064b5b6a0a
:104e2800002b3ff450af044b5b6a204698474ae793
:0c4e3800704700bf00400141b85400204a
:020000040000fa
:044e440003f056bb66
:020000040000fa
:104e48002de9f04759ec108b594f18eb080029f061
:104e5800004343eb030100268f4208bf864282b01d
:104e6800c0f0848053490020994208bf404510eea5
:104e7800102aca467dd310ee104a1d460127002687
:104e880043a1d1e900019042994126da42a3d3e92e
:104e980000232046294600f011fc0022464b04f06e
:104ea800b5fa0022444b04f0b1fa22462b46fff72c
:104eb80081f93ba3d3e90023804689462046294649
:104ec800fff778f902460b4640464946fff7ccfd06
:104ed8003e4604460d4602460b460ff2cc09d9e978
:104ee800008923f00041894508bf904527d2224612
:104ef8002b462046294600f0e1fb02460b46804639
:104f080089462e48042101f0affd4246cde9000153
:104f18004b4604212a4802f01df902460b46dde9fa
:104f28000001fff7a1fd22462b4600f0c7fb024611
:104f38000b4620462946fff73df904460d46012e4b
:104f480022dd05f100431d461e4b03ebc606204635
:104f58002946d6e90023fff72df904460d460af045
:104f6800004a22468aea050343ec102b02b0bde84a
:104f7800f08700200f49fff777fd032704460d4609
:104f880002460b4602267be7002ee8d0dce700bf8e
:104f980058cd9e5e1426d13f5499b0d0f56ce73faa
:104fa800aa4c58e87ab6fb3fbbbdd7d9df7cdb3dbe
:104fb8000000e0ff0000f03f0000e03f487a0000fa
:084fc800687a0000287a00005d
:020000040000fa
:104fd0002de9f04f2ded088b93b083468a46f0ee15
:104fe00040bab0ee608a1746b0ee600a00f0b4ff37
:104ff000b0ee40bab0ee480a01f08af9f0ee40aaed
:10500000dfed4f9ab0ee69aa00252e460ff228195f
:10501000d9e900891de0f0ee6b1a9ded0c0added7b
:105020000d0a9ded0e1a04f01ff9b7ee002a08ab29
:1050300007aaf0ee421a5146584602f0b5fe002e7d
:1050400056d19ded07aadded089a01260135492dbf
:105050006bd007ee905af8eee76a9fed3a7ac6ee0b
:10506000877a77eea77a17ee900a03f0effb4246b5
:105070004b4600f027fb02f083ff08ee900a00ee9b
:10508000100a01f045f9b0ee408a2bee009ab0ee1e
:10509000680a00f061fff0ee400adff8b0e06c460d
:1050a0000ef1100cbce80f000fc4dcf800302360d8
:1050b0009ee80f00b0ee490a28ee2a1a02f07afaaa
:1050c0008ded0c0acded0d0a8ded0e1a002fa2d13b
:1050d0001d4bd3ed001a93ed012ad3ed022a03f004
:1050e0002dffb5eec00af1ee10fa94d53e46ade7bd
:1050f0009ded087abdeec77added077afdeee77a21
:10510000fdeee99abdeecaaa0023009317ee103a0d
:105110009bb217ee902a92b219ee901a89b21aee4b
:10512000100a80b201f07afb8be713b0bdec088b5c
:10513000bde8f08faff30080182d4454fb210940e7
:105140000000000000009042dc9300001c5600208c
:020000040000fa
:10515000524b00221a7403f50063514a9a621a46b0
:10516000536813f0100ffbd14e4b4222c3f884203a
:105170001a4600bfd2f8843013f0400ffad04a4be1
:1051800000229a6377225a631a46d36b13f0040ff6
:10519000fbd1454b022283f830201a46d36b13f023
:1051a000020ffbd1404a136c03f00303032bfad127
:1051b0003e4b01225a711a46d37813f0010ffbd0ef
:1051c000384b3b4a1a621a46536813f0040ffbd15e
:1051d000344b384a5a621a46536813f0080ffbd111
:1051e000304b4122c3f8a0201a4600bfd2f8a030ad
:1051f00013f0400ffad02b4b4122c3f8a4201a46db
:10520000d2f8a43013f0400ffad0264b4122c3f855
:10521000e0201a46d2f8e03013f0400ffad0214bcc
:105220004122c3f8e4201a46d2f8e43013f0400fcc
:10523000fad01c4b4122c3f8e8201a46d2f8e830d5
:1052400013f0400ffad0174b4122c3f80c211a4635
:10525000d2f80c3113f0400ffad0124b4122c3f8b0
:1052600020211a46d2f8203113f0400ffad00d4b0e
:105270004122c3f824211a46d2f8243113f0400ffa
:10528000fad00a4b6ff07f421a614ef2ff725a61f8
:10529000094a9a614ff4c1721a62704700140040c3
:1052a00006013000001c00400010004000080040d3
:0c52b000070101000701020056b40100d4
:020000040000fa
:1052bc002de9f04196468c46002932d0002830d09a
:1052cc00514a576817f007073dd1bef1000f7dd04a
:1052dc004d4a127e12f0040f05d04b4a916a117e92
:1052ec0011f0040ffad1484a518b41f0040151835b
:1052fc00117e41f08001117663458cbfa3eb0c024b
:10530c0000221fb15b084fea5c0c52083e4c217e18
:10531c0011f0010ffbd0002635463b494ff6ff78c4
:10532c0024e0002b4cd0bef1000f4bd0364a57680e
:10533c0017f007075ed0bcf1000f60d113f0010f1e
:10534c0006d000203ae01cf0010f3dd1002bf5d126
:10535c00002808bf4ff0000cb7e730f815408c62fe
:10536c00013573b90c7e14f0010ffbd0654518d0d4
:10537c00002ff2d1445d8c620135f2e7c1f8288030
:10538c0014e00c7e14f0040ffbd08c6a9e42edd21c
:10539c001fb90ef806400136e8e72ef81640013624
:1053ac00e4e72ab1002fe9d1ff248c62013ad8e757
:1053bc00154a137e13f0020ffbd00120bde8f081db
:1053cc000020fbe70020f9e70020f7e70e4b1b7edf
:1053dc0013f0040f18bf00237ff47faf0a4b5a8bd6
:1053ec0042f004025a831a7e42f080021a7600239d
:1053fc001a4686e700287ff468afbc4668e71cf0c5
:0c540c00010f9bd00020d9e700040043f2
:020000040000fa
:105418002de9f04f85b09a461369d2f80890d2f872
:105428000c8001910446009303f09df8daf80020ff
:105438001044caf80000b9f1000f02d1009b03f133
:10544800ff390a274ff0000b5e464e453fda009bb6
:10545800591eb1423bdde06be16c884211d2411c20
:10546800e1630578c6b92b2d01d02d2d14d188f80c
:105478000050daf800200132caf800204ff0010b82
:10548800e2e7204602f0b4fb05460130ead1f6b95e
:10549800284605b0bde8f08f5e4508d10a2f06f111
:1054a800010b28d1302d0cbf08274ff0000ba5f1b8
:1054b8003001092946d9102f04d1284603f010fde0
:1054c800002844d1e36c13b1e36b013be363002391
:1054d8000a2f08f806303a4603a9404640d103f09f
:1054e80099fe019bc3e90001039b43450cbf6ff084
:1054f80001050125cce7082f21d145f020017829a5
:105508001dd1e06be16c884215d2411ce163007843
:10551800e16c11b1e16b0139e16303f0e1fc0028b2
:10552800d0d008f80650daf8001001315e46caf803
:105538000010102789e7204602f05afbe8e74ff0f1
:10554800000bb4e7082f02d1382da8bf0a2708f8a6
:105558000650daf8001001310136caf8001074e775
:0655680003f0e8fdbde7c1
:020000040000fa
:02556e00fee756
:020000040000fa
:10557000b0eee07a08b517ee103ac3f3c753013b1b
:10558000fd2b2ded028bf0eec07a3cd817ee903a51
:10559000c3f3c753013bfd2b35d8b4eee77af1eee8
:1055a00010fa0ad5c0ee807a9fed407af0eee77ae5
:1055b000f4eec77af1ee10fa45d480ee200ab0ee90
:1055c000608a00f043fdb5eec08af1ee10fa10eeed
:1055d000103a04d4bdec028b00ee103a08bdb5eed3
:1055e000c00adfed337a9fed337af1ee10fa58bf3f
:1055f000f0ee477abdec028b70ee277a17ee903a08
:1056000000ee103a08bdf4ee600af1ee10fa2bd16c
:10561000f4ee677af1ee10fa33d117ee902a5200c9
:10562000b2f17f4f10ee903a2ed0b5ee400af1ee77
:1056300010fa1cd05a00b2f17f4f18d0f5ee400a94
:10564000f1ee10faa9d110ee103a03f00043bdecd0
:10565000028b43f07f5343f4102343f47d6343f004
:105660000b0300ee103a08bd10ee903ab2e7da0fe5
:10567000114910ee103a18bf0a4603f000431343d5
:10568000a8e710ee103aa5e75a0010ee103ab2f172
:105690007f4f03f00043dad1f5eec00a0749084a0c
:1056a000f1ee10fa58bf0a46134393e708e53c1e93
:1056b000db0f4940db0f49c0db0f4940db0f493f9f
:0456c000e4cb1640e1
:020000040000fa
:1056c400f0b540f2ff7681ea030c16ea115e1ebfc4
:1056d400b64516ea1355b54252d021ea465141f473
:1056e4008011a1fb024723ea465343f48013ae44de
:1056f400a0fb03650cf0004c36197d41a1fb034768
:1057040047f10003a0fb0217f619654153f10003aa
:10571400094218bf46f0010640f2fe74b3f5007f5b
:1057240013d2aef5806ea64523d24cea033128038a
:1057340041ea155140ea16503203450872f100421d
:1057440050f1000051eb0e51f0bdaef2ff3ea64504
:105754000fd24ceac321e80241ea555140ea5650bf
:10576400f202450872f1004250f1000051eb0e5173
:10577400f0bd1eea0e0f2dd50cf000410020f0bd47
:1057840016ea115f04bf01f000410020004218bf77
:1057940041f0010116ea135f04bf03f00043002245
:1057a400124218bf43f0010306ea1354b44218bf6f
:1057b400b64503d00cf000410020f0bd21f00041bb
:1057c40023f00043b1eb065f0cd8b3eb065f09d8b6
:1057d40041b13bb10cf0004141f0fe4141f4700194
:1057e4000020f0bd40f20001c7f6f8710020f0bdc2
:020000040000fa
:1057f4002de9f04f0e4649683568d6f80890f768e9
:105804008bb0cde903230029acbf25f002050121ab
:1058140015f010030593039b8346d3e900232fd08f
:1058240052ea03002cd0a9f10208346915f00800eb
:1058340004f1ff3408904ff00000385518bf08f108
:10584400ff388a46012c1ddc059b002b54d1089b94
:1058540013b1013c20233b5532690095013a4b4674
:10586400121b3919584601f0b9fcdbf80430db058a
:1058740003d573689842b8bf18460bb0bde8f08fe3
:10588400c846d2e752ea030009d1baf1000f06dc98
:10589400a8eb010050440028d6dda807d4d502f0b7
:1058a4000f000928d4bf00f1300e00f1570e049800
:1058b400a0f1410cbcf1190f04f1ff3410d84ef0e3
:1058c400200cacf1610cbcf1190f09d87046099198
:1058d400cde9062303f019fddde90623099986467f
:1058e400100940ea03704fea131c07f804e00af1b8
:1058f400ff3a02466346a5e7039bd3e9000150ea59
:105904000103a4d03a19049b02f8013c023c302361
:045914003b559ce77c
:020000040000fa
:10591800000000000000000000000000000000007f
:10592800000000000000000000000000000000006f
:10593800000000000000000000000000000000005f
:10594800000080be000080be0000803e0000803e57
:10595800000000000000000000000000000000003f
:10596800000000000000000000000000000000002f
:10597800000080be000080be0000000000000000a3
:105988000000803e0000803e000000000000000093
