:020000040000fa
:10000000f0ff032035030000470500006f050000e6
:100010009105000093050000950500000000000018
:100020000000000000000000000000009705000034
:100030008f050000000000009705000097050000f4
:100040009705000097050000970500009705000040
:100050009705000097050000970500009705000030
:100060009705000097050000970500009705000020
:100070009705000097050000970500009705000010
:100080009705000097050000970500009705000000
:1000900097050000970500009705000097050000f0
:1000a00097050000970500009705000097050000e0
:1000b00097050000970500009705000097050000d0
:1000c00097050000970500009705000097050000c0
:1000d00097050000970500009705000097050000b0
:1000e00097050000970500000000000000000000d8
:1000f000000000009705000097050000970500002c
:10010000970500009705000097050000970500007f
:10011000970500009705000097050000970500006f
:10012000970500009705000097050000970500005f
:10013000970500009705000097050000970500004f
:10014000970500009705000097050000970500003f
:10015000970500009705000097050000970500002f
:10016000970500009705000097050000970500001f
:10017000970500009705000097050000970500000f
:1001800097050000970500009705000097050000ff
:1001900097050000970500009705000097050000ef
:1001a00097050000970500009705000097050000df
:1001b00097050000970500009705000097050000cf
:1001c00097050000970500009705000097050000bf
:1001d00097050000970500009705000097050000af
:1001e000970500009705000097050000970500009f
:1001f000970500009705000097050000970500008f
:10020000970500009705000097050000970500007e
:10021000970500009705000097050000970500006e
:10022000970500009705000097050000970500005e
:100230009705000097050000000000000000000086
:10024000970500009705000097050000970500003e
:10025000970500009705000097050000970500002e
:0402600097050000fe
:020000040000fa
:10026400f8b500bff8bc08bc9e4670478104000086
:10027400f8b500bff8bc08bc9e4670475d0400009a
:020000040000fa
:10028400244b00221a7403f50063234a9a625a68c5
:1002940012f0100ffbd1214b4222c3f8842000bf7f
:1002a400d3f8842012f0400ffad01d4b00229a6339
:1002b40077225a63da6b12f0040ffbd1184b022237
:1002c40083f83020da6b12f0020ffbd1144a136c5e
:1002d40003f00303032bfad1124b01225a71da788b
:1002e40012f0010ffbd00d4b0f4a1a625a6812f03c
:1002f400040ffbd1094b0d4a5a625a6812f0080fd9
:10030400fbd1084b6ff07f421a6140f2ff725a61d1
:10031400704700bf0014004006013000001c00407c
:10032400001000400008004007010100070102001e
:020000040000fa
:1003340008b5194b9847194b9847eff3108172b6db
:10034400174ad2f8883043f47003c2f88830bff3f8
:100354004f8fbff36f8f01b962b6124a936823f0cf
:10036400010393601346da6812f0010ffbd10d4bc1
:1003740024225a6001229a6000f0aef80a4b23f05e
:100384007f03074a9360094b9847094b9847094be9
:10039400984700f0f3f8fee799050000990500007e
:1003a40000ed00e00060004100000000bd0300001b
:0803b400990500009905000005
:020000040000fa
:1003bc000e4a38b5002313600d4a0e4c13600e4ada
:1003cc000e4d13600e4a13600e4a13600e4a5362b0
:1003dc0013610123936000f0dcf800f0daf8ac4212
:1003ec0000d338bd54f8043b9847f8e77000002060
:1003fc000c000020700200000800002074020000b5
:0c040c0000000020040000201000002070
:020000040000fa
:100418000f4bda6822f4e0621204120c42f0bf6259
:1004280042f40032da60bff35f8f62b65a6a42f470
:1004380080225a625a6942f010025a615a6a42f49a
:1004480000325a625a6a42f480325a62704700bfd8
:0404580000ed00e0d3
:020000040000fa
:10045c0010b5054c227832b9044b13b10448aff3f4
:10046c0000800123237010bd50000020000000000c
:10047c000000000008b5034b1bb103490348aff360
:10048c00008008bd000000005400002000000000a7
:020000040000fa
:10049c00500000201c000000000000006c00002038
:1004ac0004000000000000000000002050000000cc
:1004bc00000000007000002004000000000000009c
:1004cc0000000000000000006666666666666666f0
:020000040000fa
:1004dc0070b50b480b4d4ff6ff76016821b9436898
:1004ec0013b900f055f870bd83684268334000f1d1
:1004fc000c0455f823302046984704eb8000ece7b9
:08050c009c04000048050000fa
:020000040000fa
:1005140010b50023934206d113f0030018bf012045
:0e05240000eb930010bdc45ccc540133f2e731
:020000040000fa
:1005320008b500f01cf8fff7a4fe00f02df8fff755
:040542006aff08bd87
:020000040000fa
:02054600fee7ce
:020000040000fa
:100548005d050000150500008b0500008b05000007
:040558008b0500000f
:020000040000fa
:10055c000a440023914201d10020704701f8013b6d
:02056c00f8e7ae
:020000040000fa
:02056e00fee7a6
:020000040000fa
:10057000024b40f204521a80704700bf0040004115
:020000040000fa
:0a05800008b50020fff7d5fffee7e5
:020000040000fa
:04058a000020704796
:020000040000fa
:02058e00fee786
:020000040000fa
:02059000fee784
:020000040000fa
:02059200fee782
:020000040000fa
:02059400fee780
:020000040000fa
:02059600fee77e
:020000040000fa
:020598007047aa
:020000040000fa
:02059a007047a8
:020000040000fa
:02059c007047a6
:020000040000fa
:02059e007047a4
:020000040000fa
:0200000400807a
:044000003912003c35
:020000040000fa
:0200000400807a
:044004008000a82a66
:020000040000fa
:0200000400807a
:04400800ffffffffb8
:00000001FF
