:020000040000fa
:10000000f0ff0320092e0000072e00006b320000d5
:100010005737000013390000db3a000000000000f1
:10002000000000000000000000000000a33c0000f1
:100030000736000000000000a33c0000a33c0000c5
:10004000a33c0000a33c0000a33c0000a33c000034
:10005000a33c0000a33c0000a33c0000a33c000024
:10006000a33c0000a33c0000a33c0000a33c000014
:10007000a33c0000a33c0000a33c0000a33c000004
:10008000a33c0000a33c0000a33c0000a33c0000f4
:10009000a33c0000a33c0000a33c0000a33c0000e4
:1000a000a33c0000a33c0000a33c0000a33c0000d4
:1000b000a33c0000a33c0000a33c0000a33c0000c4
:1000c000a33c0000a33c0000a33c0000a33c0000b4
:1000d000a33c0000a33c0000a33c0000a33c0000a4
:1000e000a33c0000a33c0000000000000000000052
:1000f00000000000a33c0000a33c0000a33c000063
:10010000a33c0000a33c0000a9340000a934000077
:10011000a9340000a9340000a33c0000a33c000067
:10012000a33c0000a33c0000a33c0000a33c000053
:10013000a33c0000a33c0000a33c0000a33c000043
:10014000a33c0000a33c0000a33c0000a33c000033
:10015000a33c0000a33c0000a33c0000a33c000023
:10016000a33c0000a33c0000a33c0000a33c000013
:10017000a33c0000a33c0000a33c0000a33c000003
:10018000a33c0000a33c0000a33c0000a33c0000f3
:10019000a33c0000a33c0000a33c0000a33c0000e3
:1001a000a33c0000a33c0000a33c0000a33c0000d3
:1001b000a33c0000a33c0000a33c0000a33c0000c3
:1001c000a33c0000a33c0000a33c0000a33c0000b3
:1001d000a33c0000a33c0000a33c0000a33c0000a3
:1001e000a33c0000a33c0000a33c0000953d0000a0
:1001f000ed3d0000a33c0000a33c0000a33c000038
:10020000a33c0000a33c0000a33c0000a33c000072
:10021000a33c0000a33c0000a33c0000a33c000062
:10022000a33c0000a33c0000a33c0000a33c000052
:10023000a33c0000a33c0000000000000000000000
:10024000a33c0000a33c0000a33c0000a33c000032
:10025000a33c0000a33c0000a33c0000a33c000022
:04026000a33c0000bb
:020000040000fa
:10026400f8b500bff8bc08bc9e467047053a0000cc
:10027400f8b500bff8bc08bc9e467047e1390000e1
:020000040000fa
:080284008017000001000000da
:020000040000fa
:04028c000020704797
:020000040000fa
:100290002de9f04f2ded028bd2e9008997b0cde921
:1002a0000c138b6808930b690f90d1e900b6149377
:1002b000cd68002200234046494603f0bdfc40b90a
:1002c0001bf0040f32d11bf00803059330d020231c
:1002d00003e089f0004399462d232b70089b03f11e
:1002e000ff3a012305934c4929f0004300208b423b
:1002f00008bf80451fd10d9b413b192b059b94bf27
:10030000464947492b44184603f0c2ff284603f0ec
:10031000c9fecdf800b00246089b0f98294602f0ae
:10032000fbfd17b0bdec028bbde8f08f2b23d4e7ab
:10033000ddf820a0d7e7994208bf404509d20d9bc0
:10034000413b192b059b94bf364937492b4418462e
:10035000dae7002200234046494603f089fc9fed7e
:100360002c7b8ded027b48b300240d9803f04cffed
:10037000002ec3b20993c0f2d781672b5ad1002e49
:1003800008bf0126231d02dbb442c0f2c6816527e7
:1003900061e09ded067b8ded027b01340022234b55
:1003a000dde9020102f011f842464b46cde90601b3
:1003b00003f026fc0028ecd000271fe00446ede700
:1003c00014f5967f11da87b90022194b4046494649
:1003d00001f0fbff002280468946154bdde9020152
:1003e00001f0f3ffcde902010127dde9020100225e
:1003f0000e4b01f084fdcde90201013cdde9022351
:100400004046494603f018fc0028d9d1ade700bfab
:10041000000000000000f03f0000f07fe841000015
:10042000ec410000f0410000f441000000002440d5
:1004300000005043099f662f06f101060bd1002ce6
:1004400004da9fedbd7b8ded027b0024099b672bb9
:1004500018bf361966279ded027bcde906898ded23
:100460000a7b00230e93dde90a23dde9060101f092
:1004700046fd41ec100b02f0c7fa51ec100bb0ee48
:10048000408af0ee608a03f0d8f9b0ee480af0ee48
:10049000680a069b1093079b159083f00043119305
:1004a0009ded0a1b9ded102b03f0b6fc53ec102bb9
:1004b00083f000430793dde90a01a34b8ded060aa3
:1004c000002201f01cfd0e9b01339e42cde90a0182
:1004d0000e93c8d100229d4b01f077ffcde90a01b0
:1004e00002460b46dde9060103f0a6fb002840f0ba
:1004f0008180dde90a23dde9060103f0b9fb10b1d3
:10050000159bda0776d5dde90a234046494601f016
:10051000d7fb0022cde906018b4bdde9020101f09a
:1005200054ffdde90623cde90a0103f013fb00289f
:1005300065d0662f04f1010465d10136a146a9eb0f
:1005400006034ff00008059e1093cdf80880109b1d
:10055000994540f08180029b002b00f0c880a819cb
:100560000022652f027029d1149b1499013b9442fb
:10057000ea54c1f1030ebcbf644201220a21002cdf
:1005800040f0bc800eeb030cbcf1000f00f3b68012
:10059000002a03f1ff3114bf2d222b226a540d9a39
:1005a000023b413a192a05eb030198bf45279e42b9
:1005b0000f70aaf1020a01da03f06afe0bf00303de
:1005c000022b7ff4a3aebaf1000f7ff79fae28464f
:1005d00003f068fd05eb0a03059a824240f3998017
:1005e000059b2b4418465246302103f0c7fd0023db
:1005f00008938be69fed527b8ded0a7b83e79deda3
:10060000027b8ded0a7b652f14bfa1464ff00009d8
:1006100095e7029a52b9b9f1000f07da0e992e2226
:100620006a54012201360af1ff3a029205eb0801f1
:10063000aa193144302001e002f8010b9142fbd1ac
:1006400008eb06023033aaeb080808f1ff3a561c03
:10065000ab544ff0000828e00c9b0e961b69053b3d
:10066000b3427ff678afdde90a23dde9060101f048
:1006700046fc41ec100b02f0c7f951ec100bb0ee48
:10068000408af0ee608a03f0d8f80bf010020928d7
:100690000346a8bf09230243bbd1099a672ab8d1f0
:1006a000b9f1000fc2da08f10108069b1293079b0b
:1006b000b0ee480af0ee680a83f0004313939ded14
:1006c0000a1b9ded122b03f0a7fb53ec102b83f0bc
:1006d00000430793dde90a0100221b4b8ded060a5a
:1006e00001f00dfc09f1ff39cde90a012fe71bf0fc
:1006f000100f1ebf2e23ab55013630e7b4fbf1fcc3
:10070000013b01fb1c443034ec540af1ff3a6446cf
:1007100035e72a5c1a5401385ee7002cbff69aae22
:10072000662788e606262de6099b672bfad01f462a
:10073000062680e6aff30080000000000000f03fd6
:1007400000000000000000000000244000001440f1
:020000040000fa
:100750002de9f04f95b0cde912030b68089392eda7
:10076000007b4b680a938b6809930b690d93cc68e7
:100770000022002351ec170b8ded047b03f05cfa93
:1007800040b9089b580734d4089b13f0080732d0af
:10079000202306e0dde9042181f00043cde90423b4
:1007a0002d232370099b01275a1edde90403dff87e
:1007b000f8b223f000414ff0000a594508bf5045f8
:1007c0001bd1139b413b192b04eb070094bfb0498d
:1007d000b04903f05dfdaf4803f064fc089b009353
:1007e0000246099b1298214602f096fb15b0bde81f
:1007f000f08f2b23d5e7099ad7e7139b8b45a3f1fd
:10080000410308bf82450b9309d2192b04eb070063
:1008100094bfa149a14903f03bfda048dce730218a
:10082000e1550b997b1c1a2934bf58217821e154da
:10083000931e079300220023dde90401023703f031
:1008400017fa002800f07b819fed8f7b8ded027bf6
:1008500000250a9bdde90289002bdde904abb8bf66
:1008600018230e93002642464b465046594601f047
:1008700046fb41ec100b02f0c7f842464b4651ece8
:10088000100b8ded100b01f0a0fd02460b465046fb
:10089000594603f007fd824b82468b464046494647
:1008a000002201f092fd731c0c930a9b002b8046e2
:1008b000894606da002200235046594603f0d8f94b
:1008c00028b90e9bb34200f3408101330c93002200
:1008d000744b4046494601f078fd80468946024601
:1008e0000b465046594603f0a7f9002840f02f81e7
:1008f00042464b465046594603f0baf930b1dde95d
:10090000100102f09affc10740f1218142464b4697
:10091000dde9040101f0d4f9cde90401dde90421a8
:1009200021f00043604900208b4208bf82423ff41f
:1009300048af4ff000083e46c246c1460d9b053bfe
:10094000b342b34633d9dde90223dde9040101f006
:10095000d6fa41ec100b02f057f851ec100b8ded6c
:100960000e0b02f06aff002840f0f680b9f1000f8c
:1009700000f0f28008f10108dde90223dde90e0153
:1009800001f023fd02460b46dde9040103f08afc79
:10099000434bcde904010022dde9020101f015fd20
:1009a0000c9b09f101094b45cde90201c6d1baf111
:1009b000000f1ed1b8f1000f00f015810a9b002b2b
:1009c00040f31181089bda0700f10d81a3192e2253
:1009d0001a7008eb06022244302100bf03f8011f01
:1009e0009a42fbd1079b46446fea0808434401360c
:1009f00007930d9b0d990022a019013b95420270af
:100a0000b8bf6d42e254c1f1020eb8bf01224ff0ef
:100a10000a08002d40f0d7800eeb030cbcf1010f4b
:100a200000f0d180002a03f1ff3114bf2d222b22c8
:100a300062540b9a023b1a2a04eb030134bf502282
:100a400070229e420a7001da03f022fc089b03f038
:100a50000303022b14d1079ba3f10208b8f1000f86
:100a60000edd204603f01efb04eb0803b84280f2c3
:100a7000b68042463021e01903f080fb0023099341
:100a80002046a9e6aff30080000000000000f03f20
:100a9000d8410000dc410000e0410000e4410000da
:100aa0000000b03f000020400000f07fcde9028947
:100ab0000135dde902231046194601f001f98046af
:100ac000894602460b46dde9040103f0b5f800282b
:100ad000ecd0dff82cb1dff82c914ff0000a4ff08a
:100ae0000008dde90223dde9040103f0a5f8002890
:100af0003ff4afae52465b46dde9020101f065fc12
:100b00000022002303f0b4f878b142464b46dde9f9
:100b1000020101f05afc4246cde902014b46dde9f3
:100b2000040101f052fccde90401dde90201524665
:100b30005b4601f04afc013dcde90201d1e79feda2
:100b40002e7b05468ded027bb3e70c9e8be64ff0c6
:100b500000084ff00009d9e6baf1000f0bd1b9f146
:100b6000000f08d02e2304f80b30079b013b013601
:100b700007934ff0010a04eb0803a2193344302114
:100b800002e000bf02f8011b9a42fbd1079b06eb73
:100b9000080ba3eb08080b9b0928d4bf3030573053
:100ba000192b06d840f02003613b192b01d803f024
:100bb00032fb08f1ff330bf1010604f80b00079339
:100bc0004ff00008d8e60799b5fbf8fc013b08fb9d
:100bd0001c5530350139e5540791654619e7225c0b
:100be0001a54013842e7089bdb067ff502af2e233b
:100bf000a3550136fde600bf000000000000f03ff5
:080c00000000e03f000050433a
:020000040000fa
:100c08002de9f04fedb000230546164603910493f5
:100c18009946039b1b78002b62d00023cde905334e
:100c280007930aab089303a980232846099303f086
:100c380095f80446039b1a780ab1252a40d10498ee
:100c4800204404901a78252a31d15a1c0024039292
:100c580007945a782a2a04bf02330393039808bfdb
:100c6800012402f02ffe01460790284603f022fadd
:100c7800039b1a78303a092a48d903a802f02affb8
:100c8800039b8046187803f0bbfa672861dc652867
:100c980080f2c680612800f0c3803adc252800f085
:100ca800ef805b2800f00c81039b013303937b1cce
:100cb80040f0f980b9f1000f08bf4ff0ff390fe09d
:100cc800eb6bea6c93420fd25a1cea631f78039bc2
:100cd8001b78bb420ed0eb6c13b1eb6b013beb63a3
:100ce80048466db0bde8f08f284602f005fc07467f
:100cf8000130ecd1049b01330493039b03a9013316
:100d08002846039303f02af8044493e70133039336
:100d1800aee7632800f098806428c5d104ab05aa23
:100d28002aa9284602f0d2ff0028c0f26a81039b54
:100d380001330393002c40f0b6803346012241462c
:100d48002aa802f027f90028044667da0134b1d04e
:100d5800c6e7702841d00bdc6e2850d02fdc6928fc
:100d6800a2d104ab05aa2aa9284601f07ffadbe73d
:100d7800752813d0782829d0732895d1b8f1800f19
:100d880092d1039b01330393002c77d133681a1d4a
:100d980032601b680093012204ab68e004ab05aa2b
:100da8002aa9284601f02afe0028c0f22a81039bbe
:100db80001330393002c76d133462246bfe704abb8
:100dc80005aa2aa9284601f019feede704ab05aaf1
:100dd8002aa9284601f0a4fde6e704ab05aa2aa93a
:100de800284601f09dfd0028c0f20b81039b0133ca
:100df8000393002c57d133462246f021a0e7039bea
:100e0800049a01330393d317cde92a23002c4ad13e
:100e18003346224641462aa802f0bcf8a144f8e627
:100e280004ab05aa2aa9284601f0e8fd0028c0f26b
:100e3800e880039b01330393002c34d132464146aa
:100e48002aa802f01bfd7ee7b8f1800f7ff42cafd3
:100e5800079b0bb901230793039b013303935cb9e9
:100e680033681a1d32601b680093002204ab05a981
:100e7800284603f01efa66e70023f5e7002389e712
:100e8800b8f1800f7ff410af039bea6c0133039332
:100e9800eb6b934209d25a1cea631878252808d1cb
:100ea800049b013304930024b8e7284602f024fb8e
:100eb800f4e7eb6c002bf6d0eb6b013beb63f2e74e
:100ec800b8f1800f7ff4f0ae002c39d133681a1dc9
:100ed8003260d3f80080039b5a1c03925a785e2a2a
:100ee8000cbf012700272aac08bf023340f20112c9
:100ef8003946204608bf039303f03cf900232370ca
:100f0800039b1a782d2a1ed101330393c7f10103dd
:100f180084f82e30c7f10107039a13785d2b1bd193
:100f2800b8f1000f5cd1eb6bea6c934264d25a1ca7
:100f3800ea631f78e3195b78002b59d19a463ae0a7
:100f48004ff00008c7e75d2ae4d101330393c7f1e6
:100f5800010384f85e30dde7002be1d02d2b06d0ad
:100f6800039b13f8012b039322445770d4e7049b87
:100f78001b78002bf4d05d2bf2d0531c0393029bfb
:100f88001b7851788b42ebda0133e754f9e700bf5d
:100f980008f80b70049b013304930bf1010bea6b07
:100fa800eb6c9a42da461ed2531ceb631778e319ae
:100fb8005b78002becd1eb6c13b1eb6b013beb6373
:100fc800039b01330393baf1000f3ff46daeb8f100
:100fd800000f3ff469ae002308f80a3001241de72a
:100fe8004ff0000bdbe7284602f086fa0746dee7fb
:100ff800049b0133049396e7284602f07dfa0746de
:0810080098e70446a2e600bfd0
:020000040000fa
:101010002de9f04f242985b006460f46144601d825
:10102000012903d1b64b16221a6050e0f36bf26c23
:10103000934220d25a1cf26318782028f6d0a0f1ef
:101040000903042bf2d92b2801d02d281bd1f36bd7
:10105000f26c2d284ff0ff3a18bf4ff0000a934270
:101060000dd25a1cf2631878f26c7fb1102f4ed15a
:1010700030280dd04be0304602f042fadde7304632
:1010800002f03efaf0e74ff0000aede730283dd1dc
:10109000f36b934222d25a1cf263187840f020037b
:1010a000782b2ad1f36bf26c93421bd25a1cf26359
:1010b0001878944b03445b780f2b40f2c180f36c9b
:1010c000002b00f09581f36b84b1023bf3630024a5
:1010d00000252046294605b0bde8f08f304602f0d5
:1010e0000ffadbe7304602f00bfae2e7013bf3636d
:1010f0000021304602f0e2ffe9e7002f00f0eb802c
:101100000a2f40f09e8000247f4d1ae00a277d4b75
:1011100003445b78bb42f3d312b1f36b013bf3633f
:101120000021304602f0caff7ce70a2303fb0404d7
:10113000f26bf36c9a42a4f130046bd2531cf3634c
:101140001078a0f13003092b01d8ac42edd900256d
:10115000a0f1300109293dd86c4b4ff09932ab42d8
:1011600008bfa24217d34fea850ca3001b194cea13
:10117000947245eb020213eb03086fea010300933c
:101180004ff0ff33019342eb0209dde900234b45a9
:1011900008bf424542d25b4b184498464278ba4257
:1011a00018d2f36bf26c934280f00a815a1cf263fe
:1011b000187840444378bb42f3d3514b0e99222216
:1011c0001a60dde90e45002301f00102134318bf48
:1011d0004ff0000af36c13b1f36b013bf363dde9ed
:1011e0000e239d4208bf9442c0f0fa800e9900235e
:1011f00001f00102134340f0e780baf1000f40f024
:10120000e3803f4b22221a600f9b11f1ff3443f120
:10121000ff355ee7304602f073f992e718eb010400
:101220004ff0000349eb0305f26bf36c9a4203d2d3
:10123000531cf36310788be7304602f061f987e7bf
:1012400010277c1e3c402f4d40f0b48017237b4379
:10125000c3f342132b4493f801b12b185b789f42e0
:1012600002d9b4f1006f38d34ff0ff33cbf1200136
:10127000abf1200223fa0bf803fa01f148ea010866
:1012800023fa02f2002548ea020823fa0bf91d4b63
:10129000034459788f427ff67eafa94508bfa04529
:1012a000fff479afabf1200004fa00f005fa0bf27d
:1012b000cbf12003024324fa03f342ea0305f26b65
:1012c000f36c04fa0bf09a4241ea000414d2531c66
:1012d000f3631078dbe70827b3e704fa0bf41c4349
:1012e000f26bf36c9a4203d2531cf3631078b4e7a9
:1012f000304602f005f9b0e7304602f001f9c6e7e2
:10130000b8080020342700009899991999999919db
:1013100004fb0734f26bf36c9a4247d2531cf3631d
:1013200010782b185b789f4202d9334a9442efd948
:101330000025324b034459788f427ff62caf4ff093
:1013400000084ff0000965b1a4fb07234ff0000c23
:101350001a466346e5fb07231bb14ff001084ff027
:10136000000958ea09037ff416af5ffa81f86feac3
:10137000080102914ff0ff310391dde902bca7fba8
:10138000042307fb05339c4508bf93454ff0000934
:10139000fff401af12eb080443eb0905f26bf36ca9
:1013a0009a4209d2531cf3631078c2e7304602f028
:1013b000a7f8b6e70024b4e7304602f0a1f8b8e792
:1013c000304602f09df8f4e6dde90e23ab4208bf9b
:1013d000a24205d20a4b22221a60dde90e4578e6c8
:1013e000baf1ff3f7ff475ae644265eb450570e6e8
:1013f000002c7ff46cae7be6c6711c07342700001e
:04140000b808002008
:020000040000fa
:101404002de9f041aeb00646154605910027059931
:101414000b78002b00f0fa8000244ff0ff33cde965
:1014240009430eab0c9380230b940d930b5d0bb10e
:10143400252b26d134b12246304602f06bfb059ba6
:1014440023440593059b1a78252a40f0d78003f19d
:101454000108cdf81480059803782b2b1ad025d8d1
:10146400202b1bd0232b1dd02a2b27d002f02cfaa3
:101474000b90059b1a78303a092a2ed8013305932c
:10148400f7e70134d2e7099b43f0010301300993e4
:101494000590e0e7099b43f00403f7e7099b43f059
:1014a4000803f3e7099b43f01003efe72d2bead081
:1014b400302bd9d1099b43f00203e7e72b681a1daf
:1014c4001b682a600130002b05900b9305da099afa
:1014d4005b4282f0010209920b93099bda0744bf35
:1014e40023f002030993059b1a782e2a0dd10022ba
:1014f400581c0a9205905a782a2a25d1023305935a
:101504002b681a1d1b682a600a9305a802f0e4fae6
:10151400059b0390187802f075fe6928039979d029
:1015240032dc632800f0cb8019dc252800f0d98058
:10153400612853d000234ff0ff32cdf81480099373
:101544000b930a920093d4e002f0bef90a90059b33
:101554001a78303a092ad8d801330593f7e7642872
:1015640058d06728e6dc2a4606a802f069fc002861
:1015740000f0a180059b5a1c05921b7806aa09a9b4
:101584003046fef783fe38e0702873d015dc6e28f1
:1015940000f08c806f28cdd12b46002206a801f0e4
:1015a400f7fa002800f08780059b06aa013309a9f1
:1015b4003046059301f01efe1fe075283ad07828c6
:1015c40048d07328b6d1802975d1059b2a68013388
:1015d4000593131d2b60126800237de02a4606a89c
:1015e40002f02efc002866d0059b5a1c05921b783d
:1015f40006aa09a93046fff7a9f804443c44a742c7
:101604007add3e4b4f221a604ff0ff3738462eb03a
:10161400bde8f0812b46012206a801f0b9fa0028a2
:1016240049d0059b06aa013309a93046059301f068
:1016340005fbe2e72b46002206a801f0a9fa0028e0
:1016440039d0059b06aa013309a93046059301f058
:10165400adffd2e72b46002206a801f099fa50b359
:10166400059b5a1c05921b7806aa09a9304600f06e
:1016740042ffc2e72b460022f02106a801f088fab7
:10168400c8b1059b01330593dde9062313430bd150
:101694001b4802f005fd099b009319490b9b024668
:1016a400304601f037fca8e77823dde72b463a19ea
:1016b40006a801f0affc059b013305939ee7802942
:1016c400f9d1059b013305932b681a1d1b682a6009
:1016d4008df8183006aa012309a9304601f03aff13
:1016e4008be78029e7d1059b01330593099b009380
:1016f4000b9b04490122d3e7274688e6b80800205b
:081704009c420000a24200001b
:020000040000fa
:10170c000fb42de9f047adf5876d0df58b6353f8ec
:10171c00042bcdf834344ff480610da801f004fe95
:10172c000dac9c4d9c4e9d4f08e06378402b22d015
:10173c00232b25d014f8010b02f0f2fb2378002b9d
:10174c0000f022815c2bf0d0402b1ed02378232b71
:10175c00f0d105222946204602f084fb30b1052247
:10176c008f49204602f07efb002861d1611d201daf
:10177c0004f10a0c48e0402002f0d2fb0234dde711
:10178c00232002f0cdfb0234d8e7611c0a469046b8
:10179c0012f8013ba3f130000928f8d92c2bf6d014
:1017ac003b2bd3d1a8eb0109b9f11f0fcedc0df106
:1017bc00140a4a46504602f05ffd00230af809302d
:1017cc002c21504602f0c0fc0028bfd02c21013047
:1017dc0002f0bafc0028b9d104ab03aa714905a8e0
:1017ec0002f005fc0228b1d1a8eb040303f10109b6
:1017fc00b8f1ff3faad0039a04996b4801f0a6fff9
:10180c004c449be784450dd010f8013fa3f1300206
:10181c00d2b2092af6d923f02003413bdbb2052bc7
:10182c00f0d902e0e37a3b2b5bd02378232b81d1d8
:10183c0005223146204602f015fb002873d0052204
:10184c003946204602f00efb002875d00522574978
:10185c00204602f007fb002873d00522544920468d
:10186c0002f000fb002871d005225249204602f0fc
:10187c00f9fa00286fd005224f49204602f0f2faff
:10188c0000286dd005224d49204602f0ebfa0028c5
:10189c006bd005224a49204602f0e4fa002869d0b0
:1018ac0005224849204602f0ddfa002867d0204680
:1018bc0002f0f2fb04287ff63dafa04604f10309c9
:1018cc0018f8010f02f086fb00283ff433afc14536
:1018dc00f6d123793b2b02d0002b7ff42baf631d69
:1018ec0025e094f80180062205a802f0c5fc00232f
:1018fc008df81a3004ab009303ab02aa324905a849
:10190c0002f075fb032890d1b8f1420f049b039aa7
:10191c0002990cbf2d482e4801f018ff14f10c0f42
:10192c0083d00c340ae72b4801f010ff631d002b09
:10193c003ff400af053401e7274801f007ff631db2
:10194c00f5e7264801f002ff631df0e7244801f09b
:10195c00fdfe631debe7234801f0f8fe631de6e78f
:10196c00214801f0f3fe631de1e7204801f0eefe93
:10197c00631ddce71e4801f0e9fe631dd7e71d4837
:10198c0001f0e4fe631dd2e70df5876dbde8f0476d
:10199c0004b07047542800009c280000ac280000bc
:1019ac005c2800004028000048280000bc280000eb
:1019bc00c8280000d8280000e8280000f8280000fb
:1019cc000829000018290000642800007428000071
:1019dc0088280000a4280000b4280000c4280000b7
:1019ec00d0280000e0280000f028000000290000aa
:0819fc00102900002029000061
:020000040000fa
:101a04002de9f04f099f154604468e461e46002bcd
:101a140040f0cc808a42b2fa82fc4cd9bcf1000f6f
:101a24000bd0ccf1200801fa0cfe20fa08f802fad7
:101a34000cf548ea0e0e00fa0cf44fea15491ffaa9
:101a440085f8befbf9fa210c09fb1ae30afb08fb33
:101a540041ea03439b452ad9eb180af1ff3004d22b
:101a64009b4502d9aaf102002b44a3eb0b03a4b2b9
:101a7400b3fbf9f209fb123302fb08f844ea03440e
:101a8400a04516d92c1902f1ff3303d2a04501d980
:101a9400931e2c44a4eb080443ea004027b124fa23
:101aa4000cf400233c607b603146bde8f08f504667
:101ab400dbe71346eee702b9ffdebcf1000f2ed1df
:101ac4008b1a01264fea154eaab2b3fbfef8210c7d
:101ad4000efb183308fb02f941ea0343994561d927
:101ae400eb1808f1ff3004d2994502d9a8f102009d
:101af4002b44a3eb0903a4b2b3fbfef10efb113399
:101b04004a4344ea0344a2424ed92c1901f1ff335b
:101b140003d2a24201d98b1e2c44a41abce7ccf1f7
:101b2400200e02fa0cf521fa0ef901fa0cf320fa50
:101b34000efe4eea03034fea154800fa0cf4b9fb13
:101b4400f8f11ffa85fe08fb1192180c01fb0ef642
:101b540040ea0242964221d9aa1801f1ff3003d289
:101b6400964201d9881e2a44921b9bb2b2fbf8f913
:101b740008fb192209fb0efe43ea02439e450fd9d6
:101b8400eb1809f1ff3604d29e4502d9a9f10206e9
:101b94002b44a3eb0e0346ea004693e70846e3e72b
:101ba4004e46f6e74046a4e70b46b6e78b4206d915
:101bb400002f7ed00026c7e90001304674e7b3fa4f
:101bc40083fcbcf1000f0fd18b4201d3824209d8b0
:101bd400841a61eb030e0120002f6dd0c7e9004e7b
:101be400002661e76046f7e7ccf1200e03fa0cf318
:101bf40022fa0ef521fa0ef41d4301fa0cf320fa31
:101c04000ef10b434fea154a00fa0cf6b4fbfaf94d
:101c14001ffa85f80afb19401c0c09fb08f144ea79
:101c24000044a14202fa0cf23fd92c1909f1ff3009
:101c340004d2a14202d9a9f102002c44641a9bb235
:101c4400b4fbfaf90afb194409fb08f843ea044116
:101c540088452cd9691809f1ff3304d2884502d983
:101c6400a9f10203294443ea0040a1eb0801a0fbc7
:101c740002894945c2464c4602d306d1464504d2a0
:101c8400b8eb020a69eb05040138afb1b6eb0a03fd
:101c940061eb040606fa0efe23fa0cf34eea030384
:101ca40026fa0cf6c7e900369ae74846c6e74b46db
:0c1cb400d9e73e463846f7e63e46f5e626
:020000040000fa
:101cc00030b591ea030f00f18280841a71eb030ca6
:101cd00005d2121953eb0c03001b71eb0c0140f2ff
:101ce000000ccff6e07c1cea430f52d0bceb410f56
:101cf0005fd90c0da4eb135e5ff0010c6cf31f5168
:101d00006cf31f53def1200c2ad303fa0cf54019b3
:101d100041f1000122fa0ef5401923fa0ef569414e
:101d200012fa0cf2cd0208d349085fea30005feaec
:101d3000320228bf42f001020134013c5fea500c3c
:101d400072f1004250f1000051eb04514ff40013c6
:101d500013eb410f38bf30bd6ff31301002030bdce
:101d6000bef1200ebef1200f1ed223fa0ef540194f
:101d700041f10001cef1200c124218bf012203fafa
:101d80000cf52a43cee711ea5c0f04bf00200021c6
:101d900030bd1cea410f04bf01f00041002030bdfe
:101da00001f00041002030bd21f4801101eb04510d
:101db00030bd004218bf41f00101bceb410f08bf2c
:101dc00030bd4ff0fe4141f47801002030bd83f07a
:101dd0000043841a71eb030e07d28ef0004e001bf5
:101de00071eb0e01121953eb0e0340f2000ccff60b
:101df000e07c1cea430fc6d0bceb410f72d90c0d3e
:101e0000a4eb135ec90241ea5051c00241f0004107
:101e1000db0243ea5253d20243f00043def1200cce
:101e200041d312fa0cf522fa0ef203fa0cf542ea4b
:101e3000050218bf42f0010223fa0ef3801a9941fd
:101e4000e30ac4f30a0411f0404f03d418d0013c54
:101e500040004941013c23d44205c00a40ea4150b8
:101e6000c90a51eac3715fea500c72f1004250f1a5
:101e7000000051eb045130bd01002fd00020203c68
:101e80000029f9d0b1fa81fcdcf1200e11fa0cf135
:101e900030fa0ef510fa0cf02943a4eb0c04d9e744
:101ea0000020d90730bdaef1200ebef1200f0dd2bb
:101eb000cef1200c03fa0cf533fa0ef32a4318bfc7
:101ec00043f00103c01a61f10001b9e721f00041bc
:101ed000c00a40ea4150c90a01eb045130bd00205c
:101ee000002130bd004218bf41f00101bceb410fa1
:0e1ef0007ff467afbceb430f3ff463af30bd30
:020000040000fa
:101efe00f0b581ea030e0ef0004e40f20007cff669
:101f0e00e07717ea41051ebf95ea070f17ea43046b
:101f1e0094ea070f00f0c5806d0da5eb545707f539
:101f2e0080674ff0004646eac12444ea5054c0028e
:101f3e0046eac32343ea5253d202801a9c4104d28a
:101f4e000018644180185c41013f5b084fea320281
:101f5e000025002140f001004ff0070604e0801a32
:101f6e009c4136d340416441801a9c4136d3404156
:101f7e006441801a9c4136d340416441801a9c4191
:101f8e0036d340416441801a9c4136d3404164416e
:101f9e00013e17d0801a9c4136d340416441801acd
:101fae009c4136d340416441801a9c4136d3404116
:101fbe006441090201eb156190ea052520f0ff004e
:101fce004540cce7801a9c4156d335e080185c41e1
:101fde00c8d20018644180185c41c8d20018644110
:101fee0080185c41c8d20018644180185c41c8d288
:101ffe000018644180185c41c8d200186441013e4b
:10200e0017d080185c41c8d20018644180185c411a
:10201e00c8d20018644180185c41c8d200186441cf
:10202e00090201eb156190ea052520f0ff004540fd
:10203e00cce780185c411fd3420918bf44f001045d
:10204e00490101ebd56100f01f0000eb451021f4b2
:10205e00801141ea0e01013041f10001244208bf16
:10206e0020f00100b7f5006f3eda013f49dd01ebcc
:10207e000751bde8f0407047490101ebd56100f012
:10208e001f0000eb451021f4801141ea0e01b7f557
:10209e00006f29da013f34dd01eb0751bde8f04056
:1020ae007047004218bf41f00101124218bf43f0c1
:1020be000103b7eb410f2cbfb7eb430f1ce0b7eb9f
:1020ce00410f04bfb7eb430f16e017ea410f04bff1
:1020de0017ea430f10e017ea410f12d017ea430f29
:1020ee0002d0b7eb430f0cd04ef0fe4141f470011d
:1020fe000020bde8f04070474ff0fe4141f47801fa
:06210e00f6e77146f4e75c
:020000040000fa
:1021140080b5002001f052fe0021444802f08cf802
:1021240001f076ff0021424802f0a4f801f0acff70
:102134000021404802f07af800213f4802f070f88c
:1021440001213e4801f06afc3d48fff7ddfa01f049
:102154006bff01f081ff3b4d3b4cdff810813b4ea0
:1021640049e000232b704ff48053e3614046fff7ae
:10217400cbfa01f065ff00bf01f0a0fe0028fbd000
:1021840002f060f8014630803148fff7bdfa4ff4a1
:10219400c0510a2001f0a4fe01f06aff01f0b2fe72
:1021a4000028fbd002f060f801462a4b18802a4828
:1021b400fff7aafa4ff4c0510b2001f091fe01f091
:1021c40057ff00bf01f09efe0028fbd002f04cf840
:1021d4000146204b58802148fff796fa0ee0204b29
:1021e4001b78b3b9d4f8a03113f0010f4ff40043b6
:1021f40014bf6361a3612b78002bb2d1194b1b78f8
:10220400002becd0174b00221a704ff40053e361fb
:10221400e5e7134b00221a70084f39781248fff78c
:1022240073fa0121384601f0f9fbdbe7194100009c
:102234002d4100006142000055420000bc0800200e
:10224400e82c0000bd08002000800041be080020ea
:102254000c2d0000ac080020242d0000442d0000ab
:10226400c1080020c0080020602d0000f82c0000e8
:020000040000fa
:102274002de9f04f85b09a461369d2f80890d2f848
:102284000c8001910446009301f007fcdaf8002069
:102294001044caf80000b9f1000f02d1009b03f109
:1022a400ff390a274ff0000b5e464e453fda009b8c
:1022b400591eb1423bdde06be16c884211d2411cf6
:1022c400e1630578c6b92b2d01d02d2d14d188f8e2
:1022d4000050daf800200132caf800204ff0010b58
:1022e400e2e7204601f00af905460130ead1f6b9e1
:1022f400284605b0bde8f08f5e4508d10a2f06f1e7
:10230400010b28d1302d0cbf08274ff0000ba5f18d
:102314003001092946d9102f04d1284601f034fe92
:10232400002844d1e36c13b1e36b013be363002366
:102334000a2f08f806303a4603a9404640d101f076
:1023440011ff019bc3e90001039b43450cbf6ff0e0
:1023540001050125cce7082f21d145f0200178297a
:102364001dd1e06be16c884215d2411ce163007819
:10237400e16c11b1e16b0139e16301f005fe002864
:10238400d0d008f80650daf8001001315e46caf8d9
:102394000010102789e7204601f0b0f8e8e74ff075
:1023a400000bb4e7082f02d1382da8bf0a2708f87c
:1023b4000650daf8001001310136caf8001074e74b
:0623c40001f092febde7ee
:020000040000fa
:1023ca00f0b540f2ff7681ea030c16ea115e1ebff1
:1023da00b64516ea1355b54252d021ea465141f4a0
:1023ea008011a1fb024723ea465343f48013ae440b
:1023fa00a0fb03650cf0004c36197d41a1fb034795
:10240a0047f10003a0fb0217f619654153f10003d7
:10241a00094218bf46f0010640f2fe74b3f5007f88
:10242a0013d2aef5806ea64523d24cea03312803b7
:10243a0041ea155140ea16503203450872f100424a
:10244a0050f1000051eb0e51f0bdaef2ff3ea64531
:10245a000fd24ceac321e80241ea555140ea5650ec
:10246a00f202450872f1004250f1000051eb0e51a0
:10247a00f0bd1eea0e0f2dd50cf000410020f0bd74
:10248a0016ea115f04bf01f000410020004218bfa4
:10249a0041f0010116ea135f04bf03f00043002272
:1024aa00124218bf43f0010306ea1354b44218bf9c
:1024ba00b64503d00cf000410020f0bd21f00041e8
:1024ca0023f00043b1eb065f0cd8b3eb065f09d8e3
:1024da0041b13bb10cf0004141f0fe4141f47001c1
:1024ea000020f0bd40f20001c7f6f8710020f0bdef
:020000040000fa
:1024fa002de9f04f0e4649683568d6f80890f76816
:10250a008bb0cde903230029acbf25f002050121d8
:10251a0015f010030593039b8346d3e900232fd0bc
:10252a0052ea03002cd0a9f10208346915f0080018
:10253a0004f1ff3408904ff00000385518bf08f135
:10254a00ff388a46012c1ddc059b002b54d1089bc1
:10255a0013b1013c20233b5532690095013a4b46a1
:10256a00121b3919584600f0d2fcdbf80430db059f
:10257a0003d573689842b8bf18460bb0bde8f08f10
:10258a00c846d2e752ea030009d1baf1000f06dcc5
:10259a00a8eb010050440028d6dda807d4d502f0e4
:1025aa000f000928d4bf00f1300e00f1570e04982d
:1025ba00a0f1410cbcf1190f04f1ff3410d84ef010
:1025ca00200cacf1610cbcf1190f09d870460991c5
:1025da00cde9062301f01afedde9062309998646ac
:1025ea00100940ea03704fea131c07f804e00af1e5
:1025fa00ff3a02466346a5e7039bd3e9000150ea86
:10260a000103a4d03a19049b02f8013c023c30238e
:04261a003b559ce7a9
:020000040000fa
:02261e00704703
:020000040000fa
:102620003d4b00221a7403f500633c4a9a621a4635
:10263000536813f0100ffbd1394b4222c3f88420aa
:102640001a4600bfd2f8843013f0400ffad0354b51
:1026500000229a6377225a631a46d36b13f0040f51
:10266000fbd1304b022283f830201a46d36b13f093
:10267000020ffbd12b4a136c03f00303032bfad197
:10268000294b01225a711a46d37813f0010ffbd05f
:10269000234b264a1a621a46536813f0040ffbd1e3
:1026a0001f4b234a5a621a46536813f0080ffbd196
:1026b0001b4b4122c3f8a0201a4600bfd2f8a0301d
:1026c00013f0400ffad0164b4122c3f8a4201a464b
:1026d000d2f8a43013f0400ffad0114b4122c3f8c6
:1026e00020211a46d2f8203113f0400ffad00c4bbb
:1026f0004122c3f824211a46d2f8243113f0400fa6
:10270000fad0094b6ff07f421a614ef2ff725a61a4
:102710004ff4c0721a627047001400400601300086
:10272000001c0040001000400008004007010100ac
:04273000070102009b
:020000040000fa
:10273400ffffffffffffffffffffffffffffffffa5
:10274400ffffffffffffffffffffffffffffffff95
:10275400ffffffffffffffffffffffffffffffff85
:10276400ff00010203040506070809ffffffffff3e
:10277400ffff0a0b0c0d0e0f101112131415161770
:1027840018191a1b1c1d1e1f20212223ffffffffe7
:10279400ffff0a0b0c0d0e0f101112131415161750
:1027a40018191a1b1c1d1e1f20212223ffffffffc7
:1027b400ffffffffffffffffffffffffffffffff25
:1027c400ffffffffffffffffffffffffffffffff15
:1027d400ffffffffffffffffffffffffffffffff05
:1027e400fffffffffffffffffffffffffffffffff5
:1027f400ffffffffffffffffffffffffffffffffe5
:10280400ffffffffffffffffffffffffffffffffd4
:10281400ffffffffffffffffffffffffffffffffc4
:10282400ffffffffffffffffffffffffffffffffb4
:0a283400ff0001020407030605007f
:020000040000fa
:02283e007047e1
:020000040000fa
:1028400025642c25640000001b5b25643b2564483f
:1028500000000000234647433a000000234247435c
:102860003a00000025303278253032782530327831
:10287000000000001b5b34383b323b25643b256481
:102880003b25646d000000001b5b33383b323b2569
:10289000643b25643b25646d0000000023525354c3
:1028a0003b0000001b5b306d0000000023434c53d5
:1028b0003b0000001b5b324a1b5b48002343324550
:1028c0003b0000001b5b4b0023434c523b000000cd
:1028d0001b5b324b0000000023424f4c3b000000ca
:1028e0001b5b316d0000000023554e443b0000008f
:1028f0001b5b346d0000000023494e563b00000076
:102900001b5b376d000000002344494d3b00000075
:102910001b5b326d00000000234849443b0000006f
:082920001b5b3f32356c000027
:020000040000fa
:102928002de9f74f984604468b46d2f80890d2e92d
:10293800037a01f0b0f8d8f800301844c8f800005d
:10294800b9f1000f01d10af1ff3900254d452dda03
:102958000af1ff33ab4229dde36be26c934235d2d7
:102968005a1ce2631e78304601f00cfb00283dd16a
:10297800012d16d1304601f043fc782811d13b785f
:10298800302b0ed1e36be26c93422bd25a1ce263dc
:102998001878e36c13b1e36b013be36301f0f2fadf
:1029a80020bbe36c13b1e36b013be36300237b556e
:1029b800102201a9384601f095fb019bbb42cbe9e7
:1029c80000010cbf6ff00106012607e0204600f069
:1029d80093fd06460130c6d1002de7d1304603b03d
:1029e800bde8f08f204600f087fdd2e77e55d8f885
:0c29f800003001330135c8f80030a7e7bb
:020000040000fa
:042a040000207047f7
:020000040000fa
:102a080053ec102bc3f30a512de9f04140f2fd704d
:102a18004e1e86421d4645d8a1f2ff30002835db00
:102a2800332831dc284bc0f120084ff0ff3c03fa73
:102a380008f2a1f21f412cfa00fc10ee104a4ceaf1
:102a4800020c23fa01f24cea020c23fa00fe04ea13
:102a58000c0605ea0e0724ea0c0256ea070425eae2
:102a68000e030fd0002a73f100040bda4ff480151f
:102a780005fa08f425fa01f10c43121925fa00f0b9
:102a880040eb030343ec102bbde8f081002a73f1ff
:102a9800000303db9fed080bbde8f0819fed080bf9
:102aa800bde8f0810029efd10a4603f0004343ec6a
:102ab800102be9e7aff300800000000000000000e1
:0c2ac800000000000000f0bfffff0f0046
:020000040000fa
:102ad400800800201c0000000000000050080020b6
:102ae40030000000000000009c08002008000000e6
:102af40000000000be0800200200000000000000ea
:102b0400ac0800200400000000000000bd08002004
:102b14000100000000000000c008002002000000c6
:102b240000000000bc0800200100000000000000bc
:102b3400c2080020010000000100000001000000a4
:102b4400a40800200800000000000000000000208d
:102b54000008000000000000b0080020040000008d
:102b640000000000000800205000000000000000e9
:102b7400b40800200800000000000000000000006d
:102b84000000000066666666666666666666666679
:020000040000fa
:102b9400882910b536d012dc812943d003dc802982
:102ba40040d0002010bd82290ed08429f9d11968a3
:102bb40002b30a1d1a60b1f90020d3171ee0a02940
:102bc4002bd00bdc9029ecd11968073121f00701d7
:102bd40001f108021a60d1e900230fe0c02901d0f5
:102be400f029ded11a68111d1960136803600023ef
:102bf400436005e00a1d1a600a880023c0e9002327
:102c04000120cfe7196822b10a1d1a6091f900204a
:102c1400d3e70a1d1a600a78efe71a68111d1960d4
:102c24001268cae719681ab10a1d1a600a68c4e76b
:0c2c34000c1d1c600b68c0e90032e1e7d9
:020000040000fa
:102c40002de9f041d2e900230c4686b007465fea41
:102c5000d37820684968a5680590e66841d052425b
:102c600063eb4303002908db20f002000590b8f174
:102c7000000f02d1059948072ad5691e05a80290c0
:102c80000a20cde90010204600f040fab8f1000f0c
:102c900002d1059b59071fd5b8f1000f00f1ff3095
:102ca00014bf2d232b2333542269059b0093013a33
:102cb0002b46121a3118384600f02ef97b68db05d6
:102cc00003d563689842b8bf184606b0bde8f081e6
:102cd0000807d2d42946d1e71a07e5d501382023c1
:082ce000e1e70029c0dac5e7b5
:020000040000fa
:102ce800235253543b23434c533b234849443b0012
:102cf80040312c313b48656c6c6f20576f726c64a7
:102d08002121000040312c323b5652312056616c53
:102d18007565203a202534640000000040312c33ca
:102d28003b54656d70657261747572652056616c8f
:102d38007565203a202534640000000040312c34a9
:102d48003b4c696768746e6573732056616c756572
:102d5800203a20253464000040312c353b5265630d
:102d680065697665642044617461203a2025316381
:042d7800000000bf98
:020000040000fa
:102d7c002de9f84316460546d1f80880d1e90379c8
:102d8c0000f087fe336818443060b8f1000f01d1b1
:102d9c0009f1ff380024444526da09f1ff33a34238
:102dac0022ddeb6bea6c93420dd25a1cea63187865
:102dbc008cb92b2801d02d280dd1387033680133f4
:102dcc0033600124e7e7284600f094fb431cefd165
:102ddc0054b9bde8f883a0f13003092b07d9eb6c8b
:102dec0013b1eb6b013beb6300203855f1e7385521
:0a2dfc003368013301343360cde782
:020000040000fa
:022e0600fee7e5
:020000040000fa
:102e080008b5194b9847194b9847eff3108172b6dc
:102e1800174ad2f8883043f47003c2f88830bff3f9
:102e28004f8fbff36f8f01b962b6124a936823f0d0
:102e3800010393601346da6812f0010ffbd10d4bc2
:102e480024225a6001229a6000f0bafe0a4b23f04d
:102e58007f03074a9360094b9847094b9847094bea
:102e68009847fff753f9fee73f2800003f28000086
:102e780000ed00e000600041000000004d3400005b
:082e88003f2800003f28000074
:020000040000fa
:102e90001f4ad36823f4e0631b041b0c43f0bf6399
:102ea00043f40033d360bff35f8f62b6194be02168
:102eb00083f832134ff48020586083f833134ff4b3
:102ec0000020586083f834134ff48010586083f862
:102ed00035134ff40010586083f86b134ff4006003
:102ee000d86083f86c134ff48051d960536a43f46f
:102ef00080235362536943f010035361536a43f4d0
:102f000000335362536a43f480335362704700bf07
:082f100000ed00e000e100e02b
:020000040000fa
:102f18002de9ff471d460c9b13f0010906468a461a
:102f2800144601d195420bd822465146304600f04e
:102f3800effda54204d82546284604b0bde8f08731
:102f48002f1b102f3a464ff0200128bf1022684649
:102f5800b84601f00ff900bfb8f10f0f11d83b09bf
:102f68006ff00f0202fb03726946304600f0d0fd95
:102f7800b9f1000fe0d122465146304600f0c8fdb5
:102f8800dae710226946304600f0c2fda8f11008c1
:042f9800e2e700bfad
:020000040000fa
:102f9c00882930b52cd012dc812930d003dc802973
:102fac002dd0002030bd82290ed08429f9d119688a
:102fbc0000680a1d1a600b6818800120f2e7a0292e
:102fcc000fd00adc9029ecd119680a1dd0e9004514
:102fdc001a600b68c3e90045efe7c02901d0f0295e
:102fec00dfd11a680168101d186013681960e4e7d6
:102ffc00196800680a1d1a600b681870dde71968fb
:0c300c0000680a1d1a600b681860d6e707
:020000040000fa
:10301800842910b523d00cdc812903d0822913d050
:1030280080290bd119680c1d1c600b6803601a609d
:1030380013e0902921d003dc882917d0002010bd87
:10304800a029efd0c029ece719680c1d1c600b689b
:103058000360d1171046c3e900010120efe71968a2
:103068000c1d1c600b6803601a80f6e719680c1dbc
:103078001c600b6803601a70efe719680c1d1c6070
:0c30880009680160d317c1e90023e6e7e6
:020000040000fa
:103094001b4b1b7d002b31d010b5194a9368516826
:1030a400184a127e12f0010f15d0994213d915490e
:1030b40013484a6802f00702012a026814bfd25c6e
:1030c40032f813208a62013344680a7e12f0010f39
:1030d40001d09c42edd80a4a936052689a420cd8b7
:1030e400074b00221a755a60064a01211175db68e4
:1030f4001bb1034b1869db68984710bd704700bfcc
:083104005008002000340040d7
:020000040000fa
:10310c002de9f84f04460c9f6668d4f80cb024697e
:10311c0010463a68013c002502f0020a0b9a0bf8a3
:10312c000450002e1946b8bf0126012390464feae1
:10313c00e279002c03dcd3b12046bde8f88f50eacd
:10314c00010209d1721b002a06dc0a9a521b002ac2
:10315c00f1ddbaf1000feed042464b4600f0e4fd33
:10316c00013c134630320bf804200135e1e73b6893
:08317c0023f010033b60dfe7c4
:020000040000fa
:1031840000282ed010b40446184b1b7d5bbb174b94
:103194001860596001221a755868154b1b7e13f08c
:1031a400010f13d0a8b1002311494a6802f00702a5
:1031b400012a14bfe25c34f813208a6201330a7ec8
:1031c40012f0010f04d09842efd102e0002000e099
:1031d4001846064b98600120054b98755df8044b22
:1031e4007047002070470020f8e700bf5008002017
:0431f4000034004063
:020000040000fa
:1031f800f0b50c4649682368a768e56887b00029d8
:103208000593a4bf23f00203059305ab029308239b
:10321800cde900730646d2e900232046fff772ff86
:10322800059bd90642bf00f1ff3030232b54059b84
:103238001a0742bf00f1ff3020232b542269059b57
:103248000093013a3b46121a29183046fff760fef0
:103258007368db0503d563689842b8bf184607b0a2
:02326800f0bdb7
:020000040000fa
:02326a00fee77d
:020000040000fa
:10326c0008b5174b93f82c30cbb1154bda691b6aa8
:10327c00934214d2124b986a124a916a1b6a526892
:10328c0002f00702012a0e4a926914bfd15422f8a7
:10329c00131001330a4a1362d2699a4200d008bd56
:1032ac00074b002283f82c20da61064a8421117521
:1032bc005b6a002bf3d0024b5b6a9847efe700bfc9
:0832cc0050080020003400400e
:020000040000fa
:1032d400c9b2f8b50446f1b103469a0718461ed19f
:1032e4004ff001354d431e4656f8044b84ea05075a
:1032f400a4f10132a7f1013022ea040220ea070016
:10330400024312f0803f11d0184613f8012b2ab162
:103314008a42f9d102e000f0c3fe2044f8bd13f85c
:10332400012b002afad08a42d7d1f7e73346dae7ed
:020000040000fa
:10333400f0b59bb004460d46164600214c2207a862
:103344001f4600f019ff4ff0ff33029303f20313fb
:10335400039304b901accde9044555b16a1e002daf
:10336400069208da094b4f221a604ff0ff301bb067
:10337400f0bd2a46f3e71cbf002323703a463146ca
:1033840002a8cde9074400f00dfef0e7b8080020dc
:020000040000fa
:10339400154b01221a801a46136b13f0010ffbd14f
:1033a4004ff080131b681a0902f07002d90001f46f
:1033b400e0610a43c3f382031a430b4ba3f848208a
:1033c4004ff400721a800322da7283221a7241f6d1
:1033d40007029a800022da80072283f82e201a46f8
:0c33e400136b002bfcd17047001c004351
:020000040000fa
:1033f000154b01221a801a46136b13f0010ffbd1f3
:103400004ff080131b689a0c02f07002d90a01f485
:10341000e0610a43c3f302431a430b4ba3f848206d
:103420004ff400721a800322da7283221a7241f674
:103430000a029a800022da80072283f82e201a4698
:0c344000136b002bfcd1704700200043f0
:020000040000fa
:10344c000e4a38b5002313600d4a0e4c13600e4a19
:10345c000e4d13600e4a13600e4a13600e4a5362ef
:10346c0013610123936000f0c1fe00f0fafcac4242
:10347c0000d338bd54f8043b9847f8e7b408002053
:10348c000c080020700200000808002074020000e4
:0c349c0000080020040800201008002098
:020000040000fa
:1034a80008b5144b9b7df3b1124a137edbb2927db3
:1034b80012f0800f18d10f4a137edbb2927d12f002
:1034c800010f04d013f0010f01d0fff7dffd094a07
:1034d800137edbb2927d12f0040f04d013f0040fb8
:1034e80001d0fff7bffe08bd13f0800fe3d000f056
:0834f8004bfbe0e7003400404b
:020000040000fa
:1035000038b5036d04463bb1426d934204dc0023a1
:10351000e3644ff0ff3038bd204600f0bdfc0028ca
:10352000f5db236dd4e90f12a3b1656d5b1b551a52
:10353000ab420fdc013b0b44e36422b1636d521ad2
:1035400001321a44626511f8013c834218bf01f848
:08355000010ce0e71346efe770
:020000040000fa
:103558002de9ff41134dd1f80080af88adf80c700c
:1035680006462868029002aca8798df80e00002a59
:1035780018bf1446d1e901571a461bb9204600f076
:103588008dfd0246002d02dbaa4228bf2a46cdf84f
:1035980000803b4621463046fff7bafc04b0bde840
:0835a800f08100bfac420000fd
:020000040000fa
:1035b000f0b50c4649682368a668e76887b000291b
:1035c0000593a4bf23f00203059305ab02930a23de
:1035d000cde900630546d2e900232046fff796fdba
:1035e0002269059b0093013a3346121a391828467e
:1035f000fff792fc6b68db0503d563689842b8bfa0
:06360000184607b0f0bd02
:020000040000fa
:02360600fee7dd
:020000040000fa
:10360800114b124a1a604ff622029a814ff4403247
:103618005a601a46d369002bfcd10b4a136843f051
:1036280002031360d369002bfcd1094b00229a6175
:10363800da611a6283f82c205a621a605a609a601a
:103648001a75da60da8570470034004004011040ca
:0436580050080020f6
:020000040000fa
:10365c00134b4ff430421a60002283f84c2083f84d
:10366c004d2083f84f2083f8362083f83720012132
:10367c0083f8401183f8411183f85b1183f85c11d6
:10368c00112183f83011202183f83d11022183f898
:10369c003e1183f8c01183f8c11183f8b021704733
:0436ac000080004159
:020000040000fa
:1036b00070b404468ab10b7804f8013b551e7bb107
:1036c0008618284406e011f8015f03f8015b021b2d
:1036d0004db11c46a6422346f5d1204670bc70472a
:1036e00023462a460446002af7d01a44002100bf88
:1036f00003f8011b9a42fbd1002c08bf1446204658
:0437000070bc7047e2
:020000040000fa
:1037040070b500239ab098420393a6bf00f100431a
:1037140003f1ff334ff0ff330d4611900490002165
:10372400044602a81646129300f0c6fcdde91e23e7
:103734003146cde9002302a80122fdf767fc35b12b
:10374400dde911329b1a179a13441c442c601ab0f9
:0237540070bd46
:020000040000fa
:02375600fee78c
:020000040000fa
:103758000fb400b583b004ab53f8042b01934ff4b6
:1037680000610d48fff7e2fd421e40f2fe739a42e7
:1037780004d903b05df804eb04b07047064b00228f
:103788001a5401461846fff7f9fc00bf00f010fd77
:0c3798000028fbd0ede700bf000000207f
:020000040000fa
:1037a40001f000428b1aa3f16051b1f5801f0adbce
:1037b400b1f17f6f09d242eac102c10071f1004147
:1037c40042eb507070471046704701285b4113f577
:1037d400001f02d842f0ff407047c90041ea507010
:0c37e400104340f4800040f0804070472b
:020000040000fa
:1037f00010b590f948305a1e134380f84830d0e98c
:1038000005239a42044603d90022c36a1146984709
:1038100060680023a362c4e90533830755bfd4e978
:10382000023240f010009b18606056bfc4e90f33ad
:0a3830004ff0ff3040f3c00010bd60
:020000040000fa
:10383a00c1f30a5340f21e42d21a0edd202a0ad8d8
:10384a00cb0243ea505040f00040d04090eae17089
:10385a00b0ebe1707047002070474b00004218bf80
:10386a0043f0010313f5001f88bf21f0004111f056
:0a387a00004058bf6ff00040704797
:020000040000fa
:10388400812910b50fd0832903d0802912d00020bc
:1038940010bd1368191d1160d0e900011b68c3e94c
:1038a40000010120f4e71368191d11601b68d0e9b9
:1038b4000001f4e713681c1dd0e9000114601c68c2
:0838c400fff76eff2060ece746
:020000040000fa
:1038cc0010b50278202a034600f10100f9d0a2f1cc
:1038dc0009010429f5d92b2a07d02d2a11d1012150
:1038ec000133013b00200a2403e00021f8e7604388
:1038fc00801a13f8012f303a092af8d901b940423d
:06390c0010bd0021ede7f3
:020000040000fa
:02391200fee7ce
:020000040000fa
:103914000e4b01221a601a46136913f0010ffbd1f2
:103924000a4b4ff4e2621a6003221a7347f26f22c1
:103934009a8333229a72064a0021116001225a7234
:103944001a461369002bfcd1704700bf00380040b1
:043954009c080020ab
:020000040000fa
:103958000e4b01221a601a46136913f0010ffbd1ae
:103968000a4b4ff4a2621a6003221a7349f27b22af
:103978009a8333229a72064a0021116001225a72f0
:103988001a461369002bfcd1704700bf003c004069
:04399800a40800205f
:020000040000fa
:10399c00eab10378c9b28b421ad0431c0244934259
:1039ac00184603f1010312d010b404788c4207d0ee
:1039bc009342184603f1010305d004788c42f7d1e9
:1039cc005df8044b704700205df8044b70470020f5
:0439dc00704700bf71
:020000040000fa
:1039e00010b5054c227832b9044b13b10448aff33b
:1039f00000800123237010bd80080020000000001b
:103a00000000000008b5034b1bb103490348aff3a6
:103a1000008008bd000000008408002000000000b5
:020000040000fa
:103a2000b8b138b505460c4a92f82c200ab10020ee
:103a300038bd0c4600f036f9074b9d61dc61002271
:103a40001a62012083f82c00da85044b84229a75cf
:103a5000eee70020704700bf50080020003400400f
:020000040000fa
:103a60002de9f041846b02f58077064688461546bd
:103a700000213a462046fff791ff00b1071bbd42e7
:103a800028bf3d4621462a46404600f071fa631998
:0e3a90003c44f3633464b4632846bde8f0811f
:020000040000fa
:103a9e0038b504460025e36be26c934210d25a1cf3
:103aae00e2631878202809d00938042806d9e36c77
:103abe0013b1e36b013be363284638bd0135eae7fa
:0c3ace002046fff716fd431cecd1f5e785
:020000040000fa
:023ada00fee705
:020000040000fa
:103adc0030b50d4a002300bf12f8134024b902eb95
:103aec0043035b78184630bd01680d78a54209bfc9
:103afc0002eb430301335b78013114bfdbb201608d
:0c3b0c000a2be9d9eee700bf02410000df
:020000040000fa
:103b180038b5436813f4807f0446154611d003690d
:103b28009a4228bf1d465db12a46406900f01cfa3a
:103b3800636922692b44551b0022636125611a7051
:0c3b480038bddb06fcd400f0c1faf9e740
:020000040000fa
:103b54004ff4001c1ceb410f98bf1ceb430f11d812
:103b640051ea030c50ea4c0c5cea020c0cd004d26f
:103b740082428b418041013070479042994180419b
:0c3b84000130704700207047012070479e
:020000040000fa
:103b90000b4b5b8b13f0070300d1704710b5094c3a
:103ba000e38500f07ff8064b84221a75002384f821
:103bb0002c30636a13b1a06a636a984710bd00bfd6
:083bc000003400405008002011
:020000040000fa
:103bc80070b50b480b4d4ff6ff76016821b9436875
:103bd80013b900f0daf870bd83684268334000f129
:103be8000c0455f823302046984704eb8000ece796
:083bf800d42a00004041000046
:020000040000fa
:103c00004ff4001c1ceb410f98bf1ceb430f11d865
:103c100051ea030c50ea4c0c5cea020c0ad004d2c4
:103c200082428b418041404270479042994180419d
:083c300040427047002070477c
:020000040000fa
:103c38004ff4001c1ceb410f98bf1ceb430f11d82d
:103c480051ea030c50ea4c0c5cea020c0ad004d28c
:103c58009042994180414042704782428b41804165
:083c6800404270470020704744
:020000040000fa
:103c70004ff4001c1ceb410f98bf1ceb430f0cd8fa
:103c800050ea410c08bf52ea430c08d0904208bfea
:103c900099420cbf0120002070470020704701208e
:023ca00070476b
:020000040000fa
:023ca200fee73b
:020000040000fa
:103ca4000a4b5b8b13f0070f0ed0084b80221a7659
:103cb40007225a831b7e13f0040f05d0034b9a6a24
:103cc4001a7e12f0040ffad1704700bf003400408e
:020000040000fa
:103cd40037b5d4680d4611461a46fff74df8431c14
:103ce4000cd00a2201a9204600f03cfa019ba34211
:103cf400c5e900010cbf6ff00100012003b030bd25
:020000040000fa
:103d040070b598b004460d461646002160226846f8
:103d140000f032fa054b02943246294668460e9466
:103d2400119300f04df918b070bd00bfbf42000000
:020000040000fa
:103d340053b94ab9002908bf00281cbf4ff0ff310e
:103d44004ff0ff3000f0bcbaadf1080c6de904cec1
:103d5400fdf756feddf804e0dde9022304b0704708
:020000040000fa
:103d640010b50b681b78202b0c4602d0093b042ba2
:103d74000bd8fff792fe23685a1c22605b78202b35
:0e3d8400f9d0093b042bf6d910bd0020fce756
:020000040000fa
:023d9200704778
:020000040000fa
:103d940008b5084b5b7a63b1064b987ac0b23322fc
:103da4009a72054b1b6823b118b1034b59681b6801
:0c3db400984708bd003800409c08002023
:020000040000fa
:103dc00008b500f001fafff749fcfef729fcfff700
:103dd0001bfcfef724fcfff7ddfafff709fbfff7fa
:0c3de000bbfdfff797fdfff753f808bd8f
:020000040000fa
:103dec0008b5084b5b7a63b1064b987ac0b23322a4
:103dfc009a72054b1b6823b118b1034b59681b68a9
:0c3e0c00984708bd003c0040a4080020be
:020000040000fa
:103e180000b553ec112b83b051ec100b8ded002b3a
:103e2800fef7cffa9ded002b53ec122bfdf744ff64
:0c3e380041ec100b03b05df804fb00bf70
:020000040000fa
:103e4400802910db812901dd83290cd11368073314
:103e540023f0070303f108011160d3e90023c0e94b
:0a3e64000023012070470020704782
:020000040000fa
:023e6e0070479b
:020000040000fa
:103e700030b57ab101380a4410f8013f0d4633b12c
:103e800011f8014b1cb1914201d0a342f4d02a7821
:083e9000981a30bd1046fce752
:020000040000fa
:103e980013b50446fff7a8fc18b14ff0ff3002b085
:103ea80010bd636c01220df10701204698470128d7
:083eb800f3d19df80700f2e7c9
:020000040000fa
:103ec000074b93f82e3003f00103002b14bf0120a1
:103ed000002003d0024b012283f82e20704700bf40
:043ee000001c00437f
:020000040000fa
:103ee400074a93889bb2014323f4f85323f01f033a
:103ef4000b439380136b13f0040ffbd1704700bf87
:043f04000020004356
:020000040000fa
:103f0800074b93f82e3003f00103002b14bf012058
:103f1800002003d0024b012283f82e20704700bff7
:043f28000020004332
:020000040000fa
:103f2c0000b583b08df8070001210df10700fff7f4
:103f3c0023f900bf00f03af90028fbd003b05df87c
:043f4c0004fb00bfb3
:020000040000fa
:103f500010b50023934206d113f0030018bf0120cf
:0e3f600000eb930010bdc45ccc540133f2e7bb
:020000040000fa
:023f6e0070479a
:020000040000fa
:103f70005ab110b40a44431e11f8014b03f8014f23
:0c3f80009142f9d15df8044b7047704786
:020000040000fa
:103f8c00a0f13003092b07d940f020006138052837
:0c3f9c008cbf00200120704701207047fe
:020000040000fa
:103fa80013b50446019201aafdf728fa636813f0d5
:0c3fb800100f18bf4ff0ff3002b010bd1a
:020000040000fa
:103fc40013b50446019201aafcf71cfe636813f0c2
:0c3fd400100f18bf4ff0ff3002b010bdfe
:020000040000fa
:103fe00040f02003613b192b05d9303809288cbfdc
:0a3ff00000200120704701207047f7
:020000040000fa
:103ffa000eb403b503aa52f8041b0192fff77dfe23
:0a400a0002b05df804eb03b070474c
:020000040000fa
:10401400044a136843f002031360136913f0020f98
:08402400fbd170470038004099
:020000040000fa
:10402c00044a138843f002031380136b13f0020f3e
:08403c00fbd17047001c00439a
:020000040000fa
:10404400044a137d43f002031375136b13f4006fda
:08405400fbd17047001c004382
:020000040000fa
:10405c00044a138843f002031380136b13f0020f0e
:08406c00fbd170470020004366
:020000040000fa
:10407400044a137d43f002031375136b13f4006faa
:08408400fbd17047002000434e
:020000040000fa
:10408c00044a136843f002031360136913f0020f20
:08409c00fbd17047003c00401d
:020000040000fa
:1040a40003783bb1034600bf13f8012f002afbd16c
:0840b400181a70471846704706
:020000040000fa
:1040bc00d0e90f2310b59c1a0165446511b18c42ef
:0840cc00c8bf5318c36410bd06
:020000040000fa
:1040d40010b4c46a1cb123465df8044b1847006849
:0840e4005df8044b00f0e4b8a4
:020000040000fa
:1040ec0037b54ff0ff344ff0ff35cde90045fff702
:0640fc0003fb03b030bd20
:020000040000fa
:1041020068076c094c836a9074a07ac00080688842
:0641120000846c820081b4
:020000040000fa
:1041180010f0010f02d0024b01221a70704700bf45
:04412800bd080020ae
:020000040000fa
:10412c0010f0010f02d0024b01221a70704700bf31
:04413c00c008002097
:020000040000fa
:10414000a5410000513f00008d0200008d020000db
:044150008d020000dc
:020000040000fa
:1041540010b50c46fff7bcf80378e4b2a34218bfcd
:04416400002010bd6a
:020000040000fa
:1041680037b500244ff00045cde90045fff7c6fa02
:0441780003b030bda3
:020000040000fa
:10417c0032b1c9b20244034603f8011b9342fbd18e
:04418c00704700bfb9
:020000040000fa
:10419000034600bf11f8012b184603f8012b002a33
:0441a000f8d170479b
:020000040000fa
:1041a4000a440023914201d10020704701f8013be9
:0241b400f8e72a
:020000040000fa
:1041b800024b187ec0f34000704700bf0034004037
:020000040000fa
:1041c800024b40f204521a80704700bf0040004181
:020000040000fa
:1041d800494e4600696e66004e414e006e616e00a3
:020000040000fa
:1041e800494e4600696e66004e414e006e616e0093
:020000040000fa
:1041f80008b5fff7b8fefff7b6fefff7b4fe08bd37
:020000040000fa
:0e420800a0f14103192b98bf40f02000704731
:020000040000fa
:0e421600a0f16103192b98bf00f05f00704704
:020000040000fa
:0c422400014bd860196170475008002061
:020000040000fa
:0c423000014b5862996270475008002052
:020000040000fa
:0c423c00014b1860596070479c0800207e
:020000040000fa
:0c424800014bb3f840007047001c00431d
:020000040000fa
:0c425400014b01221a707047c2080020c4
:020000040000fa
:0c426000014b01221a707047c1080020b9
:020000040000fa
:0c426c00014bb3f84000704700200043f5
:020000040000fa
:0c427800014b186059607047a40800203a
:020000040000fa
:0c42840010b50446fff712fa204610bdea
:020000040000fa
:0c42900010b50446fff77cff204610bd6f
:020000040000fa
:08429c00286e696c2900250061
:020000040000fa
:0842a40083f00043fdf70abda1
:020000040000fa
:0742ac00286e756c6c2900ff
:020000040000fa
:0642b4004ff0ff307047df
:020000040000fa
:0442ba000020704729
:020000040000fa
:0442be00fff7cfbb7c
:020000040000fa
:0442c400704700bf80
:020000040000fa
:0200000400807a
:044000003912003c35
:020000040000fa
:0200000400807a
:044004008000a82a66
:020000040000fa
:0200000400807a
:04400800ffffffffb8
:00000001FF
