:020000040000fa
:10000000f8ff0320e52e0000bf3200002737000074
:10001000273a0000ef3b0000b73d00000000000061
:100020000000000000000000000000000f2400009d
:1000300023380000000000000f2400000f240000ff
:100040000f2400000f2400000f2400000f240000e4
:100050000f2400000f2400000f2400000f240000d4
:100060000f2400000f2400000f2400000f240000c4
:100070000f2400000f2400000f2400000f240000b4
:100080000f2400000f2400000f2400000f240000a4
:100090000f2400000f2400000f2400000f24000094
:1000a0000f2400000f2400000f2400000f24000084
:1000b0000f2400000f2400000f2400000f24000074
:1000c0000f2400000f2400000f2400000f24000064
:1000d0000f2400000f2400000f2400000f24000054
:1000e0000f2400000f2400000000000000000000aa
:1000f000000000000f2400000f2400000f24000067
:100100000f2400000f240000c9350000c93500008d
:10011000c9350000c93500000f2400000f2400007d
:100120000f2400000f2400000f2400000f24000003
:100130000f2400000f2400000f2400000f240000f3
:100140000f2400000f2400000f2400000f240000e3
:100150000f2400000f2400000f2400000f240000d3
:100160000f2400000f2400000f2400000f240000c3
:100170000f2400000f2400000f2400000f240000b3
:100180000f2400000f2400000f2400000f240000a3
:100190000f2400000f2400000f2400000f24000093
:1001a0000f2400000f2400000f2400000f24000083
:1001b0000f2400000f2400000f2400000f24000073
:1001c0000f2400000f2400000f2400000f24000063
:1001d0000f2400000f2400000f2400000f24000053
:1001e0000f2400000f2400000f2400005d3f0000da
:1001f000053f00000f2400000f2400000f24000022
:100200000f2400000f2400000f2400000f24000022
:100210000f2400000f2400000f240000d93e00002e
:100220000f240000313f00000f2400000f240000c5
:100230000f2400000f240000000000000000000058
:100240000f2400000f2400000f2400000f240000e2
:100250000f2400000f2400000f2400000f240000d2
:040260000f24000067
:020000040000fa
:10026400f8b500bff8bc08bc9e467047193b0000b7
:10027400f8b500bff8bc08bc9e467047f53a0000cc
:020000040000fa
:080284008017000001000000da
:020000040000fa
:04028c000020704797
:020000040000fa
:100290002de9f04f2ded028bd2e9008997b0cde921
:1002a0000c138b6808930b690f90d1e900b6149377
:1002b000cd68002200234046494603f047fd40b97f
:1002c0001bf0040f32d11bf00803059330d020231c
:1002d00003e089f0004399462d232b70089b03f11e
:1002e000ff3a012305934c4929f0004300208b423b
:1002f00008bf80451fd10d9b413b192b059b94bf27
:10030000464947492b44184604f08cf8284603f028
:1003100087ffcdf800b00246089b0f98294602f0ef
:1003200025fe17b0bdec028bbde8f08f2b23d4e780
:10033000ddf820a0d7e7994208bf404509d20d9bc0
:10034000413b192b059b94bf364937492b4418462e
:10035000dae7002200234046494603f013fd9fedf3
:100360002c7b8ded027b48b300240d9804f00af835
:10037000002ec3b20993c0f2d781672b5ad1002e49
:1003800008bf0126231d02dbb442c0f2c6816527e7
:1003900061e09ded067b8ded027b01340022234b55
:1003a000dde9020102f0ccf842464b46cde90601f8
:1003b00003f0b0fc0028ecd000271fe00446ede776
:1003c00014f5967f11da87b90022194b4046494649
:1003d00002f0b6f8002280468946154bdde902019d
:1003e00002f0aef8cde902010127dde902010022a9
:1003f0000e4b01f084fdcde90201013cdde9022351
:100400004046494603f0a2fc0028d9d1ade700bf21
:10041000000000000000f03f0000f07f6443000097
:10042000684300006c43000070430000000024405b
:1004300000005043099f662f06f101060bd1002ce6
:1004400004da9fedbd7b8ded027b0024099b672bb9
:1004500018bf361966279ded027bcde906898ded23
:100460000a7b00230e93dde90a23dde9060101f092
:1004700046fd41ec100b02f0f7fa51ec100bb0ee18
:10048000408af0ee608a03f03efab0ee480af0eee1
:10049000680a069b1093079b159083f00043119305
:1004a0009ded0a1b9ded102b03f06efd53ec102b00
:1004b00083f000430793dde90a01a34b8ded060aa3
:1004c000002201f01cfd0e9b01339e42cde90a0182
:1004d0000e93c8d100229d4b02f032f8cde90a01fb
:1004e00002460b46dde9060103f030fc002840f02f
:1004f0008180dde90a23dde9060103f043fc10b148
:10050000159bda0776d5dde90a234046494601f016
:10051000d7fb0022cde906018b4bdde9020102f099
:100520000ff8dde90623cde90a0103f09dfb002861
:1005300065d0662f04f1010465d10136a146a9eb0f
:1005400006034ff00008059e1093cdf80880109b1d
:10055000994540f08180029b002b00f0c880a819cb
:100560000022652f027029d1149b1499013b9442fb
:10057000ea54c1f1030ebcbf644201220a21002cdf
:1005800040f0bc800eeb030cbcf1000f00f3b68012
:10059000002a03f1ff3114bf2d222b226a540d9a39
:1005a000023b413a192a05eb030198bf45279e42b9
:1005b0000f70aaf1020a01da03f034ff0bf0030313
:1005c000022b7ff4a3aebaf1000f7ff79fae28464f
:1005d00003f026fe05eb0a03059a824240f3998058
:1005e000059b2b4418465246302103f085fe00231c
:1005f00008938be69fed527b8ded0a7b83e79deda3
:10060000027b8ded0a7b652f14bfa1464ff00009d8
:1006100095e7029a52b9b9f1000f07da0e992e2226
:100620006a54012201360af1ff3a029205eb0801f1
:10063000aa193144302001e002f8010b9142fbd1ac
:1006400008eb06023033aaeb080808f1ff3a561c03
:10065000ab544ff0000828e00c9b0e961b69053b3d
:10066000b3427ff678afdde90a23dde9060101f048
:1006700046fc41ec100b02f0f7f951ec100bb0ee18
:10068000408af0ee608a03f03ef90bf01002092870
:100690000346a8bf09230243bbd1099a672ab8d1f0
:1006a000b9f1000fc2da08f10108069b1293079b0b
:1006b000b0ee480af0ee680a83f0004313939ded14
:1006c0000a1b9ded122b03f05ffc53ec102b83f003
:1006d00000430793dde90a0100221b4b8ded060a5a
:1006e00001f00dfc09f1ff39cde90a012fe71bf0fc
:1006f000100f1ebf2e23ab55013630e7b4fbf1fcc3
:10070000013b01fb1c443034ec540af1ff3a6446cf
:1007100035e72a5c1a5401385ee7002cbff69aae22
:10072000662788e606262de6099b672bfad01f462a
:10073000062680e6aff30080000000000000f03fd6
:1007400000000000000000000000244000001440f1
:020000040000fa
:100750002de9f04f95b0cde912030b68089392eda7
:10076000007b4b680a938b6809930b690d93cc68e7
:100770000022002351ec170b8ded047b03f0e6fa09
:1007800040b9089b580734d4089b13f0080732d0af
:10079000202306e0dde9042181f00043cde90423b4
:1007a0002d232370099b01275a1edde90403dff87e
:1007b000f8b223f000414ff0000a594508bf5045f8
:1007c0001bd1139b413b192b04eb070094bfb0498d
:1007d000b04903f027feaf4803f022fd089b0093c9
:1007e0000246099b1298214602f0c0fb15b0bde8f5
:1007f000f08f2b23d5e7099ad7e7139b8b45a3f1fd
:10080000410308bf82450b9309d2192b04eb070063
:1008100094bfa149a14903f005fea048dce73021bf
:10082000e1550b997b1c1a2934bf58217821e154da
:10083000931e079300220023dde90401023703f031
:10084000a1fa002800f07b819fed8f7b8ded027b6c
:1008500000250a9bdde90289002bdde904abb8bf66
:1008600018230e93002642464b465046594601f047
:1008700046fb41ec100b02f0f7f842464b4651ecb8
:10088000100b8ded100b01f05bfe02460b4650463f
:10089000594603f0d1fd824b82468b46404649467d
:1008a000002201f04dfe731c0c930a9b002b804626
:1008b000894606da002200235046594603f062fac0
:1008c00028b90e9bb34200f3408101330c93002200
:1008d000744b4046494601f033fe80468946024645
:1008e0000b465046594603f031fa002840f02f815c
:1008f00042464b465046594603f044fa30b1dde9d2
:10090000100103f000f8c10740f1218142464b4637
:10091000dde9040101f0d4f9cde90401dde90421a8
:1009200021f00043604900208b4208bf82423ff41f
:1009300048af4ff000083e46c246c1460d9b053bfe
:10094000b342b34633d9dde90223dde9040101f006
:10095000d6fa41ec100b02f087f851ec100b8ded3c
:100960000e0b02f0d0ff002840f0f680b9f1000f26
:1009700000f0f28008f10108dde90223dde90e0153
:1009800001f0defd02460b46dde9040103f054fdf3
:10099000434bcde904010022dde9020101f0d0fd65
:1009a0000c9b09f101094b45cde90201c6d1baf111
:1009b000000f1ed1b8f1000f00f015810a9b002b2b
:1009c00040f31181089bda0700f10d81a3192e2253
:1009d0001a7008eb06022244302100bf03f8011f01
:1009e0009a42fbd1079b46446fea0808434401360c
:1009f00007930d9b0d990022a019013b95420270af
:100a0000b8bf6d42e254c1f1020eb8bf01224ff0ef
:100a10000a08002d40f0d7800eeb030cbcf1010f4b
:100a200000f0d180002a03f1ff3114bf2d222b22c8
:100a300062540b9a023b1a2a04eb030134bf502282
:100a400070229e420a7001da03f0ecfc089b03f06e
:100a50000303022b14d1079ba3f10208b8f1000f86
:100a60000edd204603f0dcfb04eb0803b84280f205
:100a7000b68042463021e01903f03efc0023099382
:100a80002046a9e6aff30080000000000000f03f20
:100a900054430000584300005c43000060430000e2
:100aa0000000b03f000020400000f07fcde9028947
:100ab0000135dde902231046194601f001f98046af
:100ac000894602460b46dde9040103f03ff90028a0
:100ad000ecd0dff82cb1dff82c914ff0000a4ff08a
:100ae0000008dde90223dde9040103f02ff9002805
:100af0003ff4afae52465b46dde9020101f020fd56
:100b00000022002303f03ef978b142464b46dde96e
:100b1000020101f015fd4246cde902014b46dde937
:100b2000040101f00dfdcde90401dde902015246a9
:100b30005b4601f005fd013dcde90201d1e79fede6
:100b40002e7b05468ded027bb3e70c9e8be64ff0c6
:100b500000084ff00009d9e6baf1000f0bd1b9f146
:100b6000000f08d02e2304f80b30079b013b013601
:100b700007934ff0010a04eb0803a2193344302114
:100b800002e000bf02f8011b9a42fbd1079b06eb73
:100b9000080ba3eb08080b9b0928d4bf3030573053
:100ba000192b06d840f02003613b192b01d803f024
:100bb000f0fb08f1ff330bf1010604f80b0007937b
:100bc0004ff00008d8e60799b5fbf8fc013b08fb9d
:100bd0001c5530350139e5540791654619e7225c0b
:100be0001a54013842e7089bdb067ff502af2e233b
:100bf000a3550136fde600bf000000000000f03ff5
:080c00000000e03f000050433a
:020000040000fa
:100c08002de9f04fedb000230546164603910493f5
:100c18009946039b1b78002b62d00023cde905334e
:100c280007930aab089303a980232846099303f086
:100c380037f90446039b1a780ab1252a40d104984b
:100c4800204404901a78252a31d15a1c0024039292
:100c580007945a782a2a04bf02330393039808bfdb
:100c6800012402f0b9fe01460790284603f0e0fa95
:100c7800039b1a78303a092a48d903a802f0b4ff2e
:100c8800039b8046187803f079fb672861dc6528a8
:100c980080f2c680612800f0c3803adc252800f085
:100ca800ef805b2800f00c81039b013303937b1cce
:100cb80040f0f980b9f1000f08bf4ff0ff390fe09d
:100cc800eb6bea6c93420fd25a1cea631f78039bc2
:100cd8001b78bb420ed0eb6c13b1eb6b013beb63a3
:100ce80048466db0bde8f08f284602f095fc0746ef
:100cf8000130ecd1049b01330493039b03a9013316
:100d08002846039303f0ccf8044493e70133039394
:100d1800aee7632800f098806428c5d104ab05aa23
:100d28002aa9284603f074f80028c0f26a81039bb8
:100d380001330393002c40f0b6803346012241462c
:100d48002aa802f051f90028044667da0134b1d024
:100d5800c6e7702841d00bdc6e2850d02fdc6928fc
:100d6800a2d104ab05aa2aa9284601f0a1fadbe71b
:100d7800752813d0782829d0732895d1b8f1800f19
:100d880092d1039b01330393002c77d133681a1d4a
:100d980032601b680093012204ab68e004ab05aa2b
:100da8002aa9284601f05afe0028c0f22a81039b8e
:100db80001330393002c76d133462246bfe704abb8
:100dc80005aa2aa9284601f049feede704ab05aac1
:100dd8002aa9284601f0d4fde6e704ab05aa2aa90a
:100de800284601f0cdfd0028c0f20b81039b01339a
:100df8000393002c57d133462246f021a0e7039bea
:100e0800049a01330393d317cde92a23002c4ad13e
:100e18003346224641462aa802f0e6f8a144f8e6fd
:100e280004ab05aa2aa9284601f018fe0028c0f23a
:100e3800e880039b01330393002c34d132464146aa
:100e48002aa802f0a5fd7ee7b8f1800f7ff42caf49
:100e5800079b0bb901230793039b013303935cb9e9
:100e680033681a1d32601b680093002204ab05a981
:100e7800284603f0e8fa66e70023f5e7002389e748
:100e8800b8f1800f7ff410af039bea6c0133039332
:100e9800eb6b934209d25a1cea631878252808d1cb
:100ea800049b013304930024b8e7284602f0b4fbfe
:100eb800f4e7eb6c002bf6d0eb6b013beb63f2e74e
:100ec800b8f1800f7ff4f0ae002c39d133681a1dc9
:100ed8003260d3f80080039b5a1c03925a785e2a2a
:100ee8000cbf012700272aac08bf023340f20112c9
:100ef8003946204608bf039303f0faf9002323700c
:100f0800039b1a782d2a1ed101330393c7f10103dd
:100f180084f82e30c7f10107039a13785d2b1bd193
:100f2800b8f1000f5cd1eb6bea6c934264d25a1ca7
:100f3800ea631f78e3195b78002b59d19a463ae0a7
:100f48004ff00008c7e75d2ae4d101330393c7f1e6
:100f5800010384f85e30dde7002be1d02d2b06d0ad
:100f6800039b13f8012b039322445770d4e7049b87
:100f78001b78002bf4d05d2bf2d0531c0393029bfb
:100f88001b7851788b42ebda0133e754f9e700bf5d
:100f980008f80b70049b013304930bf1010bea6b07
:100fa800eb6c9a42da461ed2531ceb631778e319ae
:100fb8005b78002becd1eb6c13b1eb6b013beb6373
:100fc800039b01330393baf1000f3ff46daeb8f100
:100fd800000f3ff469ae002308f80a3001241de72a
:100fe8004ff0000bdbe7284602f016fb0746dee76a
:100ff800049b0133049396e7284602f00dfb07464d
:0810080098e70446a2e600bfd0
:020000040000fa
:101010002de9f04f242985b006460f46144601d825
:10102000012903d1b64b16221a6050e0f36bf26c23
:10103000934220d25a1cf26318782028f6d0a0f1ef
:101040000903042bf2d92b2801d02d281bd1f36bd7
:10105000f26c2d284ff0ff3a18bf4ff0000a934270
:101060000dd25a1cf2631878f26c7fb1102f4ed15a
:1010700030280dd04be0304602f0d2fadde73046a2
:1010800002f0cefaf0e74ff0000aede730283dd14c
:10109000f36b934222d25a1cf263187840f020037b
:1010a000782b2ad1f36bf26c93421bd25a1cf26359
:1010b0001878944b03445b780f2b40f2c180f36c9b
:1010c000002b00f09581f36b84b1023bf3630024a5
:1010d00000252046294605b0bde8f08f304602f0d5
:1010e0009ffadbe7304602f09bfae2e7013bf3634d
:1010f0000021304603f0a0f8e9e7002f00f0eb8074
:101100000a2f40f09e8000247f4d1ae00a277d4b75
:1011100003445b78bb42f3d312b1f36b013bf3633f
:101120000021304603f088f87ce70a2303fb04041f
:10113000f26bf36c9a42a4f130046bd2531cf3634c
:101140001078a0f13003092b01d8ac42edd900256d
:10115000a0f1300109293dd86c4b4ff09932ab42d8
:1011600008bfa24217d34fea850ca3001b194cea13
:10117000947245eb020213eb03086fea010300933c
:101180004ff0ff33019342eb0209dde900234b45a9
:1011900008bf424542d25b4b184498464278ba4257
:1011a00018d2f36bf26c934280f00a815a1cf263fe
:1011b000187840444378bb42f3d3514b0e99222216
:1011c0001a60dde90e45002301f00102134318bf48
:1011d0004ff0000af36c13b1f36b013bf363dde9ed
:1011e0000e239d4208bf9442c0f0fa800e9900235e
:1011f00001f00102134340f0e780baf1000f40f024
:10120000e3803f4b22221a600f9b11f1ff3443f120
:10121000ff355ee7304602f003fa92e718eb01046f
:101220004ff0000349eb0305f26bf36c9a4203d2d3
:10123000531cf36310788be7304602f0f1f987e72f
:1012400010277c1e3c402f4d40f0b48017237b4379
:10125000c3f342132b4493f801b12b185b789f42e0
:1012600002d9b4f1006f38d34ff0ff33cbf1200136
:10127000abf1200223fa0bf803fa01f148ea010866
:1012800023fa02f2002548ea020823fa0bf91d4b63
:10129000034459788f427ff67eafa94508bfa04529
:1012a000fff479afabf1200004fa00f005fa0bf27d
:1012b000cbf12003024324fa03f342ea0305f26b65
:1012c000f36c04fa0bf09a4241ea000414d2531c66
:1012d000f3631078dbe70827b3e704fa0bf41c4349
:1012e000f26bf36c9a4203d2531cf3631078b4e7a9
:1012f000304602f095f9b0e7304602f091f9c6e7c2
:10130000c80800209427000098999919999999196b
:1013100004fb0734f26bf36c9a4247d2531cf3631d
:1013200010782b185b789f4202d9334a9442efd948
:101330000025324b034459788f427ff62caf4ff093
:1013400000084ff0000965b1a4fb07234ff0000c23
:101350001a466346e5fb07231bb14ff001084ff027
:10136000000958ea09037ff416af5ffa81f86feac3
:10137000080102914ff0ff310391dde902bca7fba8
:10138000042307fb05339c4508bf93454ff0000934
:10139000fff401af12eb080443eb0905f26bf36ca9
:1013a0009a4209d2531cf3631078c2e7304602f028
:1013b00037f9b6e70024b4e7304602f031f9b8e770
:1013c000304602f02df9f4e6dde90e23ab4208bf0a
:1013d000a24205d20a4b22221a60dde90e4578e6c8
:1013e000baf1ff3f7ff475ae644265eb450570e6e8
:1013f000002c7ff46cae7be6c6711c0794270000be
:04140000c8080020f8
:020000040000fa
:101404002de9f041aeb00646154605910027059931
:101414000b78002b00f0fa8000244ff0ff33cde965
:1014240009430eab0c9380230b940d930b5d0bb10e
:10143400252b26d134b12246304602f0f5fb059b1c
:1014440023440593059b1a78252a40f0d78003f19d
:101454000108cdf81480059803782b2b1ad025d8d1
:10146400202b1bd0232b1dd02a2b27d002f0b6fa19
:101474000b90059b1a78303a092a2ed8013305932c
:10148400f7e70134d2e7099b43f0010301300993e4
:101494000590e0e7099b43f00403f7e7099b43f059
:1014a4000803f3e7099b43f01003efe72d2bead081
:1014b400302bd9d1099b43f00203e7e72b681a1daf
:1014c4001b682a600130002b05900b9305da099afa
:1014d4005b4282f0010209920b93099bda0744bf35
:1014e40023f002030993059b1a782e2a0dd10022ba
:1014f400581c0a9205905a782a2a25d1023305935a
:101504002b681a1d1b682a600a9305a802f06efb5b
:10151400059b0390187802f033ff6928039979d06a
:1015240032dc632800f0cb8019dc252800f0d98058
:10153400612853d000234ff0ff32cdf81480099373
:101544000b930a920093d4e002f048fa0a90059ba8
:101554001a78303a092ad8d801330593f7e7642872
:1015640058d06728e6dc2a4606a802f021fd0028a8
:1015740000f0a180059b5a1c05921b7806aa09a9b4
:101584003046fef783fe38e0702873d015dc6e28f1
:1015940000f08c806f28cdd12b46002206a801f0e4
:1015a400c7fa002800f08780059b06aa013309a921
:1015b4003046059301f048fe1fe075283ad078289c
:1015c40048d07328b6d1802975d1059b2a68013388
:1015d4000593131d2b60126800237de02a4606a89c
:1015e40002f0e6fc002866d0059b5a1c05921b7885
:1015f40006aa09a93046fff7a9f804443c44a742c7
:101604007add3e4b4f221a604ff0ff3738462eb03a
:10161400bde8f0812b46012206a801f089fa0028d2
:1016240049d0059b06aa013309a93046059301f068
:10163400d5fae2e72b46002206a801f079fa002841
:1016440039d0059b06aa013309a93046059302f057
:101654003df8d2e72b46002206a801f069fa50b300
:10166400059b5a1c05921b7806aa09a9304600f06e
:10167400fdffc2e72b460022f02106a801f058fa2c
:10168400c8b1059b01330593dde9062313430bd150
:101694001b4802f0c3fd099b009319490b9b0246aa
:1016a400304601f061fca8e77823dde72b463a19c0
:1016b40006a801f0d9fc059b013305939ee7802918
:1016c400f9d1059b013305932b681a1d1b682a6009
:1016d4008df8183006aa012309a9304601f0caff83
:1016e4008be78029e7d1059b01330593099b009380
:1016f4000b9b04490122d3e7274688e6c80800204b
:081704003044000036440000ef
:020000040000fa
:10170c000fb42de9f047adf5876d0df58b6353f8ec
:10171c00042bcdf834344ff480610da801f0c2fed7
:10172c000dac9c4d9c4e9d4f08e06378402b22d015
:10173c00232b25d014f8010b02f098fc2378002bf6
:10174c0000f022815c2bf0d0402b1ed02378232b71
:10175c00f0d105222946204602f03cfc30b105228e
:10176c008f49204602f036fc002861d1611d201df6
:10177c0004f10a0c48e0402002f078fc0234dde76a
:10178c00232002f073fc0234d8e7611c0a46904611
:10179c0012f8013ba3f130000928f8d92c2bf6d014
:1017ac003b2bd3d1a8eb0109b9f11f0fcedc0df106
:1017bc00140a4a46504602f029fe00230af8093062
:1017cc002c21504602f07efd0028bfd02c21013088
:1017dc0002f078fd0028b9d104ab03aa714905a821
:1017ec0002f0abfc0228b1d1a8eb040303f1010910
:1017fc00b8f1ff3faad0039a04996b4802f00cf899
:10180c004c449be784450dd010f8013fa3f1300206
:10181c00d2b2092af6d923f02003413bdbb2052bc7
:10182c00f0d902e0e37a3b2b5bd02378232b81d1d8
:10183c0005223146204602f0cdfb002873d005224c
:10184c003946204602f0c6fb002875d005225749c0
:10185c00204602f0bffb002873d0052254492046d5
:10186c0002f0b8fb002871d005225249204602f044
:10187c00b1fb00286fd005224f49204602f0aafb8d
:10188c0000286dd005224d49204602f0a3fb00280c
:10189c006bd005224a49204602f09cfb002869d0f7
:1018ac0005224849204602f095fb002867d02046c7
:1018bc0002f0b0fc04287ff63dafa04604f103090a
:1018cc0018f8010f02f02cfc00283ff433afc1458f
:1018dc00f6d123793b2b02d0002b7ff42baf631d69
:1018ec0025e094f80180062205a802f08ffd002364
:1018fc008df81a3004ab009303ab02aa324905a849
:10190c0002f01bfc032890d1b8f1420f049b039a00
:10191c0002990cbf2d482e4801f07eff14f10c0fdc
:10192c0083d00c340ae72b4801f076ff631d002ba3
:10193c003ff400af053401e7274801f06dff631d4c
:10194c00f5e7264801f068ff631df0e7244801f035
:10195c0063ff631debe7234801f05eff631de6e7c1
:10196c00214801f059ff631de1e7204801f054ffc5
:10197c00631ddce71e4801f04fff631dd7e71d48d0
:10198c0001f04aff631dd2e70df5876dbde8f04706
:10199c0004b07047b4280000fc2800000c2900009b
:1019ac00bc280000a0280000a82800001c2900006a
:1019bc002829000038290000482900005829000077
:1019cc006829000078290000c4280000d4280000f1
:1019dc00e828000004290000142900002429000034
:1019ec003029000040290000502900006029000027
:0819fc007029000080290000a1
:020000040000fa
:101a04002de9f04f099f154604468e461e46002bcd
:101a140040f0cc808a42b2fa82fc4cd9bcf1000f6f
:101a24000bd0ccf1200801fa0cfe20fa08f802fad7
:101a34000cf548ea0e0e00fa0cf44fea15491ffaa9
:101a440085f8befbf9fa210c09fb1ae30afb08fb33
:101a540041ea03439b452ad9eb180af1ff3004d22b
:101a64009b4502d9aaf102002b44a3eb0b03a4b2b9
:101a7400b3fbf9f209fb123302fb08f844ea03440e
:101a8400a04516d92c1902f1ff3303d2a04501d980
:101a9400931e2c44a4eb080443ea004027b124fa23
:101aa4000cf400233c607b603146bde8f08f504667
:101ab400dbe71346eee702b9ffdebcf1000f2ed1df
:101ac4008b1a01264fea154eaab2b3fbfef8210c7d
:101ad4000efb183308fb02f941ea0343994561d927
:101ae400eb1808f1ff3004d2994502d9a8f102009d
:101af4002b44a3eb0903a4b2b3fbfef10efb113399
:101b04004a4344ea0344a2424ed92c1901f1ff335b
:101b140003d2a24201d98b1e2c44a41abce7ccf1f7
:101b2400200e02fa0cf521fa0ef901fa0cf320fa50
:101b34000efe4eea03034fea154800fa0cf4b9fb13
:101b4400f8f11ffa85fe08fb1192180c01fb0ef642
:101b540040ea0242964221d9aa1801f1ff3003d289
:101b6400964201d9881e2a44921b9bb2b2fbf8f913
:101b740008fb192209fb0efe43ea02439e450fd9d6
:101b8400eb1809f1ff3604d29e4502d9a9f10206e9
:101b94002b44a3eb0e0346ea004693e70846e3e72b
:101ba4004e46f6e74046a4e70b46b6e78b4206d915
:101bb400002f7ed00026c7e90001304674e7b3fa4f
:101bc40083fcbcf1000f0fd18b4201d3824209d8b0
:101bd400841a61eb030e0120002f6dd0c7e9004e7b
:101be400002661e76046f7e7ccf1200e03fa0cf318
:101bf40022fa0ef521fa0ef41d4301fa0cf320fa31
:101c04000ef10b434fea154a00fa0cf6b4fbfaf94d
:101c14001ffa85f80afb19401c0c09fb08f144ea79
:101c24000044a14202fa0cf23fd92c1909f1ff3009
:101c340004d2a14202d9a9f102002c44641a9bb235
:101c4400b4fbfaf90afb194409fb08f843ea044116
:101c540088452cd9691809f1ff3304d2884502d983
:101c6400a9f10203294443ea0040a1eb0801a0fbc7
:101c740002894945c2464c4602d306d1464504d2a0
:101c8400b8eb020a69eb05040138afb1b6eb0a03fd
:101c940061eb040606fa0efe23fa0cf34eea030384
:101ca40026fa0cf6c7e900369ae74846c6e74b46db
:0c1cb400d9e73e463846f7e63e46f5e626
:020000040000fa
:101cc00030b591ea030f00f18280841a71eb030ca6
:101cd00005d2121953eb0c03001b71eb0c0140f2ff
:101ce000000ccff6e07c1cea430f52d0bceb410f56
:101cf0005fd90c0da4eb135e5ff0010c6cf31f5168
:101d00006cf31f53def1200c2ad303fa0cf54019b3
:101d100041f1000122fa0ef5401923fa0ef569414e
:101d200012fa0cf2cd0208d349085fea30005feaec
:101d3000320228bf42f001020134013c5fea500c3c
:101d400072f1004250f1000051eb04514ff40013c6
:101d500013eb410f38bf30bd6ff31301002030bdce
:101d6000bef1200ebef1200f1ed223fa0ef540194f
:101d700041f10001cef1200c124218bf012203fafa
:101d80000cf52a43cee711ea5c0f04bf00200021c6
:101d900030bd1cea410f04bf01f00041002030bdfe
:101da00001f00041002030bd21f4801101eb04510d
:101db00030bd004218bf41f00101bceb410f08bf2c
:101dc00030bd4ff0fe4141f47801002030bd83f07a
:101dd0000043841a71eb030e07d28ef0004e001bf5
:101de00071eb0e01121953eb0e0340f2000ccff60b
:101df000e07c1cea430fc6d0bceb410f72d90c0d3e
:101e0000a4eb135ec90241ea5051c00241f0004107
:101e1000db0243ea5253d20243f00043def1200cce
:101e200041d312fa0cf522fa0ef203fa0cf542ea4b
:101e3000050218bf42f0010223fa0ef3801a9941fd
:101e4000e30ac4f30a0411f0404f03d418d0013c54
:101e500040004941013c23d44205c00a40ea4150b8
:101e6000c90a51eac3715fea500c72f1004250f1a5
:101e7000000051eb045130bd01002fd00020203c68
:101e80000029f9d0b1fa81fcdcf1200e11fa0cf135
:101e900030fa0ef510fa0cf02943a4eb0c04d9e744
:101ea0000020d90730bdaef1200ebef1200f0dd2bb
:101eb000cef1200c03fa0cf533fa0ef32a4318bfc7
:101ec00043f00103c01a61f10001b9e721f00041bc
:101ed000c00a40ea4150c90a01eb045130bd00205c
:101ee000002130bd004218bf41f00101bceb410fa1
:0e1ef0007ff467afbceb430f3ff463af30bd30
:020000040000fa
:101efe00f0b581ea030e0ef0004e40f20007cff669
:101f0e00e07717ea41051ebf95ea070f17ea43046b
:101f1e0094ea070f00f0c5806d0da5eb545707f539
:101f2e0080674ff0004646eac12444ea5054c0028e
:101f3e0046eac32343ea5253d202801a9c4104d28a
:101f4e000018644180185c41013f5b084fea320281
:101f5e000025002140f001004ff0070604e0801a32
:101f6e009c4136d340416441801a9c4136d3404156
:101f7e006441801a9c4136d340416441801a9c4191
:101f8e0036d340416441801a9c4136d3404164416e
:101f9e00013e17d0801a9c4136d340416441801acd
:101fae009c4136d340416441801a9c4136d3404116
:101fbe006441090201eb156190ea052520f0ff004e
:101fce004540cce7801a9c4156d335e080185c41e1
:101fde00c8d20018644180185c41c8d20018644110
:101fee0080185c41c8d20018644180185c41c8d288
:101ffe000018644180185c41c8d200186441013e4b
:10200e0017d080185c41c8d20018644180185c411a
:10201e00c8d20018644180185c41c8d200186441cf
:10202e00090201eb156190ea052520f0ff004540fd
:10203e00cce780185c411fd3420918bf44f001045d
:10204e00490101ebd56100f01f0000eb451021f4b2
:10205e00801141ea0e01013041f10001244208bf16
:10206e0020f00100b7f5006f3eda013f49dd01ebcc
:10207e000751bde8f0407047490101ebd56100f012
:10208e001f0000eb451021f4801141ea0e01b7f557
:10209e00006f29da013f34dd01eb0751bde8f04056
:1020ae007047004218bf41f00101124218bf43f0c1
:1020be000103b7eb410f2cbfb7eb430f1ce0b7eb9f
:1020ce00410f04bfb7eb430f16e017ea410f04bff1
:1020de0017ea430f10e017ea410f12d017ea430f29
:1020ee0002d0b7eb430f0cd04ef0fe4141f470011d
:1020fe000020bde8f04070474ff0fe4141f47801fa
:06210e00f6e77146f4e75c
:020000040000fa
:102114002de98848002001f065fe00214c4802f0ba
:1021240067f902f06ff800214a4802f043f902f01f
:1021340045f80021484802f049f90021474802f0d7
:102144003ff90121464801f0f3fc4648fff7dcfa69
:102154000021454802f028f90021444802f042f9e0
:1021640002f014f802f036f801f0f8ff404edff800
:102174003481dff834b13f4ddff830a1dff830911e
:1021840064e0002333704ff48053c8f81c303a489d
:10219400fff7bafa02f006f802f028f80de0374b20
:1021a4001b78002b31d1364b1b78002b3ad12b787e
:1021b400002b40d13378002be3d1324b1b78002b1a
:1021c400edd0304b00221a704ff40053c8f81c3085
:1021d4002d4b1a782d4b1c781444e4b21c70631eea
:1021e400dbb2622b02d95242274b1a7001f0c2ffb4
:1021f4003b6b13f4002fd2d100fb04f30133abfb90
:102204000323c3f35713fb67c9e71c4b00221a705f
:10221400134c21781e48fff777fa0121204601f07c
:1022240087fcc0e7164b00221a701a4b19881a480b
:10223400fff76afabbe700232b70184c218850463d
:10224400fff762fa61884846fff75efa144fb1e778
:1022540095420000a94200000d4400000144000022
:10226400cc080020c42d00005540000011350000aa
:10227400d2080020d1080020d42d0000d40800206a
:10228400cd080020d3080020d6080020d50800205f
:10229400e82d0000ce080020042e0000bc08002019
:1022a40000800141008000411f85eb511c2e00007d
:0422b4003c2e0000bc
:020000040000fa
:1022b8002de9f04f85b09a461369d2f80890d2f804
:1022c8000c8001910446009301f06ffcdaf80020bd
:1022d8001044caf80000b9f1000f02d1009b03f1c5
:1022e800ff390a274ff0000b5e464e453fda009b48
:1022f800591eb1423bdde06be16c884211d2411cb2
:10230800e1630578c6b92b2d01d02d2d14d188f89d
:102318000050daf800200132caf800204ff0010b13
:10232800e2e7204601f078f905460130ead1f6b92e
:10233800284605b0bde8f08f5e4508d10a2f06f1a2
:10234800010b28d1302d0cbf08274ff0000ba5f149
:102358003001092946d9102f04d1284601f0b8feca
:10236800002844d1e36c13b1e36b013be363002322
:102378000a2f08f806303a4603a9404640d101f032
:10238800adff019bc3e90001039b43450cbf6ff000
:1023980001050125cce7082f21d145f02001782936
:1023a8001dd1e06be16c884215d2411ce1630078d5
:1023b800e16c11b1e16b0139e16301f089fe00289c
:1023c800d0d008f80650daf8001001315e46caf895
:1023d8000010102789e7204601f01ef9e8e74ff0c2
:1023e800000bb4e7082f02d1382da8bf0a2708f838
:1023f8000650daf8001001310136caf8001074e707
:0624080001f02effbde70c
:020000040000fa
:02240e00fee7e7
:020000040000fa
:10241000434b00221a7403f50063424a9a621a463b
:10242000536813f0100ffbd13f4b4222c3f88420b6
:102430001a4600bfd2f8843013f0400ffad03b4b5d
:1024400000229a6377225a631a46d36b13f0040f63
:10245000fbd1364b022283f830201a46d36b13f09f
:10246000020ffbd1314a136c03f00303032bfad1a3
:102470002f4b01225a711a46d37813f0010ffbd06b
:10248000294b2c4a1a621a46536813f0040ffbd1e9
:10249000254b294a5a621a46536813f0080ffbd19c
:1024a000214b4122c3f8a0201a4600bfd2f8a03029
:1024b00013f0400ffad01c4b4122c3f8a4201a4657
:1024c000d2f8a43013f0400ffad0174b4122c3f8d2
:1024d000e4201a46d2f8e43013f0400ffad0124b41
:1024e0004122c3f820211a46d2f8203113f0400fc0
:1024f000fad00d4b4122c3f824211a46d2f82431d8
:1025000013f0400ffad00a4b6ff07f421a614ef27f
:10251000ff725a61094a9a614ff4c0721a62704799
:102520000014004006013000001c00400010004074
:102530000008004007010100070102005690010059
:020000040000fa
:10254000f0b540f2ff7681ea030c16ea115e1ebf79
:10255000b64516ea1355b54252d021ea465141f428
:102560008011a1fb024723ea465343f48013ae4493
:10257000a0fb03650cf0004c36197d41a1fb03471d
:1025800047f10003a0fb0217f619654153f1000360
:10259000094218bf46f0010640f2fe74b3f5007f11
:1025a00013d2aef5806ea64523d24cea0331280340
:1025b00041ea155140ea16503203450872f10042d3
:1025c00050f1000051eb0e51f0bdaef2ff3ea645ba
:1025d0000fd24ceac321e80241ea555140ea565075
:1025e000f202450872f1004250f1000051eb0e5129
:1025f000f0bd1eea0e0f2dd50cf000410020f0bdfd
:1026000016ea115f04bf01f000410020004218bf2c
:1026100041f0010116ea135f04bf03f000430022fa
:10262000124218bf43f0010306ea1354b44218bf24
:10263000b64503d00cf000410020f0bd21f0004170
:1026400023f00043b1eb065f0cd8b3eb065f09d86b
:1026500041b13bb10cf0004141f0fe4141f4700149
:102660000020f0bd40f20001c7f6f8710020f0bd77
:020000040000fa
:102670002de9f04f0e4649683568d6f80890f7689e
:102680008bb0cde903230029acbf25f00205012161
:1026900015f010030593039b8346d3e900232fd045
:1026a00052ea03002cd0a9f10208346915f00800a1
:1026b00004f1ff3408904ff00000385518bf08f1be
:1026c000ff388a46012c1ddc059b002b54d1089b4a
:1026d00013b1013c20233b5532690095013a4b462a
:1026e000121b3919584600f041fcdbf80430db05b9
:1026f00003d573689842b8bf18460bb0bde8f08f99
:10270000c846d2e752ea030009d1baf1000f06dc4d
:10271000a8eb010050440028d6dda807d4d502f06c
:102720000f000928d4bf00f1300e00f1570e0498b5
:10273000a0f1410cbcf1190f04f1ff3410d84ef098
:10274000200cacf1610cbcf1190f09d8704609914d
:10275000cde9062301f01dfedde906230999864631
:10276000100940ea03704fea131c07f804e00af16d
:10277000ff3a02466346a5e7039bd3e9000150ea0e
:102780000103a4d03a19049b02f8013c023c302317
:042790003b559ce732
:020000040000fa
:10279400ffffffffffffffffffffffffffffffff45
:1027a400ffffffffffffffffffffffffffffffff35
:1027b400ffffffffffffffffffffffffffffffff25
:1027c400ff00010203040506070809ffffffffffde
:1027d400ffff0a0b0c0d0e0f101112131415161710
:1027e40018191a1b1c1d1e1f20212223ffffffff87
:1027f400ffff0a0b0c0d0e0f1011121314151617f0
:1028040018191a1b1c1d1e1f20212223ffffffff66
:10281400ffffffffffffffffffffffffffffffffc4
:10282400ffffffffffffffffffffffffffffffffb4
:10283400ffffffffffffffffffffffffffffffffa4
:10284400ffffffffffffffffffffffffffffffff94
:10285400ffffffffffffffffffffffffffffffff84
:10286400ffffffffffffffffffffffffffffffff74
:10287400ffffffffffffffffffffffffffffffff64
:10288400ffffffffffffffffffffffffffffffff54
:0a289400ff0001020407030605001f
:020000040000fa
:02289e00704781
:020000040000fa
:1028a00025642c25640000001b5b25643b256448df
:1028b00000000000234647433a00000023424743fc
:1028c0003a000000253032782530327825303278d1
:1028d000000000001b5b34383b323b25643b256421
:1028e0003b25646d000000001b5b33383b323b2509
:1028f000643b25643b25646d000000002352535463
:102900003b0000001b5b306d0000000023434c5374
:102910003b0000001b5b324a1b5b480023433245ef
:102920003b0000001b5b4b0023434c523b0000006c
:102930001b5b324b0000000023424f4c3b00000069
:102940001b5b316d0000000023554e443b0000002e
:102950001b5b346d0000000023494e563b00000015
:102960001b5b376d000000002344494d3b00000015
:102970001b5b326d00000000234849443b0000000f
:082980001b5b3f32356c0000c7
:020000040000fa
:102988002de9f74f984604468b46d2f80890d2e9cd
:10299800037a01f00af9d8f800301844c8f80000a2
:1029a800b9f1000f01d10af1ff3900254d452ddaa3
:1029b8000af1ff33ab4229dde36be26c934235d277
:1029c8005a1ce2631e78304601f082fb00283dd194
:1029d800012d16d1304601f0d1fc782811d13b7871
:1029e800302b0ed1e36be26c93422bd25a1ce2637c
:1029f8001878e36c13b1e36b013be36301f068fb08
:102a080020bbe36c13b1e36b013be36300237b550d
:102a1800102201a9384601f023fc019bbb42cbe9f7
:102a280000010cbf6ff00106012607e0204600f008
:102a3800f3fd06460130c6d1002de7d1304603b07c
:102a4800bde8f08f204600f0e7fdd2e77e55d8f8c4
:0c2a5800003001330135c8f80030a7e75a
:020000040000fa
:042a64000020704797
:020000040000fa
:102a680053ec102bc3f30a512de9f04140f2fd70ed
:102a78004e1e86421d4645d8a1f2ff30002835dba0
:102a8800332831dc284bc0f120084ff0ff3c03fa13
:102a980008f2a1f21f412cfa00fc10ee104a4cea91
:102aa800020c23fa01f24cea020c23fa00fe04eab3
:102ab8000c0605ea0e0724ea0c0256ea070425ea82
:102ac8000e030fd0002a73f100040bda4ff48015bf
:102ad80005fa08f425fa01f10c43121925fa00f059
:102ae80040eb030343ec102bbde8f081002a73f19f
:102af800000303db9fed080bbde8f0819fed080b99
:102b0800bde8f0810029efd10a4603f0004343ec09
:102b1800102be9e7aff30080000000000000000080
:0c2b2800000000000000f0bfffff0f00e5
:020000040000fa
:102b3400882910b536d012dc812943d003dc8029e2
:102b440040d0002010bd82290ed08429f9d1196803
:102b540002b30a1d1a60b1f90020d3171ee0a029a0
:102b64002bd00bdc9029ecd11968073121f0070137
:102b740001f108021a60d1e900230fe0c02901d055
:102b8400f029ded11a68111d19601368036000234f
:102b9400436005e00a1d1a600a880023c0e9002387
:102ba4000120cfe7196822b10a1d1a6091f90020ab
:102bb400d3e70a1d1a600a78efe71a68111d196035
:102bc4001268cae719681ab10a1d1a600a68c4e7cc
:0c2bd4000c1d1c600b68c0e90032e1e73a
:020000040000fa
:102be0002de9f041d2e900230c4686b007465feaa2
:102bf000d37820684968a5680590e66841d05242bc
:102c000063eb4303002908db20f002000590b8f1d4
:102c1000000f02d1059948072ad5691e05a8029020
:102c20000a20cde90010204600f09afab8f1000f12
:102c300002d1059b59071fd5b8f1000f00f1ff30f5
:102c400014bf2d232b2333542269059b0093013a93
:102c50002b46121a3118384600f088f97b68db05dc
:102c600003d563689842b8bf184606b0bde8f08146
:102c70000807d2d42946d1e71a07e5d50138202321
:082c8000e1e70029c0dac5e715
:020000040000fa
:102c8800800800202c0000000000000050080020f0
:102c98003000000000000000ac0800201000000018
:102ca80000000000cd080020050000000000000022
:102cb800bc0800200400000000000000d20800202a
:102cc8000300000000000000cc0800200100000004
:102cd80000000000d50800200300000001000000eb
:102ce800320201000000002000080000000000007f
:102cf800c0080020040000000000000000080020b8
:102d08005000000000000000c40800200800000077
:102d18000000000000000000000000006666666613
:020000040000fa
:102d2800244ad36823f4e0631b041b0c43f0bf63fd
:102d380043f40033d360bff35f8f62b61e4be021cc
:102d480083f832134ff48020586083f833134ff41c
:102d58000020586083f834134ff48010586083f8cb
:102d680035134ff40010586083f86b134ff400606c
:102d7800d86083f86c134ff48050d86083f87713c9
:102d88004ff40000d86083f879134ff00071d960d0
:102d9800536a43f480235362536943f01003536129
:102da800536a43f400335362536a43f480335362e3
:0c2db800704700bf00ed00e000e100e00b
:020000040000fa
:102dc400235253543b23434c533b234849443b0035
:102dd40040312c313b48656c6c6f20576f726c64ca
:102de4002121000040312c353b52656365697665cd
:102df400642044617461203a20253163000000009e
:102e040040312c323b5652312056616c7565203a64
:102e1400202534640000000040312c333b54656da0
:102e240070657261747572652056616c7565203abf
:102e3400202534640000000040312c343b4c696789
:102e440068746e6573732056616c7565203a20252d
:042e540034640000e2
:020000040000fa
:102e58002de9f84316460546d1f80880d1e90379eb
:102e680000f0a3fe336818443060b8f1000f01d1b8
:102e780009f1ff380024444526da09f1ff33a3425b
:102e880022ddeb6bea6c93420dd25a1cea63187888
:102e98008cb92b2801d02d280dd138703368013317
:102ea80033600124e7e7284600f0b6fb431cefd166
:102eb80054b9bde8f883a0f13003092b07d9eb6cae
:102ec80013b1eb6b013beb6300203855f1e7385544
:0a2ed8003368013301343360cde7a5
:020000040000fa
:022ee200704737
:020000040000fa
:102ee40008b5194b9847194b9847eff3108172b600
:102ef400174ad2f8883043f47003c2f88830bff31d
:102f04004f8fbff36f8f01b962b6124a936823f0f3
:102f1400010393601346da6812f0010ffbd10d4be5
:102f240024225a6001229a6000f0d6fe0a4b23f054
:102f34007f03074a9360094b9847094b9847094b0d
:102f44009847fff7e5f8fee79f2800009f28000058
:102f540000ed00e000600041000000006d3500005d
:082f64009f2800009f280000d7
:020000040000fa
:102f6c002de9ff471d460c9b13f0010906468a46c6
:102f7c00144601d195420bd822465146304600f0fa
:102f8c004ffea54204d82546284604b0bde8f0877c
:102f9c002f1b102f3a464ff0200128bf10226846f5
:102fac00b84601f0a3f900bfb8f10f0f11d83b09d7
:102fbc006ff00f0202fb03726946304600f030fee0
:102fcc00b9f1000fe0d122465146304600f028fe00
:102fdc00dae710226946304600f022fea8f110080c
:042fec00e2e700bf59
:020000040000fa
:102ff000882930b52cd012dc812930d003dc80291f
:103000002dd0002030bd82290ed08429f9d1196835
:1030100000680a1d1a600b6818800120f2e7a029d9
:103020000fd00adc9029ecd119680a1dd0e90045bf
:103030001a600b68c3e90045efe7c02901d0f02909
:10304000dfd11a680168101d186013681960e4e781
:10305000196800680a1d1a600b681870dde71968a6
:0c30600000680a1d1a600b681860d6e7b3
:020000040000fa
:10306c00842910b523d00cdc812903d0822913d0fc
:10307c0080290bd119680c1d1c600b6803601a6049
:10308c0013e0902921d003dc882917d0002010bd33
:10309c00a029efd0c029ece719680c1d1c600b6847
:1030ac000360d1171046c3e900010120efe719684e
:1030bc000c1d1c600b6803601a80f6e719680c1d68
:1030cc001c600b6803601a70efe719680c1d1c601c
:0c30dc0009680160d317c1e90023e6e792
:020000040000fa
:1030e8001b4b1b7d002b31d010b5194a93685168d2
:1030f800184a127e12f0010f15d0994213d91549ba
:1031080013484a6802f00702012a026814bfd25c19
:1031180032f813208a62013344680a7e12f0010fe4
:1031280001d09c42edd80a4a936052689a420cd862
:10313800074b00221a755a60064a01211175db688f
:103148001bb1034b1869db68984710bd704700bf77
:08315800500800200034004083
:020000040000fa
:103160002de9f84f04460c9f6668d4f80cb024692a
:1031700010463a68013c002502f0020a0b9a0bf84f
:103180000450002e1946b8bf0126012390464fea8d
:10319000e279002c03dcd3b12046bde8f88f50ea79
:1031a000010209d1721b002a06dc0a9a521b002a6e
:1031b000f1ddbaf1000feed042464b4600f05cfe66
:1031c000013c134630320bf804200135e1e73b683f
:0831d00023f010033b60dfe770
:020000040000fa
:1031d80000282ed010b40446184b1b7d5bbb174b40
:1031e8001860596001221a755868154b1b7e13f038
:1031f800010f13d0a8b1002311494a6802f0070251
:10320800012a14bfe25c34f813208a6201330a7e73
:1032180012f0010f04d09842efd102e0002000e044
:103228001846064b98600120054b98755df8044bcd
:103238007047002070470020f8e700bf50080020c2
:04324800003400400e
:020000040000fa
:10324c00f0b50c4649682368a768e56887b0002983
:10325c000593a4bf23f00203059305ab0293082347
:10326c00cde900730646d2e900232046fff772ff32
:10327c00059bd90642bf00f1ff3030232b54059b30
:10328c001a0742bf00f1ff3020232b542269059b03
:10329c000093013a3b46121a29183046fff760fe9c
:1032ac007368db0503d563689842b8bf184607b04e
:0232bc00f0bd63
:020000040000fa
:0232be00fee729
:020000040000fa
:1032c00008b5174b93f82c30cbb1154bda691b6a54
:1032d000934214d2124b986a124a916a1b6a52683e
:1032e00002f00702012a0e4a926914bfd15422f853
:1032f000131001330a4a1362d2699a4200d008bd02
:10330000074b002283f82c20da61064a84211175cc
:103310005b6a002bf3d0024b5b6a9847efe700bf74
:083320005008002000340040b9
:020000040000fa
:10332800174b01221a801a46136b13f0010ffbd1b9
:103338004ff080131b681a0902f07002d90001f4db
:10334800e0610a43c3f382031a430d4ba3f84820f4
:103358004ff400721a800322da7283221a7241f63d
:1033680007029a800022da80072283f82e200122a1
:1033780083f82d201a46136b002bfcd1704700bf31
:04338800001c0043e2
:020000040000fa
:10338c00174b01221a801a46136b13f0010ffbd155
:10339c004ff080131b689a0c02f07002d90a01f4ea
:1033ac00e0610a43c3f302431a430d4ba3f84820d0
:1033bc004ff400721a800322da7283221a7241f6d9
:1033cc000a029a800022da80072283f82e2001223a
:1033dc0083f82d201a46136b002bfcd1704700bfcd
:0433ec00002000437a
:020000040000fa
:1033f000164b4ff440521a60012283f847200021f7
:1034000083f84c1083f84d1083f84f20102083f878
:10341000330083f83610602083f8370083f84021aa
:1034200083f8412183f85b2183f85c21112283f822
:103430003021202283f83d21022283f83e2183f8a7
:10344000c02183f8c12183f8b0117047008000418a
:020000040000fa
:10345000c9b2f8b50446f1b103469a0718461ed121
:103460004ff001354d431e4656f8044b84ea0507dc
:10347000a4f10132a7f1013022ea040220ea070098
:10348000024312f0803f11d0184613f8012b2ab1e5
:103490008a42f9d102e000f0c3fe2044f8bd13f8df
:1034a000012b002afad08a42d7d1f7e73346dae770
:020000040000fa
:1034b000f0b59bb004460d46164600214c2207a8e5
:1034c0001f4600f019ff4ff0ff33029303f203137e
:1034d000039304b901accde9044555b16a1e002d32
:1034e000069208da094b4f221a604ff0ff301bb0ea
:1034f000f0bd2a46f3e71cbf002323703a4631464d
:1035000002a8cde9074400f0f5fdf0e7c808002067
:020000040000fa
:1035100010f0010f00d1704738b5114c25786db20d
:1035200000f05cff0f4b23f8150023785bb20133ea
:1035300003f0010348bf5b42237023785bb243b9b9
:103540004ff4c0510a2000f073fd074b01221a709e
:1035500038bd4ff4c0510b2000f06afdf8e700bf02
:0c356000d0080020bc080020d10800208a
:020000040000fa
:10356c000e4a38b5002313600d4a0e4c13600e4af8
:10357c000e4d13600e4a13600e4a13600e4a5362ce
:10358c0013610123936000f0effe00f022fdac42ca
:10359c0000d338bd54f8043b9847f8e7c408002022
:1035ac000c080020700200000808002074020000c3
:0c35bc0000080020040800201008002077
:020000040000fa
:1035c80008b5144b9b7df3b1124a137edbb2927d92
:1035d80012f0800f18d10f4a137edbb2927d12f0e1
:1035e800010f04d013f0010f01d0fff779fd094a4c
:1035f800137edbb2927d12f0040f04d013f0040f97
:1036080001d0fff759fe08bd13f0800fe3d000f09a
:0836180045fbe0e7003400402f
:020000040000fa
:1036200038b5036d04463bb1426d934204dc002380
:10363000e3644ff0ff3038bd204600f0e5fc002881
:10364000f5db236dd4e90f12a3b1656d5b1b551a31
:10365000ab420fdc013b0b44e36422b1636d521ab1
:1036600001321a44626511f8013c834218bf01f827
:08367000010ce0e71346efe74f
:020000040000fa
:103678002de9ff41134dd1f80080af88adf80c70eb
:1036880006462868029002aca8798df80e00002a38
:1036980018bf1446d1e901571a461bb9204600f055
:1036a800bbfd0246002d02dbaa4228bf2a46cdf800
:1036b80000803b4621463046fff754fc04b0bde885
:0836c800f08100bf4044000046
:020000040000fa
:1036d000f0b50c4649682368a668e76887b00029fa
:1036e0000593a4bf23f00203059305ab02930a23bd
:1036f000cde900630546d2e900232046fff730fdff
:103700002269059b0093013a3346121a391828465c
:10371000fff72cfc6b68db0503d563689842b8bfe4
:06372000184607b0f0bde1
:020000040000fa
:02372600fee7bc
:020000040000fa
:10372800114b124a1a604ff622029a814ff4403226
:103738005a601a46d369002bfcd10b4a136843f030
:1037480002031360d369002bfcd1094b00229a6154
:10375800da611a6283f82c205a621a605a609a60f9
:103768001a75da60da8570470034004004011040a9
:0437780050080020d5
:020000040000fa
:10377c0070b404468ab10b7804f8013b551e7bb13a
:10378c008618284406e011f8015f03f8015b021b60
:10379c004db11c46a6422346f5d1204670bc70475d
:1037ac0023462a460446002af7d01a44002100bfbb
:1037bc0003f8011b9a42fbd1002c08bf144620468b
:0437cc0070bc704716
:020000040000fa
:1037d00070b500239ab098420393a6bf00f100434e
:1037e00003f1ff334ff0ff330d4611900490002199
:1037f000044602a81646129300f01efddde91e23c2
:103800003146cde9002302a80122fdf701fc35b1c4
:10381000dde911329b1a179a13441c442c601ab02c
:0238200070bd79
:020000040000fa
:02382200fee7bf
:020000040000fa
:103824000fb400b583b004ab53f8042b01934ff4e9
:1038340000610d48fff73afe421e40f2fe739a42c1
:1038440004d903b05df804eb04b07047064b0022c2
:103854001a5401461846fff7bdfc00bf00f068fd8e
:0c3864000028fbd0ede700bf00000020b2
:020000040000fa
:1038700001f000428b1aa3f16051b1f5801f0adb01
:10388000b1f17f6f09d242eac102c10071f100417a
:1038900042eb507070471046704701285b4113f5aa
:1038a000001f02d842f0ff407047c90041ea507043
:0c38b000104340f4800040f0804070475e
:020000040000fa
:1038bc0010b590f948305a1e134380f84830d0e9bf
:1038cc0005239a42044603d90022c36a114698473d
:1038dc0060680023a362c4e90533830755bfd4e9ac
:1038ec00023240f010009b18606056bfc4e90f33e1
:0a38fc004ff0ff3040f3c00010bd94
:020000040000fa
:10390600c1f30a5340f21e42d21a0edd202a0ad80b
:10391600cb0243ea505040f00040d04090eae170bc
:10392600b0ebe1707047002070474b00004218bfb3
:1039360043f0010313f5001f88bf21f0004111f089
:0a394600004058bf6ff000407047ca
:020000040000fa
:103950000f4b01221a601a46936813f0010ffbd136
:103960000b4b4ff480521a6000225a615869094982
:10397000014359610221d9635a649a64da641a6571
:1039800040f65f121a641a469368002bfcd1704708
:0839900000800141000f4040de
:020000040000fa
:10399800812910b50fd0832903d0802912d00020a7
:1039a80010bd1368191d1160d0e900011b68c3e937
:1039b80000010120f4e71368191d11601b68d0e9a4
:1039c8000001f4e713681c1dd0e9000114601c68ad
:0839d800fff74aff2060ece755
:020000040000fa
:1039e00010b50278202a034600f10100f9d0a2f1b7
:1039f00009010429f5d92b2a07d02d2a11d101213b
:103a00000133013b00200a2403e00021f8e7604372
:103a1000801a13f8012f303a092af8d901b9404227
:063a200010bd0021ede7de
:020000040000fa
:023a2600fee7b9
:020000040000fa
:103a28000e4b01221a601a46136913f0010ffbd1dd
:103a38000a4b4ff4a2621a6003221a7349f27b22de
:103a48009a8333229a72064a0021116001225a721f
:103a58001a461369002bfcd1704700bf003c004098
:043a6800a40800208e
:020000040000fa
:103a6c000e4b01221a601a46136913f0010ffbd199
:103a7c000a4b4ff4e2621a6003221a7347f26f2268
:103a8c009a8333229a72064a0021116001225a72db
:103a9c001a461369002bfcd1704700bf0038004058
:043aac00b40800203a
:020000040000fa
:103ab000eab10378c9b28b421ad0431c0244934244
:103ac000184603f1010312d010b404788c4207d0d9
:103ad0009342184603f1010305d004788c42f7d1d4
:103ae0005df8044b704700205df8044b70470020e0
:043af000704700bf5c
:020000040000fa
:103af40010b5054c227832b9044b13b10448aff326
:103b040000800123237010bd800800200000000005
:103b14000000000008b5034b1bb103490348aff391
:103b2400008008bd000000008408002000000000a0
:020000040000fa
:103b3400b8b138b505460c4a92f82c200ab10020d9
:103b440038bd0c4600f036f9074b9d61dc6100225c
:103b54001a62012083f82c00da85044b84229a75ba
:103b6400eee70020704700bf5008002000340040fa
:020000040000fa
:103b74002de9f041846b02f58077064688461546a8
:103b840000213a462046fff791ff00b1071bbd42d2
:103b940028bf3d4621462a46404600f08dfa631967
:0e3ba4003c44f3633464b4632846bde8f0810a
:020000040000fa
:103bb20038b504460025e36be26c934210d25a1cde
:103bc200e2631878202809d00938042806d9e36c62
:103bd20013b1e36b013be363284638bd0135eae7e5
:0c3be2002046fff71cfd431cecd1f5e76a
:020000040000fa
:023bee00fee7f0
:020000040000fa
:103bf00030b50d4a002300bf12f8134024b902eb80
:103c000043035b78184630bd01680d78a54209bfb3
:103c100002eb430301335b78013114bfdbb2016077
:0c3c20000a2be9d9eee700bf7e4200004d
:020000040000fa
:103c2c0038b5436813f4807f0446154611d00369f8
:103c3c009a4228bf1d465db12a46406900f038fa09
:103c4c00636922692b44551b0022636125611a703c
:0c3c5c0038bddb06fcd400f0f5faf9e7f7
:020000040000fa
:103c68004ff4001c1ceb410f98bf1ceb430f11d8fd
:103c780051ea030c50ea4c0c5cea020c0cd004d25a
:103c880082428b4180410130704790429941804186
:0c3c980001307047002070470120704789
:020000040000fa
:103ca4000b4b5b8b13f0070300d1704710b5094c25
:103cb400e38500f07ff8064b84221a75002384f80c
:103cc4002c30636a13b1a06a636a984710bd00bfc1
:083cd4000034004050080020fc
:020000040000fa
:103cdc0070b50b480b4d4ff6ff76016821b9436860
:103cec0013b900f0f2f870bd83684268334000f1fc
:103cfc000c0455f823302046984704eb8000ece781
:083d0c00882c0000bc420000fd
:020000040000fa
:103d14004ff4001c1ceb410f98bf1ceb430f11d850
:103d240051ea030c50ea4c0c5cea020c0ad004d2af
:103d340082428b4180414042704790429941804188
:083d4400404270470020704767
:020000040000fa
:103d4c004ff4001c1ceb410f98bf1ceb430f11d818
:103d5c0051ea030c50ea4c0c5cea020c0ad004d277
:103d6c009042994180414042704782428b41804150
:083d7c0040427047002070472f
:020000040000fa
:103d84004ff4001c1ceb410f98bf1ceb430f0cd8e5
:103d940050ea410c08bf52ea430c08d0904208bfd5
:103da40099420cbf01200020704700207047012079
:023db400704756
:020000040000fa
:023db600fee726
:020000040000fa
:103db8000a4b5b8b13f0070f0ed0084b80221a7644
:103dc80007225a831b7e13f0040f05d0034b9a6a0f
:103dd8001a7e12f0040ffad1704700bf0034004079
:020000040000fa
:103de80008b500f0abfafff7fffafef70dfbfff797
:103df800abfdfff795fcfff770f8fff791fafff7b7
:103e0800c1fafff70dfefff72dfefef789ff08bd8b
:020000040000fa
:103e180037b5d4680d4611461a46fff719f8431c02
:103e28000cd00a2201a9204600f058fa019ba342af
:103e3800c5e900010cbf6ff00100012003b030bddf
:020000040000fa
:103e480070b598b004460d461646002160226846b3
:103e580000f04efa054b02943246294668460e9405
:103e6800119300f051f918b070bd00bf5344000021
:020000040000fa
:103e780053b94ab9002908bf00281cbf4ff0ff31c9
:103e88004ff0ff3000f0e4baadf1080c6de904ce54
:103e9800fdf7b4fdddf804e0dde9022304b0704766
:020000040000fa
:103ea80010b50b681b78202b0c4602d0093b042b5d
:103eb8000bd8fff77afe23685a1c22605b78202b08
:0e3ec800f9d0093b042bf6d910bd0020fce711
:020000040000fa
:023ed600704733
:020000040000fa
:103ed80008b5084b93f82e00012283f82e20064bd4
:103ee8001b682bb1c0b2044b59681b681040984737
:0c3ef80008bd00bf001c00439c08002017
:020000040000fa
:103f040008b5084b5b7a63b1064b987ac0b233228a
:103f14009a72054b1b6823b118b1034b59681b688f
:0c3f2400984708bd003c0040a4080020a5
:020000040000fa
:103f300008b5084b93f82e00012283f82e20064b7b
:103f40001b682bb1c0b2044b59681b6810409847de
:0c3f500008bd00bf00200043ac080020aa
:020000040000fa
:103f5c0008b5084b5b7a63b1064b987ac0b2332232
:103f6c009a72054b1b6823b118b1034b59681b6837
:0c3f7c00984708bd00380040b408002041
:020000040000fa
:103f880000b553ec112b83b051ec100b8ded002bc9
:103f9800fef7d2fa9ded002b53ec122bfdf78cfea9
:0c3fa80041ec100b03b05df804fb00bfff
:020000040000fa
:103fb400802910db812901dd83290cd113680733a3
:103fc40023f0070303f108011160d3e90023c0e9da
:0a3fd4000023012070470020704711
:020000040000fa
:023fde0070472a
:020000040000fa
:103fe00030b57ab101380a4410f8013f0d4633b1bb
:103ff00011f8014b1cb1914201d0a342f4d02a78b0
:08400000981a30bd1046fce7e0
:020000040000fa
:1040080013b50446fff756fc18b14ff0ff3002b065
:1040180010bd636c01220df1070120469847012865
:08402800f3d19df80700f2e757
:020000040000fa
:10403000074a93889bb2014323f4f85323f01f03ec
:104040000b439380136b13f0040ffbd1704700bf39
:044050000020004309
:020000040000fa
:1040540010f0010f00d1704708b500f09ff9034b31
:104064001880034b01221a7008bd00bfce0800203f
:04407400cd08002053
:020000040000fa
:1040780000b583b08df8070001210df10700fff7a7
:10408800a7f800bf00f052f90028fbd003b05df894
:0440980004fb00bf66
:020000040000fa
:10409c0010b50023934206d113f0030018bf012082
:0e40ac0000eb930010bdc45ccc540133f2e76e
:020000040000fa
:0240ba0070474d
:020000040000fa
:1040bc005ab110b40a44431e11f8014b03f8014fd6
:0c40cc009142f9d15df8044b7047704739
:020000040000fa
:1040d800a0f13003092b07d940f0200061380528ea
:0c40e8008cbf00200120704701207047b1
:020000040000fa
:1040f40013b50446019201aafdf782f9636813f02f
:0c410400100f18bf4ff0ff3002b010bdcc
:020000040000fa
:1041100013b50446019201aafcf776fd636813f01b
:0c412000100f18bf4ff0ff3002b010bdb0
:020000040000fa
:10412c0040f02003613b192b05d9303809288cbf8e
:0a413c0000200120704701207047a9
:020000040000fa
:104146000eb403b503aa52f8041b0192fff779fed9
:0a41560002b05df804eb03b07047ff
:020000040000fa
:10416000044a136843f002031360936813f0020fcc
:08417000fbd170470080014102
:020000040000fa
:10417800044a936813f0800ffbd1024b186c20f0af
:084188007f40704700800141f7
:020000040000fa
:10419000044a138843f002031380136b13f0020fd9
:0841a000fbd17047001c004335
:020000040000fa
:1041a800044a137d43f002031375136b13f4006f75
:0841b800fbd17047001c00431d
:020000040000fa
:1041c000044a136843f002031360136913f0020feb
:0841d000fbd17047003c0040e8
:020000040000fa
:1041d800044a138843f002031380136b13f0020f91
:0841e800fbd1704700200043e9
:020000040000fa
:1041f000044a137d43f002031375136b13f4006f2d
:08420000fbd1704700200043d0
:020000040000fa
:10420800044a136843f002031360136913f0020fa2
:08421800fbd1704700380040a3
:020000040000fa
:1042200003783bb1034600bf13f8012f002afbd1ee
:08423000181a70471846704788
:020000040000fa
:10423800d0e90f2310b59c1a0165446511b18c4271
:08424800c8bf5318c36410bd88
:020000040000fa
:1042500010b4c46a1cb123465df8044b18470068cb
:084260005df8044b00f0f0b81a
:020000040000fa
:1042680037b54ff0ff344ff0ff35cde90045fff784
:06427800abfa03b030bdfb
:020000040000fa
:10427e0068076c094c836a9074a07ac000806888c5
:06428e0000846c82008137
:020000040000fa
:1042940010f0010f02d0024b01221a70704700bfc8
:0442a400d20800201c
:020000040000fa
:1042a80010f0010f02d0024b01221a70704700bfb4
:0442b800d308002007
:020000040000fa
:1042bc00214300009d4000008d0200008d02000093
:0442cc008d0200005f
:020000040000fa
:1042d00010b50c46fff7bcf80378e4b2a34218bf50
:0442e000002010bded
:020000040000fa
:1042e40037b500244ff00045cde90045fff76efadd
:0442f40003b030bd26
:020000040000fa
:1042f80032b1c9b20244034603f8011b9342fbd111
:04430800704700bf3b
:020000040000fa
:10430c00034600bf11f8012b184603f8012b002ab5
:04431c00f8d170471d
:020000040000fa
:104320000a440023914201d10020704701f8013b6b
:02433000f8e7ac
:020000040000fa
:10433400024b187ec0f34000704700bf00340040b9
:020000040000fa
:10434400024b40f204521a80704700bf0040004103
:020000040000fa
:10435400494e4600696e66004e414e006e616e0025
:020000040000fa
:10436400494e4600696e66004e414e006e616e0015
:020000040000fa
:1043740008b5fff7a0fefff79efefff79cfe08bd01
:020000040000fa
:0e438400a0f14103192b98bf40f020007047b4
:020000040000fa
:0e439200a0f16103192b98bf00f05f00704787
:020000040000fa
:0c43a000014bb3f840007047001c0043c4
:020000040000fa
:0c43ac00014b1860596070479c0800200d
:020000040000fa
:0c43b800014b186059607047a4080020f9
:020000040000fa
:0c43c400014bd8601961704750080020c0
:020000040000fa
:0c43d000014b58629962704750080020b1
:020000040000fa
:0c43dc00014bb3f8400070470020004384
:020000040000fa
:0c43e800014b186059607047ac080020c1
:020000040000fa
:0c43f400014b186059607047b4080020ad
:020000040000fa
:0c440000014b01221a707047d708002001
:020000040000fa
:0c440c00014b01221a707047d4080020f8
:020000040000fa
:0c44180010b50446fff7aef9204610bdb9
:020000040000fa
:0c44240010b50446fff770ff204610bde5
:020000040000fa
:08443000286e696c29002500cb
:020000040000fa
:0844380083f00043fdf740bcd6
:020000040000fa
:07444000286e756c6c290069
:020000040000fa
:064448004ff0ff30704749
:020000040000fa
:04444e000020704793
:020000040000fa
:04445200fff78fbb26
:020000040000fa
:04445800704700bfea
:020000040000fa
:0200000400807a
:044000003912003c35
:020000040000fa
:0200000400807a
:044004008000a82a66
:020000040000fa
:0200000400807a
:04400800ffffffffb8
:00000001FF
